S00D00004F70746967612E73333783
S3150800000000100020BD1B00087F9000087F900008A4
S315080000107F9000087F9000087F9000087F90000876
S315080000207F9000087F9000087F9000086102000812
S315080000307F9000087F900008F1010008839500086A
S315080000407F9000087F9000087F9000087F90000846
S315080000507F9000087F9000087F9000087F90000836
S315080000607F90000835050008C98A00087F900008B7
S315080000707F9000087F9000087F9000087F90000816
S315080000807F9000087F9000087F9000087F90000806
S315080000907F9000087F900008612400087F90000880
S315080000A07F9000087F9000087F9000087F900008E6
S315080000B07F9000087F9000087F9000087F900008D6
S315080000C07F9000087F9000087F9000087F900008C6
S315080000D07F9000087F9000087F9000087F900008B6
S315080000E07F9000087F9000087F9000087F900008A6
S315080000F07F9000087F9000087F9000087F90000896
S315080001007F9000087F9000087F9000087F90000885
S315080001107F9000087F9000087F9000087F90000875
S315080001207F9000087F9000087F9000087F90000865
S315080001307F9000087F9000087F9000087F90000855
S315080001407F9000087F9000087F9000087F90000845
S315080001507F9000087F900008319500087F9000087E
S315080001607F9000087F9000087F9000087F90000825
S31508000170013800D0FCE770470000000000000000CE
S315080001800B4A1168086806C881F30B88022181F3B7
S315080001901488203080F30988BFF36F8F4FF0000072
S315080001A080F31188104700BFAFF30080AFF30080DB
S315080001B0FC240020000000000000000000000000F1
S315080001C007480068006880F3088862B661B6BFF31E
S315080001D04F8FBFF36F8F02DF00BF00BFAFF3008002
S315080001E008ED00E00000000000000000000000002C
S315080001F0EFF309801EF0100F08BF20ED108AEFF309
S315080002000B82734620E9FC0F114A116808604FF00B
S31508000210300080F31188BFF34F8FBFF36F8F07F05D
S3150800022027F84FF0000080F31188094A116808681A
S31508000230B0E8FC0F13F0100F08BFB0EC108A82F379
S315080002400B8880F309881847AFF30080AFF3008066
S31508000250FC24002000000000000000000000000050
S315080002601EF0040F0CBFEFF30880EFF30980044972
S31508000270084700BFAFF30080AFF30080AFF30080FC
S31508000280E57A00080348044B834202D0034B03B1C6
S3150800029018477047CC2C0020CC2C0020000000000A
S315080002A0064B0749C91A891048BF0131491003D0BE
S315080002B0044B0BB101481847704700BFCC2C0020EF
S315080002C0CC2C00200000000010B5064C237843B95A
S315080002D0FFF7D8FF044B13B10448AFF3008001239E
S315080002E0237010BDD02600200000000098AB00083F
S315080002F008B5054B1BB105490548AFF30080BDE8B5
S315080003000840FFF7CDBF00BF000000000010002026
S3150800031098AB0008A3F5803A704700BF174B002B2F
S3150800032008BF134B9D46FFF7F5FF00218B460F4686
S315080003301348144A121A09F04DFB0E4B002B00D035
S3150800034098470D4B002B00D0984700200021040049
S315080003500D000D48002802D00C48AFF3008007F0C6
S31508000360BDFF2000290000F013F807F0C5FD00BF07
S315080003700000080000000000000000000010002037
S3150800038000100020E8270020000000000000000000
S3150800039008B509F0E7F808F07DFB064807F072FE95
S315080003A000F0E0F8044807F06DFE09F0E8F80020D0
S315080003B008BD00BF389F0008459F000810B54FF4D8
S315080003C080301F491F4A4B6E5066486E4FF00041F9
S315080003D04AF6CD3451661C4903F480334A6C0C64E2
S315080003E002F001024C6BE407FCD4012417494C6067
S315080003F0A1F500510C6BE407FCD50AB1144A0A644E
S315080004000028A2BF4FF00041124A51661BB94FF4AB
S315080004108032104B5A6608F04EFF01F0BBFB08F01D
S3150800042048FF04F05BFA08F0D7FE04F06DFA04F012
S31508000430E3FF01F0A5FBBDE8104005F0F9BD00BFDC
S31508000440008000500090005000400950006009509C
S315080004503254FFFF00A0005008B5044808F0C3FE58
S31508000460BDE80840024801F033BD00BF0CA50008EE
S31508000470E827002030B595B0204D0DAC0FCD0FC440
S3150800048095E80700292384E80700092500210A249E
S315080004901B4A0DF12600CDE902230E22CDE90411EF
S315080004A006918DF813408DF8115009F093FA4FF420
S315080004B08021144B1448CDE90713144B0DAA0A934F
S315080004C020230B9301238DF83130114B07A9009394
S315080004D002AB8DF825408DF8245004F081FE0446C1
S315080004E018B188210B4808F0DEFD00214FF4E130F1
S315080004F008F0B6FD204615B030BD00BF809F000845
S3150800050000C0055024C0055060110020D1260020E7
S3150800051018100020519F000808B5FFF7ABFF28B157
S31508000520BDE80840B821024808F0BDBD08BD00BFB7
S31508000530519F0008014804F00FBF00BF601100205A
S3150800054010B50C46044807F09DFD044B04481C8072
S31508000550BDE8104007F096BD9C9F0008CC260020F9
S31508000560C59F000838B51E4C1E4A1F491F4800F093
S31508000570CFFC226882B910461D4901F0E3FA2060D3
S3150800058050B91C4807F07EFD012422461A49164830
S31508000590BDE8384000F0E2BC184807F073FD0123B7
S315080005A0174D206800212B8008F0FCFC044640B15A
S315080005B00C4A1449144800F0ABFCE6E70A2008F098
S315080005C0AFFA2B889BB2012BF8D02B889BB223B1AC
S315080005D0044A0C490D4800F09BFC00220149D6E765
S315080005E080110020EC9F0008F19F000880A00008F9
S315080005F04105000806A000087AA0000828A00008FF
S31508000600CC26002040A0000849A0000867A00008E2
S3150800061038B5B0B10368A3B11C785D68032C05D85A
S31508000620084B33F81430EB40DB0704D440F22D4175
S31508000630054808F038FD302301225C43034BAA40E5
S315080006401A5138BDECA0000894A0000840D0035009
S3150800065038B5B0B10368A3B11C785D68032C05D81A
S31508000660084B33F81430EB40DB0704D440F2FE3174
S31508000670054808F018FD302301225C43034BAA40C5
S315080006801A5138BDECA0000894A0000840E00350B9
S3150800069030B587B0054D01AC0FCD0FC42B6801A846
S315080006A0236001F015FC002007B030BDF4A0000857
S315080006B07FB5084B4FF0B640CDE9013101A9ADF839
S315080006C00C2001F0A9FC003818BF012007B05DF81E
S315080006D004FB00BF6000010070B58AB0144B01AC82
S315080006E00E4615460FCB84E80F000021114B05AACC
S315080006F01868059106F054FA012817D10E4B01988F
S315080007001C609DF8103005A95B0043F00103ADF8A5
S31508000710143002230696ADF81630ADF81C5001F0D9
S315080007207BFC003818BF01200AB070BD0120FBE72A
S3150800073008A1000884110020881100202DE9FF4136
S3150800074000266C461D4F05468846224631463868BF
S31508000750009606F025FA012828D1194B0FCB84E814
S315080007600F002E2002F034FAB8F5C87F28BF4FF4E0
S31508000770C8784FEA8803591E0144B1FBF3F1B1F575
S31508000780807F28BF4FF48071B0FBF1F021460290BC
S315080007904FF0B64003F090FAAB685BB900252146E6
S315080007A03868009506F072F8284600E0022004B082
S315080007B0BDE8F081314668689847EFE78411002064
S315080007C018A1000870B50C46074E8D18AC4204D126
S315080007D0064807F057FC002070BD304614F8011B88
S315080007E007F050FCF2E700BF28A100083EA0000869
S315080007F010B5222813460ED033280FD011280FD152
S31508000800402A0DD80024074804704370023009F0C6
S31508000810FBF8002010BD04481C0AF5E70348FBE76F
S315080008200120F7E77C2C0020FB260020F12600207B
S3150800083038B50346222B0846154612D0332B17D057
S31508000840112B17D10D490C8864BAA4B2402C01D9D2
S31508000850012038BD2246023109F0D6F800202C8046
S31508000860F7E7074931F8024B64BAA4B22246F3E720
S315080008700449F7E700231380EAE700BF7C2C002031
S31508000880FB260020F126002010B51C46064B5961B0
S315080008901A6006F0CBFB4FF47A73B4FBF3F4034B00
S315080008A004441C6010BD00BF98110020941100205C
S315080008B008B50A46014618B112B1024808F00DF902
S315080008C0004808BD981100200C210268C37E01FB70
S315080008D003230021C3F824164FF0FF31C3F8281666
S315080008E04FF48071A3F82C16D2F86C06014908F06B
S315080008F0F4B800BF190C00082DE9F341044611B1FC
S3150800090004238183837501230E274FF00B08A27DEC
S31508000910042A00F27A81DFE812F005003200570057
S31508000920C4007201E57D012D0AD0022D1CD095B9AF
S315080009302121204608F013F90123A583E37540E039
S3150800094023682146186808F025FB2368186801F013
S31508000950A7F8A08330B10423A37540F20223A3832A
S315080009600023D4E70223E9E7322320682246A9496F
S31508000970D0F86C06FFF788FF40F6021383E0E37DA4
S31508000980032B08D0042BE6D100212369E06802B0C6
S31508000990BDE8F04118470423E37523682146186823
S315080009A0D3F86C36036008F0F5FA2368186801F086
S315080009B0AFF80546A0830028CDD12046FFF784FF6F
S315080009C0A58302B0BDE8F0810C264FF48075082097
S315080009D06168E37D5A1F042ABDD8DFE802F00303E5
S315080009E00E161800052B0CBF22212121204608F0DF
S315080009F0B6F80023A3830923A0E7E27E236806FB53
S31508000A000233A3F82C56E075E3E72321EEE72046E8
S31508000A108847A08310B10423A375A1E740F21562A5
S31508000A2023682146DA80186808F0B4FA2068811D20
S31508000A30828800F10D0300910068194601F04CF810
S31508000A40A083002887D140F60323E382A37E63F0C0
S31508000A507F03A376B5E794F91A206368002ADADAE1
S31508000A6020469847A08398BB94F82030F12B0CD1E8
S31508000A7020684FF47A7322466649D0F86C06FFF769
S31508000A8003FF40F20133E3829BE7237EE3B9E37D6C
S31508000A900D3B012B01D90C23E375A37D032B7FF4B2
S31508000AA05FAFE37D0A3B042B3FF655AF01A252F830
S31508000AB023F000BF570A0008EF0A0008F50B0008E4
S31508000AC0E10B0008050C00084FF47A7320684DE71F
S31508000AD0B0F5017FDFD0E37D0D2BDED00B23E37568
S31508000AE0A37E23F0030343F00103A376D5E7A67E8E
S31508000AF0256806F00306022E39D0032E51D0012EA2
S31508000B0003D04FF40043A3835BE74FF2C21105F10C
S31508000B10110008F05AF820680021133008F055F83B
S31508000B2020683146153008F050F800222368394904
S31508000B309A73DA7306225E731A740A2320682246A9
S31508000B408380A37E23F0030343F00203A376D0F841
S31508000B506C064FF47A73FFF797FE4FF40043A383AE
S31508000B60A37E03F00303032B7FF42BAF53E740F276
S31508000B7015632E46214656F80D0BEB8008F00AFA47
S31508000B80AB1DAA88009331463346286800F0A4FFB7
S31508000B9018BBA37EA08323F0030343F00303A376C5
S31508000BA00FE76B7BFF2B03D14FF40043A38332E798
S31508000BB040F603236E7CE38222464FF47A73154986
S31508000BC0D5F86C06FFF760FE6FEA46436FEA5343B3
S31508000BD0A383002E7FF4F5AEC2E740F20223E5E7D1
S31508000BE0204607F09FFFA38B002B3FF454AF84F8F1
S31508000BF0178075E72046FFF767FEE7754DE720463D
S31508000C00FFF762FE2369A18BC0E6002B3FF4A8AE6E
S31508000C10D7E600BFC58B00082DE9F14F022209214E
S31508000C200446D0F86C8607F087FF20B908222046CC
S31508000C3007F082FF60B104220921204607F07CFFF5
S31508000C4001280FD123220821204607F075FF48B155
S31508000C504FF47A7322464046464901B0BDE8F04F44
S31508000C60FFF712BE404607F035FF4FF0FF374FF04B
S31508000C70000B2546D946FF2608220921204607F0FB
S31508000C805BFF01285FFA8BFA09D10C2303FB0B42A1
S31508000C90B2F82C1640F62302914223D11FE095F8AC
S31508000CA02D26022A1ED1D5F82826D4F870168A428F
S31508000CB02CD3BA4216D895F82C26222A08D095F8AD
S31508000CC02C26222A1ED1D5F82426928A3AB909E07A
S31508000CD004F1080007F07DFFB0F1103FEFD2564649
S31508000CE0D5F828760BF1010BBBF1060F05F10C05BB
S31508000CF0C2D1FF2E11D1B9F1000FA9D00023C4F833
S31508000D007036B4E702F0FD02212AC6E74FF0010962
S31508000D10E8E70133042B0DD117E00C2303FB064348
S31508000D2093F82C26222A10D1D3F824168B8A63B975
S31508000D300A680832104605780132102DE9D0DBB270
S31508000D4043F461438B82102303700C2505FB06458B
S31508000D50D5F82426322310680749D0F86C06FFF721
S31508000D6093FD042385F82D36C4F8707601B0BDE8E6
S31508000D70F08F00BF190C0008C58B000813B5837DDA
S31508000D800446022B04D0032B54D040F202204DE037
S31508000D90437E0168CBB1C08B50B108230DF1060222
S31508000DA001F27461ADF80630FFF742FD0028ECD178
S31508000DB0206800F2746007F00CFF30B9206800F56F
S31508000DC0CF6007F006FF0028DFD0627E2368002A7E
S31508000DD09A730CBF10211821F02000221974DA73B7
S31508000DE05873206810221849113007F08CFE637E6C
S31508000DF043B12068082200F27461213007F083FEAF
S31508000E00637EABB91423206808228380002100F290
S31508000E10746007F07AFEE08B38B12168082201F287
S31508000E207461FFF7E5FC0028AFD1002002B010BDC1
S31508000E301C23E8E703685B7B002BF6D0837E03F070
S31508000E407F038376A1E700BF2BA10008F8B5044607
S31508000E500F46164607F04FFE2CBB214D22460921A8
S31508000E60284607F069FEF0B12421012007F047FE65
S31508000E700446C0B13323C0E903670560C3832B7BEF
S31508000E80DBB929461748FFF713FD2146C5F86C0656
S31508000E901548256800F0F0FD236828601A683AB9F5
S31508000EA0204607F02EFE002407F027FE2046F8BD50
S31508000EB001211973D3F86C36136000230C252268B8
S31508000EC002F22D6005FB03F1465C2EB9E376012399
S31508000ED00A4482F82D36E7E70133062BF2D1E3E719
S31508000EE0B0110020190C0008F908000810B5826036
S31508000EF0064A00244260F022C482047641760284BF
S31508000F002146FFF7F9FC204610BD00BF7D0D0008FD
S31508000F1010B5E8B040F60D240B46ADF80C40A8B164
S31508000F20A3B19AB10A49CDE900010A4904A807F014
S31508000F306FF904A808F075FD04A902460648FFF7EC
S31508000F4041FC0222044803A9FFF73CFC68B010BD27
S31508000F50EC9F00083BA100088C1100202DE9F04108
S31508000F60ADF5087D002440F60D2306460F4690464B
S31508000F702146102207A8CDE90344ADF80830ADF89C
S31508000F801440069408F026FD602221460CA806ADFA
S31508000F900B9408F01FFD2EB327B331460BA8B8F102
S31508000FA0000F23D108F01EFD18490BA808F01AFDFA
S31508000FB01749284608F016FD164B3A461649CDE954
S31508000FC0005324A80BAB07F023F924A808F029FD41
S31508000FD024A902461148FFF7F5FB02220F4802A989
S31508000FE0FFF7F0FB0DF5087DBDE8F08108F0FAFC87
S31508000FF00B490BA808F0F6FC2846054908F0F2FC50
S31508001000404603A907F0E8FDD3E700BF44A100085E
S315080010103FA00008EC9F00083BA100088C110020A7
S315080010204BA1000838B590F8CA33044613F0FD0FF3
S315080010302DD190F8C923B22A1AD0B32A2AD0B12AB8
S3150800104035D11BB9D0F87401FFF702FBD4F8780143
S31508001050FFF7FEFAB22384F8C9334FF4FA6322463F
S315080010601449D4F89001FFF70FFC0025284638BD2F
S315080010701BB9D0F87401FFF7CBFAD4F87801FFF75B
S31508001080C7FAB32384F8C93342F6E063E7E70123D6
S3150800109080F87331084900F0D7FC05460028E4D0EB
S315080010A0002329461A46204607F0BDFDDEE74FF421
S315080010B08175F5E725100008278C00082DE9F04F03
S315080010C085B0B1F5837F1E4604468946924690F858
S315080010D0403016D000252F46A846AB460195029506
S315080010E0013B0A2B00F24781DFE813F012001700D4
S315080010F02C00D100EB00E50045012001C800540092
S315080011008C00012B40F0128101210023656B30E130
S31508001110B9F1000FF8D10221F7E7B9F5817F14D0AC
S3150800112007F0FCFC0323206384F84030204607F0D0
S31508001130C8FE002800F0E580062384F8403094F8BD
S315080011404030CDE7B9F5817F01D10523F5E7042EB7
S31508001150F2D99AF80030504603F0030202920AEBDD
S31508001160060212F8021C12F8012C0393C3F3411865
S31508001170C3F3810B42EA0123B11E89B2019307F03A
S31508001180C1FDBAF80170039B7FBADB090546BFB2F9
S315080011900A33D2E7019BAB42CED1002FCCD07B1DC0
S315080011A09E42C9D1A8F10203012BC5D994F8423051
S315080011B0013303F003039B450BD0092384F8403021
S315080011C000231A461946204605B0BDE8F04F07F039
S315080011D0B4BD94F84130029A934201D00923ACE792
S315080011E0B8F1010FB1D032465146E06A84F842B0F0
S315080011F008F00AFC00230422E68784F8443084F8C1
S315080012004020DEE7A8F102014B4294F843204B4107
S315080012109A4202D04FF009038FE7019BAB4294D163
S31508001220052EDBD8002FD9D1B8F1020F0AD1012338
S3150800123084F8463040F20933A4F84030032384F892
S3150800124042307CE7BBF1000FC8D1B8F1030FC5D017
S3150800125094F84130029A9342C0D1B8F1010F3FF495
S3150800126074AF01235A4684F8403002215B46656B09
S315080012702046AC4605B0BDE8F04F6047032320463C
S3150800128084F8403005B0BDE8F04F07F01ABEB9F54E
S31508001290817F3FF45AAF012384F84030E38FE26A36
S315080012A094F84310053B656B03329BB209B10421E0
S315080012B0DEE70621DCE70223012284F8403000231A
S315080012C080E707F02BFC2369C01A2D4B984225D8D6
S315080012D094F84420032A17D10121002384F84610E4
S315080012E040F2053184F84220A4F84010022219463B
S315080012F084F84430204607F020FD90B1062384F890
S31508001300403005B0BDE8F08F0223013284F844204E
S3150800131084F8403000220123A18FEBE74FF0080341
S315080013200BE794F84030082BEBD108E794F84630E1
S315080013300121BBB984F8451040F20533A4F84030C2
S31508001340032384F84230002384F846100222194603
S31508001350204607F0F2FC082384F84030002384F87E
S315080013604530CEE794F84530002BE5D1656B84F817
S3150800137040101A467CE7012184F84010C5E600BFF4
S315080013801FBF020038B500230D4680F840300D49CE
S31508001390044600F005FA90B940F20133A4F840304B
S315080013A0032384F8423004F5CD73A36204F52C7345
S315080013B0656384F8460084F84500E36238BD4FF457
S315080013C08170FBE7BD10000810B590F84030044660
S315080013D0012B11D1032280F84020002280F84330E7
S315080013E080F8442007F09AFB054B2063A363204648
S315080013F0BDE8104007F065BD4FF4817010BD00BF11
S3150800140020BF0200084B80F85810036540F201130C
S31508001410A0F85420A0F86E3100F158010122D0F846
S315080014207C01FFF745B900BFC800010038B50023A5
S315080014300446D0F87C0185688360FFF77FF9D4F805
S315080014407C319D6070B1B4F850305A1EA4F8502013
S315080014504BB1D4F890014FF47A7322460349FFF74B
S3150800146013FA012038BD4FF48170FBE771140008A8
S3150800147037B54FF481710446B0F896315BBAADF8CA
S31508001480043094F87231662B70D010D8332B3FD0C5
S3150800149007D8112B00F08480222B00F0888003B037
S315080014A030BD442B3DD0552BF9D1662331E0AA2B0C
S315080014B000F0838011D8772B63D0882BEFD1AA232D
S315080014C084F87231B4F85830B4F896015BBA9AB217
S315080014D09042D6D3A4F8963109E0BB2BDFD164211C
S315080014E02046FFF7A3FF20B9332384F87231002181
S315080014F0C7E7B0F5817FD2D1AA23224684F8723194
S31508001500344942F6E063D4F89001FFF7BDF9C6E71F
S3150800151044230422842184F872312046FFF772FF9F
S31508001520BDE78022B4F85A308DF80020B4F894212B
S315080015305BBAB2F5C87F9BB20FD9B3F5C87F11D88D
S3150800154004238DF801305523022284F8723189214B
S315080015506B46204607F057FCA1E7B3F5C87F01D9CB
S315080015600323EEE7662384F872318AE7B4F85A3023
S31508001570B4F894215BBA9BB29A428CBFAA2377230C
S31508001580F1E72046B4F89411FFF750FF08B9112384
S31508001590ABE7B0F5817F82D1AA2384F872317EE762
S315080015A02223022284F87231812101ABD1E78823F4
S315080015B00222812184F87231AFE7B1FA81F35B091F
S315080015C05B0084F87131002320461A46E56CA8476B
S315080015D065E700BF7114000813B50023ADF80430A1
S315080015E090F87331993B0A2B0ED8DFE803F0060D05
S315080015F00D0D0D0D0D0D340F2800A2230422822196
S3150800160080F87331FFF7FEFE02B010BD90F858302F
S3150800161003F0080380F8583043B1A323022280F868
S315080016207331882101AB07F0EEFBEDE702224FF498
S31508001630817180F87121C46C1A46A047E4E7A1239A
S31508001640024680F87331074942F6E063D0F8900104
S31508001650FFF71AF9D8E7012380F87131FFF708FF79
S31508001660D2E700BFD915000870B590F87131044665
S31508001670013B042B66D8DFE803F0070B1957030074
S31508001680BDE87040FFF7A8BFBDE87040FFF7F0BEA1
S31508001690032380F8713190F87031022B06D10422A9
S315080016A082212046BDE87040FFF7ACBE94F8703141
S315080016B0022B11D194F858305B061BD5B4F85A2082
S315080016C0C2B1B4F8963152BA92B2934212D30423F5
S315080016D0802184F87131E4E7012B0BD1042384F8C7
S315080016E071312046A36CB4F856208021BDE87040BD
S315080016F007F089BB07F012FA236BC01AA36B98424E
S3150800170009D22246D4F8900141F28833BDE87040E8
S315080017100D49FFF7B9B8022384F8713100234FF455
S3150800172081711A46E56C08E00223002180F87131C0
S31508001730C56CB0F8543000F158022046AC46BDE8F6
S31508001740704060470123E7E7FF8D000810B40246A2
S31508001750E1B1013901291CD8B0F85030591EA0F85A
S31508001760501043B14FF47A730B49D2F890015DF8E3
S31508001770044BFFF789B80221C46C80F87111A4469E
S315080017801A464FF483715DF8044B604732230349C8
S31508001790EBE75DF8044B70473F8E00086D8E000836
S315080017A010B5002380F87131BB230446C16480F864
S315080017B0723194F8C633D0F87C010373104B8360FA
S315080017C0C823A4F8503094F8CB33012B0BD094F8E7
S315080017D07331012B0ED00123204684F87131FFF7AF
S315080017E043FF002010BDFEF753FF0028EFD04FF44B
S315080017F08170F7E7992384F873310523ECE700BF76
S315080018004D1700082DE9F74F002601F00109044697
S31508001810884617461D46B346CA461FB197F800B014
S315080018200BF007065346BAF1000F1AD1002D7DD1E9
S31508001830002284F82520A27F013A072A00F2FA80BE
S31508001840DFE812F015001F00F8004900A700F600AF
S31508001850E300CC000623A3774FF48173A383012307
S3150800186064E00622A2774FF48172A283DEE70023A2
S315080018701A461946E5682046AC4603B0BDE8F04F5F
S31508001880604718F0020F09D0228BE38A9A420DD2DC
S31508001890072E02D10823A377BFE70DB10623FAE77F
S315080018A0204603B0BDE8F04F07F01BBB0423A3771F
S315080018B00023A38284F82130012318F0040F84F84A
S315080018C02230AAD12046FFF77FFD08B10623A37769
S315080018D003B0BDE8F08F18F0040FDFD0002DDDD07F
S315080018E0A38BB3F5827F08D1042ED7D02046FFF705
S315080018F06BFD0028D2D10423E9E79723F340DB07E1
S3150800190094F82120C6D54F4B13F81610914204D0EF
S3150800191003EB46035B789342BCD184F821609FB9F8
S31508001920B9F1000F96D10623A377002394F8252052
S31508001930002A7FF47DAFBBF1070F81BF0622A2778D
S315080019404FF48172A28373E716F0030602D00523CB
S31508001950A37763E7A08AA26843191288013B9342DA
S3150800196004DD4FF48273A3830623F1E76368013D20
S315080019702A46791C184408F047F80122A38AA27758
S315080019801D44A268ABB2A38231461380E56862683B
S3150800199071E7628B531C9D4201D007237BE7A08A1F
S315080019A0A16843190988013B8B4204DD4FF4827311
S315080019B0A38304236FE7002FB2D06368791C184409
S315080019C0019208F021F8A38A019A0BF0070B1A4432
S315080019D00423A28284F821B0A37773E7012D03D9E3
S315080019E094F82230012BD8D0E37F5A1CE277002BDB
S315080019F07FF454AF2383A38202232046A37707F0FC
S31508001A0070FA00287FF44AAF62E70223A37794F8B6
S31508001A1020305A1C84F82020002B7FF43FAF072281
S31508001A200121204684F89D21A38207F0CDF9E8E735
S31508001A302B4301D00123A3770023E5681A46A18B1F
S31508001A4019E700BF67A1000838B500230D4683775C
S31508001A5008490446FFF796FC48B9012384F825305F
S31508001A60A377B4F89631E560063B638338BD4FF437
S31508001A708170FBE705180008F8B5084D07462C7C69
S31508001A800E4634B907F022F828B90123C5E90267DA
S31508001A902B740248F8BD2046FCE700BFF02B002057
S31508001AA010B5044698B1437C012B10D0012343742A
S31508001AB04068084BC0F88441C0F880312368C0F8F4
S31508001AC0903107F0C7F808B10023637410BD4FF4CE
S31508001AD08170FBE7858F000837B5044698B1407CCE
S31508001AE0012810D00120094D60746068C0F8805143
S31508001AF0069DC0F88441009507F0C9F808B100238F
S31508001B00637403B030BD4FF48170FAE7858F00081F
S31508001B1010B5044680B1437C012B0DD001234374D4
S31508001B204068074BC0F88441C0F8803107F0C8F810
S31508001B3008B10023637410BD4FF48170FBE700BF42
S31508001B40858F0008F8B5064617460D4699B1242133
S31508001B50012006F0D4FF044668B100230246C0E916
S31508001B600675038405493046FFF770F9606118B9B0
S31508001B70204606F0C6FF00242046F8BD9B8F0008C5
S31508001B8008B5034807F02FFBBDE8084006F083BFF9
S31508001B900CA50008014807F026BB00BF0CA50008E5
S31508001BA00348044A0449121A921007F069BA00BF9A
S31508001BB07001000870010008E827002008B500F049
S31508001BC02FF8FFF7EDFF124B12498B4212D3002074
S31508001BD0114B12498B4218D3FEF7A0FB186850F830
S31508001BE02240586840F82240013298688242F5D36C
S31508001BF00C33EAE70022F8E71C6844F822000132B1
S31508001C005C68A242F8D30833E4E70022F8E700BF8D
S31508001C10A0AB0008ACAB0008ACAB0008ACAB000846
S31508001C2070B54FF48041124B124A134D9A60D3F89F
S31508001C30882005F5005442F47002C3F888200F4A3C
S31508001C4091664FF0FF3222660D4A62660222C3F899
S31508001C50D020BFF34F8FBFF36F8F4FF4403600206D
S31508001C6002F09CFE0020E66002F07EFE2E6170BD4A
S31508001C7000ED00E0000000080080004400900050DD
S31508001C807FFF7F01014B1868704700BF082C0020B2
S31508001C90014B1860704700BF082C0020084B1B6FCB
S31508001CA003F00703022B04D0032B05D0012B05D024
S31508001CB0FEE7044B18687047034BFBE70348704779
S31508001CC000800050082C0020102C0020002D310127
S31508001CD008B5FFF7E3FF054B1B6FC3F30333013367
S31508001CE0B0FBF3F0024B186008BD00BF008000503F
S31508001CF0042C00200048704700B4C404014B18683F
S31508001D00704700BF102C0020054B1860054B1B6F51
S31508001D1003F00703032B01D1FFF7DABF704700BFB3
S31508001D20102C00200080005000487047002D31011B
S31508001D304FF0B4439868C0F304400C280AD8DFE88B
S31508001D4000F00B0909090909072119091B1D1F00BC
S31508001D500F487047002070479B6803F04073B3F143
S31508001D60807F11D0B3F1007F10D00A4A002B08BF3C
S31508001D701046704708487047084870470848704733
S31508001D800848704708487047084870470848704729
S31508001D90405DC60000093D00C0EA210180BA8C01F9
S31508001DA00048E801005A62020024F40080841E00FC
S31508001DB040420F00014B1868704700BF0C2C0020EA
S31508001DC013B500242948019407F00DFA01230422CB
S31508001DD00321204601F086FE204607F0F7F9012286
S31508001DE0234B0520C3F8442401A907F0F7F9002876
S31508001DF039D1204BD3F8F02042F00102C3F8F02085
S31508001E00D3F8FC2042F08072C3F8FC201A4AA3F5E6
S31508001E105D431A60019B194A03F5D52303F2FC4377
S31508001E20B3FBF2F3164A013B13610223C2F8F03002
S31508001E304FF48073C2F804334FF06043114AC3F875
S31508001E40B02F114AC3F8802ED3F8002E42F48072C0
S31508001E50C3F8002EFF2283F82020D3F8002E22F4A0
S31508001E608072C3F8002E02B010BD00BF0CA5000892
S31508001E7000D0035000ED00E0FF030040F8590D00C4
S31508001E80000004E055CEACC50900010030B54FF09E
S31508001E906043D3F8802ED20715D501240B4D844014
S31508001EA0D5F8FC2042F08072C5F8FC20D3F8002E45
S31508001EB02243C3F8002E53F82020002AF0D003F856
S31508001EC02010002030BD1120FCE700BF00ED00E027
S31508001ED02DE9F04F85B0044618B9AD21464807F0FC
S31508001EE0E2F82368B3F1B64F07D0444A93427BD150
S31508001EF0434807F078F9012503E0424807F073F9EB
S31508001F00002501230A22A179207901F0EBFD01239E
S31508001F100A22E179607901F0E5FD4FF00A08DFF859
S31508001F20F090DFF8F0A0384F267994F806B0032E23
S31508001F3005D83AF8163023FA0BF3DA0704D440F238
S31508001F40FE31484607F0AFF83022012302FB067639
S31508001F5003FA0BF306F501563360642004F03CF8E7
S31508001F60267994F806B0032E06D8284B33F816308F
S31508001F7023FA0BF3DB0704D440F22D41484607F059
S31508001F8092F83022012302FB067603FA0BF306F5D4
S31508001F9082566420336004F01FF8B8F10108C3D1F3
S31508001FA0032307EB0512C2F83835A179237954358E
S31508001FB043EA0143C2F83C35E27963792D0143EAE5
S31508001FC002437B5140F20113ADF80030E3686946DD
S31508001FD00293A36820680193237C8DF80C3001F0E6
S31508001FE06BFE05B0BDE8F08FD221034805B0BDE809
S31508001FF0F04F07F058B800BF77A1000800800650D8
S3150800200004A5000808A5000800C00350DAA10008C6
S3150800201094A00008DAA1000838B5054601F09CFF2F
S31508002020044C012801D1013C00D138BD284601F0F5
S3150800203075FEF6E7E19304002DE9F04F85B09A4660
S31508002040554B06461B780F461546DDF83C909DF81D
S3150800205044B0DDF85080002B00F09780072A00F284
S3150800206096800E9B002B00F09280B9F1000F00F0CD
S315080020708E80129BB3F5006F00F38980012803D187
S31508002080109B002B00F08380444B03EB05131B7B4E
S31508002090002B7ED0424C10220021684607F09AFC9D
S315080020A004EB45141022A7BB3946204607F092FCDC
S315080020B043F210036380BBF1000F03D1E37843F0CA
S315080020C00303E370364A0E9B02EB451CCCE90193E9
S315080020D0129B6901581E9DF84C30C0F30A0003F0A4
S315080020E003039B0643EA001E53582E48012E00EAB6
S315080020F003004EEA0003CDF800A0535017D0B8F1FC
S31508002100000F2ED19CF8023068F304138CF80230C5
S3150800211027E00021204607F05DFC4FF444736380F6
S31508002120BBF1000FCED1E37843F03003C9E71323A0
S315080021300CF1100ECCF80C309CE80F008EE80F005E
S315080021406FF00301DCF81C20109B61F39F02012F3E
S31508002150CCF81C20CCF8143003D1CCF81890CCF865
S31508002160043000270D4A290102EB051342F80180C5
S31508002170159A28465A60694622469F605E7301F0A2
S31508002180C7FF384605B0BDE8F08F0748FAE70748A5
S31508002190F8E70748F6E700BF3F2700202C1900207C
S315080021A02C1800200F80FFF3028000F0018000F059
S315080021B0078000F038B5124B05461B78DBB1E0B155
S315080021C006F079FF0F4A00231146147B54B92B6099
S315080021D001251A0101EB03131D738C5006F071FFDC
S315080021E0204638BD0133082B02F11002EDD106F066
S315080021F068FF0548F5E70548F3E70548F1E700BF36
S315080022003F2700202C190020048000F0028000F0EF
S31508002210018000F038B506F04EFF002305460B4A4C
S31508002220147B6CB90133082B02F11002F8D101F0C6
S31508002230F1FE074B28461C7006F043FF204603E0D4
S31508002240284606F03EFF034838BD00BF2C1900207B
S315080022503F270020058000F010B50D4B04461B787B
S3150800226093B1072812D806F026FF0A4B03EB04138E
S315080022701A7B2AB100241C7306F023FF204610BDE2
S3150800228006F01FFF0448FAE70448F8E70448F6E7AB
S315080022903F2700202C190020068000F0028000F05D
S315080022A0018000F013B5154B1868002301908DF8CE
S315080022B0043006F000FF124B1C7824B106F001FF2B
S315080022C0104802B010BD01221A7006F0FAFE0E4B35
S315080022D001A81C731C7783F82C4083F83C4083F8CC
S315080022E04C4083F85C4083F86C4083F87C400823B4
S315080022F08DF8073001F0C4FE2046E2E7E2A10008A7
S315080023003F270020038000F02C19002008B50A4A50
S3150800231012785AB107280BD8084A02EB00131B7B20
S3150800232043B1002101F08CFE002008BD0448FCE7FB
S315080023300448FAE70448F8E73F2700202C1900204C
S31508002340028000F0018000F0078000F008B50A4A14
S3150800235012785AB107280BD8084A02EB00131B7BE0
S3150800236043B1012101F06CFE002008BD0448FCE7DA
S315080023700448FAE70448F8E73F2700202C1900200C
S31508002380028000F0018000F0078000F008B50A4AD4
S31508002390127852B107280AD8084A02EB00131B7BA9
S315080023A03BB101F03BFF002008BD0548FCE70548A6
S315080023B0FAE70548F8E700BF3F2700202C19002058
S315080023C0028000F0018000F0078000F00D4B1B78BA
S315080023D093B1072812D889B10B4B03EB00131B7B6B
S315080023E073B10A4B1A6D01238340134214BF0123AC
S315080023F0002300200B707047054870470548704752
S31508002400054870473F2700202C190020000004507B
S31508002410028000F0018000F0078000F010B50B4A3A
S315080024200C46127862B107280CD859B1084A02EB53
S3150800243000131B7B43B101F00DFF2070002010BD77
S315080024400448FCE70448FAE70448F8E73F27002071
S315080024502C190020028000F0018000F0078000F0AF
S315080024602DE9F041174B1F6D5B6D1F4000D5FEE748
S3150800247001260025144CDFF85880374218D0236807
S31508002480C8F85060A3B1A168284601316268A16006
S315080024909847637B012B0BD150B90C4B03EB4513C3
S315080024A01A7B60F341021A731A7F60F341021A77A6
S315080024B00135082D4FEA460604F11004DDD1BDE8C2
S315080024C0F08100BF000004502C1900202C180020B1
S315080024D000200450044BD3F88420D206FBD4D3F84A
S315080024E08400C0F3811070470040005008B5334B94
S315080024F098424FD027D8324B984245D017D8314BFF
S3150800250098423ED00AD838B12F4B984239D041F27A
S31508002510A6312E4806F0C7FD002034E02C4B984221
S315080025202FD02C4B9842F2D12B4B586E2BE02B4BCD
S3150800253098422CD003F5371303F5D8639842E6D1B1
S31508002540254B986F1FE0264B98422FD00CD8254B69
S31508002550984223D0244B984224D0244B9842D6D173
S315080025601D4BD3F884000EE0214B984222D003F588
S31508002570740303F510539842C9D1174BD3F8980042
S3150800258001E0154B986D08BD134B186FFBE7124B0E
S31508002590586FF8E7104BD3F88000F4E70E4BD3F8E2
S315080025A08800F0E70C4BD3F88C00ECE70A4BD3F81D
S315080025B09000E8E7084BD3F89400E4E780BA8C016A
S315080025C0405DC60080841E0040420F00E6A1000858
S315080025D000093D00C0CF6A000080E00F0024F40027
S315080025E0007E560380D54302006CDC020048E801F1
S315080025F00090D00338B51A4B0546D3F820010C468F
S3150800260000F00700062821D8DFE800F028040C149B
S3150800261010181C00FFF736FB052305B1286004B126
S31508002620236038BDFFF76AFB0323F6E7FFF780FB55
S315080026300723F2E7FFF778FB0223EEE7FFF722FB13
S315080026400623EAE7FFF75AFB0423E6E7054841F2C3
S315080026507C2106F028FD00231846DEE70123DCE787
S3150800266000800050E6A1000838B5194B0546D3F896
S3150800267028310C4603F00703013B052B20D8DFE879
S3150800268003F003131B0F0B17FFF7FCFA052305B11D
S31508002690286004B1236038BDFFF7F4FA0623F6E78D
S315080026A0FFF746FB0723F2E7FFF728FB0323EEE7CE
S315080026B0FFF724FB0423EAE7FFF736FB0223E6E7E6
S315080026C0044841F2840106F0EEFC00231846DEE7D2
S315080026D000800050E6A10008F7B50027144B0197C3
S315080026E0D3F88041064604F00304022C0D4614D0A4
S315080026F0032C0DD0012C14D1394601A8FFF77AFF17
S315080027000F240EB1019B336005B12C6003B0F0BDF8
S31508002710FFF70EFB07240190F3E7FFF705FB01908F
S31508002720EFE741F2D131034806F0BDFC3C46E8E745
S3150800273000800050E6A1000838B50F4B0546D3F8CF
S3150800274090320C4603F00303012B09D0022B0BD160
S31508002750FFF7EEFA072305B1286004B1236038BDF8
S31508002760FFF7E2FA0223F6E7044841F2701106F091
S315080027709AFC00231846EEE700800050E6A1000800
S3150800278037B500230193194B0546D3F820320C467A
S3150800279003F00703042B1FD8DFE803F025030F1403
S315080027A01900002101A8FFF75FFF11230DB1019A57
S315080027B02A6004B1236003B030BDFFF7B9FA0723D6
S315080027C00190F3E706F069FC0A230190EEE7FFF7AC
S315080027D0F1FA09230190E9E741F24301044806F0BA
S315080027E062FC0023E2E70123E0E700BF0080005017
S315080027F0E6A1000838B5104B0546D3F840310C461B
S3150800280003F00303022B0BD0032B0DD0012B0FD1A2
S3150800281006F043FC0A2305B1286004B1236038BDDD
S31508002820FFF7C8FA0923F6E706F03AFC0B23F2E7A6
S3150800283001230020EFE700BF0080005037B50023D2
S315080028400193184B0546D3F860320C4603F007038C
S31508002850013B032B1FD8DFE803F0020E19140021F1
S3150800286001A8FFF7C7FE0F230DB1019A2A6004B12C
S31508002870236003B030BD002101A8FFF7BBFF10237A
S31508002880F2E7FFF755FA07230190EDE7FFF74CFA51
S3150800289002230190E8E741F2E801034806F003FC49
S315080028A00023E1E700800050E6A1000873B5002484
S315080028B00F4B0194D3F87032064603F00303012B3D
S315080028C00D4607D0022B11D041F24611094806F0F1
S315080028D0EAFB04E0214601A8FFF78CFF10240EB19D
S315080028E0019B336005B12C6002B070BD1424F6E775
S315080028F000800050E6A1000838B5164B0546D3F807
S3150800290000020C4600F00700042819D8DFE800F09A
S3150800291020030B0F130006F0C0FB0A2305B128603D
S3150800292004B1236038BDFFF745FA0923F6E706F038
S31508002930B7FB0B23F2E7FFF7CBF90E23800AEDE787
S31508002940054841F28F4106F0AEFB00231846E5E73D
S315080029500123E3E700800050E6A1000838B5164BCE
S315080029600546D3F808020C4600F00700042819D8D3
S31508002970DFE800F020030B0F130006F08EFB0A2396
S3150800298005B1286004B1236038BDFFF713FA09239F
S31508002990F6E706F085FB0B23F2E7FFF799F90E2316
S315080029A0800AEDE7054841F2C74106F07CFB0023A3
S315080029B01846E5E70123E3E700800050E6A1000892
S315080029C038B5104B0546D3F840320C4603F00303DE
S315080029D0022B0BD0032B0DD0012B0FD106F05DFB7C
S315080029E00A2305B1286004B1236038BDFFF7E2F970
S315080029F00923F6E706F054FB0B23F2E70123002030
S31508002A00EFE700BF0080005038B5124B0546D3F8F3
S31508002A1050320C4603F00303022B0FD0032B05D0CC
S31508002A20012B0FD106F039FB0A2302E006F038FB2A
S31508002A300B2305B1286004B1236038BDFFF7BAF946
S31508002A400923F6E7044841F2B40106F02CFB0023FB
S31508002A501846EEE700800050E6A1000838B5104B8E
S31508002A600546D3F860310C4603F00303022B0BD05E
S31508002A70032B0DD0012B0FD106F00FFB0A2305B14E
S31508002A80286004B1236038BDFFF794F90923F6E7F7
S31508002A9006F006FB0B23F2E701230020EFE700BF51
S31508002AA00080005010B5B0F5207F34D009D8B0F5B5
S31508002AB0007F2AD003D898B1B0F5C07F10D0002483
S31508002AC021E0B0F5607FFAD1154BD3F88030C3F317
S31508002AD001149B0617D5032C15D040F296210FE05A
S31508002AE00F4B1C6F230B13F00E0FC4F303340AD0DD
S31508002AF0072C08D00F2C06D0032C04D040F28621D0
S31508002B00084806F0D0FA601C10BD054BD3F8904073
S31508002B10C4F30464F7E7024B1C6FC4F38024F2E79E
S31508002B2000800050E6A1000838B54FF48032104BFB
S31508002B3004469A6600200D46FFF7B4FF41F6713247
S31508002B400C4B6043DC69DA635A6804F4803422F477
S31508002B5040125DB90849884294BF0020012000054B
S31508002B6002435A600CB10022DA6338BD0349F2E722
S31508002B700090005000000350005A6202002D3101F7
S31508002B8038B5430904460D460ED140F233310D4897
S31508002B9006F089FA002304F01F0485B103F5805373
S31508002BA00122A2401A6038BD012B04D0022B04D0A2
S31508002BB040F24131EBE7044BEDE7044BEBE703F555
S31508002BC00053EDE7E6A100086480005068800050D5
S31508002BD030B585B00021B0F5807F0446019100F03C
S31508002BE000816BD8002800F0DA80A0F12004602C60
S31508002BF074D8602C72D8DFE814F0D200D500D20061
S31508002C00D500EA00EA00EA00EA00EA00D500EF008B
S31508002C107D0005019D007D00D500D500D500710019
S31508002C207100710071007100710071000501D50015
S31508002C30D500D5001D010A01D5007100710071008B
S31508002C4071007100710071007100710071007100EE
S31508002C5071000F01EA00D200D200D200B0007D0058
S31508002C607D00B80014019200C700C700710071000A
S31508002C7071007100710071007100710071007100BE
S31508002C8071007100710071007100710071007100AE
S31508002C90710071007100710071007100710071009E
S31508002CA0710071007100710071007100710071008E
S31508002CB071007100710071007100CC00B0F5E06F11
S31508002CC000F0A5803BD8B0F5607F76D01DD8B0F56A
S31508002CD0007F72D008D8B0F5C07F60D04FF49361FA
S31508002CE0574806F0E0F957E0B0F5207F5AD0B0F51E
S31508002CF0407FF3D1FEF7ECFF04464FF42070FFF750
S31508002D00D1FEB4FBF0F4640855E0B0F5B06F63D0BB
S31508002D100AD8B0F5806F5AD0B0F5A06FDED1002181
S31508002D2001A8FFF72DFD37E0B0F5C06F6AD0B0F502
S31508002D30D06FD3D1002101A8FFF7DEFD2CE0B0F556
S31508002D40286F6ED016D8B0F5186F65D00AD8B0F5CA
S31508002D50F06F6FD0B0F5106FC0D1002101A8FFF752
S31508002D60FDFD19E0B0F5206FB8D1002101A8FFF7E5
S31508002D7065FD11E0B0F5306F58D0AFD3B0F5386FB8
S31508002D8040D0B0F5406FA9D1002101A8FFF76CFC2F
S31508002D9002E0FEF783FF0190019805B030BDFEF70B
S31508002DA097FFF8E7FEF794FF04464FF42070FFF705
S31508002DB079FEB4FBF0F40194EEE7FEF76FFF0546E3
S31508002DC02046FFF76FFEB5FBF0F50195E4E7002115
S31508002DD001A8FFF70FFCDFE7002101A8FFF77CFC3D
S31508002DE0DAE74FF0E02302911B695B0705D5FEF78A
S31508002DF06FFF0290029B0193CEE703A902A8FFF793
S31508002E00F9FCF7E7002101A8FFF7F4FCC4E7002165
S31508002E1001A8FFF7D5FDBFE7002101A8FFF7F4FDDC
S31508002E20BAE7002101A8FFF741FDB5E701A8FFF7BA
S31508002E3083FCB1E7002101A8FFF710FEACE700BF4D
S31508002E40E6A1000808B58020FFF7C2FE034B9842AA
S31508002E509EBF4FF48032024B1A6708BD005A6202C1
S31508002E6000A000501FB503460020B3F5807F0190EF
S31508002E7000F0D78077D8582B68D8382B05D8243B4C
S31508002E80092B49D940F27D51BFE0393B1F2BF9D8B0
S31508002E9001A252F823F000BF45300008852E00082D
S31508002EA0852E0008852E00084F300008953000084A
S31508002EB0852E0008852E0008852E0008852E000818
S31508002EC0852E0008852E0008852E0008852E000808
S31508002ED0852E0008852E0008852E0008852E0008F8
S31508002EE0852E00089F3000088D2F0008852E0008C3
S31508002EF0852E0008852E0008D12F0008852E00088B
S31508002F00852E0008A9300008B33000088B30000869
S31508002F10F32F0008F32F0008092BB3D801A252F8A3
S31508002F2023F000BF8D2F00088D2F00088D2F000875
S31508002F308D2F00088D2F0008852E000813300008F5
S31508002F40852E000845300008AB2F0008802B99D144
S31508002F505C4B1B6F03F00703013B032B53D8DFE8D9
S31508002F6003F0504D8890B3F5086F75D022D8B3F5A5
S31508002F70C06F67D00FD8B3F5A06F00F08680B3F5A1
S31508002F80B06F46D0B3F5806F7FF47CAF002001A9FF
S31508002F90FFF730FB41E0B3F5E06F7BD0B3F5F06F98
S31508002FA055D0B3F5D06F7FF46DAF002001A9FFF7B8
S31508002FB0A3FC32E0B3F5286F7BD00ED8B3F5186FB3
S31508002FC06DD0B3F5206F6FD0B3F5106F7FF45AAF9D
S31508002FD0002001A9FFF7C2FC1FE0B3F5306F6DD0E2
S31508002FE0FFF450AFB3F5386F2CD0B3F5406F7FF4CC
S31508002FF049AF002001A9FFF737FB0EE0052301932F
S315080030000BE00223FBE740F2CA412F4806F04BF8D3
S3150800301003E0002001A9FFF75FFB019805B05DF802
S3150800302004FB4FF0E02302901B695B0705D5FEF70A
S315080030304FFE0C230393039BE1E703A902A8FFF7BE
S31508003040D9FBF8E7002001A9FFF7D4FBE5E7002044
S3150800305001A9FFF703FDE0E71A4BD3F8003103F0A7
S315080030600303022B07D0032B09D0012B0BD1FEF744
S3150800307045FE0323C3E7FEF79DFE0923BFE706F0D7
S315080030800AF80823BBE70123B9E7002001A9FFF7DF
S3150800309077FBC2E7002001A9FFF792FCBDE70020F5
S315080030A001A9FFF7B1FCB8E7002001A9FFF7C6FBA5
S315080030B0B3E7002001A9FFF7F9FBAEE701A9FFF77F
S315080030C03BFBAAE700800050E6A100084FF48032D7
S315080030D0074B0849586E03F580535A664B6A23F026
S315080030E001034B62C3035CBF034B5A66704700BFBC
S315080030F00080005000C0075000A00050F8B50368D3
S3150800310004460F2B04D940F67731804805F0CBFFEB
S3150800311063680F2B04D940F67A317C4805F0C3FF63
S31508003120A3680F2B04D940F67D31784805F0BBFF1C
S31508003130237B0F2B04D94FF43861744805F0B3FF8D
S31508003140637B0F2B04D940F68331704805F0ABFF3B
S31508003150A37B3F2B04D940F686316C4805F0A3FFC4
S31508003160E37B3F2B04D940F68931684805F09BFF7D
S315080031702369032B04D940F68C31644805F093FF84
S315080031806369032B04D940F68F31604805F08BFF3D
S31508003190E369032B04D940F692315C4805F083FFB6
S315080031A08020FFF75FFE032800F08A804FF4801224
S315080031B0574B584D5A6645F60E034FF0A062C5F8B0
S315080031C08030554B9A624FF4803203F580539A62E9
S315080031D0AB6DDA03FCD4AE6D16F08046FBD1D4E9AC
S315080031E000231B0543EA0263E27B4C481343227B18
S315080031F04B4F43EA0243627B43EA0233A27B43EA2C
S3150800320082132B61AA69D4E904131B0643EA816376
S3150800321002F000421343A27E4FF440611343227E1C
S3150800322043EA0243627E43EA0223AB614FF400623B
S3150800323005F082FF2B6AE17EE26923F00F0343EA79
S315080032408103002A3DD12B6294F8243094F820108B
S31508003250AA6ADB0043EA41133A40134394F8212053
S31508003260304943EA021343F480332A4AAB62936D2A
S3150800327031EA0303FBD14FF0807127488162136955
S31508003280A56823F4700343EA055313614FF000431E
S31508003290836194F822300BB9234B996294F8233052
S315080032A03BB94FF48032204B9A621A4A936D5B0001
S315080032B0FCD494F825301BB1164B1C4AC3F8802061
S315080032C0F8BD134343F00803022A2B6208D12E6186
S315080032D04FF408524FF47F411548AE6105F02CFFB4
S315080032E00C4994F822308A6A94F820001B063A4062
S315080032F043EA4013134394F8242043EAC20394F89C
S31508003300232043EA02438B62D3E700BFE6A1000805
S31508003310009000500040005A0050005A3840005AA9
S31508003320C7FFFEFE030001000060005AF1A7FFFF79
S315080033303440005A014B93F900007047BE2C002018
S3150800334010B543680446072B04D940F6D3512A48DA
S3150800335005F0A9FEA368032B04D940F6D5512648E3
S3150800336005F0A1FE2378032B04D940F6D75122484D
S3150800337005F099FE94F90130002B04DA40F6D9518C
S315080033801D4805F090FE4FF400011C4A637851660B
S315080033904FF4D151022002F5B832516218494F2B29
S315080033A048604FF0010028BF4F2301F5805148605F
S315080033B01169C903FCD4217843EA01235361D4E98E
S315080033C001131B0143EA0123617B0B43217B43EA7B
S315080033D041039360E37BA17B1B0143EA4113617CB4
S315080033E00B43217C43EA41035360A37C13B16FF47A
S315080033F0D153536210BD00BFE6A1000800900050EB
S3150800340000100250014B1880704700BF7A2C00202C
S31508003410014B1880704700BF782C002010B5B0F516
S31508003420207F65D00ED8B0F5007F4FD003D800B303
S31508003430B0F5C07F1DD040F21631BDE810403448C3
S3150800344005F031BEB0F5607FF5D14C1E012C06D9CA
S31508003450042904D040F2F7212D4805F024FE2D4A10
S31508003460D2F8803023F0300343EA0413C2F88030E0
S3150800347010BD4C1E012C0AD9102903D8264BCB4067
S31508003480DB0704D440F2C921214805F00CFE05F0FB
S3150800349062FE05F06EFE4FF48031204B1D4A196717
S315080034A0136F23F4704343EA04331367FEF710FCE3
S315080034B00446FFF70FF8C0F10201204605F053FE57
S315080034C000F03EF8BDE81040FFF7BCBC4C1E1F2CB0
S315080034D004D940F20A310E4805F0E5FD0D4AD2F846
S315080034E0903023F0F85343EA0463C2F89030BFE7FC
S315080034F04C1E012C04D94FF44471054805F0D3FD40
S31508003500044A136F23F4806343EA84231367AFE7FF
S31508003510E6A100080080005010010100009000504C
S3150800352008B50121022000F071F905F014FE05F036
S3150800353020FE4FF48032014B1A6708BD00900050F8
S3150800354008B54FF4C070FFF743FBBDE808400449CF
S31508003550884294BF012102214FF42070FFF75EBF15
S3150800356080F0FA022DE9F0410546FEF7BFFF431E3B
S315080035700333044604D940F6CF113B4805F093FDC2
S315080035804FF4C022394B5A6603F598335A68012A14
S3150800359004D137494A605A689207FCD48020FFF75D
S315080035A061FC052807D105F0D6FD05F0E2FD4FF4CC
S315080035B080322E4B1A672F4B24F040749D4239D027
S315080035C02D4B9D4239D0FEF75DFB8542064603D951
S315080035D00121284600F06EF9284FFB6813F0060F04
S315080035E0FBD1D7F80880BC60BB68634013F4F81FAA
S315080035F026D12846FEF74CFB8020FFF733FC05282A
S3150800360014D1FEF765FBA842044604D940F62821E2
S31508003610154805F048FDFEF75DFFC0F1020120469A
S3150800362005F0A1FDFFF78CFFFFF70CFCAE4213D2A5
S31508003630BDE8F08144F00074C5E744F08074C2E741
S3150800364040F61721084805F02EFD8020C7F80880A7
S31508003650FFF708FC052805D0BDE8F0410121002048
S3150800366000F028B93546CCE7E6A1000800900050DE
S3150800367000E0015040420F0080841E000000015007
S3150800368070B54E4B0546984273D041D8A3F5B7039B
S31508003690A3F55863984265D033D8494B494E9842AA
S315080036A051D017D8002877D041F2C911464805F0FD
S315080036B0FAFC40F67371444805F0F5FC4FF4002215
S315080036C0404B5A663E4B9D4276D000243F4A95426F
S315080036D036D05DE03D4B984227D03D4B9842E3D12A
S315080036E03C4BD3F8A040621E033224F040744CD9F8
S315080036F040F67371344805F0D6FC4FF40023736620
S31508003700E4E7354B9842CFD1324BD3F8BC402CE096
S31508003710324B984231D0324B984232D0314B984294
S31508003720C2D12C4BD3F8C8401FE02A4BD3F8A0408F
S31508003730621E033224F04074DAD84FF4002373660D
S3150800374044F0807424E0234BD3F8A040621E033271
S3150800375024F040742AD84FF400237366234643F0B6
S31508003760007415E01B4BD3F8B840621E154E0332A1
S31508003770BBE7184BD3F8C040F7E7164BD3F8CC4055
S31508003780F3E7144BD3F8D040EFE74FF40023736602
S315080037904FF0B442946070BD40F673710A4805F064
S315080037A082FC4FF400232C467366F1E740F67371EA
S315080037B0054805F078FCCEE70023D0E7C0EA2101EA
S315080037C040420F0000900050E6A1000880841E00C9
S315080037D000093D000080E00F0024F4000048E801DD
S315080037E0005A620280BA8C01024A536B0342FCD12A
S315080037F0704700BF00400950034A0179D36E23F091
S3150800380030030B43D366704700400050F8B50446B2
S31508003810244BD3F88420D006FBD4D3F88430C3F3E2
S3150800382081139C423CD0FEF739FA012C05460BD190
S315080038301D4B984204D940F2B7711C4805F033FC79
S315080038400121284605F08FFC05F02EFC4FF000728A
S31508003850174B07465A66204605F0A7FC4FF48063C7
S31508003860104E621E93403367736E9A0103D4D6F8DE
S3150800387084309B060AD5384605F01AFC022C0FD16F
S315080038802846BDE8F840002105F06DBCD6F884301E
S315080038909906E9D540F2C571044805F004FCE3E74A
S315080038A0F8BD00BF00400050005A62023DA2000861
S315080038B00060005010B50C4608B9FEF7EFF9074B43
S315080038C021461B783BB1064B984204D80120BDE837
S315080038D01040FFF79BBF0220F9E700BF40270020F2
S315080038E0005A620238B54FF00042244B244C5A66FF
S315080038F04AF6CD33656C014605F00105236428BBFD
S315080039000120FFF771FF6368DB0715D51D4B58606B
S3150800391008461D4B226BD2070CD4984208D10724BF
S3150800392015B1174B194A1A6405F040FC204638BDF4
S315080039300130EFE79842F2D00024F1E70132236B19
S3150800394013F0080305D08A42F8D1E8E700220E49A9
S31508003950F5E78A42E3D020210A4A91620121A2F5BD
S31508003960805251600649084A886A800603D4934201
S31508003970D5D00133F8E79342DDE700BF0090005049
S31508003980004009500060095040420F003254FFFFC2
S3150800399038B54FF00042164B01465A664AF6CD3303
S315080039A0144C154A656C236443780B205B0043F07E
S315080039B00103D363FFF718FF63688A7823F4F87363
S315080039C043EA02136360CA784B7943EA0223A36089
S315080039D00A798B7943EA022323610878FFF782FF85
S315080039E0EB0744BF054B236405F0E0FB012038BD17
S315080039F00090005000400950004000503254FFFF2C
S31508003A0070B50F28044605D940F65261124805F0EC
S31508003A104AFB0F244FF00042104B11495D6E03F527
S31508003A2080535A664AF6CD334E6C80200B64FFF7F6
S31508003A30DBFE0B6A23F00F0323430B62F30744BF35
S31508003A40084B0B64002DA2BF4FF00042064B5A6686
S31508003A5005F0ACFB70BD00BF3DA200080080005019
S31508003A60004009503254FFFF00A0005038B5032823
S31508003A7004460D4605D8094B33F81030CB40DB0712
S31508003A8004D440F22D41064805F00DFB30230122EF
S31508003A905C43044BAA401A5138BD00BFECA200088B
S31508003AA094A0000840D0035038B5032804460D46B4
S31508003AB005D8094B33F81030CB40DB0704D440F265
S31508003AC0FE31064805F0EFFA302301225C43044B29
S31508003AD0AA401A5138BD00BFECA2000894A00008FD
S31508003AE040E003502DE9F041032804460D461746E9
S31508003AF0984605D81D4B33F81030CB40DB0704D465
S31508003B004FF4B0711A4805F0CEFA37B12946204667
S31508003B10B8F1000F20D0FFF7A9FF0F21072D04EBFE
S31508003B20440688BFA5F108034FEA0616114895BF53
S31508003B30AB009B0004360C3607FA03F29940304472
S31508003B4005F035FB7FB929462046B8F1000F06D0A7
S31508003B50BDE8F041FFF78ABFFFF7A6FFDDE7BDE83E
S31508003B60F041FFF7A1BFBDE8F08100BFECA2000855
S31508003B7094A2000830C00350F8B506460F4615460D
S31508003B80002A6AD003F00304836823F44073836031
S31508003B9005F08AFAB26882EA042303F440735340B4
S31508003BA0B36005F085FA37B9B6F1B64F0DD12E20B8
S31508003BB0FFF70EF80746B3689A0717D5012C1BD0EE
S31508003BC0022C27D064B9264B17E0264B9E4201D11A
S31508003BD02F20EDE740F22F11234805F064FAB36869
S31508003BE04FF4B271204805F05EFA08E0012C13D0B4
S31508003BF0022CE7D11D4B00E01D4B9F42F0D91D4B0F
S31508003C001B5D6B430AD140F27511BDE8F8401648B2
S31508003C1005F049BA184BF0E7184BEEE7A3EBC504D5
S31508003C20013C3C44B4FBF3F4013C0CD540F27B1157
S31508003C300D4805F038FA4FF4BE710B4805F033FA13
S31508003C40B368B461F8BDB4F5007FF4D2B3689B07D6
S31508003C50F7D5002C08BF0124F3E740F21511D4E785
S31508003C6080841E0000800650F4A20008002D310151
S31508003C70404B4C004BA30008809FD5004054890058
S31508003C8038B5B0F1B64F04460D4607D0084B9842F2
S31508003C9004D040F29511074805F005FA043425B119
S31508003CA004F580540123236038BD04F50054F9E770
S31508003CB000800650F4A2000838B5B0F1B64F0446A5
S31508003CC00D4607D0124B984204D04FF4D5711148CF
S31508003CD005F0E9F90023104A236404F50053DA6372
S31508003CE06A7804F108037AB903F5805302221A6048
S31508003CF02046D5E901122B7BFFF73EFF204629789F
S31508003D00BDE83840FFF7BCBF03F50053EEE700BF38
S31508003D1000800650F4A20008FFFF1F0070B5B0F13E
S31508003D20B64F0AD0874B98421DD0874840F20121EA
S31508003D3005F0B9F96FF0030070BD844B9968C26B42
S31508003D4012F4C06F15D091050FD5FD225A700922BD
S31508003D501A700022026493F90110012900D15A70E1
S31508003D6093F90100E8E77A4BE8E75605EFD5FE2216
S31508003D70ECE71C78082C00F2E180DFE814F0090073
S31508003D801F004500530070007E009C00A700D60067
S31508003D904C880A88E5060AD5120A02F0060242F09D
S31508003DA0F002012119704263C1600120C4E702F0E4
S31508003DB0FE02A10748BF42F00102F2E7160608D53F
S31508003DC0802100F50052D1634FF608721A8002234B
S31508003DD018E05506E9D5402400F50052D4634A8810
S31508003DE0D40604D502221A700B784363DDE79607DA
S31508003DF06AD507221A701B7901EBC3031B89012BAD
S31508003E00D3D10823C360D0E71506D9D45406CCD538
S31508003E10402400F50052D4634A88920754D50322F9
S31508003E201A708CE74C880A88E60643BF120A02F025
S31508003E30060242F0F00202F0FE02650709D51C7977
S31508003E4042F0010201EBC4010989012904BF0821D6
S31508003E50C160042119700123C3604263A5E71406F3
S31508003E60AED45206A1D5402400F50052D4634A8840
S31508003E70560729D507221A7097E71A795D8801EB44
S31508003E80C2042689AE420FD800240132D2B21A7172
S31508003E905C804C886507C2D4E40702D4012A7FF601
S31508003EA04EAF08221A7092E76268691C5980525D03
S31508003EB042630622DFE7160682D455067FF575AFFC
S31508003EC0402400F50052D4630522A9E794067FF53D
S31508003ED06CAF456A1F4C46691A793440B4F5003F01
S31508003EE004BF466A4FF4005601EBC20100F50054C0
S31508003EF00A8908BFE6632026E6635C88A24281BF7A
S31508003F004968661C5E800D5559888A42C9D90424B9
S31508003F10012AC46004D0013A914201D10822C26044
S31508003F201A78092A3FF415AF3FE7D2057FF53DAF6A
S31508003F304FF4807100F50052D16308E74FF6093255
S31508003F401A8006E700800650F4A20008AC19002083
S31508003F50B81900202000020038B5B0F1B64F044663
S31508003F600D4607D121B940F26A31254805F09BF87C
S31508003F70244B13E0244B98420DD040F26931204877
S31508003F8005F091F825B940F26A311D4805F08BF81D
S31508003F906FF0030038BD00292AD01C4B2269D007D0
S31508003FA044BF2022E2606A88910702D52989002940
S31508003FB0EED0520702D52A8A002AE9D04FF4807239
S31508003FC01A6000229D601A71C023E3606369DB05ED
S31508003FD014D4202204F50053DA630D4A2046DA6326
S31508003FE0236C43F4FC632364BDE83840FFF796BEB0
S31508003FF040F26A31024805F056F8CEE7636AE5E70B
S31508004000F4A20008AC19002000800650B819002058
S31508004010FFFF1F0010B5162000F088FC0024FF22C1
S31508004020064B21465C6520209A625C60FEF7A8FD77
S315080040302146BDE810402120FEF7A2BD000004502D
S3150800404038B5072804460D4603DD7721084805F0EC
S315080040502AF81F2C03D99121064805F024F8064AA8
S31508004060064B002D08BF13460122A2401A6038BD30
S315080040704FA30008A7A3000840100450402004508E
S3150800408010B5044618B991211F4805F00CF8237895
S315080040901B0613F0604F03D092211B4805F003F866
S315080040A0E3780F2B03D9A321174804F0FCFF01215D
S315080040B02020FEF765FD01212120FEF761FD012282
S315080040C0124B16205A60227812069A606178A278F6
S315080040D042EA01429A61FF229A6200229A631A64AE
S315080040E04FF000425A654FF0FF3203F500531A6548
S315080040F000F054FC1620E17800F05EFCBDE81040A4
S31508004100162000F031BC00BF4FA300080000045081
S315080041102DE9F0410126C3B2072805460C46174685
S3150800412006FA03F603DDEC21384804F0BCFF1CB997
S31508004130ED21364804F0B7FF236823F47C1323F0F7
S315080041400F031BB1F021314804F0ADFFA37A1B041D
S3150800415013F47C0F04D040F209112C4804F0A3FF95
S31508004160E37A1B0513F07E6F04D040F20B11274843
S3150800417004F099FF237B5B0513F0FE5F04D040F241
S315080041800D11224804F08FFF214BDFF88C801E6545
S31508004190AB00226803F1A04303F588235A60302256
S315080041A002FB0585637B27F003072B66E37AA27A71
S315080041B01B0543EA0243227B43EA4253EB652F671A
S315080041C004F079FF134B5E65237A23B1D8F84030A3
S315080041D03343C8F84030637A23B1D8F838303343CC
S315080041E0C8F838302279A37943EA0243084A93612A
S315080041F06179E37943EA014306498B61064B5663C5
S315080042009E64BDE8F04104F05CBF00BF4FA3000800
S3150800421000200450001004500000045010B501247A
S31508004220C3B2072804FA03F404DD40F297110748DD
S3150800423004F039FF04F03FFF054B5A6D22EA0402E9
S315080042405A659C62BDE8104004F03BBF4FA30008C6
S315080042500000045010B50124C3B2072804FA03F479
S3150800426004DD40F2B5110A4804F01DFF04F023FFEF
S31508004270084BDA6A224208D15B6B9C430CBF0124C7
S31508004280002404F01EFF204610BD0024F9E700BFF5
S315080042904FA3000800000450F8B507460C461D4613
S315080042A016464AB94FF4A171314804F0FCFE24B110
S315080042B0402D09D1062328E021B94FF42070FEF7D6
S315080042C087FC0446402D42D0402D09D87DB1202DCB
S315080042D017D040F28911BDE8F840254804F0E3BE3E
S315080042E0602DF6D1B6EB940F3CD804230DE0B6EB5F
S315080042F0141F04D94FF4BA711D4804F0D4FE1023D4
S3150800430003E0B6EBD40F1CD808235E43730803EB0F
S315080043104413B3FBF6F3174E203BB6EBC30F4FEA35
S31508004320C30404D24FF4D071114804F0BCFEBB6834
S31508004330344023F06003BB60BB681D43BD60FC616D
S31508004340F8BD40F279110A4804F0ADFEDCE7062311
S31508004350B4FBF3F3B342ADD24FF4BF71044804F093
S31508004360A2FEA7E740F28311014804F09CFEBCE7D1
S31508004370FEA30008F8FF7F0038B50C4B04469842A8
S315080043800D4604D04FF43371094804F08CFE01221F
S3150800439004F580535A60EB43934003F00A036361C4
S315080043A0656115B904F50054626038BD00C0055052
S315080043B0FEA3000810B5124B0446984204D040F2FA
S315080043C04241104804F06FFE012104F580535960FC
S315080043D040F6AA6341F20502636100230A48A36016
S315080043E0E365E26004F500522361E361E3649064E7
S315080043F00348A365844204BF23656365516010BD05
S3150800440000C00550FEA30008FFFF010070B5304B41
S31508004410044698420D4604D040F2FD212D4804F08A
S3150800442042FE2046FFF7C6FF012304F58056736057
S31508004430AB7C1BB1A36843F08043A360EB7C5BB104
S31508004440234B9C4202BF2A7DA3F51033C3F8D4211F
S31508004450E36D43F08003E3652A8A6B7B20461343AA
S31508004460EA891343E3602B7BD5E90112FFF714FFB2
S315080044706B7D1BB1A36843F48033A360AB7D1BB18E
S31508004480A36843F40043A360EB7D2A7E1B0712054D
S3150800449002F4E00203F0E0431343A3656B7E9A1E21
S315080044A0012A4FF0020209D80B49032BC1F89827B5
S315080044B009D10423F3652B78636170BD0749012B85
S315080044C0C1F89827F4E7042204F50053DA65F2E701
S315080044D000C00550FEA3000800D0035000E00350BA
S315080044E0034B5A68D20702D5DA69002AF9D1704710
S315080044F000800A50054B9A689107FCD45A689207BF
S31508004500F9D4DA69002AF6D1704700BF00800A504C
S3150800451008B5FFF7E5FF0222014B1A6108BD00BF87
S3150800452000800A5008B5FFF7E5FF0122024B03F5A4
S3150800453080514A601A6108BD00800A5008B5044BCC
S315080045405968012903D1FFF7E3FF024B596008BDFB
S3150800455000800A5000A00A5010B5064CFFF7CAFFA3
S315080045606368012B03D1FFF7E9FFFFF7C3FF037861
S31508004570E36010BD00800A50A8B94A680B78B2B942
S315080045804A7843EA42038A6812B1127843EA8213E8
S315080045908A7843EA8203CA6812B1127843EA422348
S315080045A0054A936470477E21044804F07CBD12785E
S315080045B043EAC203E4E700BF00800A5057A4000894
S315080045C010B9044B5964704740F21111024804F0BF
S315080045D06ABD00BF00900A5057A4000810B9044BE2
S315080045E05964704740F24D11024804F05CBD00BFA3
S315080045F000A00A5057A4000810B9044B1964704764
S3150800460040F28911024804F04EBD00BF00A00A50CE
S3150800461057A4000808B510B9044B186C08BD04481F
S315080046204FF4E27104F03FFD0020F7E700800A50DE
S3150800463057A4000808B520B949B101290AD00020B5
S3150800464008BD40F27321054804F02DFDF7E7044B39
S31508004650D86CF5E7024B186DF2E700BF57A40008BF
S3150800466000800A5018B939B1012908D0704740F2BC
S315080046701131044804F017BD034BDA647047024B46
S315080046801A65704757A4000800800A5070B50D4691
S31508004690E8B1036813F4E07F03F03F06C3F3821220
S315080046A010D0012A13D10B4C9B0603D591210A4839
S315080046B004F0F9FC45B104F5805401230020B34009
S315080046C0236070BD054CEFE704F50054F5E70E20AE
S315080046D0F7E700BF68800050A7A300086480005071
S315080046E030B58BB06C46754D0FCD0FC42B68684638
S315080046F023604FF07E636C4693F89C30704DFF2B19
S3150800470018BF8DF80130FEF71BFE3220FEF77AFE41
S315080047100FCD0FC40FCD0FC495E8030084E803003E
S31508004720684BD3F84C21110340F1B380A3F5FE433F
S315080047301C884FF6FF739C4208BF6B248DF81940FE
S31508004740FEF7F8FD044484F308045F488DF8184022
S31508004750FDF7DAFA6846FEF7D1FC3220FEF758FE76
S315080047605A48FEF7FFFE5A4C5A48FEF789FF0121C0
S315080047703620FEF705FAFEF7D3FE236F002023F056
S31508004780070343F003032367236F23F4744343F4B7
S315080047908063236704F0F2FC4F4BD3F8FC20D20168
S315080047A07BD4D4F88030C4F88030494CD4F8203112
S315080047B023F0070343F00203C4F82031D4F8283164
S315080047C023F0070343F00203C4F82831D4F88031F4
S315080047D023F0030343F00103C4F88031D4F8903280
S315080047E023F0030343F00103C4F89032D4F84031B0
S315080047F023F0030343F00203C4F84031D4F86031D0
S3150800480023F0030343F00203C4F86031D4F84032BE
S3150800481023F0030343F00203C4F84032D4F800320D
S3150800482023F0070343F00203C4F80032D4F8083231
S3150800483023F0070343F00203C4F80832D4F85032D1
S3150800484023F0030343F00203C4F85032D4F870325D
S3150800485023F0030343F00103C4F87032D4F820327E
S3150800486023F0070343F00103C4F82032FEF72EFCB9
S315080048704FF0E0220020136963F004031361D4F8B3
S31508004880603223F0070343F00103C4F860320BB02B
S3150800489030BDD3F85041E4B250E7D3F8FC2022F0FB
S315080048A08072C3F8FC20D4F88020C4F88020D3F89E
S315080048B0FC2042F08072C3F8FC2076E7BCA400080E
S315080048C0D0A400080080E00FC017530200B4C40447
S315080048D000800050C0EA210100ED00E007B5094B51
S315080048E018689A889B7900906846ADF804208DF878
S315080048F00630FFF74DF80920FFF782F8002003B0CD
S315080049005DF804FBF8A4000813B50024064A6846B7
S31508004910536F43F00103536700948DF80440FEF784
S315080049206BFF204602B010BD0040005010B54C2861
S3150800493004460DD801220A49630904F01F04A2405F
S31508004940203341F82320BFF34F8FBFF36F8F10BD7D
S3150800495040F20911034804F0A6FB002CF7DBE9E74F
S3150800496000E100E01CA5000810B54C28044608D84C
S3150800497001236109074A04F01F04A34042F82130C5
S3150800498010BD4FF48A71044804F08DFB002CF7DB48
S31508004990EEE700BF00E100E01CA50008002808DBE0
S315080049A001224309034900F01F008240603341F8A1
S315080049B02320704700E100E038B500F110035C2BB6
S315080049C004460D4604D94FF4E1710D4804F06BFB1B
S315080049D01E2D04D940F2C311094804F064FB002CCB
S315080049E0ACBF04F16044074B4FEA0515EDB2ABBF07
S315080049F004F5614404F00F0484F800531D5538BDCE
S31508004A001CA5000814ED00E073B504F04DFB104D2D
S31508004A10104B2E781C6804F04BFB04F0BFFD60B108
S31508004A20FF2E0AD00020297801AA04F04DFB18B100
S31508004A309021094804F037FB019C2CB904F034FB9B
S31508004A40064B1C6804F034FB204602B070BD00BF5C
S31508004A50BF2C0020C41900209DA50008C8190020F5
S31508004A6010B5044604F020FB024B1C6004F020FB42
S31508004A70002010BDC819002010B50020144604F007
S31508004A8025FC022804D018B1C321024804F00BFB08
S31508004A90204610BD04A60008034B0222186800230E
S31508004AA08068194603F000BB282C002038B5302250
S31508004AB0037A0446534303F1A04303F58023DD6ECE
S31508004AC0D0E9032313449D4201D8AA4204D94FF4DE
S31508004AD04171054804F0E7FAD4E9030303449D420B
S31508004AE018BF284638BD00BF7AA6000830B587B07B
S31508004AF0144605461046FFF7D9FF63690246834206
S31508004B003CBFD4E903315B181B1AABB112490494B4
S31508004B1003910021CDE90131012300932846D4E908
S31508004B20001304F0EFFA20B14FF437710B4804F084
S31508004B30BAFA002007B030BD0122627694F82D201B
S31508004B40002AF6D084F835301321E36920469847C1
S31508004B502046636A9847ECE7ED4A00087AA60008FB
S31508004B607FB504460D4690F8376001F07BFA0228B7
S31508004B702AD16DB346BBD4F88C3023B14FF4B87143
S31508004B801B4804F090FA1B4B0021009304F1900394
S31508004B90029350236A4601200191039301F060FBBA
S31508004BA0C4F88C0020B940F27911114804F07BFA58
S31508004BB0237E4BB1D4F88C0001F0E0FB20B14FF412
S31508004BC0BF710B4804F06FFA84F8375004B070BD13
S31508004BD0002EF9D0D4F88C0001F01AFC20B14FF45D
S31508004BE0C271034804F05FFA0023C4F88C30EBE77F
S31508004BF07AA60008E6A6000870B50546046801F01E
S31508004C0031FA022816D14FF0FF31D4F8E00001F04E
S31508004C10A7FA20B14FF4E071304804F044FA4FF097
S31508004C20FF31A06B01F09CFA20B140F2C3112B486A
S31508004C3004F039FAFFF7E8FE854202D10020FFF7B3
S31508004C400FFF94F93600FFF7A9FE94F93600FFF72F
S31508004C506DFED4F88C0001F0DBFB20B140F2DB11CD
S31508004C601E4804F020FAA06B01F0D6FA20B14FF4E2
S31508004C70EF711A4804F017FAD4F8E00001F0CCFAFC
S31508004C8020B140F2E111154804F00DFA207AFDF73B
S31508004C907DFB20B14FF4F371104804F004FA207A32
S31508004CA0FDF7DAFA20B14FF4F5710C4804F0FBF978
S31508004CB0FDF7B0FA38B10A4B984204D04FF4F771B1
S31508004CC0064804F0F0F900232046C5E90033C5E993
S31508004CD00433AB60A36ABDE8704018477AA600089B
S31508004CE0058000F02DE9F04788B004460E46904648
S31508004CF01F4601F0B7F90228054616D14FF0FF31D5
S31508004D00A06B01F02DFA002840F0278194F837307F
S31508004D105BB14FF0FF31D4F88C0001F0F9FA20B1FD
S31508004D2040F29F218E4804F0BEF904F0C4F981468A
S31508004D30B8F1000F09D0237E1BBB94F8373023B196
S31508004D4040F26F31864804F0AEF94FF00008484645
S31508004D50C7F8008004F0B5F901F084F9022808D1F3
S31508004D60A06B01F02DFA20B140F2AB217C4804F08B
S31508004D709AF93B68002B14BF00201B2008B0BDE839
S31508004D80F0872046FFF792FE63698246984206D16D
S31508004D90637E23B940F28B31714804F084F9656962
S31508004DA0AA459DBFD4E903329B185D1BAAEB0505EE
S31508004DB0454528BF454604F07EF994F82D308246CD
S31508004DC0002B40F089802A463046616904F01CFEB3
S31508004DD06369A8462B4463612CE06069037803F095
S31508004DE0FD01112975D1216B884205D1A3F1110165
S31508004DF04B424B4184F8343008F1FF386369216B24
S31508004E0001328B4203F1010308BF236363619542B4
S31508004E10E3D1D4E90323216B1344994208BF2263E3
S31508004E20216B8A4201D88B4204D84FF470714C48E2
S31508004E3004F039F9D4E9032361691344994208BF98
S31508004E40626161698A4201D88B4204D84FF4747151
S31508004E50434804F028F90023207A6376FDF756FACA
S31508004E6020B140F21D313E4804F01DF92046FFF7F7
S31508004E701DFE6369834232D10023E568237694F8E0
S31508004E802D30656103B125632046636A9847354B23
S31508004E90049403930023029323692A46019301236A
S31508004EA0009363682168207A04F02CF920B140F257
S31508004EB039312B4804F0F7F8207AFDF747FA20B184
S31508004EC040F25D31264804F0EEF8504604F0F9F851
S31508004ED03DE706F8013B91E7A846002297E701233C
S31508004EE0237694F83730ABB1237E23B940F24231AA
S31508004EF01B4804F0D8F8D4F88C0001F071FA48B9C8
S31508004F00D4F88C0001F03AFA20B140F24531144841
S31508004F1004F0C9F8207A0DF11E01FDF77FFA20B1D9
S31508004F204FF453710E4804F0BEF89DF81E30207AEF
S31508004F30002BC1D00DF11F01FDF748FA20B140F250
S31508004F405231074804F0AFF89DF81F10207A00295F
S31508004F50B2D12246FFF7CAFDAEE728460EE700BFE4
S31508004F607AA60008ED4A00082DE9F84304460D46DE
S31508004F70164601F077F80228074641D094F82C80A7
S31508004F80DFF8DC902E44B54229D094F82D308BB149
S31508004F9004F091F8237E0746002B3BD1226B636908
S31508004FA09A4204D040F20521484604F07CF8384677
S31508004FB004F087F894F83430002BE4D0B8F1000FE9
S31508004FC006D02B780A2B03D10D212046E369984792
S31508004FD02046E36915F8011B98470028D3D001F04D
S31508004FE041F8022809D1D4F8E00001F0E9F820B127
S31508004FF040F283211A4804F056F80020BDE8F883E9
S315080050004FF0FF31D4F8E00001F0AAF80028B5D037
S315080050103846F3E72046FFF749FDE168013888423C
S3150800502038BF2069D4F830C03CBF00F1FF304018C3
S31508005030034663450BD013F80129112A01D0132A18
S3150800504007D1A2F111035A425A4184F83420206349
S31508005050ADE7994282BF236903F1FF335B18E8E79E
S315080050607AA60008F0B58FB00C460546164600210C
S315080050704FF49A7220461F4604F0ACFC96E80300EB
S31508005080002332692376F36884E80300C4E904231D
S31508005090327DE36084F82C20B27D2363012384F8F3
S315080050A0343084F83530149B84F82D202362159B00
S315080050B0E7616362169BA362337A84F836303B4B0A
S315080050C02C606B603A4BAB603A4B2B613A4B6B6189
S315080050D03A4BEB60FDF7E6F830B1394B984203D00E
S315080050E0102420460FB0F0BD002104F10800FDF79A
S315080050F061F80028F4D1334BAB61334BEB610123E4
S3150800510084F83730314BCDE9063004F13C03089377
S31508005110502306A8099300F0D9FFA06318B9CD213A
S315080051202B4803F0C0FF2B4B06A8069300230793D2
S3150800513004F1E403089300F0C9FFC4F8E00018B9C5
S31508005140D321234803F0AFFF234B00210A9304F130
S3150800515090030C93502301200AAA0B910D9301F09A
S315080051607FF8C4F88C0018B9DB21194803F09BFFB7
S315080051701A4B049403930023029323690193012392
S3150800518000936368E2682168207A03F0BBFF04464F
S315080051900028A5D196F90800FFF700FC96F9080043
S315080051A0FFF7E2FB2846FFF75BFC9AE7694F000822
S315080051B0E54C00085393000859930008F94B00087A
S315080051C0038000F0614B00085F930008F2A6000810
S315080051D07AA60008FCA60008E6A60008ED4A00081C
S315080051E02DE9F04186B01C46574B01270293574BD1
S315080051F00C9D01930023904600930A46CDE9037758
S315080052002946534BFFF72EFF0646002840F09480A8
S3150800521023683946C5F8343163683A20C5F8383109
S31508005220637A85F83D31237A85F83C31E37A85F847
S315080052303F31A37A85F83E31637B85F84131237B7C
S3150800524085F84031E37B85F84331A37B85F8423105
S31508005250FDF796FC3B460422617A207AFEF742FC6B
S315080052603B460222E17AA07AFEF73CFC39466068A2
S31508005270FDF786FC88F8006041462068FFF7C6F807
S315080052801422637C5B0103F1A04303F57033C3F872
S315080052909827617A227A42EA0142C3F8B027E17A6E
S315080052A0A27A42EA0142C3F8A82785F8446198F829
S315080052B01930032B46D8DFE803F03543021C0223D6
S315080052C085F8443100230422E17BA07BFEF70AFC23
S315080052D0022741F29871627C1E4B03EB421047503D
S315080052E0E07BA17BBD3241EA004103EB42135960E2
S315080052F018E0012785F8443102220023617B207BD0
S31508005300FEF7F0FB617B637C227BBD3342EA0142F8
S3150800531010495B01CA500422236803F58053DA65F5
S31508005320002FCFD1D5F834210521D36C206843F05E
S315080053300403D364FFF720F8304606B0BDE8F081D1
S315080053400027D7E72326F7E7739300086593000835
S31508005350F193000800C0035038B50468237ED4F8DA
S315080053603401CBB9C36C23F00403C3640123237649
S3150800537094F8373093B3D4F88C0001F031F868BB51
S31508005380D4F88C0000F0FAFF40B3BDE838404FF47B
S315080053908271184803F087BE637E2BB394F82D30CC
S315080053A013B30025132184F8355003F010FFD4F801
S315080053B03431DA6C42F00402DA645B6ADBB2112B30
S315080053C00DD1012384F834303022237A534303F174
S315080053D0A04303F58023DB6E013B236338BD132B03
S315080053E0FCD184F83450EFE7C36C23F00403C3649C
S315080053F0F4E700BF07A7000873B50024684600F065
S3150800540047FB0C4B00981C600B4B0C4D1C600C4E5C
S315080054100C4B306018602C6004F077F82046019B2E
S315080054203268083BDB0853802B6801332B6002B0D7
S3150800543070BD00BFD0190020CC190020D419002057
S31508005440DC190020D81900202DE9F04F89B09946BB
S315080054504B1C07460C46154632D04B1EB3F5007F4B
S3150800546028D2194226D1A04600267A4B07961E70E6
S31508005470B9F1000F00F0E580C9F80060002F00F0D0
S31508005480E28003F018FE073707AB27F0070B214623
S31508005490039000932A463346584600F003FB079CC0
S315080054A0064604B178B9039803F00BFE192009B033
S315080054B0BDE8F08F40F22B11674803F0F4FDD2E700
S315080054C04FF00808D0E7DFF8A4A16288DAF80010E0
S315080054D0D300C0EBC2020139272A0493CAF8001088
S315080054E040F28280002D5AD183450BF1080551D030
S315080054F04146204603F083FF80460790079A02EB51
S31508005500050B584604F001F80799C5F3CF054A88F4
