:020000040800F2
:1000000000100020451C0008499200084992000891
:100010004992000849920008499200084992000854
:1000200049920008499200084992000861020008BC
:100030004992000849920008F10100084D97000814
:100040004992000849920008499200084992000824
:100050004992000849920008499200084992000814
:1000600049920008350500083D8C000849920008B7
:1000700049920008499200084992000849920008F4
:1000800049920008499200084992000849920008E4
:100090004992000849920008E924000849920008A2
:1000A00049920008499200084992000849920008C4
:1000B00049920008499200084992000849920008B4
:1000C00049920008499200084992000849920008A4
:1000D0004992000849920008499200084992000894
:1000E0004992000849920008499200084992000884
:1000F0004992000849920008499200084992000874
:100100004992000849920008499200084992000863
:100110004992000849920008499200084992000853
:100120004992000849920008499200084992000843
:100130004992000849920008499200084992000833
:100140004992000849920008499200084992000823
:100150004992000849920008FB960008499200085D
:100160004992000849920008499200084992000803
:10017000013800D0FCE770470000000000000000DC
:100180000B4A1168086806C881F30B88022181F3C5
:100190001488203080F30988BFF36F8F4FF0000080
:1001A00080F31188104700BFAFF30080AFF30080E9
:1001B00004250020000000000000000000000000F6
:1001C00007480068006880F3088862B661B6BFF32C
:1001D0004F8FBFF36F8F02DF00BF00BFAFF3008010
:1001E00008ED00E00000000000000000000000003A
:1001F000EFF309801EF0100F08BF20ED108AEFF317
:100200000B82734620E9FC0F114A116808604FF019
:10021000300080F31188BFF34F8FBFF36F8F07F06B
:10022000E1F84FF0000080F31188094A116808686E
:10023000B0E8FC0F13F0100F08BFB0EC108A82F387
:100240000B8880F309881847AFF30080AFF3008074
:100250000425002000000000000000000000000055
:100260001EF0040F0CBFEFF30880EFF30980044980
:10027000084700BFAFF30080AFF30080AFF300800A
:10028000597C00080348044B834202D0034B03B15E
:1002900018477047D42C0020D42C00200000000008
:1002A000064B0749C91A891048BF0131491003D0CC
:1002B000044B0BB101481847704700BFD42C0020F5
:1002C000D42C00200000000010B5064C237843B960
:1002D000FFF7D8FF044B13B10448AFF300800123AC
:1002E000237010BDD826002000000000A8AD000833
:1002F00008B5054B1BB105490548AFF30080BDE8C3
:100300000840FFF7CDBF00BF000000000010002034
:10031000A8AD0008A3F5803A704700BF174B002B2B
:1003200008BF134B9D46FFF7F5FF00218B460F4694
:100330001348144A121A09F060FC0E4B002B00D02F
:1003400098470D4B002B00D0984700200021040057
:100350000D000D48002802D00C48AFF3008008F0D3
:1003600077F82000290000F013F807F07FFE00BFA7
:100370000000080000000000000000000010002045
:1003800000100020F0270020000000000000000006
:1003900008B509F0CCF908F037FC064807F02CFF47
:1003A00000F0E0F8044807F027FF09F0CDF900203D
:1003B00008BD00BF58A1000865A1000810B54FF4A2
:1003C00080301F491F4A4B6E5066486E4FF0004107
:1003D0004AF6CD3451661C4903F480334A6C0C64F0
:1003E00002F001024C6BE407FCD4012417494C6075
:1003F000A1F500510C6BE407FCD50AB1144A0A645C
:100400000028A2BF4FF00041124A51661BB94FF4B9
:100410008032104B5A6609F033F801F0FFFB09F007
:100420002DF804F0C5FA08F0BCFF04F0D7FA05F087
:100430004DF801F0E9FBBDE8104005F063BE00BFD8
:1004400000800050009000500040095000600950AA
:100450003254FFFF00A0005008B5044808F0A8FF80
:10046000BDE80840024801F077BD00BF1CA70008A6
:10047000F027002030B595B0204D0DAC0FCD0FC446
:1004800095E80700292384E80700092500210A24AC
:100490001B4A0DF12600CDE902230E22CDE90411FD
:1004A00006918DF813408DF8115009F0A6FB4FF41A
:1004B0008021144B1448CDE90713144B0DAA0A935D
:1004C00020230B9301238DF83130114B07A90093A2
:1004D00002AB8DF825408DF8245004F0EBFE044665
:1004E00018B188210B4808F0C3FE00214FF4E13019
:1004F00008F09BFE204615B030BD00BFA0A100084B
:1005000000C0055024C0055060110020D9260020ED
:100510001810002071A1000808B5FFF7ABFF28B143
:10052000BDE80840B821024808F0A2BE08BD00BFDF
:1005300071A10008014804F079BF00BF60110020DC
:1005400010B50C46044807F057FE044B04481C80C5
:10055000BDE8104007F050BEBCA10008D426002022
:10056000E5A1000838B51E4C1E4A1F491F4800F07F
:1005700013FD226882B910461D4901F027FB206057
:1005800050B91C4807F038FE012422461A49164883
:10059000BDE8384000F026BD184807F02DFE0123C5
:1005A000174D206800212B8008F0E1FD044640B182
:1005B0000C4A1449144800F0EFFCE6E70A2008F062
:1005C00094FB2B889BB2012BF8D02B889BB223B1D4
:1005D000044A0C490D4800F0DFFC00220149D6E72F
:1005E000801100200CA2000811A20008A0A200089F
:1005F0004105000826A200089AA2000848A20008A7
:10060000D426002060A2000869A2000887A2000882
:1006100038B5B0B10368A3B11C785D68032C05D868
:10062000084B33F81430EB40DB0704D440F22D4183
:10063000054808F01DFE302301225C43034BAA400D
:100640001A5138BD0CA30008B4A2000840D00350D2
:1006500038B5B0B10368A3B11C785D68032C05D828
:10066000084B33F81430EB40DB0704D440F2FE3182
:10067000054808F0FDFD302301225C43034BAA40EE
:100680001A5138BD0CA30008B4A2000840E0035082
:1006900007B500230193044B01A9186806F060F91F
:1006A00003B05DF804FB00BF8411002007B50021F2
:1006B000054B01AA1868019106F0DCFA013818BF51
:1006C000012003B05DF804FB8411002007B5074C3E
:1006D0004FF0FF326946206806F08AF90028F7D00B
:1006E000BDF80410009808F0ADFAF1E78C11002075
:1006F000F0B589B048B303683BB3154F3E6816B1F7
:10070000002009B0F0BD31460322012005F09EFF14
:10071000104D114B03AC18600FCD0FC42B6803A80C
:10072000236001F019FC3346A022CDE900670B4994
:100730000B4809F08BF932460821022005F086FFAC
:10074000084B1860FFF7A4FFDAE70120D9E700BFE4
:100750008811002024A300088411002014A300089D
:10076000CD0600088C11002008B5064B186808B1AA
:1007700006F07CFCFFF79AFF034B186806F00AFBB3
:10078000002008BD88110020841100202DE9F041CF
:1007900086B0044688461746FFF788FF0546E0B94D
:1007A0000126114B20681C60237B01A95B00ADF87A
:1007B0000430ADF80660CDF80880ADF80C7001F09B
:1007C0006FFC30B13146A368606898473546FFF743
:1007D0005FFF284606B0BDE8F0810221A36860688B
:1007E00098470225F5E700BF90110020F0B587B0CB
:1007F00004460F461646FFF759FF0546F0B9124B5F
:1008000020681C60237B01A95B00ADF80430022343
:100810000297ADF80630ADF80C6001F041FCA3681A
:1008200040B10121606898470125FFF731FF284654
:1008300007B0F0BD294660689847F8E70221A36831
:10084000606898470225F2E79011002070B50C46C9
:10085000074E8D18AC4204D1064807F0CDFC0020AD
:1008600070BD304614F8011B07F0C6FCF2E700BF6C
:1008700038A300085EA2000810B5222813460ED047
:1008800033280FD011280FD1402A0DD80024074853
:1008900004704370023009F0CAF9002010BD04480A
:1008A0001C0AF5E70348FBE70120F7E7842C00204A
:1008B00003270020F926002038B50346222B0846DE
:1008C000154612D0332B17D0112B17D10D490C8898
:1008D00064BAA4B2402C01D9012038BD22460231AD
:1008E00009F0A5F900202C80F7E7074931F8024B01
:1008F00064BAA4B22246F3E70449F7E70023138061
:10090000EAE700BF842C002003270020F9260020FE
:1009100010B51C46064B59611A6006F041FC4FF4B5
:100920007A73B4FBF3F4034B04441C6010BD00BFA6
:10093000A01100209C11002008B50A46014618B1FC
:1009400012B1024808F0AEF9004808BDA01100201D
:100950000C210268C37E01FB03230021C3F8241687
:100960004FF0FF31C3F828164FF48071A3F82C160E
:10097000D2F86C06014908F095B900BFA10C000837
:100980002DE9F341044611B10423818383750123CA
:100990000E274FF00B08A27D042A00F27A81DFE8CF
:1009A00012F0050032005700C4007201E57D012DF0
:1009B0000AD0022D1CD095B92121204608F0B4F9A7
:1009C0000123A583E37540E023682146186808F0F9
:1009D000C6FB2368186801F0A7F8A08330B1042390
:1009E000A37540F20223A3830023D4E70223E9E79F
:1009F000322320682246A949D0F86C06FFF788FF09
:100A000040F6021383E0E37D032B08D0042BE6D1EC
:100A100000212369E06802B0BDE8F04118470423D3
:100A2000E375236821461868D3F86C36036008F034
:100A300096FB2368186801F0AFF80546A0830028EC
:100A4000CDD12046FFF784FFA58302B0BDE8F08139
:100A50000C264FF4807508206168E37D5A1F042A34
:100A6000BDD8DFE802F003030E161800052B0CBFFB
:100A700022212121204608F057F90023A3830923CE
:100A8000A0E7E27E236806FB0233A3F82C56E0754C
:100A9000E3E72321EEE720468847A08310B1042333
:100AA000A375A1E740F2156223682146DA80186831
:100AB00008F055FB2068811D828800F10D0300912C
:100AC0000068194601F04CF8A083002887D140F651
:100AD0000323E382A37E63F07F03A376B5E794F953
:100AE0001A206368002ADADA20469847A08398BB68
:100AF00094F82030F12B0CD120684FF47A73224601
:100B00006649D0F86C06FFF703FF40F20133E38239
:100B10009BE7237EE3B9E37D0D3B012B01D90C2339
:100B2000E375A37D032B7FF45FAFE37D0A3B042BCA
:100B30003FF655AF01A252F823F000BFDF0A0008CC
:100B4000770B00087D0C0008690C00088D0C00086C
:100B50004FF47A7320684DE7B0F5017FDFD0E37D75
:100B60000D2BDED00B23E375A37E23F0030343F0AC
:100B70000103A376D5E7A67E256806F00306022EBC
:100B800039D0032E51D0012E03D04FF40043A3835C
:100B90005BE74FF2C21105F1110008F0FBF8206885
:100BA0000021133008F0F6F820683146153008F0BF
:100BB000F1F80022236839499A73DA7306225E73CA
:100BC0001A740A23206822468380A37E23F003033D
:100BD00043F00203A376D0F86C064FF47A73FFF764
:100BE00097FE4FF40043A383A37E03F00303032B7C
:100BF0007FF42BAF53E740F215632E46214656F89B
:100C00000D0BEB8008F0ABFAAB1DAA8800933146C0
:100C10003346286800F0A4FF18BBA37EA08323F00E
:100C2000030343F00303A3760FE76B7BFF2B03D192
:100C30004FF40043A38332E740F603236E7CE38244
:100C400022464FF47A731549D5F86C06FFF760FE1B
:100C50006FEA46436FEA5343A383002E7FF4F5AE59
:100C6000C2E740F20223E5E7204608F040F8A38BF4
:100C7000002B3FF454AF84F8178075E72046FFF748
:100C800067FEE7754DE72046FFF762FE2369A18BFB
:100C9000C0E6002B3FF4A8AED7E600BF8F8D00085A
:100CA0002DE9F14F022209210446D0F86C8608F0A4
:100CB00028F820B90822204608F023F860B1042261
:100CC0000921204608F01DF801280FD12322082110
:100CD000204608F016F848B14FF47A732246404691
:100CE000464901B0BDE8F04FFFF712BE404607F09D
:100CF000D6FF4FF0FF374FF0000B2546D946FF26B1
:100D000008220921204607F0FCFF01285FFA8BFA30
:100D100009D10C2303FB0B42B2F82C1640F6230238
:100D2000914223D11FE095F82D26022A1ED1D5F835
:100D30002826D4F870168A422CD3BA4216D895F8D1
:100D40002C26222A08D095F82C26222A1ED1D5F846
:100D50002426928A3AB909E004F1080008F01EF846
:100D6000B0F1103FEFD25646D5F828760BF1010BC3
:100D7000BBF1060F05F10C05C2D1FF2E11D1B9F15F
:100D8000000FA9D00023C4F87036B4E702F0FD02CA
:100D9000212AC6E74FF00109E8E70133042B0DD102
:100DA00017E00C2303FB064393F82C26222A10D1CC
:100DB000D3F824168B8A63B90A680832104605787E
:100DC0000132102DE9D0DBB243F461438B82102352
:100DD00003700C2505FB0645D5F824263223106840
:100DE0000749D0F86C06FFF793FD042385F82D36EC
:100DF000C4F8707601B0BDE8F08F00BFA10C000808
:100E00008F8D000813B5837D0446022B04D0032B7D
:100E100054D040F202204DE0437E0168CBB1C08B3C
:100E200050B108230DF1060201F27461ADF80630ED
:100E3000FFF742FD0028ECD1206800F2746007F053
:100E4000ADFF30B9206800F5CF6007F0A7FF00289C
:100E5000DFD0627E2368002A9A730CBF102118210C
:100E6000F02000221974DA73587320681022184990
:100E7000113007F02DFF637E43B12068082200F295
:100E80007461213007F024FF637EABB9142320681E
:100E900008228380002100F2746007F01BFFE08BC2
:100EA00038B12168082201F27461FFF7E5FC0028DF
:100EB000AFD1002002B010BD1C23E8E703685B7BC4
:100EC000002BF6D0837E03F07F038376A1E700BF7B
:100ED0003BA30008F8B504460F46164607F0F0FE9F
:100EE0002CBB214D22460921284607F00AFFF0B10C
:100EF0002421012007F0E8FE0446C0B13323C0E9F5
:100F000003670560C3832B7BDBB929461748FFF7CE
:100F100013FD2146C5F86C061548256800F0F0FD64
:100F2000236828601A683AB9204607F0CFFE0024EB
:100F300007F0C8FE2046F8BD01211973D3F86C36BE
:100F4000136000230C25226802F22D6005FB03F1DB
:100F5000465C2EB9E37601230A4482F82D36E7E792
:100F60000133062BF2D1E3E7B8110020A10C0008F1
:100F70008109000810B58260064A00244260F02210
:100F8000C4820476417602842146FFF7F9FC2046AC
:100F900010BD00BF050E000810B5E8B040F60D24E6
:100FA0000B46ADF80C40A8B1A3B19AB10A49CDE9FE
:100FB00000010A4904A807F0E5F904A808F044FE76
:100FC00004A902460648FFF741FC0222044803A98F
:100FD000FFF73CFC68B010BD0CA200084BA3000852
:100FE000941100202DE9F041ADF5087D002440F674
:100FF0000D2306460F4690462146102207A8CDE94C
:101000000344ADF80830ADF81440069408F0F5FD3F
:10101000602221460CA806AD0B9408F0EEFD2EB31D
:1010200027B331460BA8B8F1000F23D108F0EDFD2E
:1010300018490BA808F0E9FD1749284608F0E5FD16
:10104000164B3A461649CDE9005324A80BAB07F0DE
:1010500099F924A808F0F8FD24A902461148FFF7E1
:10106000F5FB02220F4802A9FFF7F0FB0DF5087D02
:10107000BDE8F08108F0C9FD0B490BA808F0C5FDDB
:101080002846054908F0C1FD404603A907F089FE3E
:10109000D3E700BF54A300085FA200080CA2000819
:1010A0004BA30008941100205BA3000838B590F80A
:1010B000CA33044613F0FD0F2DD190F8C923B22A8C
:1010C0001AD0B32A2AD0B12A35D11BB9D0F874016D
:1010D000FFF7BEFAD4F87801FFF7BAFAB22384F822
:1010E000C9334FF4FA6322461449D4F89001FFF74C
:1010F0000FFC0025284638BD1BB9D0F87401FFF756
:1011000087FAD4F87801FFF783FAB32384F8C93358
:1011100042F6E063E7E7012380F87331084900F005
:10112000D7FC05460028E4D0002329461A4620466D
:1011300007F05EFEDEE74FF48175F5E7AD100008BD
:10114000F18D00082DE9F04F85B0B1F5837F1E4683
:1011500004468946924690F8403016D000252F4626
:10116000A846AB4601950295013B0A2B00F2478148
:10117000DFE813F0120017002C00D100EB00E500AF
:1011800045012001C80054008C00012B40F0128161
:1011900001210023656B30E1B9F1000FF8D1022184
:1011A000F7E7B9F5817F14D007F09DFD0323206395
:1011B00084F84030204607F069FF002800F0E58001
:1011C000062384F8403094F84030CDE7B9F5817FAC
:1011D00001D10523F5E7042EF2D99AF800305046E4
:1011E00003F0030202920AEB060212F8021C12F844
:1011F000012C0393C3F34118C3F3810B42EA01238B
:10120000B11E89B2019307F062FEBAF80170039B28
:101210007FBADB090546BFB20A33D2E7019BAB4276
:10122000CED1002FCCD07B1D9E42C9D1A8F10203A4
:10123000012BC5D994F84230013303F003039B45D9
:101240000BD0092384F8403000231A461946204663
:1012500005B0BDE8F04F07F055BE94F84130029A52
:10126000934201D00923ACE7B8F1010FB1D0324667
:101270005146E06A84F842B008F0D9FC0023042209
:10128000E68784F8443084F84020DEE7A8F10201C4
:101290004B4294F843204B419A4202D04FF009034D
:1012A0008FE7019BAB4294D1052EDBD8002FD9D11B
:1012B000B8F1020F0AD1012384F8463040F2093315
:1012C000A4F84030032384F842307CE7BBF1000FE0
:1012D000C8D1B8F1030FC5D094F84130029A9342B7
:1012E000C0D1B8F1010F3FF474AF01235A4684F81E
:1012F000403002215B46656B2046AC4605B0BDE838
:10130000F04F60470323204684F8403005B0BDE825
:10131000F04F07F0BBBEB9F5817F3FF45AAF012310
:1013200084F84030E38FE26A94F84310053B656B24
:1013300003329BB209B10421DEE70621DCE7022378
:10134000012284F84030002380E707F0CCFC2369B9
:10135000C01A2D4B984225D894F84420032A17D15F
:101360000121002384F8461040F2053184F8422020
:10137000A4F840100222194684F84430204607F0B1
:10138000C1FD90B1062384F8403005B0BDE8F08F70
:101390000223013284F8442084F8403000220123E3
:1013A000A18FEBE74FF008030BE794F84030082BD0
:1013B000EBD108E794F846300121BBB984F8451019
:1013C00040F20533A4F84030032384F84230002370
:1013D00084F8461002221946204607F093FD0823A0
:1013E00084F84030002384F84530CEE794F8453047
:1013F000002BE5D1656B84F840101A467CE701218B
:1014000084F84010C5E600BF1FBF020038B50023B6
:101410000D4680F840300D49044600F005FA90B9B9
:1014200040F20133A4F84030032384F8423004F53D
:10143000CD73A36204F52C73656384F8460084F8C9
:101440004500E36238BD4FF48170FBE745110008A9
:1014500010B590F840300446012B11D1032280F8DA
:101460004020002280F8433080F8442007F03BFC05
:10147000054B2063A3632046BDE8104007F006BE7D
:101480004FF4817010BD00BF20BF0200084B80F8F0
:101490005810036540F20113A0F85420A0F86E31F3
:1014A00000F158010122D0F87C01FFF76FB900BFAD
:1014B000C800010038B500230446D0F87C018568D7
:1014C000836007F0C7FBD4F87C319D6070B1B4F83D
:1014D00050305A1EA4F850204BB1D4F890014FF46C
:1014E0007A7322460349FFF713FA012038BD4FF4FF
:1014F0008170FBE7F914000837B54FF48171044699
:10150000B0F896315BBAADF8043094F87231662BBE
:1015100070D010D8332B3FD007D8112B00F0848027
:10152000222B00F0888003B030BD442B3DD0552BDA
:10153000F9D1662331E0AA2B00F0838011D8772BF4
:1015400063D0882BEFD1AA2384F87231B4F85830D5
:10155000B4F896015BBA9AB29042D6D3A4F8963109
:1015600009E0BB2BDFD164212046FFF7A3FF20B9A0
:10157000332384F872310021C7E7B0F5817FD2D1DF
:10158000AA23224684F87231344942F6E063D4F843
:101590009001FFF7BDF9C6E744230422842184F8B3
:1015A00072312046FFF772FFBDE78022B4F85A304F
:1015B0008DF80020B4F894215BBAB2F5C87F9BB2D5
:1015C0000FD9B3F5C87F11D804238DF80130552306
:1015D000022284F8723189216B46204607F0F8FC1C
:1015E000A1E7B3F5C87F01D90323EEE7662384F8AA
:1015F00072318AE7B4F85A30B4F894215BBA9BB2DE
:101600009A428CBFAA237723F1E72046B4F89411BD
:10161000FFF750FF08B91123ABE7B0F5817F82D106
:10162000AA2384F872317EE72223022284F87231E1
:10163000812101ABD1E788230222812184F8723114
:10164000AFE7B1FA81F35B095B0084F871310023E5
:1016500020461A46E56CA84765E700BFF914000864
:1016600013B50023ADF8043090F87331993B0A2B81
:101670000ED8DFE803F0060D0D0D0D0D0D0D340F26
:101680002800A2230422822180F87331FFF7FEFE96
:1016900002B010BD90F8583003F0080380F85830BD
:1016A00043B1A323022280F87331882101AB07F0F4
:1016B0008FFCEDE702224FF4817180F87121C46C38
:1016C0001A46A047E4E7A123024680F87331074990
:1016D00042F6E063D0F89001FFF71AF9D8E701234A
:1016E00080F87131FFF708FFD2E700BF61160008EC
:1016F00070B590F871310446013B042B66D8DFE8E1
:1017000003F0070B19570300BDE87040FFF7A8BFAF
:10171000BDE87040FFF7F0BE032380F8713190F808
:101720007031022B06D1042282212046BDE8704090
:10173000FFF7ACBE94F87031022B11D194F85830F9
:101740005B061BD5B4F85A20C2B1B4F8963152BA30
:1017500092B2934212D30423802184F87131E4E7DA
:10176000012B0BD1042384F871312046A36CB4F80B
:1017700056208021BDE8704007F02ABC07F0B3FA7C
:10178000236BC01AA36B984209D22246D4F8900169
:1017900041F28833BDE870400D49FFF7B9B8022324
:1017A00084F8713100234FF481711A46E56C08E02A
:1017B0000223002180F87131C56CB0F8543000F17B
:1017C00058022046AC46BDE8704060470123E7E779
:1017D000C98F000810B40246E1B1013901291CD8B3
:1017E000B0F85030591EA0F8501043B14FF47A733E
:1017F0000B49D2F890015DF8044BFFF789B802213C
:10180000C46C80F87111A4461A464FF483715DF8D8
:10181000044B604732230349EBE75DF8044B704704
:10182000099000083790000810B5002380F8713146
:10183000BB230446C16480F8723194F8C633D0F8F3
:101840007C010373104B8360C823A4F8503094F8D4
:10185000CB33012B0BD094F87331012B0ED0012325
:10186000204684F87131FFF743FF002010BDFEF7DA
:101870003FFF0028EFD04FF48170F7E7992384F8F9
:1018800073310523ECE700BFD51700082DE9F74FAA
:10189000002601F001090446884617461D46B34656
:1018A000CA461FB197F800B00BF007065346BAF1CD
:1018B000000F1AD1002D7DD1002284F82520A27FAF
:1018C000013A072A00F2FA80DFE812F015001F0043
:1018D000F8004900A700F600E300CC000623A37738
:1018E0004FF48173A383012364E00622A2774FF4AF
:1018F0008172A283DEE700231A461946E568204676
:10190000AC4603B0BDE8F04F604718F0020F09D0B5
:10191000228BE38A9A420DD2072E02D10823A377A5
:10192000BFE70DB10623FAE7204603B0BDE8F04F4C
:1019300007F0BCBB0423A3770023A38284F82130E3
:10194000012318F0040F84F82230AAD12046FFF7B3
:101950007FFD08B10623A37703B0BDE8F08F18F030
:10196000040FDFD0002DDDD0A38BB3F5827F08D12B
:10197000042ED7D02046FFF76BFD0028D2D10423D8
:10198000E9E79723F340DB0794F82120C6D54F4BB6
:1019900013F81610914204D003EB46035B78934290
:1019A000BCD184F821609FB9B9F1000F96D106230C
:1019B000A377002394F82520002A7FF47DAFBBF1A4
:1019C000070F81BF0622A2774FF48172A28373E7CB
:1019D00016F0030602D00523A37763E7A08AA26866
:1019E00043191288013B934204DD4FF48273A383B1
:1019F0000623F1E76368013D2A46791C184408F084
:101A000016F90122A38AA2771D44A268ABB2A38271
:101A100031461380E568626871E7628B531C9D4212
:101A200001D007237BE7A08AA16843190988013BFD
:101A30008B4204DD4FF48273A38304236FE7002FEE
:101A4000B2D06368791C1844019208F0F0F8A38AB8
:101A5000019A0BF0070B1A440423A28284F821B0E8
:101A6000A37773E7012D03D994F82230012BD8D046
:101A7000E37F5A1CE277002B7FF454AF2383A382C9
:101A800002232046A37707F011FB00287FF44AAF1A
:101A900062E70223A37794F820305A1C84F82020B0
:101AA000002B7FF43FAF07220121204684F89D21BF
:101AB000A38207F06EFAE8E72B4301D00123A37756
:101AC0000023E5681A46A18B19E700BF77A3000839
:101AD00038B500230D46837708490446FFF796FC86
:101AE00048B9012384F82530A377B4F89631E5602E
:101AF000063B638338BD4FF48170FBE78D18000807
:101B0000F8B5084D07462C7C0E4634B907F098F816
:101B100028B90123C5E902672B740248F8BD2046A5
:101B2000FCE700BFF82B002010B5044698B1437CB9
:101B3000012B10D0012343744068084BC0F8844146
:101B4000C0F880312368C0F8903107F068F908B117
:101B50000023637410BD4FF48170FBE74F910008C0
:101B600037B5044698B1407C012810D00120094DBA
:101B700060746068C0F88051069DC0F8844100958B
:101B800007F06AF908B10023637403B030BD4FF465
:101B90008170FAE74F91000810B5044680B1437C8C
:101BA000012B0DD0012343744068074BC0F88441DA
:101BB000C0F8803107F069F908B10023637410BDE3
:101BC0004FF48170FBE700BF4F910008F8B506465F
:101BD00017460D4699B12421012007F075F80446F7
:101BE00068B100230246C0E9067503840549304602
:101BF000FFF770F9606118B9204607F067F8002414
:101C00002046F8BD6591000808B5034807F0D0FBF1
:101C1000BDE8084006F0F9BF1CA70008014807F01E
:101C2000C7BB00BF1CA700080348044A0449121A96
:101C3000921007F00ABB00BF700100087001000895
:101C4000F027002008B500F02FF8FFF7EDFF124B4A
:101C500012498B4212D30020114B12498B4218D3E8
:101C6000FEF75CFB186850F82240586840F82240A4
:101C7000013298688242F5D30C33EAE70022F8E794
:101C80001C6844F8220001325C68A242F8D3083391
:101C9000E4E70022F8E700BFB0AD0008BCAD0008E3
:101CA000BCAD0008BCAD000870B54FF48041124BCC
:101CB000124A134D9A60D3F8882005F5005442F477
:101CC0007002C3F888200F4A91664FF0FF322266F7
:101CD0000D4A62660222C3F8D020BFF34F8FBFF3D4
:101CE0006F8F4FF44036002002F0C2FE0020E66005
:101CF00002F0A4FE2E6170BD00ED00E000000008BF
:101D000000800044009000507FFF7F01014B186865
:101D1000704700BF102C0020014B1860704700BFB7
:101D2000102C0020084B1B6F03F00703022B04D07C
:101D3000032B05D0012B05D0FEE7044B1868704734
:101D4000034BFBE70348704700800050102C002035
:101D5000182C0020002D310108B5FFF7E3FF054BDB
:101D60001B6FC3F303330133B0FBF3F0024B186076
:101D700008BD00BF008000500C2C002000487047B8
:101D800000B4C404014B1868704700BF182C002031
:101D9000054B1860054B1B6F03F00703032B01D1A4
:101DA000FFF7DABF704700BF182C002000800050FA
:101DB00000487047002D31014FF0B4439868C0F3DC
:101DC00004400C280AD8DFE800F00B0909090909CA
:101DD000072119091B1D1F000F487047002070477D
:101DE0009B6803F04073B3F1807F11D0B3F1007FA3
:101DF00010D00A4A002B08BF1046704708487047A9
:101E000008487047084870470848704708487047B6
:101E10000848704708487047405DC60000093D000B
:101E2000C0EA210180BA8C010048E801005A620230
:101E30000024F40080841E0040420F00014B18680B
:101E4000704700BF142C002013B5002429480194CA
:101E500007F0AEFA012304220321204601F086FE9A
:101E6000204607F098FA0122234B0520C3F84424AA
:101E700001A907F098FA002839D1204BD3F8F020B7
:101E800042F00102C3F8F020D3F8FC2042F0807247
:101E9000C3F8FC201A4AA3F55D431A60019B194A56
:101EA00003F5D52303F2FC43B3FBF2F3164A013BDF
:101EB00013610223C2F8F0304FF48073C2F8043388
:101EC0004FF06043114AC3F8B02F114AC3F8802E77
:101ED000D3F8002E42F48072C3F8002EFF2283F85C
:101EE0002020D3F8002E22F48072C3F8002E02B016
:101EF00010BD00BF1CA7000800D0035000ED00E09B
:101F0000FF030040F8590D00000004E055CEACC5B9
:101F10000900010030B54FF06043D3F8802ED2079E
:101F200015D501240B4D8440D5F8FC2042F0807279
:101F3000C5F8FC20D3F8002E2243C3F8002E53F836
:101F40002020002AF0D003F82010002030BD1120FE
:101F5000FCE700BF00ED00E02DE9F04F85B004463E
:101F600018B9AD21464807F083F92368B3F1B64F9D
:101F700007D0444A93427BD1434807F019FA012520
:101F800003E0424807F014FA002501230A22A17950
:101F9000207901F0EBFD01230A22E179607901F05B
:101FA000E5FD4FF00A08DFF8F090DFF8F0A0384FB9
:101FB000267994F806B0032E05D83AF8163023FA9D
:101FC0000BF3DA0704D440F2FE31484607F050F92B
:101FD0003022012302FB067603FA0BF306F50156C5
:101FE0003360642004F062F8267994F806B0032E7A
:101FF00006D8284B33F8163023FA0BF3DB0704D44A
:1020000040F22D41484607F033F93022012302FB0C
:10201000067603FA0BF306F582566420336004F06B
:1020200045F8B8F10108C3D1032307EB0512C2F844
:102030003835A1792379543543EA0143C2F83C3558
:10204000E27963792D0143EA02437B5140F20113A7
:10205000ADF80030E36869460293A36820680193F5
:10206000237C8DF80C3001F091FE05B0BDE8F08FB7
:10207000D221034805B0BDE8F04F07F0F9B800BF22
:1020800087A300080080065014A7000818A70008BE
:1020900000C00350EAA30008B4A20008EAA30008A5
:1020A00038B5054601F0C2FF044C012801D1013CBE
:1020B00000D138BD284601F09BFEF6E7E19304000D
:1020C0002DE9F04F85B09A46554B06461B780F46D2
:1020D0001546DDF83C909DF844B0DDF85080002BAB
:1020E00000F09780072A00F296800E9B002B00F0EC
:1020F0009280B9F1000F00F08E80129BB3F5006F53
:1021000000F38980012803D1109B002B00F083800D
:10211000444B03EB05131B7B002B7ED0424C10225B
:102120000021684607F069FD04EB45141022A7BBA7
:102130003946204607F061FD43F210036380BBF18E
:10214000000F03D1E37843F00303E370364A0E9B9C
:1021500002EB451CCCE90193129B6901581E9DF8C6
:102160004C30C0F30A0003F003039B0643EA001E51
:1021700053582E48012E00EA03004EEA0003CDF822
:1021800000A0535017D0B8F1000F2ED19CF80230A8
:1021900068F304138CF8023027E00021204607F092
:1021A0002CFD4FF444736380BBF1000FCED1E37874
:1021B00043F03003C9E713230CF1100ECCF80C30B8
:1021C0009CE80F008EE80F006FF00301DCF81C2084
:1021D000109B61F39F02012FCCF81C20CCF8143027
:1021E00003D1CCF81890CCF8043000270D4A29010F
:1021F00002EB051342F80180159A28465A60694699
:1022000022469F605E7301F0EDFF384605B0BDE8E1
:10221000F08F0748FAE70748F8E70748F6E700BFF6
:102220004727002034190020341800200F80FFF3C6
:10223000028000F0018000F0078000F038B5124BFA
:1022400005461B78DBB1E0B107F01AF80F4A00230E
:102250001146147B54B92B6001251A0101EB0313BD
:102260001D738C5007F012F8204638BD0133082B3F
:1022700002F11002EDD107F009F80548F5E705482D
:10228000F3E70548F1E700BF472700203419002095
:10229000048000F0028000F0018000F038B506F004
:1022A000EFFF002305460B4A147B6CB90133082B62
:1022B00002F11002F8D101F017FF074B28461C70FD
:1022C00006F0E4FF204603E0284606F0DFFF03485F
:1022D00038BD00BF3419002047270020058000F0DA
:1022E00010B50D4B04461B7893B1072812D806F0A1
:1022F000C7FF0A4B03EB04131A7B2AB100241C739B
:1023000006F0C4FF204610BD06F0C0FF0448FAE7FF
:102310000448F8E70448F6E747270020341900206E
:10232000068000F0028000F0018000F013B5154B2C
:102330001868002301908DF8043006F0A1FF124BBD
:102340001C7824B106F0A2FF104802B010BD012293
:102350001A7006F09BFF0E4B01A81C731C7783F8C4
:102360002C4083F83C4083F84C4083F85C4083F871
:102370006C4083F87C4008238DF8073001F0EAFEBA
:102380002046E2E7F2A3000847270020038000F080
:102390003419002008B50A4A12785AB107280BD818
:1023A000084A02EB00131B7B43B1002101F0B2FE8F
:1023B000002008BD0448FCE70448FAE70448F8E7B1
:1023C0004727002034190020028000F0018000F02F
:1023D000078000F008B50A4A12785AB107280BD8CE
:1023E000084A02EB00131B7B43B1012101F092FE6E
:1023F000002008BD0448FCE70448FAE70448F8E771
:102400004727002034190020028000F0018000F0EE
:10241000078000F008B50A4A127852B107280AD896
:10242000084A02EB00131B7B3BB101F061FF002067
:1024300008BD0548FCE70548FAE70548F8E700BF8E
:102440004727002034190020028000F0018000F0AE
:10245000078000F00D4B1B7893B1072812D889B183
:102460000B4B03EB00131B7B73B10A4B1A6D01235B
:102470008340134214BF0123002300200B707047D8
:1024800005487047054870470548704747270020B2
:102490003419002000000450028000F0018000F098
:1024A000078000F010B50B4A0C46127862B107287D
:1024B0000CD859B1084A02EB00131B7B43B101F061
:1024C00033FF2070002010BD0448FCE70448FAE701
:1024D0000448F8E74727002034190020028000F064
:1024E000018000F0078000F02DE9F041174B1F6DCF
:1024F0005B6D1F4000D5FEE701260025144CDFF878
:102500005880374218D02368C8F85060A3B1A1683A
:10251000284601316268A1609847637B012B0BD18B
:1025200050B90C4B03EB45131A7B60F341021A734D
:102530001A7F60F341021A770135082D4FEA4606EB
:1025400004F11004DDD1BDE8F08100BF00000450AB
:10255000341900203418002000200450044BD3F814
:102560008420D206FBD4D3F88400C0F381107047D6
:102570000040005008B5334B98424FD027D8324B1B
:10258000984245D017D8314B98423ED00AD838B13E
:102590002F4B984239D041F2A6312E4806F068FE02
:1025A000002034E02C4B98422FD02C4B9842F2D193
:1025B0002B4B586E2BE02B4B98422CD003F5371346
:1025C00003F5D8639842E6D1254B986F1FE0264B60
:1025D00098422FD00CD8254B984223D0244B9842B8
:1025E00024D0244B9842D6D11D4BD3F884000EE062
:1025F000214B984222D003F5740303F510539842FF
:10260000C9D1174BD3F8980001E0154B986D08BD60
:10261000134B186FFBE7124B586FF8E7104BD3F8CA
:102620008000F4E70E4BD3F88800F0E70C4BD3F8AA
:102630008C00ECE70A4BD3F89000E8E7084BD3F89E
:102640009400E4E780BA8C01405DC60080841E00DF
:1026500040420F00F6A3000800093D00C0CF6A0009
:102660000080E00F0024F400007E560380D5430272
:10267000006CDC020048E8010090D00338B51A4B2A
:102680000546D3F820010C4600F00700062821D8A3
:10269000DFE800F028040C1410181C00FFF736FBCC
:1026A000052305B1286004B1236038BDFFF76AFB3C
:1026B0000323F6E7FFF780FB0723F2E7FFF778FB3A
:1026C0000223EEE7FFF722FB0623EAE7FFF75AFBB8
:1026D0000423E6E7054841F27C2106F0C9FD00230A
:1026E0001846DEE70123DCE700800050F6A300086F
:1026F00038B5194B0546D3F828310C4603F00703CB
:10270000013B052B20D8DFE803F003131B0F0B1749
:10271000FFF7FCFA052305B1286004B1236038BD3A
:10272000FFF7F4FA0623F6E7FFF746FB0723F2E785
:10273000FFF728FB0323EEE7FFF724FB0423EAE778
:10274000FFF736FB0223E6E7044841F2840106F076
:102750008FFD00231846DEE700800050F6A3000836
:10276000F7B50027144B0197D3F88041064604F0D3
:102770000304022C0D4614D0032C0DD0012C14D1CF
:10278000394601A8FFF77AFF0F240EB1019B336091
:1027900005B12C6003B0F0BDFFF70EFB07240190DC
:1027A000F3E7FFF705FB0190EFE741F2D131034872
:1027B00006F05EFD3C46E8E700800050F6A3000806
:1027C00038B50F4B0546D3F890320C4603F003039F
:1027D000012B09D0022B0BD1FFF7EEFA072305B12D
:1027E000286004B1236038BDFFF7E2FA0223F6E760
:1027F000044841F2701106F03BFD00231846EEE755
:1028000000800050F6A3000837B500230193194B50
:102810000546D3F820320C4603F00703042B1FD8DB
:10282000DFE803F025030F141900002101A8FFF7CA
:102830005FFF11230DB1019A2A6004B1236003B038
:1028400030BDFFF7B9FA07230190F3E706F00AFD60
:102850000A230190EEE7FFF7F1FA09230190E9E777
:1028600041F24301044806F003FD0023E2E701239F
:10287000E0E700BF00800050F6A3000838B5104B19
:102880000546D3F840310C4603F00303022B0BD06E
:10289000032B0DD0012B0FD106F0E4FC0A2305B168
:1028A000286004B1236038BDFFF7C8FA0923F6E7B2
:1028B00006F0DBFC0B23F2E701230020EFE700BF6B
:1028C0000080005037B500230193184B0546D3F81C
:1028D00060320C4603F00703013B032B1FD8DFE8EF
:1028E00003F0020E1914002101A8FFF7C7FE0F2301
:1028F0000DB1019A2A6004B1236003B030BD0021FC
:1029000001A8FFF7BBFF1023F2E7FFF755FA0723F3
:102910000190EDE7FFF74CFA02230190E8E741F25E
:10292000E801034806F0A4FC0023E1E70080005022
:10293000F6A3000873B500240F4B0194D3F870324E
:10294000064603F00303012B0D4607D0022B11D0DE
:1029500041F24611094806F08BFC04E0214601A82B
:10296000FFF78CFF10240EB1019B336005B12C6082
:1029700002B070BD1424F6E700800050F6A30008F2
:1029800038B5164B0546D3F800020C4600F0070098
:10299000042819D8DFE800F020030B0F130006F01D
:1029A00061FC0A2305B1286004B1236038BDFFF73C
:1029B00045FA0923F6E706F058FC0B23F2E7FFF788
:1029C000CBF90E23800AEDE7054841F28F4106F06E
:1029D0004FFC00231846E5E70123E3E700800050A1
:1029E000F6A3000838B5164B0546D3F808020C4686
:1029F00000F00700042819D8DFE800F020030B0FCF
:102A0000130006F02FFC0A2305B1286004B12360EF
:102A100038BDFFF713FA0923F6E706F026FC0B236F
:102A2000F2E7FFF799F90E23800AEDE7054841F236
:102A3000C74106F01DFC00231846E5E70123E3E744
:102A400000800050F6A3000838B5104B0546D3F8B7
:102A500040320C4603F00303022B0BD0032B0DD0A6
:102A6000012B0FD106F0FEFB0A2305B1286004B14B
:102A7000236038BDFFF7E2F90923F6E706F0F5FB1E
:102A80000B23F2E701230020EFE700BF0080005096
:102A900038B5124B0546D3F850320C4603F0030309
:102AA000022B0FD0032B05D0012B0FD106F0DAFB40
:102AB0000A2302E006F0D9FB0B2305B1286004B11C
:102AC000236038BDFFF7BAF90923F6E7044841F25D
:102AD000B40106F0CDFB00231846EEE7008000505D
:102AE000F6A3000838B5104B0546D3F860310C4604
:102AF00003F00303022B0BD0032B0DD0012B0FD1BE
:102B000006F0B0FB0A2305B1286004B1236038BD8C
:102B1000FFF794F90923F6E706F0A7FB0B23F2E78A
:102B200001230020EFE700BF0080005010B5B0F592
:102B3000207F34D009D8B0F5007F2AD003D898B1CF
:102B4000B0F5C07F10D0002421E0B0F5607FFAD14D
:102B5000154BD3F88030C3F301149B0617D5032C13
:102B600015D040F296210FE00F4B1C6F230B13F092
:102B70000E0FC4F303340AD0072C08D00F2C06D054
:102B8000032C04D040F28621084806F071FB601C3B
:102B900010BD054BD3F89040C4F30464F7E7024B33
:102BA0001C6FC4F38024F2E700800050F6A30008F5
:102BB00038B54FF48032104B04469A6600200D461B
:102BC000FFF7B4FF41F671320C4B6043DC69DA6306
:102BD0005A6804F4803422F440125DB908498842EE
:102BE00094BF00200120000502435A600CB100226E
:102BF000DA6338BD0349F2E700900050000003504B
:102C0000005A6202002D310138B5430904460D46D1
:102C10000ED140F233310D4806F02AFB002304F0B8
:102C20001F0485B103F580530122A2401A6038BD0C
:102C3000012B04D0022B04D040F24131EBE7044BCE
:102C4000EDE7044BEBE703F50053EDE7F6A30008CF
:102C5000648000506880005030B585B00021B0F528
:102C6000807F0446019100F000816BD8002800F0BD
:102C7000DA80A0F12004602C74D8602C72D8DFE8D0
:102C800014F0D200D500D200D500EA00EA00EA0034
:102C9000EA00EA00D500EF007D0005019D007D00FF
:102CA000D500D500D5007100710071007100710070
:102CB000710071000501D500D500D5001D010A0184
:102CC000D500710071007100710071007100710018
:102CD000710071007100710071000F01EA00D200F3
:102CE000D200D200B0007D007D00B8001401920037
:102CF000C700C700710071007100710071007100A0
:102D0000710071007100710071007100710071003B
:102D1000710071007100710071007100710071002B
:102D2000710071007100710071007100710071001B
:102D3000710071007100710071007100710071000B
:102D40007100CC00B0F5E06F00F0A5803BD8B0F585
:102D5000607F76D01DD8B0F5007F72D008D8B0F56E
:102D6000C07F60D04FF49361574806F081FA57E076
:102D7000B0F5207F5AD0B0F5407FF3D1FEF7ECFFDD
:102D800004464FF42070FFF7D1FEB4FBF0F4640862
:102D900055E0B0F5B06F63D00AD8B0F5806F5AD067
:102DA000B0F5A06FDED1002101A8FFF72DFD37E0BF
:102DB000B0F5C06F6AD0B0F5D06FD3D1002101A8B3
:102DC000FFF7DEFD2CE0B0F5286F6ED016D8B0F519
:102DD000186F65D00AD8B0F5F06F6FD0B0F5106FEE
:102DE000C0D1002101A8FFF7FDFD19E0B0F5206F6B
:102DF000B8D1002101A8FFF765FD11E0B0F5306FF3
:102E000058D0AFD3B0F5386F40D0B0F5406FA9D1EE
:102E1000002101A8FFF76CFC02E0FEF783FF0190A0
:102E2000019805B030BDFEF797FFF8E7FEF794FF75
:102E300004464FF42070FFF779FEB4FBF0F40194E0
:102E4000EEE7FEF76FFF05462046FFF76FFEB5FB86
:102E5000F0F50195E4E7002101A8FFF70FFCDFE79B
:102E6000002101A8FFF77CFCDAE74FF0E023029194
:102E70001B695B0705D5FEF76FFF0290029B01936C
:102E8000CEE703A902A8FFF7F9FCF7E7002101A8A4
:102E9000FFF7F4FCC4E7002101A8FFF7D5FDBFE769
:102EA000002101A8FFF7F4FDBAE7002101A8FFF710
:102EB00041FDB5E701A8FFF783FCB1E7002101A8B8
:102EC000FFF710FEACE700BFF6A3000808B58020AE
:102ED000FFF7C2FE034B98429EBF4FF48032024B75
:102EE0001A6708BD005A620200A000501FB50346D1
:102EF0000020B3F5807F019000F0D78077D8582B61
:102F000068D8382B05D8243B092B49D940F27D518C
:102F1000BFE0393B1F2BF9D801A252F823F000BFC4
:102F2000CD3000080D2F00080D2F00080D2F0008D0
:102F3000D73000081D3100080D2F00080D2F0008A4
:102F40000D2F00080D2F00080D2F00080D2F000871
:102F50000D2F00080D2F00080D2F00080D2F000861
:102F60000D2F00080D2F00080D2F00082731000835
:102F7000153000080D2F00080D2F00080D2F000838
:102F8000593000080D2F00080D2F000831310008BE
:102F90003B310008133100087B3000087B3000080B
:102FA000092BB3D801A252F823F000BF1530000856
:102FB00015300008153000081530000815300008DD
:102FC0000D2F00089B3000080D2F0008CD300008A1
:102FD00033300008802B99D15C4B1B6F03F0070343
:102FE000013B032B53D8DFE803F0504D8890B3F535
:102FF000086F75D022D8B3F5C06F67D00FD8B3F57E
:10300000A06F00F08680B3F5B06F46D0B3F5806F47
:103010007FF47CAF002001A9FFF730FB41E0B3F55E
:10302000E06F7BD0B3F5F06F55D0B3F5D06F7FF480
:103030006DAF002001A9FFF7A3FC32E0B3F5286FC4
:103040007BD00ED8B3F5186F6DD0B3F5206F6FD06D
:10305000B3F5106F7FF45AAF002001A9FFF7C2FC4F
:103060001FE0B3F5306F6DD0FFF450AFB3F5386F9C
:103070002CD0B3F5406F7FF449AF002001A9FFF7D2
:1030800037FB0EE0052301930BE00223FBE740F240
:10309000CA412F4806F0ECF803E0002001A9FFF731
:1030A0005FFB019805B05DF804FB4FF0E023029050
:1030B0001B695B0705D5FEF74FFE0C230393039BAB
:1030C000E1E703A902A8FFF7D9FBF8E7002001A96F
:1030D000FFF7D4FBE5E7002001A9FFF703FDE0E7D8
:1030E0001A4BD3F8003103F00303022B07D0032B54
:1030F00009D0012B0BD1FEF745FE0323C3E7FEF7F2
:103100009DFE0923BFE706F0ABF80823BBE70123C8
:10311000B9E7002001A9FFF777FBC2E7002001A96A
:10312000FFF792FCBDE7002001A9FFF7B1FCB8E76B
:10313000002001A9FFF7C6FBB3E7002001A9FFF7B4
:10314000F9FBAEE701A9FFF73BFBAAE700800050BF
:10315000F6A300084FF48032074B0849586E03F578
:1031600080535A664B6A23F001034B62C3035CBF72
:10317000034B5A66704700BF0080005000C00750E4
:1031800000A00050F8B5036804460F2B04D940F6A0
:103190007731804806F06CF863680F2B04D940F64D
:1031A0007A317C4806F064F8A3680F2B04D940F606
:1031B0007D31784806F05CF8237B0F2B04D94FF45F
:1031C0003861744806F054F8637B0F2B04D940F63D
:1031D0008331704806F04CF8A37B3F2B04D940F6AE
:1031E00086316C4806F044F8E37B3F2B04D940F667
:1031F0008931684806F03CF82369032B04D940F66E
:103200008C31644806F034F86369032B04D940F626
:103210008F31604806F02CF8E369032B04D940F69F
:1032200092315C4806F024F88020FFF75FFE032807
:1032300000F08A804FF48012574B584D5A6645F67D
:103240000E034FF0A062C5F88030554B9A624FF4E0
:10325000803203F580539A62AB6DDA03FCD4AE6D15
:1032600016F08046FBD1D4E900231B0543EA026334
:10327000E27B4C481343227B4B4F43EA0243627B81
:1032800043EA0233A27B43EA82132B61AA69D4E9A1
:1032900004131B0643EA816302F000421343A27E3B
:1032A0004FF440611343227E43EA0243627E43EAC5
:1032B0000223AB614FF4006206F023F82B6AE17E33
:1032C000E26923F00F0343EA8103002A3DD12B6218
:1032D00094F8243094F82010AA6ADB0043EA4113E2
:1032E0003A40134394F82120304943EA021343F44F
:1032F00080332A4AAB62936D31EA0303FBD14FF06E
:103300008071274881621369A56823F4700343EA3A
:10331000055313614FF00043836194F822300BB9D9
:10332000234B996294F823303BB94FF48032204B01
:103330009A621A4A936D5B00FCD494F825301BB155
:10334000164B1C4AC3F88020F8BD134343F0080312
:10335000022A2B6208D12E614FF408524FF47F41AC
:103360001548AE6105F0CDFF0C4994F822308A6A09
:1033700094F820001B063A4043EA4013134394F8A4
:10338000242043EAC20394F8232043EA02438B62D9
:10339000D3E700BFF6A30008009000500040005A99
:1033A0000050005A3840005AC7FFFEFE03000100DB
:1033B0000060005AF1A7FFFF3440005A014B93F917
:1033C00000007047C62C002010B543680446072B48
:1033D00004D940F6D3512A4805F04AFFA368032BCD
:1033E00004D940F6D551264805F042FF2378032B37
:1033F00004D940F6D751224805F03AFF94F901303C
:10340000002B04DA40F6D9511D4805F031FF4FF486
:1034100000011C4A637851664FF4D151022002F535
:10342000B832516218494F2B48604FF0010028BF55
:103430004F2301F5805148601169C903FCD42178FC
:1034400043EA01235361D4E901131B0143EA012339
:10345000617B0B43217B43EA41039360E37BA17BC8
:103460001B0143EA4113617C0B43217C43EA410386
:103470005360A37C13B16FF4D153536210BD00BFEE
:10348000F6A300080090005000100250014B188075
:10349000704700BF822C0020014B1880704700BF8E
:1034A000802C002010B5B0F5207F65D00ED8B0F587
:1034B000007F4FD003D800B3B0F5C07F1DD040F2DD
:1034C0001631BDE81040344805F0D2BEB0F5607F3B
:1034D000F5D14C1E012C06D9042904D040F2F72165
:1034E0002D4805F0C5FE2D4AD2F8803023F0300378
:1034F00043EA0413C2F8803010BD4C1E012C0AD9D7
:10350000102903D8264BCB40DB0704D440F2C92155
:10351000214805F0ADFE05F003FF05F00FFF4FF465
:103520008031204B1D4A1967136F23F4704343EA1F
:1035300004331367FEF710FC0446FFF70FF8C0F1E1
:103540000201204605F0F4FE00F03EF8BDE8104010
:10355000FFF7BCBC4C1E1F2C04D940F20A310E48A8
:1035600005F086FE0D4AD2F8903023F0F85343EA76
:103570000463C2F89030BFE74C1E012C04D94FF40D
:103580004471054805F074FE044A136F23F4806308
:1035900043EA84231367AFE7F6A3000800800050D6
:1035A000100101000090005008B50121022000F038
:1035B00071F905F0B5FE05F0C1FE4FF48032014B04
:1035C0001A6708BD0090005008B54FF4C070FFF7AF
:1035D00043FBBDE808400449884294BF0121022111
:1035E0004FF42070FFF75EBF80F0FA022DE9F04142
:1035F0000546FEF7BFFF431E0333044604D940F6D9
:10360000CF113B4805F034FE4FF4C022394B5A66C7
:1036100003F598335A68012A04D137494A605A6839
:103620009207FCD48020FFF761FC052807D105F044
:1036300077FE05F083FE4FF480322E4B1A672F4B36
:1036400024F040749D4239D02D4B9D4239D0FEF775
:103650005DFB8542064603D90121284600F06EF93C
:10366000284FFB6813F0060FFBD1D7F80880BC6029
:10367000BB68634013F4F81F26D12846FEF74CFBC5
:103680008020FFF733FC052814D1FEF765FBA84224
:10369000044604D940F62821154805F0E9FDFEF757
:1036A0005DFFC0F10201204605F042FEFFF78CFFEE
:1036B000FFF70CFCAE4213D2BDE8F08144F0007479
:1036C000C5E744F08074C2E740F61721084805F0CA
:1036D000CFFD8020C7F80880FFF708FC052805D03B
:1036E000BDE8F0410121002000F028B93546CCE7C3
:1036F000F6A300080090005000E0015040420F0087
:1037000080841E000000015070B54E4B0546984263
:1037100073D041D8A3F5B703A3F55863984265D099
:1037200033D8494B494E984251D017D8002877D00A
:1037300041F2C911464805F09BFD40F673714448BB
:1037400005F096FD4FF40022404B5A663E4B9D42D9
:1037500076D000243F4A954236D05DE03D4B9842FA
:1037600027D03D4B9842E3D13C4BD3F8A040621E9A
:10377000033224F040744CD940F67371344805F09C
:1037800077FD4FF400237366E4E7354B9842CFD1C1
:10379000324BD3F8BC402CE0324B984231D0324B04
:1037A000984232D0314B9842C2D12C4BD3F8C8400A
:1037B0001FE02A4BD3F8A040621E033224F040746D
:1037C000DAD84FF40023736644F0807424E0234B6E
:1037D000D3F8A040621E033224F040742AD84FF47C
:1037E00000237366234643F0007415E01B4BD3F8A7
:1037F000B840621E154E0332BBE7184BD3F8C040E9
:10380000F7E7164BD3F8CC40F3E7144BD3F8D0408E
:10381000EFE74FF4002373664FF0B442946070BD3D
:1038200040F673710A4805F023FD4FF400232C463F
:103830007366F1E740F67371054805F019FDCEE7B0
:103840000023D0E7C0EA210140420F000090005061
:10385000F6A3000880841E0000093D000080E00FF0
:103860000024F4000048E801005A620280BA8C018A
:10387000024A536B0342FCD1704700BF004009501D
:10388000034A0179D36E23F030030B43D3667047AC
:1038900000400050F8B50446244BD3F88420D006ED
:1038A000FBD4D3F88430C3F381139C423CD0FEF7A1
:1038B00039FA012C05460BD11D4B984204D940F230
:1038C000B7711C4805F0D4FC0121284605F030FDF5
:1038D00005F0CFFC4FF00072174B07465A662046A2
:1038E00005F048FD4FF48063104E621E934033672D
:1038F000736E9A0103D4D6F884309B060AD53846F5
:1039000005F0BBFC022C0FD12846BDE8F840002191
:1039100005F00EBDD6F884309906E9D540F2C571A0
:10392000044805F0A5FCE3E7F8BD00BF00400050E7
:10393000005A62024DA400080060005010B50C4609
:1039400008B9FEF7EFF9074B21461B783BB1064B50
:10395000984204D80120BDE81040FFF79BBF022029
:10396000F9E700BF48270020005A620238B54FF03F
:103970000042244B244C5A664AF6CD33656C01460E
:1039800005F00105236428BB0120FFF771FF636880
:10399000DB0715D51D4B586008461D4B226BD2071F
:1039A0000CD4984208D1072415B1174B194A1A6450
:1039B00005F0E1FC204638BD0130EFE79842F2D037
:1039C0000024F1E70132236B13F0080305D08A428B
:1039D000F8D1E8E700220E49F5E78A42E3D020213A
:1039E0000A4A91620121A2F5805251600649084AB3
:1039F000886A800603D49342D5D00133F8E7934216
:103A0000DDE700BF00900050004009500060095001
:103A100040420F003254FFFF38B54FF00042164BC2
:103A200001465A664AF6CD33144C154A656C236438
:103A300043780B205B0043F00103D363FFF718FFCB
:103A400063688A7823F4F87343EA02136360CA78E0
:103A50004B7943EA0223A3600A798B7943EA022374
:103A600023610878FFF782FFEB0744BF054B23640F
:103A700005F081FC012038BD009000500040095045
:103A8000004000503254FFFF70B50F28044605D99E
:103A900040F65261124805F0EBFB0F244FF0004254
:103AA000104B11495D6E03F580535A664AF6CD33CB
:103AB0004E6C80200B64FFF7DBFE0B6A23F00F03D4
:103AC00023430B62F30744BF084B0B64002DA2BFD6
:103AD0004FF00042064B5A6605F04DFC70BD00BF2A
:103AE0004DA4000800800050004009503254FFFFF0
:103AF00000A0005038B5032804460D4605D8094BF0
:103B000033F81030CB40DB0704D440F22D41064897
:103B100005F0AEFB302301225C43044BAA401A514E
:103B200038BD00BFFCA40008B4A2000840D0035078
:103B300038B5032804460D4605D8094B33F8103034
:103B4000CB40DB0704D440F2FE31064805F090FB81
:103B5000302301225C43044BAA401A5138BD00BFF8
:103B6000FCA40008B4A2000840E003502DE9F04195
:103B7000032804460D461746984605D81D4B33F8D2
:103B80001030CB40DB0704D44FF4B0711A4805F075
:103B90006FFB37B129462046B8F1000F20D0FFF760
:103BA000A9FF0F21072D04EB440688BFA5F10803E8
:103BB0004FEA0616114895BFAB009B0004360C3641
:103BC00007FA03F29940304405F0D6FB7FB9294645
:103BD0002046B8F1000F06D0BDE8F041FFF78ABFDC
:103BE000FFF7A6FFDDE7BDE8F041FFF7A1BFBDE8A5
:103BF000F08100BFFCA40008A4A4000830C003505A
:103C000010B5B0F1B64F04460ED12E20FFF724F8C0
:103C1000A3680B49C3F30123A269CB5C02FB033306
:103C20000833B0FBF3F010BD064B984201D12F20B2
:103C3000ECE70548DE2105F01BFB0020E8E700BFAC
:103C40005BA500080080065004A50008F8B50646EC
:103C50000F461546002A6AD003F00304836823F454
:103C60004073836005F005FBB26882EA042303F425
:103C700040735340B36005F000FB37B9B6F1B64F5F
:103C80000DD12E20FEF7E8FF0746B3689A0717D537
:103C9000012C1BD0022C27D064B9264B17E0264BF1
:103CA0009E4201D12F20EDE740F22F11234805F06D
:103CB000DFFAB3684FF4B271204805F0D9FA08E092
:103CC000012C13D0022CE7D11D4B00E01D4B9F426D
:103CD000F0D91D4B1B5D6B430AD140F27511BDE855
:103CE000F840164805F0C4BA184BF0E7184BEEE759
:103CF000A3EBC504013C3C44B4FBF3F4013C0CD5FC
:103D000040F27B110D4805F0B3FA4FF4BE710B4839
:103D100005F0AEFAB368B461F8BDB4F5007FF4D233
:103D2000B3689B07F7D5002C08BF0124F3E740F2E6
:103D30001511D4E780841E000080065004A50008F9
:103D4000002D3101404B4C005BA50008809FD50041
:103D50004054890038B5B0F1B64F04460D4607D03F
:103D6000084B984204D040F29511074805F080FABC
:103D7000043425B104F580540123236038BD04F5D3
:103D80000054F9E70080065004A5000838B5B0F1EA
:103D9000B64F04460D4607D0124B984204D04FF45C
:103DA000D571114805F064FA0023104A236404F524
:103DB0000053DA636A7804F108037AB903F5805393
:103DC00002221A602046D5E901122B7BFFF73EFF45
:103DD00020462978BDE83840FFF7BCBF03F5005303
:103DE000EEE700BF0080065004A50008FFFF1F009B
:103DF00070B5B0F1B64F0AD0874B98421DD08748B6
:103E000040F2012105F034FA6FF0030070BD844BDD
:103E10009968C26B12F4C06F15D091050FD5FD22C1
:103E20005A7009221A700022026493F901100129C4
:103E300000D15A7093F90100E8E77A4BE8E756059C
:103E4000EFD5FE22ECE71C78082C00F2E180DFE8D9
:103E500014F009001F004500530070007E009C0014
:103E6000A700D6004C880A88E5060AD5120A02F097
:103E7000060242F0F002012119704263C160012084
:103E8000C4E702F0FE02A10748BF42F00102F2E7D8
:103E9000160608D5802100F50052D1634FF608724E
:103EA0001A80022318E05506E9D5402400F5005297
:103EB000D4634A88D40604D502221A700B7843636F
:103EC000DDE796076AD507221A701B7901EBC30359
:103ED0001B89012BD3D10823C360D0E71506D9D4A1
:103EE0005406CCD5402400F50052D4634A8892078A
:103EF00054D503221A708CE74C880A88E60643BF23
:103F0000120A02F0060242F0F00202F0FE02650719
:103F100009D51C7942F0010201EBC401098901298C
:103F200004BF0821C160042119700123C3604263EA
:103F3000A5E71406AED45206A1D5402400F50052E0
:103F4000D4634A88560729D507221A7097E71A7949
:103F50005D8801EBC2042689AE420FD800240132ED
:103F6000D2B21A715C804C886507C2D4E40702D4CF
:103F7000012A7FF64EAF08221A7092E76268691C28
:103F80005980525D42630622DFE7160682D4550649
:103F90007FF575AF402400F50052D4630522A9E7F0
:103FA00094067FF56CAF456A1F4C46691A79344018
:103FB000B4F5003F04BF466A4FF4005601EBC2015E
:103FC00000F500540A8908BFE6632026E6635C8892
:103FD000A24281BF4968661C5E800D5559888A429D
:103FE000C9D90424012AC46004D0013A914201D104
:103FF0000822C2601A78092A3FF415AF3FE7D205BC
:104000007FF53DAF4FF4807100F50052D16308E7B2
:104010004FF609321A8006E70080065004A5000812
:10402000B4190020C01900202000020038B5B0F1FA
:10403000B64F04460D4607D121B940F26A312548F2
:1040400005F016F9244B13E0244B98420DD040F2B2
:104050006931204805F00CF925B940F26A311D4854
:1040600005F006F96FF0030038BD00292AD01C4B7B
:104070002269D00744BF2022E2606A88910702D5F6
:1040800029890029EED0520702D52A8A002AE9D0D0
:104090004FF480721A6000229D601A71C023E360A1
:1040A0006369DB0514D4202204F50053DA630D4A5A
:1040B0002046DA63236C43F4FC632364BDE8384094
:1040C000FFF796BE40F26A31024805F0D1F8CEE71C
:1040D000636AE5E704A50008B419002000800650D3
:1040E000C0190020FFFF1F0010B5162000F088FC4B
:1040F0000024FF22064B21465C6520209A625C600A
:10410000FEF782FD2146BDE810402120FEF77CBD70
:104110000000045038B5072804460D4603DD77211A
:10412000084805F0A5F81F2C03D99121064805F091
:104130009FF8064A064B002D08BF13460122A240F5
:104140001A6038BD5FA50008B7A5000840100450EC
:104150004020045010B5044618B991211F4805F0BD
:1041600087F823781B0613F0604F03D092211B4879
:1041700005F07EF8E3780F2B03D9A321174805F04B
:1041800077F801212020FEF73FFD01212120FEF7D5
:104190003BFD0122124B16205A60227812069A60CB
:1041A0006178A27842EA01429A61FF229A62002273
:1041B0009A631A644FF000425A654FF0FF3203F5DC
:1041C00000531A6500F054FC1620E17800F05EFC04
:1041D000BDE81040162000F031BC00BF5FA500080C
:1041E000000004502DE9F0410126C3B2072805461E
:1041F0000C46174606FA03F603DDEC21384805F0B5
:1042000037F81CB9ED21364805F032F8236823F45D
:104210007C1323F00F031BB1F021314805F028F87F
:10422000A37A1B0413F47C0F04D040F209112C482C
:1042300005F01EF8E37A1B0513F07E6F04D040F200
:104240000B11274805F014F8237B5B0513F0FE5F84
:1042500004D040F20D11224805F00AF8214BDFF896
:104260008C801E65AB00226803F1A04303F5882310
:104270005A60302202FB0585637B27F003072B661B
:10428000E37AA27A1B0543EA0243227B43EA4253C4
:10429000EB652F6704F0F4FF134B5E65237A23B1BF
:1042A000D8F840303343C8F84030637A23B1D8F8A7
:1042B00038303343C8F838302279A37943EA0243CF
:1042C000084A93616179E37943EA014306498B61C6
:1042D000064B56639E64BDE8F04104F0D7BF00BFB3
:1042E0005FA5000800200450001004500000045096
:1042F00010B50124C3B2072804FA03F404DD40F228
:104300009711074804F0B4FF04F0BAFF054B5A6D4B
:1043100022EA04025A659C62BDE8104004F0B6BF70
:104320005FA500080000045010B50124C3B207289F
:1043300004FA03F404DD40F2B5110A4804F098FFD2
:1043400004F09EFF084BDA6A224208D15B6B9C4363
:104350000CBF0124002404F099FF204610BD002466
:10436000F9E700BF5FA5000800000450F8B5074654
:104370000C461D4616464AB94FF4A171314804F067
:1043800077FF24B1402D09D1062328E021B94FF44D
:104390002070FEF761FC0446402D42D0402D09D824
:1043A0007DB1202D17D040F28911BDE8F840254895
:1043B00004F05EBF602DF6D1B6EB940F3CD8042319
:1043C0000DE0B6EB141F04D94FF4BA711D4804F088
:1043D0004FFF102303E0B6EBD40F1CD808235E4335
:1043E000730803EB4413B3FBF6F3174E203BB6EB15
:1043F000C30F4FEAC30404D24FF4D071114804F044
:1044000037FFBB68344023F06003BB60BB681D43CB
:10441000BD60FC61F8BD40F279110A4804F028FF44
:10442000DCE70623B4FBF3F3B342ADD24FF4BF7124
:10443000044804F01DFFA7E740F28311014804F08F
:1044400017FFBCE70EA60008F8FF7F0038B50C4B3D
:10445000044698420D4604D04FF43371094804F0E5
:1044600007FF012204F580535A60EB43934003F0A9
:104470000A036361656115B904F50054626038BDD3
:1044800000C005500EA6000810B5124B0446984215
:1044900004D040F24241104804F0EAFE012104F544
:1044A0008053596040F6AA6341F20502636100231C
:1044B0000A48A360E365E26004F500522361E3610A
:1044C000E36490640348A365844204BF2365636585
:1044D000516010BD00C005500EA60008FFFF01008E
:1044E00070B5304B044698420D4604D040F2FD2191
:1044F0002D4804F0BDFE2046FFF7C6FF012304F55A
:1045000080567360AB7C1BB1A36843F08043A3600B
:10451000EB7C5BB1234B9C4202BF2A7DA3F5103399
:10452000C3F8D421E36D43F08003E3652A8A6B7BF3
:1045300020461343EA891343E3602B7BD5E901123C
:10454000FFF714FF6B7D1BB1A36843F48033A360B6
:10455000AB7D1BB1A36843F40043A360EB7D2A7ECF
:104560001B07120502F4E00203F0E0431343A365C6
:104570006B7E9A1E012A4FF0020209D80B49032BC9
:10458000C1F8982709D10423F3652B78636170BDC6
:104590000749012BC1F89827F4E7042204F50053DA
:1045A000DA65F2E700C005500EA6000800D00350FF
:1045B00000E00350034B5A68D20702D5DA69002A9B
:1045C000F9D1704700800A50054B9A689107FCD4D6
:1045D0005A689207F9D4DA69002AF6D1704700BF09
:1045E00000800A5008B5FFF7E5FF0222014B1A616F
:1045F00008BD00BF00800A5008B5FFF7E5FF0122A3
:10460000024B03F580514A601A6108BD00800A50D0
:1046100008B5044B5968012903D1FFF7E3FF024BAA
:10462000596008BD00800A5000A00A5010B5064C21
:10463000FFF7CAFF6368012B03D1FFF7E9FFFFF71C
:10464000C3FF0378E36010BD00800A50A8B94A6830
:104650000B78B2B94A7843EA42038A6812B11278F9
:1046600043EA82138A7843EA8203CA6812B1127855
:1046700043EA4223054A936470477E21044804F0CC
:10468000F7BD127843EAC203E4E700BF00800A5096
:1046900067A6000810B9044B5964704740F2111125
:1046A000024804F0E5BD00BF00900A5067A600086C
:1046B00010B9044B5964704740F24D11024804F0A0
:1046C000D7BD00BF00A00A5067A6000810B9044B70
:1046D0001964704740F28911024804F0C9BD00BF57
:1046E00000A00A5067A6000808B510B9044B186C62
:1046F00008BD04484FF4E27104F0BAFD0020F7E76A
:1047000000800A5067A6000808B520B949B1012900
:104710000AD0002008BD40F27321054804F0A8FD2E
:10472000F7E7044BD86CF5E7024B186DF2E700BFD2
:1047300067A6000800800A5018B939B1012908D0CD
:10474000704740F21131044804F092BD034BDA6423
:104750007047024B1A65704767A6000800800A5030
:1047600070B50D46E8B1036813F4E07F03F03F062F
:10477000C3F3821210D0012A13D10B4C9B0603D530
:1047800091210A4804F074FD45B104F580540123D9
:104790000020B340236070BD054CEFE704F50054E2
:1047A000F5E70E20F7E700BF68800050B7A50008C6
:1047B0006480005030B58BB06C46754D0FCD0FC482
:1047C0002B68684623604FF07E636C4693F89C30FC
:1047D000704DFF2B18BF8DF80130FEF7F5FD32202C
:1047E000FEF754FE0FCD0FC40FCD0FC495E80300A4
:1047F00084E80300684BD3F84C21110340F1B380E7
:10480000A3F5FE431C884FF6FF739C4208BF6B2440
:104810008DF81940FEF7D2FD044484F308045F4884
:104820008DF81840FDF7B4FA6846FEF7ABFC32206D
:10483000FEF732FE5A48FEF7D9FE5A4C5A48FEF7A8
:1048400063FF01213620FEF7DFF9FEF7ADFE236F8F
:10485000002023F0070343F003032367236F23F4AF
:10486000744343F48063236704F06DFD4F4BD3F82A
:10487000FC20D2017BD4D4F88030C4F88030494C7D
:10488000D4F8203123F0070343F00203C4F82031A9
:10489000D4F8283123F0070343F00203C4F8283189
:1048A000D4F8803123F0030343F00103C4F88031CE
:1048B000D4F8903223F0030343F00103C4F890329C
:1048C000D4F8403123F0030343F00203C4F840312D
:1048D000D4F8603123F0030343F00203C4F86031DD
:1048E000D4F8403223F0030343F00203C4F840320B
:1048F000D4F8003223F0070343F00203C4F8003277
:10490000D4F8083223F0070343F00203C4F8083256
:10491000D4F8503223F0030343F00203C4F85032BA
:10492000D4F8703223F0030343F00103C4F870326B
:10493000D4F8203223F0070343F00103C4F82032F7
:10494000FEF708FC4FF0E0220020136963F0040337
:104950001361D4F8603223F0070343F00103C4F875
:1049600060320BB030BDD3F85041E4B250E7D3F819
:10497000FC2022F08072C3F8FC20D4F88020C4F818
:104980008020D3F8FC2042F08072C3F8FC2076E748
:10499000CCA60008E0A600080080E00FC017530274
:1049A00000B4C40400800050C0EA210100ED00E022
:1049B00007B5094B18689A889B7900906846ADF84E
:1049C00004208DF80630FFF727F80920FFF75CF880
:1049D000002003B05DF804FB08A7000813B500240D
:1049E000064A6846536F43F00103536700948DF8FD
:1049F0000440FEF745FF204602B010BD00400050C5
:104A000010B54C2804460DD801220A49630904F068
:104A10001F04A240203341F82320BFF34F8FBFF380
:104A20006F8F10BD40F20911034804F021FC002CE7
:104A3000F7DBE9E700E100E02CA7000810B54C28FF
:104A4000044608D801236109074A04F01F04A34063
:104A500042F8213010BD4FF48A71044804F008FC7C
:104A6000002CF7DBEEE700BF00E100E02CA7000818
:104A7000002808DB01224309034900F01F0082409F
:104A8000603341F82320704700E100E038B500F1C1
:104A900010035C2B04460D4604D94FF4E1710D4818
:104AA00004F0E6FB1E2D04D940F2C311094804F0BE
:104AB000DFFB002CACBF04F16044074B4FEA051547
:104AC000EDB2ABBF04F5614404F00F0484F8005369
:104AD0001D5538BD2CA7000814ED00E073B504F097
:104AE000C8FB104D104B2E781C6804F0C6FB04F078
:104AF0003AFE60B1FF2E0AD00020297801AA04F006
:104B0000C8FB18B19021094804F0B2FB019C2CB9F4
:104B100004F0AFFB064B1C6804F0AFFB204602B06C
:104B200070BD00BFC72C0020CC190020ADA7000825
:104B3000D019002010B5044604F09BFB024B1C600A
:104B400004F09BFB002010BDD019002010B5002000
:104B5000144604F0A0FC022804D018B1C321024876
:104B600004F086FB204610BD14A80008034B022267
:104B7000186800238068194603F050BB302C0020D1
:104B800038B53022037A0446534303F1A04303F5BA
:104B90008023DD6ED0E9032313449D4201D8AA424D
:104BA00004D94FF44171054804F062FBD4E90303D2
:104BB00003449D4218BF284638BD00BF8AA800089C
:104BC00030B587B0144605461046FFF7D9FF636934
:104BD000024683423CBFD4E903315B181B1AABB1D8
:104BE0001249049403910021CDE90131012300937E
:104BF0002846D4E9001304F06AFB20B14FF4377162
:104C00000B4804F035FB002007B030BD012262766E
:104C100094F82D20002AF6D084F835301321E3696A
:104C2000204698472046636A9847ECE7C14B000846
:104C30008AA800087FB504460D4690F8376001F059
:104C40007BFA02282AD16DB346BBD4F88C3023B14D
:104C50004FF4B8711B4804F00BFB1B4B0021009371
:104C600004F19003029350236A46012001910393BB
:104C700001F060FBC4F88C0020B940F279111148B2
:104C800004F0F6FA237E4BB1D4F88C0001F0E0FB7F
:104C900020B14FF4BF710B4804F0EAFA84F83750A2
:104CA00004B070BD002EF9D0D4F88C0001F01AFCCD
:104CB00020B14FF4C271034804F0DAFA0023C4F8BB
:104CC0008C30EBE78AA80008F6A8000870B5054606
:104CD000046801F031FA022816D14FF0FF31D4F800
:104CE000E00001F0A7FA20B14FF4E071304804F081
:104CF000BFFA4FF0FF31A06B01F09CFA20B140F2F7
:104D0000C3112B4804F0B4FAFFF7E8FE854202D144
:104D10000020FFF70FFF94F93600FFF7A9FE94F982
:104D20003600FFF76DFED4F88C0001F0DBFB20B1FC
:104D300040F2DB111E4804F09BFAA06B01F0D6FA9A
:104D400020B14FF4EF711A4804F092FAD4F8E00061
:104D500001F0CCFA20B140F2E111154804F088FAD4
:104D6000207AFDF757FB20B14FF4F371104804F09F
:104D70007FFA207AFDF7B4FA20B14FF4F5710C48B0
:104D800004F076FAFDF78AFA38B10A4B984204D05B
:104D90004FF4F771064804F06BFA00232046C5E98A
:104DA0000033C5E90433AB60A36ABDE8704018471F
:104DB0008AA80008058000F02DE9F04788B0044675
:104DC0000E4690461F4601F0B7F90228054616D157
:104DD0004FF0FF31A06B01F02DFA002840F0278141
:104DE00094F837305BB14FF0FF31D4F88C0001F00C
:104DF000F9FA20B140F29F218E4804F039FA04F00C
:104E00003FFA8146B8F1000F09D0237E1BBB94F80E
:104E1000373023B140F26F31864804F029FA4FF061
:104E200000084846C7F8008004F030FA01F084F921
:104E3000022808D1A06B01F02DFA20B140F2AB217D
:104E40007C4804F015FA3B68002B14BF00201B209F
:104E500008B0BDE8F0872046FFF792FE63698246FE
:104E6000984206D1637E23B940F28B31714804F039
:104E7000FFF96569AA459DBFD4E903329B185D1B04
:104E8000AAEB0505454528BF454604F0F9F994F815
:104E90002D308246002B40F089802A4630466169D9
:104EA00004F0C5FE6369A8462B4463612CE0606989
:104EB000037803F0FD01112975D1216B884205D1DA
:104EC000A3F111014B424B4184F8343008F1FF3813
:104ED0006369216B01328B4203F1010308BF236335
:104EE00063619542E3D1D4E90323216B13449942D2
:104EF00008BF2263216B8A4201D88B4204D84FF449
:104F000070714C4804F0B4F9D4E903236169134487
:104F1000994208BF626161698A4201D88B4204D814
:104F20004FF47471434804F0A3F90023207A6376A8
:104F3000FDF730FA20B140F21D313E4804F098F9F7
:104F40002046FFF71DFE6369834232D10023E568E6
:104F5000237694F82D30656103B125632046636A9A
:104F60009847354B049403930023029323692A4600
:104F700001930123009363682168207A04F0A7F964
:104F800020B140F239312B4804F072F9207AFDF754
:104F900021FA20B140F25D31264804F069F950460B
:104FA00004F074F93DE706F8013B91E7A8460022BA
:104FB00097E70123237694F83730ABB1237E23B9EA
:104FC00040F242311B4804F053F9D4F88C0001F050
:104FD00071FA48B9D4F88C0001F03AFA20B140F2E5
:104FE0004531144804F044F9207A0DF11E01FDF713
:104FF00059FA20B14FF453710E4804F039F99DF875
:105000001E30207A002BC1D00DF11F01FDF722FACE
:1050100020B140F25231074804F02AF99DF81F10E0
:10502000207A0029B2D12246FFF7CAFDAEE7284612
:105030000EE700BF8AA80008C14B00082DE9F8431D
:1050400004460D46164601F077F80228074641D07F
:1050500094F82C80DFF8DC902E44B54229D094F8E7
:105060002D308BB104F00CF9237E0746002B3BD189
:10507000226B63699A4204D040F20521484604F04D
:10508000F7F8384604F002F994F83430002BE4D0F5
:10509000B8F1000F06D02B780A2B03D10D21204642
:1050A000E36998472046E36915F8011B98470028F3
:1050B000D3D001F041F8022809D1D4F8E00001F082
:1050C000E9F820B140F283211A4804F0D1F8002019
:1050D000BDE8F8834FF0FF31D4F8E00001F0AAF802
:1050E0000028B5D03846F3E72046FFF749FDE168D0
:1050F0000138884238BF2069D4F830C03CBF00F185
:10510000FF304018034663450BD013F80129112ADC
:1051100001D0132A07D1A2F111035A425A4184F84F
:1051200034202063ADE7994282BF236903F1FF3346
:105130005B18E8E78AA80008F0B58FB00C46054672
:10514000164600214FF49A7220461F4604F055FD82
:1051500096E80300002332692376F36884E80300AD
:10516000C4E90423327DE36084F82C20B27D2363FC
:10517000012384F8343084F83530149B84F82D20D2
:105180002362159BE7616362169BA362337A84F8FE
:1051900036303B4B2C606B603A4BAB603A4B2B612B
:1051A0003A4B6B613A4BEB60FDF7C0F830B1394BCD
:1051B000984203D0102420460FB0F0BD002104F126
:1051C0000800FDF73BF80028F4D1334BAB61334BBB
:1051D000EB61012384F83730314BCDE9063004F11F
:1051E0003C030893502306A8099300F0D9FFA0635D
:1051F00018B9CD212B4804F03BF82B4B06A8069399
:105200000023079304F1E403089300F0C9FFC4F8F6
:10521000E00018B9D321234804F02AF8234B0021D9
:105220000A9304F190030C93502301200AAA0B91D6
:105230000D9301F07FF8C4F88C0018B9DB211948F0
:1052400004F016F81A4B0494039300230293236985
:105250000193012300936368E2682168207A04F0D7
:1052600036F804460028A5D196F90800FFF700FC9F
:1052700096F90800FFF7E2FB2846FFF75BFC9AE788
:105280003D500008B94D00081D9500082395000801
:10529000CD4C0008038000F0354C0008299500082B
:1052A00002A900088AA800080CA90008F6A80008AE
:1052B000C14B00082DE9F04186B01C46574B012731
:1052C0000293574B0C9D01930023904600930A468E
:1052D000CDE903772946534BFFF72EFF06460028FA
:1052E00040F0948023683946C5F8343163683A2029
:1052F000C5F83831637A85F83D31237A85F83C3139
:10530000E37A85F83F31A37A85F83E31637B85F8EF
:105310004131237B85F84031E37B85F84331A37B22
:1053200085F84231FDF770FC3B460422617A207A11
:10533000FEF71CFC3B460222E17AA07AFEF716FC3F
:1053400039466068FDF760FC88F8006041462068D7
:10535000FFF7C6F81422637C5B0103F1A04303F559
:105360007033C3F89827617A227A42EA0142C3F87F
:10537000B027E17AA27A42EA0142C3F8A82785F869
:10538000446198F81930032B46D8DFE803F0354321
:10539000021C022385F8443100230422E17BA07B18
:1053A000FEF7E4FB022741F29871627C1E4B03EB8F
:1053B00042104750E07BA17BBD3241EA004103EB44
:1053C0004213596018E0012785F844310222002376
:1053D000617B207BFEF7CAFB617B637C227BBD3354
:1053E00042EA014210495B01CA500422236803F5D6
:1053F0008053DA65002FCFD1D5F834210521D36C45
:10540000206843F00403D364FFF720F8304606B069
:10541000BDE8F0810027D7E72326F7E73D95000890
:105420002F950008BB95000800C0035038B50468EC
:10543000237ED4F83401CBB9C36C23F00403C364D6
:105440000123237694F8373093B3D4F88C0001F01D
:1054500031F868BBD4F88C0000F0FAFF40B3BDE827
:1054600038404FF48271184803F002BF637E2BB3BB
:1054700094F82D3013B30025132184F8355003F030
:105480008BFFD4F83431DA6C42F00402DA645B6AE0
:10549000DBB2112B0DD1012384F834303022237A72
:1054A000534303F1A04303F58023DB6E013B2363E9
:1054B00038BD132BFCD184F83450EFE7C36C23F0D4
:1054C0000403C364F4E700BF17A9000873B5002400
:1054D000684600F047FB0C4B00981C600B4B0C4DD2
:1054E0001C600C4E0C4B306018602C6004F0F2F81D
:1054F0002046019B3268083BDB0853802B68013350
:105500002B6002B070BD00BFD8190020D419002054
:10551000DC190020E4190020E01900202DE9F04FEB
:1055200089B099464B1C07460C46154632D04B1E97
:10553000B3F5007F28D2194226D1A04600267A4B27
:1055400007961E70B9F1000F00F0E580C9F8006001
:10555000002F00F0E28003F093FE073707AB27F03F
:10556000070B2146039000932A463346584600F025
:1055700003FB079C064604B178B9039803F086FE46
:10558000192009B0BDE8F08F40F22B11674803F0F5
:105590006FFED2E74FF00808D0E7DFF8A4A16288D9
:1055A000DAF80010D300C0EBC2020139272A0493B5
:1055B000CAF8001040F28280002D5AD183450BF1C9
:1055C000080551D04146204603F0FEFF8046079073
:1055D000079A02EB050B584604F07CF80799C5F3CF
:1055E000CF054A88ABF80450521BABF80220CA889A
:1055F000002A3BD0551BADB201EBC202ABF80650FE
:1056000095808A884A49A8F80420BBF80420FF083E
:10561000A8F806200A68A8F80270944208BFC1F8EA
:1056200000B044490A68944201D1C1F800B098F82A
:10563000002042F0010288F80020DAF80020013250
:10564000CAF800203C4A03981368334413603B4A6D
:1056500011688B4288BF136003F018FE08F108033D
:105660000020C9F800308CE7A046B1E7ABF806206F
:10567000C7E704EB02084046059204F02BF8079CAC
:10568000059AF108E088A8F80210D108A8F80410DB
:1056900088B1049BC3EBC0013144C1F3CF0104EBDB
:1056A000C000A8F806108180083AD2086280B8F8D5
:1056B0000420E280BBE7A8F80600F5E7012D2ED113
:1056C00004F10802B2FBF8F108FB11224AB341468B
:1056D000204603F079FF804698F80020DAF8003081
:1056E00042F00102124F134D88F8002083B13B684D
:1056F0009C4204D14146002000F086FA38602B68B5
:105700009C429FD14146012000F07EFA286099E733
:105710003B602B6096E7222033E7212031E7834569
:10572000D5D1A046D8E700BFC82C002084A9000826
:10573000E4190020E0190020D8190020D419002015
:10574000DC1900202DE9F7430446684600F00AFA08
:10575000002C00F0B18003F093FD14F808CC8146D2
:105760001CF0010F00F0AA8034F8061C002900F09C
:10577000A580534D34F8047CD5F800E04A1C0EF1A6
:105780000103A4F1080692B22B60002F37D0A6EBDC
:10579000C70393F800800CF0020C18F0010F20D121
:1057A000BCF1000F20D15A88023111448AB2C5F8E9
:1057B00000E034F802CCBCF1000F22D114F8085CF0
:1057C000511E6FF3000504F8085C002589B224F827
:1057D000065C5980197865F3000119700021D980A1
:1057E0002FE0BCF1000F0AD014F8081C17446FF327
:1057F000410104F8081C0021BAB29980D9E7334668
:10580000D7E706EBCC01DDE900700744B942D5D2F9
:1058100016F83C6016F001072ED014F8085C6FF300
:10582000000504F8085C002524F8065C541E5C8022
:105830001C7865F300041C70CC1AC4F3CF04DC8020
:105840008C80204C216819B1994201D8498801B94E
:1058500023601D4C216819B1994201D3498801B9CF
:1058600023601A4948460B689B1A0B6003F00EFD33
:10587000002003B0BDE8F0834E884F8001363244EB
:10588000CE8892B2B6B101EBC6012E68013E2E6001
:1058900014F8085C6FF3000504F8085C002524F890
:1058A000065C541E5C801C7865F300041C700029A3
:1058B000C2D193E73146E8E72220DAE70120D8E7B2
:1058C000DC190020E4190020E0190020D81900207C
:1058D0002DE9F74F04460D461646002A00F03281A6
:1058E0000023136048B9002900F02F8101462846A3
:1058F00003B0BDE8F04F03F0A7BE21B903B0BDE887
:10590000F04FFFF71FBF03F0BBFC009034F8060C0C
:10591000E91D4FEAC00821F00705A845A4F1080BCE
:1059200080F08F8034F8023C002B70D00BEBC30A60
:105930001BF83330DA076AD4BAF802C0A8EB0503C3
:1059400013EBCC0363D41F2BDFF81492804F48DD98
:10595000C1F3CF0104EB050B24F8061C013124F838
:10596000021C5846019303F0B5FE34F8021C019B5B
:10597000ABF80410BAF80610C3F3CF03ABF802304B
:1059800039B101339BB2ABF806300AEBC1018B8011
:1059900001E0ABF80610504603F09CFED9F8003049
:1059A0004BB15946002000F02FF9594638600120CC
:1059B00000F02AF901E000203860664B186034607E
:1059C000654A13682B44A3EB08031360634A11680C
:1059D0008B4200D91360009803F058FC4FF0000987
:1059E0001FE0D9F8001000EB0C0301399BB2C9F895
:1059F0000010591C24F8061CBAF8061021B1023315
:105A00009BB224F8023CC0E724F8021CC3E73246EC
:105A10000021284603F018FE814630B1009803F0BB
:105A200035FC484603B0BDE8F08F42462146306859
:105A300004F0FDF82046FFF785FE81460028BFD020
:105A4000ECE77DD934F8023CA8EB0507002B49D0E0
:105A50000BEBC3091BF83330DB0744D4C1F3CF0190
:105A600004EB050A24F8061C0131504624F8021CF8
:105A700003F030FEB9F8023034F8022C03EBD70300
:105A8000AAF80420B9F806209BB2AAF80230CAB1DD
:105A900001339BB209EBC202AAF806309380484654
:105AA00003F018FE2E4B1B687BB15146002000F01E
:105AB000ABF8274B51461860012000F0A5F8254BA4
:105AC000186007E0AAF80620E9E70023204A1360DF
:105AD000204A1360204B34601A681544A5EB080572
