:020000040800F2
:10000000001000203D1F0008F3940008F39400083E
:10001000F3940008F3940008F3940008F3940008A4
:10002000F3940008F3940008F394000861020008B8
:10003000F3940008F3940008F1010008F799000810
:10004000F3940008F3940008F3940008F394000874
:10005000F3940008F3940008F3940008F394000864
:10006000F39400086D050008418F0008F394000820
:10007000F3940008F3940008F3940008F394000844
:10008000F3940008F3940008F3940008F394000834
:10009000F3940008F3940008E1270008F3940008A3
:1000A000F3940008F3940008F3940008F394000814
:1000B000F3940008F3940008F3940008F394000804
:1000C000F3940008F3940008F3940008F3940008F4
:1000D000F3940008F3940008F3940008F3940008E4
:1000E000F3940008F3940008F3940008F3940008D4
:1000F000F3940008F3940008F3940008F3940008C4
:10010000F3940008F3940008F3940008F3940008B3
:10011000F3940008F3940008F3940008F3940008A3
:10012000F3940008F3940008F3940008F394000893
:10013000F3940008F3940008F3940008F394000883
:10014000F3940008F3940008F3940008F394000873
:10015000F3940008F3940008A5990008F3940008AC
:10016000F3940008F3940008F3940008F394000853
:10017000013800D0FCE770470000000000000000DC
:100180000B4A1168086806C881F30B88022181F3C5
:100190001488203080F30988BFF36F8F4FF0000080
:1001A00080F31188104700BFAFF30080AFF30080E9
:1001B00004250020000000000000000000000000F6
:1001C00007480068006880F3088862B661B6BFF32C
:1001D0004F8FBFF36F8F02DF00BF00BFAFF3008010
:1001E00008ED00E00000000000000000000000003A
:1001F000EFF309801EF0100F08BF20ED108AEFF317
:100200000B82734620E9FC0F114A116808604FF019
:10021000300080F31188BFF34F8FBFF36F8F07F06B
:100220005DFA4FF0000080F31188094A11680868F0
:10023000B0E8FC0F13F0100F08BFB0EC108A82F387
:100240000B8880F309881847AFF30080AFF3008074
:100250000425002000000000000000000000000055
:100260001EF0040F0CBFEFF30880EFF30980044980
:10027000084700BFAFF30080AFF30080AFF300800A
:10028000517F00080348044B834202D0034B03B163
:1002900018477047D42C0020D42C00200000000008
:1002A000064B0749C91A891048BF0131491003D0CC
:1002B000044B0BB101481847704700BFD42C0020F5
:1002C000D42C00200000000010B5064C237843B960
:1002D000FFF7D8FF044B13B10448AFF300800123AC
:1002E000237010BDD826002000000000C8B9000807
:1002F00008B5054B1BB105490548AFF30080BDE8C3
:100300000840FFF7CDBF00BF000000000010002034
:10031000C8B90008A3F5803A704700BF174B002BFF
:1003200008BF134B9D46FFF7F5FF00218B460F4694
:100330001348144A121A09F0B5FD0E4B002B00D0D9
:1003400098470D4B002B00D0984700200021040057
:100350000D000D48002802D00C48AFF3008008F0D3
:10036000F3F92000290000F02FF807F0FBFF00BF91
:100370000000080000000000000000000010002045
:1003800000100020F0270020000000000000000006
:1003900007B5012200230949CDE900230848A0221E
:1003A00009F0A9FC012805D0064803B05DF804EB6C
:1003B00008F09EB803B05DF804FB00BFF8A3000886
:1003C000018F000803A4000808B509F005FBFFF73A
:1003D000DFFF064808F08CF800F0ECF8044808F05D
:1003E00087F809F006FB002008BD00BF38A400080C
:1003F00045A4000810B54FF480301F491F4A4B6ECA
:100400005066486E4FF000414AF6CD3451661C49A3
:1004100003F480334A6C0C6402F001024C6BE40775
:10042000FCD4012417494C60A1F500510C6BE40782
:10043000FCD50AB1144A0A640028A2BF4FF000415B
:10044000124A51661BB94FF48032104B5A6609F0BC
:100450006CF901F05FFD09F066F904F025FC09F084
:10046000F5F804F037FC05F0ADF901F049FDBDE801
:10047000104005F0C3BF00BF008000500090005046
:1004800000400950006009503254FFFF00A00050A6
:1004900008B5044809F0E1F8BDE80840024801F059
:1004A000D7BE00BF3CB30008F027002030B595B0A0
:1004B000204D0DAC0FCD0FC495E80700292384E82B
:1004C0000700092500210A241B4A0DF12600CDE969
:1004D00002230E22CDE9041106918DF813408DF808
:1004E000115009F0DFFC4FF48021144B1448CDE982
:1004F0000713144B0DAA0A9320230B9301238DF8A5
:100500003130114B07A9009302AB8DF825408DF8CF
:10051000245005F04BF8044618B188210B4808F028
:10052000FCFF00214FF4E13008F0D4FF204615B065
:1005300030BD00BF80A4000800C0055024C0055095
:1005400060110020D92600201810002051A40008B6
:1005500008B5FFF7ABFF28B1BDE80840B821024855
:1005600008F0DBBF08BD00BF51A40008014805F03A
:10057000D9B800BF6011002010B50C4602460848EB
:1005800007F0B6FF074807F0B3FF2146064807F01B
:10059000AFFF064B06481C80BDE8104007F0A8BF1F
:1005A0009CA40008D3A40008F1A40008D4260020CD
:1005B0001AA5000838B5204C204A2149214800F0EE
:1005C000C7FD226882B910461F4901F07BFC2060FC
:1005D00050B91E4807F08CFF012422461C491848D8
:1005E000BDE8384000F0DABD1A4807F081FF01236A
:1005F000194D002120682B8008F00EFF04460146AB
:10060000164807F075FF44B10C4A1549154800F02B
:100610009FFDE2E70A2008F0EAFC2B889BB2012B41
:10062000F8D02B889BB223B1044A0D490E4800F044
:100630008FFD00220149D2E78011002041A500086A
:1006400046A5000806A60008790500085BA5000875
:1006500000A600087DA50008D426002095A5000866
:10066000C6A50008CFA50008EDA5000838B5B0B1B3
:100670000368A3B11C785D68032C05D8084B33F8D8
:100680001430EB40DB0704D440F22D41054808F05C
:1006900044FF302301225C43034BAA401A5138BD6A
:1006A00072A600081AA6000840D0035038B5B0B1B1
:1006B0000368A3B11C785D68032C05D8084B33F898
:1006C0001430EB40DB0704D440F2FE31054808F05B
:1006D00024FF302301225C43034BAA401A5138BD4A
:1006E00072A600081AA6000840E0035007B50023D0
:1006F0000193044B01A9186806F0AEFA03B05DF847
:1007000004FB00BF8411002007B50021054B01AA9E
:100710001868019106F02AFC013818BF012003B0C7
:100720005DF804FB8411002007B5074C4FF0FF3241
:100730006946206806F0D8FA0028F7D0BDF8041002
:10074000009808F001FCF1E78C110020F0B589B0A9
:1007500048B303683BB3154F3E6816B1002009B09B
:10076000F0BD31460322012006F0ECF8104D114B8C
:1007700003AC18600FCD0FC42B6803A8236001F0F1
:1007800067FD3346A022CDE900670B490B4809F00D
:10079000B2FA32460821022006F0D4F8084B18605D
:1007A000FFF7A4FFDAE70120D9E700BF8811002096
:1007B00088A60008841100207AA6000829070008EE
:1007C0008C11002008B5064B186808B106F0CAFD68
:1007D000FFF79AFF034B186806F058FC002008BD8D
:1007E00088110020841100202DE9F04186B00446D4
:1007F00088461746FFF788FF0546E0B90126114BEA
:1008000020681C60237B01A95B00ADF80430ADF8C3
:100810000660CDF80880ADF80C7001F0BDFD30B178
:100820003146A368606898473546FFF75FFF284662
:1008300006B0BDE8F0810221A368606898470225F0
:10084000F5E700BF90110020F0B587B004460F46D1
:100850001646FFF759FF0546F0B9124B20681C6099
:10086000237B01A95B00ADF8043002230297ADF8A9
:100870000630ADF80C6001F08FFDA36840B1012196
:10088000606898470125FFF731FF284607B0F0BDA3
:10089000294660689847F8E70221A368606898478E
:1008A0000225F2E79011002070B50C46074E8D1816
:1008B000AC4204D1064807F01BFE002070BD304654
:1008C00014F8011B07F014FEF2E700BF9CA6000815
:1008D00093A5000810B5222813460ED033280FD058
:1008E00011280FD1402A0DD8002407480470437006
:1008F000023009F0F1FA002010BD04481C0AF5E7A7
:100900000348FBE70120F7E7842C002003270020A1
:10091000F926002038B50346222B0846154612D08A
:10092000332B17D0112B17D10D490C8864BAA4B200
:10093000402C01D9012038BD2246023109F0CCFA01
:1009400000202C80F7E7074931F8024B64BAA4B2C3
:100950002246F3E70449F7E700231380EAE700BFE4
:10096000842C002003270020F926002010B5094C14
:1009700023686BB106F090FD2368984208D9064AB7
:1009800053692BB1002110682160BDE81040184761
:1009900010BD00BF9C110020A011002010B51C4606
:1009A000064B59611A6006F077FD4FF47A73B4FB79
:1009B000F3F4034B04441C6010BD00BFA0110020E1
:1009C0009C11002008B50A46014618B112B1024830
:1009D00008F0EAFA004808BDA01100200C210268C6
:1009E000C37E01FB03230021C3F824164FF0FF311F
:1009F000C3F828164FF48071A3F82C16D2F86C06B1
:100A0000014908F0D1BA00BF590E00082DE9F74F8F
:100A10000D46C37D044600930246837DA34807F03C
:100A200067FD15B10423A583A3750123A04FDFF84B
:100A3000B482DFF8B492A27D042A00F2EB81DFE8F1
:100A400012F005005A008200D700E201994807F031
:100A50004FFD994EDFF894A2DFF894B2E57D012DA9
:100A600028D0022D39D06DB9504607F041FD212123
:100A7000204608F0DBFA29465846A58307F038FDE2
:100A8000A38B2BB10423A37540F20223A3830FE0B1
:100A900001218A48E17507F02BFD206832232246A8
:100AA0008749D0F86C06FFF779FFA37D002BD5D0DE
:100AB0000023C0E7304607F01BFD23682146186875
:100AC00008F0A7FC2368186801F08CF9A0830028BF
:100AD000D8D102217B48E175DDE77B4807F008FDAE
:100AE0003223206822467649D0F86C06FFF756FF7D
:100AF00040F60213A7E0754807F0FAFCE37D032BEC
:100B000008D0042BBED100212369E06803B0BDE802
:100B1000F04F18470423E375236821461868D3F87B
:100B20006C36036008F075FC2368186801F09EF9C4
:100B30000546A0830028A5D12046FFF74FFFA583D7
:100B400003B0BDE8F08F624807F0D2FC0C264FF4EA
:100B5000807008216568E37D5A1F042A92D8DFE877
:100B600002F003030F1A1C00052B0CBF22212121C8
:100B7000204608F05BFA0023A3830923E375DFE72F
:100B8000E27E236806FB0233A3F82C06A37DE17501
:100B9000022BE0D08CE72321EAE74E4807F0A8FCBF
:100BA0002046A847A08310B10423A37580E740F234
:100BB000156223682146DA80186808F02AFC464846
:100BC00007F096FC2068811D828800F10D030091DA
:100BD0000068194601F02EF9A08300287FF452AF77
:100BE00040F60323E382A37E63F07F03A376A7E7A7
:100BF000384607F07DFC394DE37D0A3B042B3FF678
:100C000041AFDFE813F005004100ED00E200F50020
:100C1000284607F06DFC94F91A206368002AC3DAAD
:100C200020469847A083E8B994F82030F12B0CD1E6
:100C300020684FF47A7322462149D0F86C06FFF7FA
:100C4000ADFE40F20133E3827AE7237E33B9E37DE0
:100C50000D3B012B14D90C23E37511E04FF47A738B
:100C600020683FE7B0F5017FF5D0E37D0D2B07D07D
:100C70000B23E375A37E23F0030343F00103A37664
:100C8000A37D032BB8D013E7154807F031FCA67EEF
:100C9000256806F00306022E5ED0032E76D0012EC4
:100CA00028D04FF40043A3834AE700BF9FA6000863
:100CB000CAA9000807A7000815A80008A8A70008E7
:100CC0002D0E00084BA80008B7A80008F5A80008DA
:100CD00028A900085FA9000893A9000802AA000833
:100CE00043AA0008B6AA00087EAA000839A700088F
:100CF00068A700084FF2C21105F1110008F0C9F908
:100D000020680021133008F0C4F9206831461530FE
:100D100008F0BFF90022236840499A73DA7306226B
:100D20005E731A740A23206822468380A37E23F010
:100D3000030343F00203A376D0F86C064FF47A73F2
:100D4000FFF72CFE4FF40043A383A37E03F00303BD
:100D5000032B7FF4F5AE27E740F215632E462146BC
:100D600056F80D0BEB8008F054FBAB1DAA880093DE
:100D700031463346286801F05DF818BBA37EA08396
:100D800023F0030343F00303A376D9E66B7BFF2B29
:100D900003D14FF40043A38306E740F603236E7CA0
:100DA000E38222464FF47A731C49D5F86C06FFF7AC
:100DB000F5FD6FEA46436FEA5343A383002E7FF4A9
:100DC000BFAEC2E740F20223E5E7484607F090FBDA
:100DD000204608F00EF9A38B002B3FF43CAF47E709
:100DE000404607F085FB2046FFF7F8FD0E2333E76A
:100DF0000B4807F07DFBA28BE1680A4807F078FBFF
:100E00002369A18B81E6084807F072FB2046FFF7B3
:100E1000E5FDF5E7002B3FF44BAE91E62D0E000803
:100E2000EBAA00081FAB00083DAB000810B5044654
:100E30000146074807F05CFBA17DE27D054807F00D
:100E400057FB2046BDE810400021FFF7DFBD00BF83
:100E500072AB0008B2AB00082DE9F14F0222092164
:100E60000446D0F86C8608F0CEF820B90822204657
:100E700008F0C9F860B104220921204608F0C3F83F
:100E800001280FD123220821204608F0BCF848B1E0
:100E90004FF47A7322464046464901B0BDE8F04F10
:100EA000FFF77CBD404608F07CF84FF0FF374FF06D
:100EB000000B2546D946FF2608220921204608F0C6
:100EC000A2F801285FFA8BFA09D10C2303FB0B422D
:100ED000B2F82C1640F62302914223D11FE095F878
:100EE0002D26022A1ED1D5F82826D4F870168A425B
:100EF0002CD3BA4216D895F82C26222A08D095F879
:100F00002C26222A1ED1D5F82426928A3AB909E045
:100F100004F1080008F0C1F8B0F1103FEFD25646D6
:100F2000D5F828760BF1010BBBF1060F05F10C0586
:100F3000C2D1FF2E11D1B9F1000FA9D00023C4F8FE
:100F40007036B4E702F0FD02212AC6E74FF001092E
:100F5000E8E70133042B0DD117E00C2303FB064314
:100F600093F82C26222A10D1D3F824168B8A63B941
:100F70000A680832104605780132102DE9D0DBB23C
:100F800043F461438B82102303700C2505FB064557
:100F9000D5F82426322310680749D0F86C06FFF7ED
:100FA000FDFC042385F82D36C4F8707601B0BDE849
:100FB000F08F00BF590E00082D0E000813B5837D79
:100FC0000446022B04D0032B54D040F202204DE003
:100FD000437E0168CBB1C08B50B108230DF10602EE
:100FE00001F27461ADF80630FFF794FC0028ECD1F3
:100FF000206800F2746008F050F830B9206800F5FD
:10100000CF6008F04AF80028DFD0627E2368002A0B
:101010009A730CBF10211821F02000221974DA7382
:101020005873206810221849113007F0D3FF637EEF
:1010300043B12068082200F27461213007F0CAFF32
:10104000637EABB91423206808228380002100F25C
:10105000746007F0C1FFE08B38B12168082201F20B
:101060007461FFF737FC0028AFD1002002B010BD3B
:101070001C23E8E703685B7B002BF6D0837E03F03C
:101080007F038376A1E700BFFEAB0008F8B50446F6
:101090000F46164607F096FF2CBB214D224609212C
:1010A000284607F0B0FFF0B12421012007F08EFFA1
:1010B0000446C0B13323C0E903670560C3832B7BBB
:1010C000DBB929461748FFF77DFC2146C5F86C06B9
:1010D0001548256800F072FE236828601A683AB93E
:1010E000204607F075FF002407F06EFF2046F8BD8C
:1010F00001211973D3F86C36136000230C25226884
:1011000002F22D6005FB03F1465C2EB9E376012364
:101110000A4482F82D36E7E70133062BF2D1E3E7E4
:10112000B8110020590E00080D0A000810B58260A1
:10113000064A00244260F022C4820476417602848A
:101140002146FFF763FC204610BD00BFBD0F00081D
:1011500010B5E8B040F60D240B46ADF80C40A8B130
:10116000A3B19AB10A49CDE900010A4904A807F0E0
:1011700085FA04A808F0BDFE04A902460648FFF758
:1011800093FB0222044803A9FFF78EFB68B010BD51
:1011900041A500080EAC0008941100202DE9F04193
:1011A000ADF5087D002440F60D2306460F46904617
:1011B0002146102207A8CDE90344ADF80830ADF868
:1011C0001440069408F06EFE602221460CA806AD7D
:1011D0000B9408F067FE2EB327B331460BA8B8F185
:1011E000000F23D108F066FE18490BA808F062FE34
:1011F0001749284608F05EFE164B3A461649CDE9D7
:10120000005324A80BAB07F039FA24A808F071FEAC
:1012100024A902461148FFF747FB02220F4802A902
:10122000FFF742FB0DF5087DBDE8F08108F042FEB6
:101230000B490BA808F03EFE2846054908F03AFE87
:10124000404603A907F02CFFD3E700BF17AC000806
:1012500094A5000841A500080EAC000894110020D8
:101260001EAC000838B5044690F8C92390F8CA139C
:10127000344807F03DF994F8CA3313F0FD0F56D106
:1012800094F8C933B22B26D0B32B3FD0B12B55D114
:101290002D4807F02DF994F8CA331BB9D4F874011E
:1012A000FFF704FAD4F87801FFF700FAB223D4F874
:1012B000900184F8C93322464FF4FA632349FFF7BB
:1012C0006DFB234807F014F900252946214807F053
:1012D0000FF9284638BD204807F00AF994F8CA33B8
:1012E0001BB9D4F87401FFF7C1F9D4F87801FFF7FE
:1012F000BDF9B323D4F8900184F8C933224642F6ED
:10130000E0631249FFF74AFB1448DBE7144807F093
:10131000EFF82046134900F029FD05460028D3D0F8
:10132000002329461A46204607F0E1FECDE70E4885
:1013300007F0DEF8012384F87331EAE74FF4817592
:10134000EEE700BF3AAC00088DAC0008651200085B
:10135000BFAC0008C8AD000804AD000837AD0008F8
:1013600078AD0008EF900008A7AD000838B5044636
:10137000164807F0BDF894F8C833032B23D0D4F8EF
:101380007C3101215C60B12384F8C9334FF4807350
:1013900084F8C713A4F8CA330D4807F0A9F80D481C
:1013A00007F0A6F82046FFF75DFF054601460A480C
:1013B00007F09EF82DB90323084884F8C83307F0D6
:1013C00097F8284638BD4FF48175FAE706AE000855
:1013D0002EAE00085AAE00087EAE0008ABAE000884
:1013E0002DE9F04F85B0B1F5837F1E46044689464E
:1013F000924690F8403016D000252F46A846AB46BE
:1014000001950295013B0A2B00F24781DFE813F0BA
:10141000120017002C00D100EB00E500450120016F
:10142000C80054008C00012B40F0128101210023E0
:10143000656B30E1B9F1000FF8D10221F7E7B9F59A
:10144000817F14D007F0D1FD0323206384F840305E
:10145000204607F07DFF002800F0E580062384F891
:10146000403094F84030CDE7B9F5817F01D10523B4
:10147000F5E7042EF2D99AF80030504603F0030243
:1014800002920AEB060212F8021C12F8012C0393D6
:10149000C3F34118C3F3810B42EA0123B11E89B2A1
:1014A000019307F076FEBAF80170039B7FBADB095F
:1014B0000546BFB20A33D2E7019BAB42CED1002F23
:1014C000CCD07B1D9E42C9D1A8F10203012BC5D906
:1014D00094F84230013303F003039B450BD00923FA
:1014E00084F8403000231A461946204605B0BDE86E
:1014F000F04F07F069BE94F84130029A934201D050
:101500000923ACE7B8F1010FB1D032465146E06A89
:1015100084F842B008F0E0FC00230422E68784F857
:10152000443084F84020DEE7A8F102014B4294F8F1
:1015300043204B419A4202D04FF009038FE7019BB1
:10154000AB4294D1052EDBD8002FD9D1B8F1020FD0
:101550000AD1012384F8463040F20933A4F8403020
:10156000032384F842307CE7BBF1000FC8D1B8F107
:10157000030FC5D094F84130029A9342C0D1B8F11C
:10158000010F3FF474AF01235A4684F84030022122
:101590005B46656B2046AC4605B0BDE8F04F604742
:1015A0000323204684F8403005B0BDE8F04F07F033
:1015B000CFBEB9F5817F3FF45AAF012384F84030A4
:1015C000E38FE26A94F84310053B656B03329BB2EC
:1015D00009B10421DEE70621DCE70223012284F8B9
:1015E0004030002380E707F000FD2369C01A2D4B2F
:1015F000984225D894F84420032A17D101210023CA
:1016000084F8461040F2053184F84220A4F84010D6
:101610000222194684F84430204607F0D5FD90B1E7
:10162000062384F8403005B0BDE8F08F0223013274
:1016300084F8442084F8403000220123A18FEBE796
:101640004FF008030BE794F84030082BEBD108E784
:1016500094F846300121BBB984F8451040F20533B7
:10166000A4F84030032384F84230002384F8461065
:1016700002221946204607F0A7FD082384F84030CF
:10168000002384F84530CEE794F84530002BE5D1AF
:10169000656B84F840101A467CE7012184F84010FD
:1016A000C5E600BF1FBF020038B500230D4680F815
:1016B00040300D49044600F005FA90B940F201337C
:1016C000A4F84030032384F8423004F5CD73A362BC
:1016D00004F52C73656384F8460084F84500E362E2
:1016E00038BD4FF48170FBE7E113000810B590F8A6
:1016F00040300446012B11D1032280F84020002203
:1017000080F8433080F8442007F06FFC054B2063DD
:10171000A3632046BDE8104007F01ABE4FF4817065
:1017200010BD00BF20BF0200084B80F858100365B1
:1017300040F20113A0F85420A0F86E3100F15801D6
:101740000122D0F87C01FFF74FB800BFC8000100AC
:1017500038B500230446D0F87C018568836007F023
:10176000FBFBD4F87C319D6070B1B4F850305A1E48
:10177000A4F850204BB1D4F890014FF47A7322466C
:101780000349FFF70BF9012038BD4FF48170FBE7E7
:101790009517000837B54FF481710446B0F89631BB
:1017A0005BBAADF8043094F87231662B70D010D863
:1017B000332B3FD007D8112B00F08480222B00F070
:1017C000888003B030BD442B3DD0552BF9D1662322
:1017D00031E0AA2B00F0838011D8772B63D0882BBF
:1017E000EFD1AA2384F87231B4F85830B4F89601D6
:1017F0005BBA9AB29042D6D3A4F8963109E0BB2BDB
:10180000DFD164212046FFF7A3FF20B9332384F8FA
:1018100072310021C7E7B0F5817FD2D1AA232246D9
:1018200084F87231344942F6E063D4F89001FFF74E
:10183000B5F8C6E744230422842184F87231204697
:10184000FFF772FFBDE78022B4F85A308DF8002010
:10185000B4F894215BBAB2F5C87F9BB20FD9B3F547
:10186000C87F11D804238DF801305523022284F853
:10187000723189216B46204607F00CFDA1E7B3F5D4
:10188000C87F01D90323EEE7662384F872318AE723
:10189000B4F85A30B4F894215BBA9BB29A428CBF28
:1018A000AA237723F1E72046B4F89411FFF750FFFD
:1018B00008B91123ABE7B0F5817F82D1AA2384F860
:1018C00072317EE72223022284F87231812101AB3A
:1018D000D1E788230222812184F87231AFE7B1FA7F
:1018E00081F35B095B0084F87131002320461A46BE
:1018F000E56CA84765E700BF9517000813B50023FE
:10190000ADF8043090F87331993B0A2B0ED8DFE81C
:1019100003F0060D0D0D0D0D0D0D340F2800A22343
:101920000422822180F87331FFF7FEFE02B010BD61
:1019300090F8583003F0080380F8583043B1A323DF
:10194000022280F87331882101AB07F0A3FCEDE798
:1019500002224FF4817180F87121C46C1A46A047AD
:10196000E4E7A123024680F87331074942F6E063B9
:10197000D0F89001FFF712F8D8E7012380F8713111
:10198000FFF708FFD2E700BFFD18000870B590F818
:1019900071310446013B042B66D8DFE803F0070BE6
:1019A00019570300BDE87040FFF7A8BFBDE87040BD
:1019B000FFF7F0BE032380F8713190F87031022BED
:1019C00006D1042282212046BDE87040FFF7ACBE5C
:1019D00094F87031022B11D194F858305B061BD566
:1019E000B4F85A20C2B1B4F8963152BA92B29342C6
:1019F00012D30423802184F87131E4E7012B0BD149
:101A0000042384F871312046A36CB4F85620802159
:101A1000BDE8704007F03EBC07F0E7FA236BC01A40
:101A2000A36B984209D22246D4F8900141F2883340
:101A3000BDE870400D49FEF7B1BF022384F8713153
:101A400000234FF481711A46E56C08E0022300215F
:101A500080F87131C56CB0F8543000F1580220465E
:101A6000AC46BDE8704060470123E7E78D9200086F
:101A700010B40246E1B1013901291CD8B0F8503048
:101A8000591EA0F8501043B14FF47A730B49D2F8A5
:101A900090015DF8044BFEF781BF0221C46C80F811
:101AA0007111A4461A464FF483715DF8044B6047E8
:101AB00032230349EBE75DF8044B7047CD920008F1
:101AC000FB92000810B5002380F87131BB23044657
:101AD000C16480F8723194F8C633D0F87C01037386
:101AE000104B8360C823A4F8503094F8CB33012BFB
:101AF0000BD094F87331012B0ED00123204684F8CB
:101B00007131FFF743FF002010BDFEF71FFE0028D4
:101B1000EFD04FF48170F7E7992384F873310523F0
:101B2000ECE700BF711A00082DE9F74F002601F01D
:101B300001090446884617461D46B346CA461FB1EA
:101B400097F800B00BF007065346BAF1000F1AD110
:101B5000002D7DD1002284F82520A27F013A072A9A
:101B600000F2FA80DFE812F015001F00F8004900CB
:101B7000A700F600E300CC000623A3774FF481739F
:101B8000A383012364E00622A2774FF48172A2832B
:101B9000DEE700231A461946E5682046AC4603B046
:101BA000BDE8F04F604718F0020F09D0228BE38A9E
:101BB0009A420DD2072E02D10823A377BFE70DB1B9
:101BC0000623FAE7204603B0BDE8F04F07F0D0BB8C
:101BD0000423A3770023A38284F82130012318F083
:101BE000040F84F82230AAD12046FFF77FFD08B108
:101BF0000623A37703B0BDE8F08F18F0040FDFD001
:101C0000002DDDD0A38BB3F5827F08D1042ED7D071
:101C10002046FFF76BFD0028D2D10423E9E7972384
:101C2000F340DB0794F82120C6D54F4B13F816106C
:101C3000914204D003EB46035B789342BCD184F815
:101C400021609FB9B9F1000F96D10623A377002335
:101C500094F82520002A7FF47DAFBBF1070F81BFE8
:101C60000622A2774FF48172A28373E716F003066F
:101C700002D00523A37763E7A08AA26843191288DC
:101C8000013B934204DD4FF48273A3830623F1E703
:101C90006368013D2A46791C184408F01DF90122A9
:101CA000A38AA2771D44A268ABB2A38231461380F7
:101CB000E568626871E7628B531C9D4201D007237F
:101CC0007BE7A08AA16843190988013B8B4204DDA8
:101CD0004FF48273A38304236FE7002FB2D06368AD
:101CE000791C1844019208F0F7F8A38A019A0BF0C6
:101CF000070B1A440423A28284F821B0A37773E768
:101D0000012D03D994F82230012BD8D0E37F5A1C3F
:101D1000E277002B7FF454AF2383A3820223204673
:101D2000A37707F025FB00287FF44AAF62E7022380
:101D3000A37794F820305A1C84F82020002B7FF4DD
:101D40003FAF07220121204684F89D21A38207F09E
:101D500082FAE8E72B4301D00123A3770023E5684B
:101D60001A46A18B19E700BFD1AE000838B5002391
:101D70000D46837708490446FFF796FC48B90123CE
:101D800084F82530A377B4F89631E560063B638389
:101D900038BD4FF48170FBE7291B000838B50446B5
:101DA0000D460246044806F0A3FBE3682946A068F6
:101DB00098470023637438BDE1AE0008F8B5084DBC
:101DC00007462C7C0E4634B907F0BCF828B901232D
:101DD000C5E902672B740248F8BD2046FCE700BF46
:101DE000F82B002038B504460F4806F081FBC4B13B
:101DF000637C012B15D00123606863740B4BC0F822
:101E00008441C0F880312368C0F89031FFF7AEFA02
:101E1000054608B100236374054806F069FB2846AF
:101E200038BD4FF48175F7E71BAF00089D1D000812
:101E300046AF000837B5044698B1407C012810D061
:101E40000120094D60746068C0F88051069DC0F89B
:101E50008441009507F062F908B10023637403B070
:101E600030BD4FF48170FAE79D1D000810B504469F
:101E700080B1437C012B0DD0012343744068074B94
:101E8000C0F88441C0F8803107F061F908B100233F
:101E9000637410BD4FF48170FBE700BF9D1D000807
:101EA00070B50446024606480D4606F021FB0023A5
:101EB00029462384A069E369BDE87040184700BF44
:101EC00070AF0008F8B5064617460D4699B12421B3
:101ED000012007F07BF8044668B100230246C0E900
:101EE0000675038405493046FFF7D0F8606118B9DC
:101EF000204607F06DF800242046F8BDA11E00081A
:101F000008B5034807F0A9FBBDE8084006F0FFBF8D
:101F10003CB30008014807F0A0BB00BF3CB3000879
:101F20000348044A0449121A921007F0E3BA00BFAA
:101F30007001000870010008F027002008B500F0CB
:101F40002FF8FFF7EDFF124B12498B4212D30020FE
:101F5000114B12498B4218D3FEF7E0F9186850F87C
:101F60002240586840F82240013298688242F5D3F6
:101F70000C33EAE70022F8E71C6844F8220001323B
:101F80005C68A242F8D30833E4E70022F8E700BF18
:101F9000D0B90008DCB90008DCB90008DCB90008D9
:101FA00070B54FF48041124B124A134D9A60D3F82A
:101FB000882005F5005442F47002C3F888200F4AC7
:101FC00091664FF0FF3222660D4A62660222C3F824
:101FD000D020BFF34F8FBFF36F8F4FF440360020F8
:101FE00002F0C2FE0020E66002F0A4FE2E6170BD89
:101FF00000ED00E000000008008000440090005068
:102000007FFF7F01014B1868704700BF102C002034
:10201000014B1860704700BF102C0020084B1B6F4D
:1020200003F00703022B04D0032B05D0012B05D0AE
:10203000FEE7044B18687047034BFBE70348704703
:1020400000800050102C0020182C0020002D3101A1
:1020500008B5FFF7E3FF054B1B6FC3F303330133F1
:10206000B0FBF3F0024B186008BD00BF00800050C9
:102070000C2C00200048704700B4C404014B1868C1
:10208000704700BF182C0020054B1860054B1B6FD4
:1020900003F00703032B01D1FFF7DABF704700BF3E
:1020A000182C00200080005000487047002D31019E
:1020B0004FF0B4439868C0F304400C280AD8DFE816
:1020C00000F00B0909090909072119091B1D1F0047
:1020D0000F487047002070479B6803F04073B3F1CE
:1020E000807F11D0B3F1007F10D00A4A002B08BFC7
:1020F00010467047084870470848704708487047BE
:1021000008487047084870470848704708487047B3
:10211000405DC60000093D00C0EA210180BA8C0183
:102120000048E801005A62020024F40080841E0086
:1021300040420F00014B1868704700BF142C00206C
:1021400013B500242948019407F087FA01230422DB
:102150000321204601F086FE204607F071FA012295
:10216000234B0520C3F8442401A907F071FA002885
:1021700039D1204BD3F8F02042F00102C3F8F0200F
:10218000D3F8FC2042F08072C3F8FC201A4AA3F571
:102190005D431A60019B194A03F5D52303F2FC4302
:1021A000B3FBF2F3164A013B13610223C2F8F0308D
:1021B0004FF48073C2F804334FF06043114AC3F800
:1021C000B02F114AC3F8802ED3F8002E42F480724B
:1021D000C3F8002EFF2283F82020D3F8002E22F42B
:1021E0008072C3F8002E02B010BD00BF3CB30008DF
:1021F00000D0035000ED00E0FF030040F8590D004F
:10220000000004E055CEACC50900010030B54FF028
:102210006043D3F8802ED20715D501240B4D84409E
:10222000D5F8FC2042F08072C5F8FC20D3F8002ECF
:102230002243C3F8002E53F82020002AF0D003F8E0
:102240002010002030BD1120FCE700BF00ED00E0B1
:102250002DE9F04F85B0044618B9AD21464807F086
:102260005CF92368B3F1B64F07D0444A93427BD15F
:10227000434807F0F2F9012503E0424807F0EDF981
:10228000002501230A22A179207901F0EBFD012329
:102290000A22E179607901F0E5FD4FF00A08DFF8E4
:1022A000F090DFF8F0A0384F267994F806B0032EAE
:1022B00005D83AF8163023FA0BF3DA0704D440F2C3
:1022C000FE31484607F029F93022012302FB067649
:1022D00003FA0BF306F501563360642004F062F84C
:1022E000267994F806B0032E06D8284B33F816301A
:1022F00023FA0BF3DB0704D440F22D41484607F0E4
:102300000CF93022012302FB067603FA0BF306F5E3
:1023100082566420336004F045F8B8F10108C3D157
:10232000032307EB0512C2F83835A1792379543518
:1023300043EA0143C2F83C35E27963792D0143EA6F
:1023400002437B5140F20113ADF80030E368694667
:102350000293A36820680193237C8DF80C3001F070
:1023600091FE05B0BDE8F08FD221034805B0BDE86D
:10237000F04F07F0D2B800BFA8AF000800800650A9
:1023800034B3000838B3000800C003500AB0000896
:102390001AA600080AB0000838B5054601F0C2FFC9
:1023A000044C012801D1013C00D138BD284601F080
:1023B0009BFEF6E7E19304002DE9F04F85B09A46C5
:1023C000554B06461B780F461546DDF83C909DF8A8
:1023D00044B0DDF85080002B00F09780072A00F20F
:1023E00096800E9B002B00F09280B9F1000F00F058
:1023F0008E80129BB3F5006F00F38980012803D112
:10240000109B002B00F08380444B03EB05131B7BD8
:10241000002B7ED0424C10220021684607F042FD7E
:1024200004EB45141022A7BB3946204607F03AFDBD
:1024300043F210036380BBF1000F03D1E37843F054
:102440000303E370364A0E9B02EB451CCCE9019373
:10245000129B6901581E9DF84C30C0F30A0003F02E
:1024600003039B0643EA001E53582E48012E00EA40
:1024700003004EEA0003CDF800A0535017D0B8F186
:10248000000F2ED19CF8023068F304138CF8023050
:1024900027E00021204607F005FD4FF444736380D8
:1024A000BBF1000FCED1E37843F03003C9E713232B
:1024B0000CF1100ECCF80C309CE80F008EE80F00E9
:1024C0006FF00301DCF81C20109B61F39F02012FC9
:1024D000CCF81C20CCF8143003D1CCF81890CCF8F0
:1024E000043000270D4A290102EB051342F8018050
:1024F000159A28465A60694622469F605E7301F02D
:10250000EDFF384605B0BDE8F08F0748FAE7074809
:10251000F8E70748F6E700BF4727002034190020F6
:10252000341800200F80FFF3028000F0018000F0DB
:10253000078000F038B5124B05461B78DBB1E0B1DF
:1025400006F0F3FF0F4A00231146147B54B92B60A9
:1025500001251A0101EB03131D738C5006F0EBFFEC
:10256000204638BD0133082B02F11002EDD106F0F0
:10257000E2FF0548F5E70548F3E70548F1E700BF46
:102580004727002034190020048000F0028000F06A
:10259000018000F038B506F0C8FF002305460B4A5D
:1025A000147B6CB90133082B02F11002F8D101F051
:1025B00017FF074B28461C7006F0BDFF204603E0BE
:1025C000284606F0B8FF034838BD00BF3419002084
:1025D00047270020058000F010B50D4B04461B78FE
:1025E00093B1072812D806F0A0FF0A4B03EB04139F
:1025F0001A7B2AB100241C7306F09DFF204610BDF3
:1026000006F099FF0448FAE70448F8E70448F6E7BB
:102610004727002034190020068000F0028000F0D7
:10262000018000F013B5154B1868002301908DF858
:10263000043006F07AFF124B1C7824B106F07BFFC1
:10264000104802B010BD01221A7006F074FF0E4B44
:1026500001A81C731C7783F82C4083F83C4083F856
:102660004C4083F85C4083F86C4083F87C4008233E
:102670008DF8073001F0EAFE2046E2E712B00008CC
:1026800047270020038000F03419002008B50A4ACB
:1026900012785AB107280BD8084A02EB00131B7BAB
:1026A00043B1002101F0B2FE002008BD0448FCE760
:1026B0000448FAE70448F8E74727002034190020C7
:1026C000028000F0018000F0078000F008B50A4A9F
:1026D00012785AB107280BD8084A02EB00131B7B6B
:1026E00043B1012101F092FE002008BD0448FCE73F
:1026F0000448FAE70448F8E7472700203419002087
:10270000028000F0018000F0078000F008B50A4A5E
:10271000127852B107280AD8084A02EB00131B7B33
:102720003BB101F061FF002008BD0548FCE705480A
:10273000FAE70548F8E700BF4727002034190020D2
:10274000028000F0018000F0078000F00D4B1B7844
:1027500093B1072812D889B10B4B03EB00131B7BF5
:1027600073B10A4B1A6D01238340134214BF012336
:10277000002300200B7070470548704705487047DC
:1027800005487047472700203419002000000450F6
:10279000028000F0018000F0078000F010B50B4AC5
:1027A0000C46127862B107280CD859B1084A02EBDE
:1027B00000131B7B43B101F033FF2070002010BDDC
:1027C0000448FCE70448FAE70448F8E747270020F4
:1027D00034190020028000F0018000F0078000F032
:1027E0002DE9F041174B1F6D5B6D1F4000D5FEE7D3
:1027F00001260025144CDFF85880374218D0236892
:10280000C8F85060A3B1A168284601316268A16090
:102810009847637B012B0BD150B90C4B03EB45134D
:102820001A7B60F341021A731A7F60F341021A7730
:102830000135082D4FEA460604F11004DDD1BDE84C
:10284000F08100BF0000045034190020341800202B
:1028500000200450044BD3F88420D206FBD4D3F8D4
:102860008400C0F3811070470040005008B5334B1E
:1028700098424FD027D8324B984245D017D8314B89
:1028800098423ED00AD838B12F4B984239D041F205
:10289000A6312E4806F041FE002034E02C4B984231
:1028A0002FD02C4B9842F2D12B4B586E2BE02B4B58
:1028B00098422CD003F5371303F5D8639842E6D13C
:1028C000254B986F1FE0264B98422FD00CD8254BF4
:1028D000984223D0244B984224D0244B9842D6D1FE
:1028E0001D4BD3F884000EE0214B984222D003F513
:1028F000740303F510539842C9D1174BD3F89800CD
:1029000001E0154B986D08BD134B186FFBE7124B98
:10291000586FF8E7104BD3F88000F4E70E4BD3F86C
:102920008800F0E70C4BD3F88C00ECE70A4BD3F8A7
:102930009000E8E7084BD3F89400E4E780BA8C01F4
:10294000405DC60080841E0040420F0016B00008A3
:1029500000093D00C0CF6A000080E00F0024F400B1
:10296000007E560380D54302006CDC020048E8017B
:102970000090D00338B51A4B0546D3F820010C4619
:1029800000F00700062821D8DFE800F028040C1426
:1029900010181C00FFF736FB052305B1286004B1B1
:1029A000236038BDFFF76AFB0323F6E7FFF780FBE0
:1029B0000723F2E7FFF778FB0223EEE7FFF722FB9E
:1029C0000623EAE7FFF75AFB0423E6E7054841F24E
:1029D0007C2106F0A2FD00231846DEE70123DCE798
:1029E0000080005016B0000838B5194B0546D3F8E2
:1029F00028310C4603F00703013B052B20D8DFE804
:102A000003F003131B0F0B17FFF7FCFA052305B1A7
:102A1000286004B1236038BDFFF7F4FA0623F6E717
:102A2000FFF746FB0723F2E7FFF728FB0323EEE758
:102A3000FFF724FB0423EAE7FFF736FB0223E6E770
:102A4000044841F2840106F068FD00231846DEE7E1
:102A50000080005016B00008F7B50027144B01970E
:102A6000D3F88041064604F00304022C0D4614D02E
:102A7000032C0DD0012C14D1394601A8FFF77AFFA1
:102A80000F240EB1019B336005B12C6003B0F0BD83
:102A9000FFF70EFB07240190F3E7FFF705FB01901A
:102AA000EFE741F2D131034806F037FD3C46E8E755
:102AB0000080005016B0000838B50F4B0546D3F81B
:102AC00090320C4603F00303012B09D0022B0BD1EB
:102AD000FFF7EEFA072305B1286004B1236038BD83
:102AE000FFF7E2FA0223F6E7044841F2701106F01C
:102AF00014FD00231846EEE70080005016B00008D1
:102B000037B500230193194B0546D3F820320C4604
:102B100003F00703042B1FD8DFE803F025030F148D
:102B20001900002101A8FFF75FFF11230DB1019AE1
:102B30002A6004B1236003B030BDFFF7B9FA072360
:102B40000190F3E706F0E3FC0A230190EEE7FFF7BC
:102B5000F1FA09230190E9E741F24301044806F044
:102B6000DCFC0023E2E70123E0E700BF0080005027
:102B700016B0000838B5104B0546D3F840310C4666
:102B800003F00303022B0BD0032B0DD0012B0FD12D
:102B900006F0BDFC0A2305B1286004B1236038BDEE
:102BA000FFF7C8FA0923F6E706F0B4FC0B23F2E7B7
:102BB00001230020EFE700BF0080005037B500235D
:102BC0000193184B0546D3F860320C4603F0070317
:102BD000013B032B1FD8DFE803F0020E191400217C
:102BE00001A8FFF7C7FE0F230DB1019A2A6004B1B7
:102BF000236003B030BD002101A8FFF7BBFF102305
:102C0000F2E7FFF755FA07230190EDE7FFF74CFADB
:102C100002230190E8E741F2E801034806F07DFC59
:102C20000023E1E70080005016B0000873B50024CF
:102C30000F4B0194D3F87032064603F00303012BC7
:102C40000D4607D0022B11D041F24611094806F07B
:102C500064FC04E0214601A8FFF78CFF10240EB1AC
:102C6000019B336005B12C6002B070BD1424F6E7FF
:102C70000080005016B0000838B5164B0546D3F852
:102C800000020C4600F00700042819D8DFE800F025
:102C900020030B0F130006F03AFC0A2305B128604D
:102CA00004B1236038BDFFF745FA0923F6E706F0C3
:102CB00031FC0B23F2E7FFF7CBF90E23800AEDE797
:102CC000054841F28F4106F028FC00231846E5E74D
:102CD0000123E3E70080005016B0000838B5164B1A
:102CE0000546D3F808020C4600F00700042819D85E
:102CF000DFE800F020030B0F130006F008FC0A23A6
:102D000005B1286004B1236038BDFFF713FA092329
:102D1000F6E706F0FFFB0B23F2E7FFF799F90E2326
:102D2000800AEDE7054841F2C74106F0F6FB0023B3
:102D30001846E5E70123E3E70080005016B00008DD
:102D400038B5104B0546D3F840320C4603F0030368
:102D5000022B0BD0032B0DD0012B0FD106F0D7FB8C
:102D60000A2305B1286004B1236038BDFFF7E2F9FA
:102D70000923F6E706F0CEFB0B23F2E70123002040
:102D8000EFE700BF0080005038B5124B0546D3F87E
:102D900050320C4603F00303022B0FD0032B05D057
:102DA000012B0FD106F0B3FB0A2302E006F0B2FBC1
:102DB0000B2305B1286004B1236038BDFFF7BAF9D1
:102DC0000923F6E7044841F2B40106F0A6FB00230C
:102DD0001846EEE70080005016B0000838B5104BDA
:102DE0000546D3F860310C4603F00303022B0BD0E9
:102DF000032B0DD0012B0FD106F089FB0A2305B15F
:102E0000286004B1236038BDFFF794F90923F6E781
:102E100006F080FB0B23F2E701230020EFE700BF61
:102E20000080005010B5B0F5207F34D009D8B0F53F
:102E3000007F2AD003D898B1B0F5C07F10D000240D
:102E400021E0B0F5607FFAD1154BD3F88030C3F3A1
:102E500001149B0617D5032C15D040F296210FE0E4
:102E60000F4B1C6F230B13F00E0FC4F303340AD067
:102E7000072C08D00F2C06D0032C04D040F286215A
:102E8000084806F04AFB601C10BD054BD3F8904083
:102E9000C4F30464F7E7024B1C6FC4F38024F2E729
:102EA0000080005016B0000838B54FF48032104B47
:102EB00004469A6600200D46FFF7B4FF41F67132D2
:102EC0000C4B6043DC69DA635A6804F4803422F402
:102ED00040125DB90849884294BF002001200005D6
:102EE00002435A600CB10022DA6338BD0349F2E7AD
:102EF0000090005000000350005A6202002D310182
:102F000038B5430904460D460ED140F233310D4821
:102F100006F003FB002304F01F0485B103F5805382
:102F20000122A2401A6038BD012B04D0022B04D02C
:102F300040F24131EBE7044BEDE7044BEBE703F5DF
:102F40000053EDE716B00008648000506880005020
:102F500030B585B00021B0F5807F0446019100F0C6
:102F600000816BD8002800F0DA80A0F12004602CEA
:102F700074D8602C72D8DFE814F0D200D500D200EB
:102F8000D500EA00EA00EA00EA00EA00D500EF0016
:102F90007D0005019D007D00D500D500D5007100A4
:102FA0007100710071007100710071000501D500A0
:102FB000D500D5001D010A01D50071007100710016
:102FC0007100710071007100710071007100710079
:102FD00071000F01EA00D200D200D200B0007D00E3
:102FE0007D00B80014019200C700C7007100710095
:102FF0007100710071007100710071007100710049
:103000007100710071007100710071007100710038
:103010007100710071007100710071007100710028
:103020007100710071007100710071007100710018
:1030300071007100710071007100CC00B0F5E06F9B
:1030400000F0A5803BD8B0F5607F76D01DD8B0F5F4
:10305000007F72D008D8B0F5C07F60D04FF4936184
:10306000574806F05AFA57E0B0F5207F5AD0B0F52D
:10307000407FF3D1FEF7ECFF04464FF42070FFF7DA
:10308000D1FEB4FBF0F4640855E0B0F5B06F63D046
:103090000AD8B0F5806F5AD0B0F5A06FDED100210C
:1030A00001A8FFF72DFD37E0B0F5C06F6AD0B0F58D
:1030B000D06FD3D1002101A8FFF7DEFD2CE0B0F5E1
:1030C000286F6ED016D8B0F5186F65D00AD8B0F555
:1030D000F06F6FD0B0F5106FC0D1002101A8FFF7DD
:1030E000FDFD19E0B0F5206FB8D1002101A8FFF770
:1030F00065FD11E0B0F5306F58D0AFD3B0F5386F43
:1031000040D0B0F5406FA9D1002101A8FFF76CFCB9
:1031100002E0FEF783FF0190019805B030BDFEF795
:1031200097FFF8E7FEF794FF04464FF42070FFF78F
:1031300079FEB4FBF0F40194EEE7FEF76FFF05466D
:103140002046FFF76FFEB5FBF0F50195E4E700219F
:1031500001A8FFF70FFCDFE7002101A8FFF77CFCC7
:10316000DAE74FF0E02302911B695B0705D5FEF714
:103170006FFF0290029B0193CEE703A902A8FFF71D
:10318000F9FCF7E7002101A8FFF7F4FCC4E70021F0
:1031900001A8FFF7D5FDBFE7002101A8FFF7F4FD67
:1031A000BAE7002101A8FFF741FDB5E701A8FFF745
:1031B00083FCB1E7002101A8FFF710FEACE700BFD8
:1031C00016B0000808B58020FFF7C2FE034B9842F6
:1031D0009EBF4FF48032024B1A6708BD005A62024C
:1031E00000A000501FB503460020B3F5807F01907A
:1031F00000F0D78077D8582B68D8382B05D8243BD7
:10320000092B49D940F27D51BFE0393B1F2BF9D83A
:1032100001A252F823F000BFC533000805320008B0
:103220000532000805320008CF33000815340008C5
:103230000532000805320008053200080532000892
:103240000532000805320008053200080532000882
:103250000532000805320008053200080532000872
:10326000053200081F3400080D330008053200083D
:103270000532000805320008513300080532000805
:103280000532000829340008333400080B340008E4
:103290007333000873330008092BB3D801A252F826
:1032A00023F000BF0D3300080D3300080D33000874
:1032B0000D3300080D330008053200089333000871
:1032C00005320008C53300082B330008802B99D144
:1032D0005C4B1B6F03F00703013B032B53D8DFE864
:1032E00003F0504D8890B3F5086F75D022D8B3F530
:1032F000C06F67D00FD8B3F5A06F00F08680B3F52C
:10330000B06F46D0B3F5806F7FF47CAF002001A989
:10331000FFF730FB41E0B3F5E06F7BD0B3F5F06F22
:1033200055D0B3F5D06F7FF46DAF002001A9FFF742
:10333000A3FC32E0B3F5286F7BD00ED8B3F5186F3D
:103340006DD0B3F5206F6FD0B3F5106F7FF45AAF27
:10335000002001A9FFF7C2FC1FE0B3F5306F6DD06C
:10336000FFF450AFB3F5386F2CD0B3F5406F7FF456
:1033700049AF002001A9FFF737FB0EE005230193B9
:103380000BE00223FBE740F2CA412F4806F0C5F8E4
:1033900003E0002001A9FFF75FFB019805B05DF88D
:1033A00004FB4FF0E02302901B695B0705D5FEF795
:1033B0004FFE0C230393039BE1E703A902A8FFF749
:1033C000D9FBF8E7002001A9FFF7D4FBE5E70020CF
:1033D00001A9FFF703FDE0E71A4BD3F8003103F032
:1033E0000303022B07D0032B09D0012B0BD1FEF7CF
:1033F00045FE0323C3E7FEF79DFE0923BFE706F062
:1034000084F80823BBE70123B9E7002001A9FFF7EF
:1034100077FBC2E7002001A9FFF792FCBDE700207F
:1034200001A9FFF7B1FCB8E7002001A9FFF7C6FB2F
:10343000B3E7002001A9FFF7F9FBAEE701A9FFF709
:103440003BFBAAE70080005016B000084FF4803222
:10345000074B0849586E03F580535A664B6A23F0B0
:1034600001034B62C3035CBF034B5A66704700BF46
:103470000080005000C0075000A00050F8B503685D
:1034800004460F2B04D940F67731804806F045F802
:1034900063680F2B04D940F67A317C4806F03DF87A
:1034A000A3680F2B04D940F67D31784806F035F833
:1034B000237B0F2B04D94FF43861744806F02DF8A4
:1034C000637B0F2B04D940F68331704806F025F852
:1034D000A37B3F2B04D940F686316C4806F01DF8DB
:1034E000E37B3F2B04D940F68931684806F015F894
:1034F0002369032B04D940F68C31644806F00DF89B
:103500006369032B04D940F68F31604806F005F853
:10351000E369032B04D940F692315C4805F0FDFFC6
:103520008020FFF75FFE032800F08A804FF48012AE
:10353000574B584D5A6645F60E034FF0A062C5F83A
:103540008030554B9A624FF4803203F580539A6273
:10355000AB6DDA03FCD4AE6D16F08046FBD1D4E936
:1035600000231B0543EA0263E27B4C481343227BA2
:103570004B4F43EA0243627B43EA0233A27B43EAB6
:1035800082132B61AA69D4E904131B0643EA816301
:1035900002F000421343A27E4FF440611343227EA7
:1035A00043EA0243627E43EA0223AB614FF40062C6
:1035B00005F0FCFF2B6AE17EE26923F00F0343EA8A
:1035C0008103002A3DD12B6294F8243094F8201016
:1035D000AA6ADB0043EA41133A40134394F82120DE
:1035E000304943EA021343F480332A4AAB62936DB5
:1035F00031EA0303FBD14FF08071274881621369E0
:10360000A56823F4700343EA055313614FF00043A8
:10361000836194F822300BB9234B996294F82330DC
:103620003BB94FF48032204B9A621A4A936D5B008B
:10363000FCD494F825301BB1164B1C4AC3F88020EB
:10364000F8BD134343F00803022A2B6208D12E6110
:103650004FF408524FF47F411548AE6105F0A6FFC4
:103660000C4994F822308A6A94F820001B063A40EC
:1036700043EA4013134394F8242043EAC20394F826
:10368000232043EA02438B62D3E700BF16B0000851
:10369000009000500040005A0050005A3840005A34
:1036A000C7FFFEFE030001000060005AF1A7FFFF04
:1036B0003440005A014B93F900007047C62C00209B
:1036C00010B543680446072B04D940F6D3512A4865
:1036D00005F023FFA368032B04D940F6D5512648F3
:1036E00005F01BFF2378032B04D940F6D75122485D
:1036F00005F013FF94F90130002B04DA40F6D9519C
:103700001D4805F00AFF4FF400011C4A637851661A
:103710004FF4D151022002F5B832516218494F2BB3
:1037200048604FF0010028BF4F2301F580514860E9
:103730001169C903FCD4217843EA01235361D4E918
:1037400001131B0143EA0123617B0B43217B43EA05
:1037500041039360E37BA17B1B0143EA4113617C3E
:103760000B43217C43EA41035360A37C13B16FF404
:10377000D153536210BD00BF16B000080090005036
:1037800000100250014B1880704700BF822C0020AF
:10379000014B1880704700BF802C002010B5B0F599
:1037A000207F65D00ED8B0F5007F4FD003D800B38E
:1037B000B0F5C07F1DD040F21631BDE8104034484E
:1037C00005F0ABBEB0F5607FF5D14C1E012C06D9DB
:1037D000042904D040F2F7212D4805F09EFE2D4A21
:1037E000D2F8803023F0300343EA0413C2F880306B
:1037F00010BD4C1E012C0AD9102903D8264BCB40F2
:10380000DB0704D440F2C921214805F086FE05F00B
:10381000DCFE05F0E8FE4FF48031204B1D4A1967AD
:10382000136F23F4704343EA04331367FEF710FC6D
:103830000446FFF70FF8C0F10201204605F0CDFE67
:1038400000F03EF8BDE81040FFF7BCBC4C1E1F2C3A
:1038500004D940F20A310E4805F05FFE0D4AD2F855
:10386000903023F0F85343EA0463C2F89030BFE786
:103870004C1E012C04D94FF44471054805F04DFE4F
:10388000044A136F23F4806343EA84231367AFE78A
:1038900016B0000800800050100101000090005098
:1038A00008B50121022000F071F905F08EFE05F047
:1038B0009AFE4FF48032014B1A6708BD0090005009
:1038C00008B54FF4C070FFF743FBBDE8084004495A
:1038D000884294BF012102214FF42070FFF75EBFA0
:1038E00080F0FA022DE9F0410546FEF7BFFF431EC6
:1038F0000333044604D940F6CF113B4805F00DFED2
:103900004FF4C022394B5A6603F598335A68012A9E
:1039100004D137494A605A689207FCD48020FFF7E7
:1039200061FC052807D105F050FE05F05CFE4FF460
:1039300080322E4B1A672F4B24F040749D4239D0B1
:103940002D4B9D4239D0FEF75DFB8542064603D9DB
:103950000121284600F06EF9284FFB6813F0060F8E
:10396000FBD1D7F80880BC60BB68634013F4F81F34
:1039700026D12846FEF74CFB8020FFF733FC0528B4
:1039800014D1FEF765FBA842044604D940F628216D
:10399000154805F0C2FDFEF75DFFC0F102012046AB
:1039A00005F01BFEFFF78CFFFFF70CFCAE4213D2B5
:1039B000BDE8F08144F00074C5E744F08074C2E7CC
:1039C00040F61721084805F0A8FD8020C7F80880B8
:1039D000FFF708FC052805D0BDE8F04101210020D3
:1039E00000F028B93546CCE716B00008009000502A
:1039F00000E0015040420F0080841E000000015092
:103A000070B54E4B0546984273D041D8A3F5B70325
:103A1000A3F55863984265D033D8494B494E984234
:103A200051D017D8002877D041F2C911464805F087
:103A300074FD40F67371444805F06FFD4FF40022A9
:103A4000404B5A663E4B9D4276D000243F4A9542F9
:103A500036D05DE03D4B984227D03D4B9842E3D1B4
:103A60003C4BD3F8A040621E033224F040744CD982
:103A700040F67371344805F050FD4FF4002373662F
:103A8000E4E7354B9842CFD1324BD3F8BC402CE021
:103A9000324B984231D0324B984232D0314B98421F
:103AA000C2D12C4BD3F8C8401FE02A4BD3F8A0401A
:103AB000621E033224F04074DAD84FF40023736698
:103AC00044F0807424E0234BD3F8A040621E0332FC
:103AD00024F040742AD84FF400237366234643F041
:103AE000007415E01B4BD3F8B840621E154E03322C
:103AF000BBE7184BD3F8C040F7E7164BD3F8CC40E0
:103B0000F3E7144BD3F8D040EFE74FF4002373668C
:103B10004FF0B442946070BD40F673710A4805F0EE
:103B2000FCFC4FF400232C467366F1E740F67371FA
:103B3000054805F0F2FCCEE70023D0E7C0EA2101FA
:103B400040420F000090005016B0000880841E0014
:103B500000093D000080E00F0024F4000048E80167
:103B6000005A620280BA8C01024A536B0342FCD1B4
:103B7000704700BF00400950034A0179D36E23F01B
:103B800030030B43D366704700400050F8B504463D
:103B9000244BD3F88420D006FBD4D3F88430C3F36D
:103BA00081139C423CD0FEF739FA012C05460BD11B
:103BB0001D4B984204D940F2B7711C4805F0ADFC8A
:103BC0000121284605F009FD05F0A8FC4FF0007220
:103BD000174B07465A66204605F021FD4FF48063D7
:103BE000104E621E93403367736E9A0103D4D6F869
:103BF00084309B060AD5384605F094FC022C0FD180
:103C00002846BDE8F840002105F0E7BCD6F884302E
:103C10009906E9D540F2C571044805F07EFCE3E75A
:103C2000F8BD00BF00400050005A62026DB00008AD
:103C30000060005010B50C4608B9FEF7EFF9074BCD
:103C400021461B783BB1064B984204D80120BDE8C1
:103C50001040FFF79BBF0220F9E700BF4827002074
:103C6000005A620238B54FF00042244B244C5A6689
:103C70004AF6CD33656C014605F00105236428BB87
:103C80000120FFF771FF6368DB0715D51D4B5860F6
:103C900008461D4B226BD2070CD4984208D107244A
:103CA00015B1174B194A1A6405F0BAFC204638BD05
:103CB0000130EFE79842F2D00024F1E70132236BA4
:103CC00013F0080305D08A42F8D1E8E700220E4934
:103CD000F5E78A42E3D020210A4A91620121A2F548
:103CE000805251600649084A886A800603D493428C
:103CF000D5D00133F8E79342DDE700BF00900050D4
:103D0000004009500060095040420F003254FFFF4C
:103D100038B54FF00042164B01465A664AF6CD338D
:103D2000144C154A656C236443780B205B0043F008
:103D30000103D363FFF718FF63688A7823F4F873ED
:103D400043EA02136360CA784B7943EA0223A36013
:103D50000A798B7943EA022323610878FFF782FF0F
:103D6000EB0744BF054B236405F05AFC012038BD26
:103D70000090005000400950004000503254FFFFB6
:103D800070B50F28044605D940F65261124805F077
:103D9000C4FB0F244FF00042104B11495D6E03F538
:103DA00080535A664AF6CD334E6C80200B64FFF781
:103DB000DBFE0B6A23F00F0323430B62F30744BFC0
:103DC000084B0B64002DA2BF4FF00042064B5A6611
:103DD00005F026FC70BD00BF6DB0000800800050EB
:103DE000004009503254FFFF00A0005038B50328AE
:103DF00004460D4605D8094B33F81030CB40DB079D
:103E000004D440F22D41064805F087FB30230122FF
:103E10005C43044BAA401A5138BD00BF1CB10008D6
:103E20001AA6000840D0035038B5032804460D46B2
:103E300005D8094B33F81030CB40DB0704D440F2EF
:103E4000FE31064805F069FB302301225C43044B38
:103E5000AA401A5138BD00BF1CB100081AA60008BC
:103E600040E003502DE9F041032804460D46174673
:103E7000984605D81D4B33F81030CB40DB0704D4EF
:103E80004FF4B0711A4805F048FB37B12946204677
:103E9000B8F1000F20D0FFF7A9FF0F21072D04EB89
:103EA000440688BFA5F108034FEA0616114895BFDE
:103EB000AB009B0004360C3607FA03F299403044FD
:103EC00005F0AFFB7FB929462046B8F1000F06D0B8
:103ED000BDE8F041FFF78ABFFFF7A6FFDDE7BDE8C9
:103EE000F041FFF7A1BFBDE8F08100BF1CB10008A1
:103EF000C4B0000830C0035010B5B0F1B64F04464E
:103F00000ED12E20FFF724F8A3680B49C3F3012339
:103F1000A269CB5C02FB03330833B0FBF3F010BDA6
:103F2000064B984201D12F20ECE70548DE2105F031
:103F3000F4FA0020E8E700BF7BB1000800800650DB
:103F400024B10008F8B506460F461546002A6AD087
:103F500003F00304836823F44073836005F0DEFA02
:103F6000B26882EA042303F440735340B36005F05F
:103F7000D9FA37B9B6F1B64F0DD12E20FEF7E8FFCA
:103F80000746B3689A0717D5012C1BD0022C27D0FF
:103F900064B9264B17E0264B9E4201D12F20EDE756
:103FA00040F22F11234805F0B8FAB3684FF4B2710C
:103FB000204805F0B2FA08E0012C13D0022CE7D11A
:103FC0001D4B00E01D4B9F42F0D91D4B1B5D6B4309
:103FD0000AD140F27511BDE8F840164805F09DBAC7
:103FE000184BF0E7184BEEE7A3EBC504013C3C444B
:103FF000B4FBF3F4013C0CD540F27B110D4805F005
:104000008CFA4FF4BE710B4805F087FAB368B461BF
:10401000F8BDB4F5007FF4D2B3689B07F7D5002C48
:1040200008BF0124F3E740F21511D4E780841E0095
:104030000080065024B10008002D3101404B4C0097
:104040007BB10008809FD5004054890038B5B0F19D
:10405000B64F04460D4607D0084B984204D040F2B4
:104060009511074805F059FA043425B104F5805438
:104070000123236038BD04F50054F9E700800650A1
:1040800024B1000838B5B0F1B64F04460D4607D04C
:10409000124B984204D04FF4D571114805F03DFA07
:1040A0000023104A236404F50053DA636A7804F1AC
:1040B00008037AB903F5805302221A602046D5E935
:1040C00001122B7BFFF73EFF20462978BDE83840E0
:1040D000FFF7BCBF03F50053EEE700BF00800650BA
:1040E00024B10008FFFF1F0070B5B0F1B64F0AD031
:1040F000874B98421DD0874840F2012105F00DFA08
:104100006FF0030070BD844B9968C26B12F4C06FEE
:1041100015D091050FD5FD225A7009221A70002280
:10412000026493F90110012900D15A7093F901003A
:10413000E8E77A4BE8E75605EFD5FE22ECE71C7876
:10414000082C00F2E180DFE814F009001F004500B0
:10415000530070007E009C00A700D6004C880A889F
:10416000E5060AD5120A02F0060242F0F002012129
:1041700019704263C1600120C4E702F0FE02A1078A
:1041800048BF42F00102F2E7160608D5802100F58B
:104190000052D1634FF608721A80022318E05506C8
:1041A000E9D5402400F50052D4634A88D40604D5EA
:1041B00002221A700B784363DDE796076AD507225F
:1041C0001A701B7901EBC3031B89012BD3D1082380
:1041D000C360D0E71506D9D45406CCD5402400F5E9
:1041E0000052D4634A88920754D503221A708CE790
:1041F0004C880A88E60643BF120A02F0060242F023
:10420000F00202F0FE02650709D51C7942F00102B6
:1042100001EBC4010989012904BF0821C1600421FF
:1042200019700123C3604263A5E71406AED4520699
:10423000A1D5402400F50052D4634A88560729D5F9
:1042400007221A7097E71A795D8801EBC204268964
:10425000AE420FD800240132D2B21A715C804C8871
:104260006507C2D4E40702D4012A7FF64EAF0822C4
:104270001A7092E76268691C5980525D4263062297
:10428000DFE7160682D455067FF575AF402400F5AA
:104290000052D4630522A9E794067FF56CAF456A06
:1042A0001F4C46691A793440B4F5003F04BF466A92
:1042B0004FF4005601EBC20100F500540A8908BF13
:1042C000E6632026E6635C88A24281BF4968661CDB
:1042D0005E800D5559888A42C9D90424012AC460D8
:1042E00004D0013A914201D10822C2601A78092A09
:1042F0003FF415AF3FE7D2057FF53DAF4FF4807136
:1043000000F50052D16308E74FF609321A8006E73C
:104310000080065024B10008B4190020C019002004
:104320002000020038B5B0F1B64F04460D4607D163
:1043300021B940F26A31254805F0EFF8244B13E02B
:10434000244B98420DD040F26931204805F0E5F841
:1043500025B940F26A311D4805F0DFF86FF003001F
:1043600038BD00292AD01C4B2269D00744BF202227
:10437000E2606A88910702D529890029EED05207A8
:1043800002D52A8A002AE9D04FF480721A600022EE
:104390009D601A71C023E3606369DB0514D4202299
:1043A00004F50053DA630D4A2046DA63236C43F4C4
:1043B000FC632364BDE83840FFF796BE40F26A31E3
:1043C000024805F0AAF8CEE7636AE5E724B10008E1
:1043D000B419002000800650C0190020FFFF1F0004
:1043E00010B5162000F088FC0024FF22064B214661
:1043F0005C6520209A625C60FEF782FD2146BDE884
:1044000010402120FEF77CBD0000045038B507287D
:1044100004460D4603DD7721084805F07EF81F2C81
:1044200003D99121064805F078F8064A064B002D7D
:1044300008BF13460122A2401A6038BD7FB10008B0
:10444000D7B10008401004504020045010B5044675
:1044500018B991211F4805F060F823781B0613F066
:10446000604F03D092211B4805F057F8E3780F2BDB
:1044700003D9A321174805F050F801212020FEF7A9
:104480003FFD01212120FEF73BFD0122124B1620AA
:104490005A60227812069A606178A27842EA014254
:1044A0009A61FF229A6200229A631A644FF00042D6
:1044B0005A654FF0FF3203F500531A6500F054FCC3
:1044C0001620E17800F05EFCBDE81040162000F0F8
:1044D00031BC00BF7FB10008000004502DE9F0415D
:1044E0000126C3B2072805460C46174606FA03F60E
:1044F00003DDEC21384805F010F81CB9ED213648F1
:1045000005F00BF8236823F47C1323F00F031BB191
:10451000F021314805F001F8A37A1B0413F47C0F55
:1045200004D040F209112C4804F0F7FFE37A1B0590
:1045300013F07E6F04D040F20B11274804F0EDFF1A
:10454000237B5B0513F0FE5F04D040F20D1122487F
:1045500004F0E3FF214BDFF88C801E65AB0022687E
:1045600003F1A04303F588235A60302202FB05853E
:10457000637B27F003072B66E37AA27A1B0543EAE5
:104580000243227B43EA4253EB652F6704F0CDFFE1
:10459000134B5E65237A23B1D8F840303343C8F813
:1045A0004030637A23B1D8F838303343C8F8383014
:1045B0002279A37943EA0243084A93616179E37956
:1045C00043EA014306498B61064B56639E64BDE88E
:1045D000F04104F0B0BF00BF7FB1000800200450DC
:1045E000001004500000045010B50124C3B2072885
:1045F00004FA03F404DD40F29711074804F08DFF3C
:1046000004F093FF054B5A6D22EA04025A659C623E
:10461000BDE8104004F08FBF7FB1000800000450D7
:1046200010B50124C3B2072804FA03F404DD40F2F4
:10463000B5110A4804F071FF04F077FF084BDA6AFD
:10464000224208D15B6B9C430CBF0124002404F080
:1046500072FF204610BD0024F9E700BF7FB10008BB
:1046600000000450F8B507460C461D4616464AB9E8
:104670004FF4A171314804F050FF24B1402D09D10D
:10468000062328E021B94FF42070FEF761FC0446B0
:10469000402D42D0402D09D87DB1202D17D040F2B9
:1046A0008911BDE8F840254804F037BF602DF6D1E8
:1046B000B6EB940F3CD804230DE0B6EB141F04D9DD
:1046C0004FF4BA711D4804F028FF102303E0B6EB45
:1046D000D40F1CD808235E43730803EB4413B3FBC9
:1046E000F6F3174E203BB6EBC30F4FEAC30404D2D8
:1046F0004FF4D071114804F010FFBB68344023F030
:104700006003BB60BB681D43BD60FC61F8BD40F247
:1047100079110A4804F001FFDCE70623B4FBF3F348
:10472000B342ADD24FF4BF71044804F0F6FEA7E7E0
:1047300040F28311014804F0F0FEBCE72EB20008FD
:10474000F8FF7F0038B50C4B044698420D4604D064
:104750004FF43371094804F0E0FE012204F5805360
:104760005A60EB43934003F00A036361656115B936
:1047700004F50054626038BD00C005502EB2000838
:1047800010B5124B0446984204D040F24241104802
:1047900004F0C3FE012104F58053596040F6AA637A
:1047A00041F20502636100230A48A360E365E26009
:1047B00004F500522361E361E36490640348A36558
:1047C000844204BF23656365516010BD00C005507D
:1047D0002EB20008FFFF010070B5304B044698422E
:1047E0000D4604D040F2FD212D4804F096FE2046EF
:1047F000FFF7C6FF012304F580567360AB7C1BB145
:10480000A36843F08043A360EB7C5BB1234B9C42E5
:1048100002BF2A7DA3F51033C3F8D421E36D43F022
:104820008003E3652A8A6B7B20461343EA8913439E
:10483000E3602B7BD5E90112FFF714FF6B7D1BB101
:10484000A36843F48033A360AB7D1BB1A36843F43A
:104850000043A360EB7D2A7E1B07120502F4E002F1
:1048600003F0E0431343A3656B7E9A1E012A4FF0C9
:10487000020209D80B49032BC1F8982709D1042358
:10488000F3652B78636170BD0749012BC1F8982748
:10489000F4E7042204F50053DA65F2E700C005509E
:1048A0002EB2000800D0035000E00350034B5A68BA
:1048B000D20702D5DA69002AF9D1704700800A5080
:1048C000054B9A689107FCD45A689207F9D4DA69C3
:1048D000002AF6D1704700BF00800A5008B5FFF7E4
:1048E000E5FF0222014B1A6108BD00BF00800A509B
:1048F00008B5FFF7E5FF0122024B03F580514A603E
:104900001A6108BD00800A5008B5044B5968012996
:1049100003D1FFF7E3FF024B596008BD00800A5046
:1049200000A00A5010B5064CFFF7CAFF6368012BC0
:1049300003D1FFF7E9FFFFF7C3FF0378E36010BD82
:1049400000800A50A8B94A680B78B2B94A7843EA9D
:1049500042038A6812B1127843EA82138A7843EAE2
:104960008203CA6812B1127843EA4223054A93646B
:1049700070477E21044804F0D0BD127843EAC20398
:10498000E4E700BF00800A5087B2000810B9044B6A
:104990005964704740F21111024804F0BEBD00BFD7
:1049A00000900A5087B2000810B9044B5964704750
:1049B00040F24D11024804F0B0BD00BF00A00A5003
:1049C00087B2000810B9044B1964704740F289118E
:1049D000024804F0A2BD00BF00A00A5087B2000840
:1049E00008B510B9044B186C08BD04484FF4E271C7
:1049F00004F093FD0020F7E700800A5087B200081A
:104A000008B520B949B101290AD0002008BD40F2FB
:104A10007321054804F081FDF7E7044BD86CF5E7F6
:104A2000024B186DF2E700BF87B2000800800A5001
:104A300018B939B1012908D0704740F21131044842
:104A400004F06BBD034BDA647047024B1A65704784
:104A500087B2000800800A5070B50D46E8B10368BF
:104A600013F4E07F03F03F06C3F3821210D0012A53
:104A700013D10B4C9B0603D591210A4804F04DFD40
:104A800045B104F5805401230020B340236070BD7C
:104A9000054CEFE704F50054F5E70E20F7E700BFFB
:104AA00068800050D7B100086480005030B58BB0EA
:104AB0006C46754D0FCD0FC42B68684623604FF0D0
:104AC0007E636C4693F89C30704DFF2B18BF8DF8B9
:104AD0000130FEF7F5FD3220FEF754FE0FCD0FC476
:104AE0000FCD0FC495E8030084E80300684BD3F8AA
:104AF0004C21110340F1B380A3F5FE431C884FF60F
:104B0000FF739C4208BF6B248DF81940FEF7D2FD5D
:104B1000044484F308045F488DF81840FDF7B4FAA4
:104B20006846FEF7ABFC3220FEF732FE5A48FEF72D
:104B3000D9FE5A4C5A48FEF763FF01213620FEF792
:104B4000DFF9FEF7ADFE236F002023F0070343F0EB
:104B500003032367236F23F4744343F480632367C1
:104B600004F046FD4F4BD3F8FC20D2017BD4D4F89F
:104B70008030C4F88030494CD4F8203123F007034A
:104B800043F00203C4F82031D4F8283123F007039E
:104B900043F00203C4F82831D4F8803123F0030332
:104BA00043F00103C4F88031D4F8903223F00303BA
:104BB00043F00103C4F89032D4F8403123F00303EA
:104BC00043F00203C4F84031D4F8603123F003030A
:104BD00043F00203C4F86031D4F8403223F00303F9
:104BE00043F00203C4F84032D4F8003223F0070344
:104BF00043F00203C4F80032D4F8083223F007036C
:104C000043F00203C4F80832D4F8503223F003030F
:104C100043F00203C4F85032D4F8703223F0030397
:104C200043F00103C4F87032D4F8203223F00703B4
:104C300043F00103C4F82032FEF708FC4FF0E022F5
:104C40000020136963F004031361D4F8603223F089
:104C5000070343F00103C4F860320BB030BDD3F852
:104C60005041E4B250E7D3F8FC2022F08072C3F840
:104C7000FC20D4F88020C4F88020D3F8FC2042F037
:104C80008072C3F8FC2076E7ECB2000800B300089D
:104C90000080E00FC017530200B4C404008000502D
:104CA000C0EA210100ED00E007B5094B18689A88B9
:104CB0009B7900906846ADF804208DF80630FFF728
:104CC00027F80920FFF75CF8002003B05DF804FB2B
:104CD00028B3000813B50024064A6846536F43F012
:104CE0000103536700948DF80440FEF745FF20460A
:104CF00002B010BD0040005010B54C2804460DD83D
:104D000001220A49630904F01F04A240203341F83C
:104D10002320BFF34F8FBFF36F8F10BD40F20911F7
:104D2000034804F0FAFB002CF7DBE9E700E100E0C0
:104D30004CB3000810B54C28044608D8012361097B
:104D4000074A04F01F04A34042F8213010BD4FF47D
:104D50008A71044804F0E1FB002CF7DBEEE700BFAA
:104D600000E100E04CB30008002808DB0122430901
:104D7000034900F01F008240603341F82320704750
:104D800000E100E038B500F110035C2B04460D464D
:104D900004D94FF4E1710D4804F0BFFB1E2D04D976
:104DA00040F2C311094804F0B8FB002CACBF04F179
:104DB0006044074B4FEA0515EDB2ABBF04F5614403
:104DC00004F00F0484F800531D5538BD4CB300089F
:104DD00014ED00E073B504F0A1FB104D104B2E78DC
:104DE0001C6804F09FFB04F013FE60B1FF2E0AD094
:104DF0000020297801AA04F0A1FB18B190210948EC
:104E000004F08BFB019C2CB904F088FB064B1C685A
:104E100004F088FB204602B070BD00BFC72C002004
:104E2000CC190020CDB30008D019002010B50446DD
:104E300004F074FB024B1C6004F074FB002010BDF6
:104E4000D019002010B50020144604F079FC022887
:104E500004D018B1C321024804F05FFB204610BD06
:104E600034B40008034B02221868002380681946F6
:104E700003F050BB302C002038B53022037A0446B2
:104E8000534303F1A04303F58023DD6ED0E90323F0
:104E900013449D4201D8AA4204D94FF441710548F8
:104EA00004F03BFBD4E9030303449D4218BF2846AA
:104EB00038BD00BFAAB4000830B587B01446054617
:104EC0001046FFF7D9FF6369024683423CBFD4E92D
:104ED00003315B181B1AABB11249049403910021F2
:104EE000CDE90131012300932846D4E9001304F0F1
:104EF00043FB20B14FF437710B4804F00EFB002048
:104F000007B030BD0122627694F82D20002AF6D039
:104F100084F835301321E369204698472046636AB8
:104F20009847ECE7B94E0008AAB400087FB50446DC
:104F30000D4690F8376001F07BFA02282AD16DB354
:104F400046BBD4F88C3023B14FF4B8711B4804F041
:104F5000E4FA1B4B0021009304F1900302935023C9
:104F60006A4601200191039301F060FBC4F88C00B4
:104F700020B940F27911114804F0CFFA237E4BB1E9
:104F8000D4F88C0001F0E0FB20B14FF4BF710B4866
:104F900004F0C3FA84F8375004B070BD002EF9D085
:104FA000D4F88C0001F01AFC20B14FF4C271034810
:104FB00004F0B3FA0023C4F88C30EBE7AAB400087D
:104FC00016B5000870B50546046801F031FA0228EC
:104FD00016D14FF0FF31D4F8E00001F0A7FA20B16C
:104FE0004FF4E071304804F098FA4FF0FF31A06BB5
:104FF00001F09CFA20B140F2C3112B4804F08DFA65
:10500000FFF7E8FE854202D10020FFF70FFF94F979
:105010003600FFF7A9FE94F93600FFF76DFED4F8CD
:105020008C0001F0DBFB20B140F2DB111E4804F0E4
:1050300074FAA06B01F0D6FA20B14FF4EF711A4860
:1050400004F06BFAD4F8E00001F0CCFA20B140F2A1
:10505000E111154804F061FA207AFDF757FB20B101
:105060004FF4F371104804F058FA207AFDF7B4FABF
:1050700020B14FF4F5710C4804F04FFAFDF78AFAAD
:1050800038B10A4B984204D04FF4F771064804F047
:1050900044FA00232046C5E90033C5E90433AB6078
:1050A000A36ABDE870401847AAB40008058000F064
:1050B0002DE9F04788B004460E4690461F4601F0A1
:1050C000B7F90228054616D14FF0FF31A06B01F069
:1050D0002DFA002840F0278194F837305BB14FF06B
:1050E000FF31D4F88C0001F0F9FA20B140F29F2191
:1050F0008E4804F012FA04F018FA8146B8F1000F55
:1051000009D0237E1BBB94F8373023B140F26F31B6
:10511000864804F002FA4FF000084846C7F80080BD
:1051200004F009FA01F084F9022808D1A06B01F01B
:105130002DFA20B140F2AB217C4804F0EEF93B6837
:10514000002B14BF00201B2008B0BDE8F0872046CC
:10515000FFF792FE63698246984206D1637E23B9C7
:1051600040F28B31714804F0D8F96569AA459DBFBA
:10517000D4E903329B185D1BAAEB0505454528BF02
:10518000454604F0D2F994F82D308246002B40F0C9
:1051900089802A463046616904F09EFE6369A8460C
:1051A0002B4463612CE06069037803F0FD01112951
:1051B00075D1216B884205D1A3F111014B424B41BE
:1051C00084F8343008F1FF386369216B01328B4277
:1051D00003F1010308BF236363619542E3D1D4E97E
:1051E0000323216B1344994208BF2263216B8A4237
:1051F00001D88B4204D84FF470714C4804F08DF9FB
:10520000D4E9032361691344994208BF626161696B
:105210008A4201D88B4204D84FF47471434804F099
:105220007CF90023207A6376FDF730FA20B140F252
:105230001D313E4804F071F92046FFF71DFE6369F9
:10524000834232D10023E568237694F82D306561DE
:1052500003B125632046636A9847354B0494039352
:105260000023029323692A46019301230093636874
:105270002168207A04F080F920B140F239312B48BE
:1052800004F04BF9207AFDF721FA20B140F25D31AC
:10529000264804F042F9504604F04DF93DE706F87F
:1052A000013B91E7A846002297E70123237694F873
:1052B0003730ABB1237E23B940F242311B4804F0B2
:1052C0002CF9D4F88C0001F071FA48B9D4F88C00AC
:1052D00001F03AFA20B140F24531144804F01DF9CA
:1052E000207A0DF11E01FDF759FA20B14FF45371E8
:1052F0000E4804F012F99DF81E30207A002BC1D020
:105300000DF11F01FDF722FA20B140F2523107489A
:1053100004F003F99DF81F10207A0029B2D122462B
:10532000FFF7CAFDAEE728460EE700BFAAB40008A3
:10533000B94E00082DE9F84304460D46164601F023
:1053400077F80228074641D094F82C80DFF8DC90EB
:105350002E44B54229D094F82D308BB104F0E5F8F5
:10536000237E0746002B3BD1226B63699A4204D00F
:1053700040F20521484604F0D0F8384604F0DBF846
:1053800094F83430002BE4D0B8F1000F06D02B781D
:105390000A2B03D10D212046E36998472046E36993
:1053A00015F8011B98470028D3D001F041F80228D6
:1053B00009D1D4F8E00001F0E9F820B140F28321EE
:1053C0001A4804F0AAF80020BDE8F8834FF0FF3136
:1053D000D4F8E00001F0AAF80028B5D03846F3E789
:1053E0002046FFF749FDE1680138884238BF20694F
:1053F000D4F830C03CBF00F1FF304018034663458D
:105400000BD013F80129112A01D0132A07D1A2F1D8
:1054100011035A425A4184F834202063ADE799427F
:1054200082BF236903F1FF335B18E8E7AAB40008E1
:10543000F0B58FB00C460546164600214FF49A721F
:1054400020461F4604F02EFD96E803000023326933
:105450002376F36884E80300C4E90423327DE36023
:1054600084F82C20B27D2363012384F8343084F83F
:105470003530149B84F82D202362159BE76163620D
:10548000169BA362337A84F836303B4B2C606B60FA
:105490003A4BAB603A4B2B613A4B6B613A4BEB604A
:1054A000FDF7C0F830B1394B984203D010242046A4
:1054B0000FB0F0BD002104F10800FDF73BF8002813
:1054C000F4D1334BAB61334BEB61012384F83730BC
:1054D000314BCDE9063004F13C030893502306A874
:1054E000099300F0D9FFA06318B9CD212B4804F02F
:1054F00014F82B4B06A806930023079304F1E4034A
:10550000089300F0C9FFC4F8E00018B9D32123487C
:1055100004F003F8234B00210A9304F190030C9349
:10552000502301200AAA0B910D9301F07FF8C4F8D3
:105530008C0018B9DB21194803F0EFFF1A4B0494D3
:10554000039300230293236901930123009363686B
:10555000E2682168207A04F00FF804460028A5D1FB
:1055600096F90800FFF700FC96F90800FFF7E2FB48
:105570002846FFF75BFC9AE735530008B150000856
:10558000C7970008CD970008C54F0008038000F0BA
:105590002D4F0008D397000822B50008AAB40008D0
:1055A0002CB5000816B50008B94E00082DE9F041E9
:1055B00086B01C46574B01270293574B0C9D019315
:1055C0000023904600930A46CDE903772946534BC2
:1055D000FFF72EFF0646002840F0948023683946E6
:1055E000C5F8343163683A20C5F83831637A85F8F4
:1055F0003D31237A85F83C31E37A85F83F31A37A4F
:1056000085F83E31637B85F84131237B85F8403155
:10561000E37B85F84331A37B85F84231FDF770FCCD
:105620003B460422617A207AFEF71CFC3B460222AC
:10563000E17AA07AFEF716FC39466068FDF760FC57
:1056400088F8006041462068FFF7C6F81422637CA2
:105650005B0103F1A04303F57033C3F89827617A27
:10566000227A42EA0142C3F8B027E17AA27A42EAFA
:105670000142C3F8A82785F8446198F81930032B34
:1056800046D8DFE803F03543021C022385F8443195
:1056900000230422E17BA07BFEF7E4FB022741F21A
:1056A0009871627C1E4B03EB42104750E07BA17B5C
:1056B000BD3241EA004103EB4213596018E0012773
:1056C00085F8443102220023617B207BFEF7CAFB70
:1056D000617B637C227BBD3342EA014210495B015E
:1056E000CA500422236803F58053DA65002FCFD116
:1056F000D5F834210521D36C206843F00403D3642A
:10570000FFF720F8304606B0BDE8F0810027D7E764
:105710002326F7E7E7970008D9970008659800085F
:1057200000C0035038B50468237ED4F83401CBB9E7
:10573000C36C23F00403C3640123237694F8373049
:1057400093B3D4F88C0001F031F868BBD4F88C0026
:1057500000F0FAFF40B3BDE838404FF482711848BA
:1057600003F0DBBE637E2BB394F82D3013B300251A
:10577000132184F8355003F064FFD4F83431DA6C27
:1057800042F00402DA645B6ADBB2112B0DD1012313
:1057900084F834303022237A534303F1A04303F5D5
:1057A0008023DB6E013B236338BD132BFCD184F8CF
:1057B0003450EFE7C36C23F00403C364F4E700BF85
:1057C00037B5000873B50024684600F047FB0C4B62
:1057D00000981C600B4B0C4D1C600C4E0C4B306049
:1057E00018602C6004F0CBF82046019B3268083B1F
:1057F000DB0853802B6801332B6002B070BD00BF03
:10580000D8190020D4190020DC190020E419002048
:10581000E01900202DE9F04F89B099464B1C07464E
:105820000C46154632D04B1EB3F5007F28D21942E4
:1058300026D1A04600267A4B07961E70B9F1000FBC
:1058400000F0E580C9F80060002F00F0E28003F06E
:105850006CFE073707AB27F0070B21460390009338
:105860002A463346584600F003FB079C064604B11F
:1058700078B9039803F05FFE192009B0BDE8F08FF6
:1058800040F22B11674803F048FED2E74FF00808BA
:10589000D0E7DFF8A4A16288DAF80010D300C0EBEB
:1058A000C2020139272A0493CAF8001040F282800C
:1058B000002D5AD183450BF1080551D041462046B1
:1058C00003F0D7FF80460790079A02EB050B584676
:1058D00004F055F80799C5F3CF054A88ABF8045092
:1058E000521BABF80220CA88002A3BD0551BADB230
:1058F00001EBC202ABF8065095808A884A49A8F8A5
:105900000420BBF80420FF08A8F806200A68A8F8BD
:105910000270944208BFC1F800B044490A6894423A
:1059200001D1C1F800B098F8002042F0010288F8D7
:105930000020DAF800200132CAF800203C4A03981F
:105940001368334413603B4A11688B4288BF13606D
:1059500003F0F1FD08F108030020C9F800308CE7DE
:10596000A046B1E7ABF80620C7E704EB02084046C3
:10597000059204F004F8079C059AF108E088A8F85D
:105980000210D108A8F8041088B1049BC3EBC00131
:105990003144C1F3CF0104EBC000A8F806108180A8
:1059A000083AD2086280B8F80420E280BBE7A8F881
:1059B0000600F5E7012D2ED104F10802B2FBF8F143
:1059C00008FB11224AB34146204603F052FF8046AD
:1059D00098F80020DAF8003042F00102124F134D1F
:1059E00088F8002083B13B689C4204D141460020E6
:1059F00000F086FA38602B689C429FD14146012016
:105A000000F07EFA286099E73B602B6096E7222041
:105A100033E7212031E78345D5D1A046D8E700BF41
:105A2000C82C0020A4B50008E4190020E0190020CB
:105A3000D8190020D4190020DC1900202DE9F743E3
:105A40000446684600F00AFA002C00F0B18003F02A
:105A50006CFD14F808CC81461CF0010F00F0AA8000
:105A600034F8061C002900F0A580534D34F8047C5E
:105A7000D5F800E04A1C0EF10103A4F1080692B229
:105A80002B60002F37D0A6EBC70393F800800CF0F3
:105A9000020C18F0010F20D1BCF1000F20D15A8860
:105AA000023111448AB2C5F800E034F802CCBCF1EE
:105AB000000F22D114F8085C511E6FF3000504F8A2
:105AC000085C002589B224F8065C5980197865F3D2
:105AD000000119700021D9802FE0BCF1000F0AD01D
