:020000040800F2
:1000000000100020850400080D4A00080D4A000871
:100010000D4A00080D4A00080D4A00080D4A000864
:100020000D4A00080D4A00080D4A00086102000848
:100030000D4A00080D4A0008F1010008A74D00080C
:100040000D4A00080D4A00080D4A00080D4A000834
:100050000D4A00080D4A00080D4A00080D4A000824
:100060000D4A00080D4A00080D4A00080D4A000814
:100070000D4A00080D4A00080D4A00080D4A000804
:100080000D4A00080D4A00080D4A00080D4A0008F4
:100090000D4A00080D4A00089D0800080D4A000896
:1000A0000D4A00080D4A00080D4A00080D4A0008D4
:1000B0000D4A00080D4A00080D4A00080D4A0008C4
:1000C0000D4A00080D4A00080D4A00080D4A0008B4
:1000D0000D4A00080D4A00080D4A00080D4A0008A4
:1000E0000D4A00080D4A00080D4A00080D4A000894
:1000F0000D4A00080D4A00080D4A00080D4A000884
:100100000D4A00080D4A00080D4A00080D4A000873
:100110000D4A00080D4A00080D4A00080D4A000863
:100120000D4A00080D4A00080D4A00080D4A000853
:100130000D4A00080D4A00080D4A00080D4A000843
:100140000D4A00080D4A00080D4A00080D4A000833
:100150000D4A00080D4A0008554D00080D4A0008D8
:100160000D4A00080D4A00080D4A00080D4A000813
:10017000013800D0FCE770470000000000000000DC
:100180000B4A1168086806C881F30B88022181F3C5
:100190001488203080F30988BFF36F8F4FF0000080
:1001A00080F31188104700BFAFF30080AFF30080E9
:1001B000D01C002000000000000000000000000033
:1001C00007480068006880F3088862B661B6BFF32C
:1001D0004F8FBFF36F8F02DF00BF00BFAFF3008010
:1001E00008ED00E00000000000000000000000003A
:1001F000EFF309801EF0100F08BF20ED108AEFF317
:100200000B82734620E9FC0F114A116808604FF019
:10021000300080F31188BFF34F8FBFF36F8F03F06F
:100220002BFC4FF0000080F31188094A1168086820
:10023000B0E8FC0F13F0100F08BFB0EC108A82F387
:100240000B8880F309881847AFF30080AFF3008074
:10025000D01C002000000000000000000000000092
:100260001EF0040F0CBFEFF30880EFF30980044980
:10027000084700BFAFF30080AFF30080AFF300800A
:10028000C54100080348044B834202D0034B03B12D
:1002900018477047E01F0020E01F0020000000000A
:1002A000064B0749C91A891048BF0131491003D0CC
:1002B000044B0BB101481847704700BFE01F0020F6
:1002C000E01F00200000000010B5064C237843B961
:1002D000FFF7D8FF044B13B10448AFF300800123AC
:1002E000237010BDA21E002000000000305C00083A
:1002F00008B5054B1BB105490548AFF30080BDE8C3
:100300000840FFF7CDBF00BF000000000010002034
:10031000305C0008A3F5803A704700BF174B002BF4
:1003200008BF134B9D46FFF7F5FF00218B460F4694
:100330001348144A121A04F02CFF0E4B002B00D065
:1003400098470D4B002B00D0984700200021040057
:100350000D000D48002802D00C48AFF3008004F0D7
:10036000F3FA2000290004F026FB04F02DF900BF69
:100370000000080000000000000000000010002045
:1003800000100020481F00200000000000000000B6
:1003900010B54FF480301F491F4A4B6E5066486EAF
:1003A0004FF000414AF6CD3451661C4903F48033C6
:1003B0004A6C0C6402F001024C6BE407FCD401248B
:1003C00017494C60A1F500510C6BE407FCD50AB14C
:1003D000144A0A640028A2BF4FF00041124A516635
:1003E0001BB94FF48032104B5A6604F00CFC00F03D
:1003F00035F804F006FC02F0ADF804F095FB02F0CD
:10040000BFF802F065F900F01FF8BDE8104002F0F7
:1004100031BE00BF008000500090005000400950E5
:10042000006009503254FFFF00A0005008B5044896
:1004300004F081FBBDE80840024800F08BB900BF22
:10044000D0560008481F002008B5034804F073FB8D
:10045000BDE8084004F0B8BAD0560008014804F0DE
:100460006ABB00BFD05600080348044A0449121A68
:10047000921004F0CCBA00BF7001000870010008AF
:10048000481F002008B500F02FF8FFF7EDFF124BD2
:1004900012498B4212D30020114B12498B4218D3C0
:1004A000FFF73CFF186850F82240586840F8224097
:1004B000013298688242F5D30C33EAE70022F8E76C
:1004C0001C6844F8220001325C68A242F8D3083369
:1004D000E4E70022F8E700BF385C0008445C00084D
:1004E000445C0008445C000870B54FF48041124B36
:1004F000124A134D9A60D3F8882005F5005442F44F
:100500007002C3F888200F4A91664FF0FF322266CE
:100510000D4A62660222C3F8D020BFF34F8FBFF3AB
:100520006F8F4FF44036002002F056F80020E6604E
:1005300002F038F82E6170BD00ED00E00000000808
:1005400000800044009000507FFF7F01014B18683D
:10055000704700BF601F0020014B1860704700BF4C
:10056000601F0020084B1B6F03F00703022B04D011
:10057000032B05D0012B05D0FEE7044B186870470C
:10058000034BFBE70348704700800050601F0020CA
:10059000681F0020002D310108B5FFF7E3FF054B70
:1005A0001B6FC3F303330133B0FBF3F0024B18604E
:1005B00008BD00BF008000505C1F0020004870474D
:1005C00000B4C404014B1868704700BF681F0020C6
:1005D000054B1860054B1B6F03F00703032B01D17C
:1005E000FFF7DABF704700BF681F0020008000508F
:1005F00000487047002D31014FF0B4439868C0F3B4
:1006000004400C280AD8DFE800F00B0909090909A1
:10061000072119091B1D1F000F4870470020704754
:100620009B6803F04073B3F1807F11D0B3F1007F7A
:1006300010D00A4A002B08BF104670470848704780
:10064000084870470848704708487047084870478E
:100650000848704708487047405DC60000093D00E3
:10066000C0EA210180BA8C010048E801005A620208
:100670000024F40080841E0040420F00014B1868E3
:10068000704700BF641F002013B50024294801945F
:1006900004F051FA012304220321204601F040FC1A
:1006A000204604F040FA0122234B0520C3F84424DD
:1006B00001A904F03BFA002839D1204BD3F8F020EF
:1006C00042F00102C3F8F020D3F8FC2042F080721F
:1006D000C3F8FC201A4AA3F55D431A60019B194A2E
:1006E00003F5D52303F2FC43B3FBF2F3164A013BB7
:1006F00013610223C2F8F0304FF48073C2F8043360
:100700004FF06043114AC3F8B02F114AC3F8802E4E
:10071000D3F8002E42F48072C3F8002EFF2283F833
:100720002020D3F8002E22F48072C3F8002E02B0ED
:1007300010BD00BFD056000800D0035000ED00E00F
:10074000FF030040F8590D00000004E055CEACC591
:10075000090001002DE9F04F85B0044618B9AD211C
:10076000464804F067F92368B3F1B64F07D0444A0E
:1007700093427BD1434804F0DEF9012503E042486F
:1007800004F0D9F9002501230A22A179207901F08A
:10079000C7FB01230A22E179607901F0C1FB4FF028
:1007A0000A08DFF8F090DFF8F0A0384F267994F8C7
:1007B00006B0032E05D83AF8163023FA0BF3DA0701
:1007C00004D440F2FE31484604F034F930220123CB
:1007D00002FB067603FA0BF306F50156336064203C
:1007E00002F01CFC267994F806B0032E06D8284B9C
:1007F00033F8163023FA0BF3DB0704D440F22D4113
:10080000484604F017F93022012302FB067603FA6A
:100810000BF306F582566420336002F0FFFBB8F15B
:100820000108C3D1032307EB0512C2F83835A179BB
:100830002379543543EA0143C2F83C35E2796379C0
:100840002D0143EA02437B5140F20113ADF8003021
:10085000E36869460293A36820680193237C8DF8BE
:100860000C3001F047FC05B0BDE8F08FD221034801
:1008700005B0BDE8F04F04F0DDB800BF98530008A4
:1008800000800650C8560008CC56000800C003502F
:1008900052540008FA530008525400082DE9F04160
:1008A000174B1F6D5B6D1F4000D5FEE7012600252D
:1008B000144CDFF85880374218D02368C8F85060CD
:1008C000A3B1A168284601316268A1609847637BA3
:1008D000012B0BD150B90C4B03EB45131A7B60F382
:1008E00041021A731A7F60F341021A770135082D0D
:1008F0004FEA460604F11004DDD1BDE8F08100BFE7
:10090000000004501811002018100020002004508E
:10091000044BD3F88420D206FBD4D3F88400C0F370
:10092000811070470040005008B5334B98424FD0BB
:1009300027D8324B984245D017D8314B98423ED0F9
:100940000AD838B12F4B984239D041F2A6312E48FF
:1009500004F070F8002034E02C4B98422FD02C4B40
:100960009842F2D12B4B586E2BE02B4B98422CD057
:1009700003F5371303F5D8639842E6D1254B986FFA
:100980001FE0264B98422FD00CD8254B984223D0FD
:10099000244B984224D0244B9842D6D11D4BD3F8F7
:1009A00084000EE0214B984222D003F5740303F536
:1009B00010539842C9D1174BD3F8980001E0154B5A
:1009C000986D08BD134B186FFBE7124B586FF8E793
:1009D000104BD3F88000F4E70E4BD3F88800F0E713
:1009E0000C4BD3F88C00ECE70A4BD3F89000E8E707
:1009F000084BD3F89400E4E780BA8C01405DC60050
:100A000080841E0040420F005A54000800093D0037
:100A1000C0CF6A000080E00F0024F400007E56037F
:100A200080D54302006CDC020048E8010090D0034E
:100A300038B51A4B0546D3F820010C4600F00700E4
:100A4000062821D8DFE800F028040C1410181C0038
:100A5000FFF77CFD052305B1286004B1236038BD94
:100A6000FFF7B0FD0323F6E7FFF7C6FD0723F2E724
:100A7000FFF7BEFD0223EEE7FFF768FD0623EAE776
:100A8000FFF7A0FD0423E6E7054841F27C2103F0CF
:100A9000D1FF00231846DEE70123DCE70080005089
:100AA0005A54000838B5194B0546D3F828310C467E
:100AB00003F00703013B052B20D8DFE803F0031305
:100AC0001B0F0B17FFF742FD052305B1286004B18A
:100AD000236038BDFFF73AFD0623F6E7FFF78CFDEC
:100AE0000723F2E7FFF76EFD0323EEE7FFF76AFD4A
:100AF0000423EAE7FFF77CFD0223E6E7044841F21E
:100B0000840103F097FF00231846DEE700800050C1
:100B10005A540008F7B50027144B0197D3F88041C9
:100B2000064604F00304022C0D4614D0032C0DD00D
:100B3000012C14D1394601A8FFF77AFF0F240EB11A
:100B4000019B336005B12C6003B0F0BDFFF754FD8D
:100B500007240190F3E7FFF74BFD0190EFE741F227
:100B6000D131034803F066FF3C46E8E700800050BF
:100B70005A54000838B50F4B0546D3F890320C464E
:100B800003F00303012B09D0022B0BD1FFF734FD37
:100B9000072305B1286004B1236038BDFFF728FDA5
:100BA0000223F6E7044841F2701103F043FF0023EB
:100BB0001846EEE7008000505A54000837B500236D
:100BC0000193194B0546D3F820320C4603F0070376
:100BD000042B1FD8DFE803F025030F1419000021B0
:100BE00001A8FFF75FFF11230DB1019A2A6004B13C
:100BF000236003B030BDFFF7FFFC07230190F3E74C
:100C000003F012FF0A230190EEE7FFF737FD0923F7
:100C10000190E9E741F24301044803F00BFF002390
:100C2000E2E70123E0E700BF008000505A540008CB
:100C300038B5104B0546D3F840310C4603F003039A
:100C4000022B0BD0032B0DD0012B0FD103F0ECFEA8
:100C50000A2305B1286004B1236038BDFFF70EFDFB
:100C60000923F6E703F0E3FE0B23F2E7012300205C
:100C7000EFE700BF0080005037B500230193184B09
:100C80000546D3F860320C4603F00703013B032B03
:100C90001FD8DFE803F0020E1914002101A8FFF7A6
:100CA000C7FE0F230DB1019A2A6004B1236003B07F
:100CB00030BD002101A8FFF7BBFF1023F2E7FFF7CB
:100CC0009BFC07230190EDE7FFF792FC02230190C4
:100CD000E8E741F2E801034803F0ACFE0023E1E756
:100CE000008000505A54000873B500240F4B019443
:100CF000D3F87032064603F00303012B0D4607D0EC
:100D0000022B11D041F24611094803F093FE04E092
:100D1000214601A8FFF78CFF10240EB1019B336020
:100D200005B12C6002B070BD1424F6E700800050BD
:100D30005A54000838B5164B0546D3F800020C4645
:100D400000F00700042819D8DFE800F020030B0F9B
:100D5000130003F069FE0A2305B1286004B1236083
:100D600038BDFFF78BFC0923F6E703F060FE0B2389
:100D7000F2E7FFF711FC0E23800AEDE7054841F288
:100D80008F4103F057FE00231846E5E70123E3E710
:100D9000008000505A54000838B5164B0546D3F869
:100DA00008020C4600F00700042819D8DFE800F01C
:100DB00020030B0F130003F037FE0A2305B1286050
:100DC00004B1236038BDFFF759FC0923F6E703F0AF
:100DD0002EFE0B23F2E7FFF7DFFB0E23800AEDE781
:100DE000054841F2C74103F025FE00231846E5E718
:100DF0000123E3E7008000505A54000838B5104B37
:100E00000546D3F840320C4603F00303022B0BD007
:100E1000032B0DD0012B0FD103F006FE0A2305B1E1
:100E2000286004B1236038BDFFF728FC0923F6E7EA
:100E300003F0FDFD0B23F2E701230020EFE700BFE5
:100E40000080005038B5124B0546D3F850320C469E
:100E500003F00303022B0FD0032B05D0012B0FD17E
:100E600003F0E2FD0A2302E003F0E1FD0B2305B1EC
:100E7000286004B1236038BDFFF700FC0923F6E7C2
:100E8000044841F2B40103F0D5FD00231846EEE713
:100E9000008000505A54000838B5104B0546D3F86E
:100EA00060310C4603F00303022B0BD0032B0DD053
:100EB000012B0FD103F0B8FD0A2305B1286004B15E
:100EC000236038BDFFF7DAFB0923F6E703F0AFFD37
:100ED0000B23F2E701230020EFE700BF0080005062
:100EE00010B5B0F5207F34D009D8B0F5007F2AD0F6
:100EF00003D898B1B0F5C07F10D0002421E0B0F540
:100F0000607FFAD1154BD3F88030C3F301149B06F0
:100F100017D5032C15D040F296210FE00F4B1C6F14
:100F2000230B13F00E0FC4F303340AD0072C08D0A0
:100F30000F2C06D0032C04D040F28621084803F081
:100F400079FD601C10BD054BD3F89040C4F30464D8
:100F5000F7E7024B1C6FC4F38024F2E700800050D7
:100F60005A54000838B54FF48032104B04469A6644
:100F700000200D46FFF7B4FF41F671320C4B604381
:100F8000DC69DA635A6804F4803422F440125DB9F3
:100F90000849884294BF00200120000502435A609E
:100FA0000CB10022DA6338BD0349F2E7009000502B
:100FB00000000350005A6202002D310138B5430988
:100FC00004460D460ED140F233310D4803F032FD98
:100FD000002304F01F0485B103F580530122A240D1
:100FE0001A6038BD012B04D0022B04D040F24131ED
:100FF000EBE7044BEDE7044BEBE703F50053EDE7BC
:101000005A540008648000506880005030B585B0A4
:101010000021B0F5807F0446019100F000816BD87B
:10102000002800F0DA80A0F12004602C74D8602C35
:1010300072D8DFE814F0D200D500D200D500EA0063
:10104000EA00EA00EA00EA00D500EF007D000501B1
:101050009D007D00D500D500D500710071007100A4
:1010600071007100710071000501D500D500D50037
:101070001D010A01D500710071007100710071003D
:1010800071007100710071007100710071000F0139
:10109000EA00D200D200D200B0007D007D00B8008E
:1010A00014019200C700C700710071007100710047
:1010B00071007100710071007100710071007100A8
:1010C0007100710071007100710071007100710098
:1010D0007100710071007100710071007100710088
:1010E0007100710071007100710071007100710078
:1010F000710071007100CC00B0F5E06F00F0A580C8
:101100003BD8B0F5607F76D01DD8B0F5007F72D0A7
:1011100008D8B0F5C07F60D04FF49361574803F012
:1011200089FC57E0B0F5207F5AD0B0F5407FF3D16D
:10113000FFF732FA04464FF42070FFF7D1FEB4FBFC
:10114000F0F4640855E0B0F5B06F63D00AD8B0F59C
:10115000806F5AD0B0F5A06FDED1002101A8FFF753
:101160002DFD37E0B0F5C06F6AD0B0F5D06FD3D1A8
:10117000002101A8FFF7DEFD2CE0B0F5286F6ED04E
:1011800016D8B0F5186F65D00AD8B0F5F06F6FD0EB
:10119000B0F5106FC0D1002101A8FFF7FDFD19E0E7
:1011A000B0F5206FB8D1002101A8FFF765FD11E06F
:1011B000B0F5306F58D0AFD3B0F5386F40D0B0F540
:1011C000406FA9D1002101A8FFF76CFC02E0FFF7F6
:1011D000C9F90190019805B030BDFFF7DDF9F8E7D6
:1011E000FFF7DAF904464FF42070FFF779FEB4FBFD
:1011F000F0F40194EEE7FFF7B5F905462046FFF756
:101200006FFEB5FBF0F50195E4E7002101A8FFF7BB
:101210000FFCDFE7002101A8FFF77CFCDAE74FF0C5
:10122000E02302911B695B0705D5FFF7B5F9029032
:10123000029B0193CEE703A902A8FFF7F9FCF7E7A9
:10124000002101A8FFF7F4FCC4E7002101A8FFF783
:10125000D5FDBFE7002101A8FFF7F4FDBAE70021A3
:1012600001A8FFF741FDB5E701A8FFF783FCB1E74F
:10127000002101A8FFF710FEACE700BF5A54000898
:1012800008B58020FFF7C2FE034B98429EBF4FF483
:101290008032024B1A6708BD005A620200A000505B
:1012A0001FB503460020B3F5807F019000F0D78082
:1012B00077D8582B68D8382B05D8243B092B49D927
:1012C00040F27D51BFE0393B1F2BF9D801A252F803
:1012D00023F000BF81140008C1120008C1120008E9
:1012E000C11200088B140008D1140008C1120008B4
:1012F000C1120008C1120008C1120008C112000882
:10130000C1120008C1120008C1120008C112000871
:10131000C1120008C1120008C1120008C112000861
:10132000DB140008C9130008C1120008C11200082C
:10133000C11200080D140008C1120008C1120008F3
:10134000E5140008EF140008C71400082F14000863
:101350002F140008092BB3D801A252F823F000BFC4
:10136000C9130008C9130008C9130008C9130008ED
:10137000C9130008C11200084F140008C112000868
:1013800081140008E7130008802B99D15C4B1B6F78
:1013900003F00703013B032B53D8DFE803F0504D64
:1013A0008890B3F5086F75D022D8B3F5C06F67D0B9
:1013B0000FD8B3F5A06F00F08680B3F5B06F46D0BC
:1013C000B3F5806F7FF47CAF002001A9FFF730FBFD
:1013D00041E0B3F5E06F7BD0B3F5F06F55D0B3F5D6
:1013E000D06F7FF46DAF002001A9FFF7A3FC32E0BE
:1013F000B3F5286F7BD00ED8B3F5186F6DD0B3F569
:10140000206F6FD0B3F5106F7FF45AAF002001A9A1
:10141000FFF7C2FC1FE0B3F5306F6DD0FFF450AFA3
:10142000B3F5386F2CD0B3F5406F7FF449AF00208F
:1014300001A9FFF737FB0EE0052301930BE0022320
:10144000FBE740F2CA412F4803F0F4FA03E0002022
:1014500001A9FFF75FFB019805B05DF804FB4FF0B1
:10146000E02302901B695B0705D5FFF795F80C2375
:101470000393039BE1E703A902A8FFF7D9FBF8E771
:10148000002001A9FFF7D4FBE5E7002001A9FFF741
:1014900003FDE0E71A4BD3F8003103F00303022BFE
:1014A00007D0032B09D0012B0BD1FFF78BF80323B7
:1014B000C3E7FFF7E3F80923BFE703F0B3FA082314
:1014C000BBE70123B9E7002001A9FFF777FBC2E7DB
:1014D000002001A9FFF792FCBDE7002001A9FFF75A
:1014E000B1FCB8E7002001A9FFF7C6FBB3E7002075
:1014F00001A9FFF7F9FBAEE701A9FFF73BFBAAE75C
:10150000008000505A5400084FF48032074B0849BD
:10151000586E03F580535A664B6A23F001034B6201
:10152000C3035CBF034B5A66704700BF0080005086
:1015300000C0075000A00050F8B5036804460F2B08
:1015400004D940F67731804803F074FA63680F2BB2
:1015500004D940F67A317C4803F06CFAA3680F2B6B
:1015600004D940F67D31784803F064FA237B0F2BD1
:1015700004D94FF43861744803F05CFA637B0F2B95
:1015800004D940F68331704803F054FAA37B3F2B13
:1015900004D940F686316C4803F04CFAE37B3F2BCC
:1015A00004D940F68931684803F044FA2369032BD3
:1015B00004D940F68C31644803F03CFA6369032B8C
:1015C00004D940F68F31604803F034FAE369032B05
:1015D00004D940F692315C4803F02CFA8020FFF7E2
:1015E0005FFE032800F08A804FF48012574B584D5D
:1015F0005A6645F60E034FF0A062C5F88030554B91
:101600009A624FF4803203F580539A62AB6DDA032D
:10161000FCD4AE6D16F08046FBD1D4E900231B0547
:1016200043EA0263E27B4C481343227B4B4F43EA7D
:101630000243627B43EA0233A27B43EA82132B61BB
:10164000AA69D4E904131B0643EA816302F000424D
:101650001343A27E4FF440611343227E43EA0243C8
:10166000627E43EA0223AB614FF4006203F011FA99
:101670002B6AE17EE26923F00F0343EA8103002A2B
:101680003DD12B6294F8243094F82010AA6ADB0034
:1016900043EA41133A40134394F82120304943EA86
:1016A000021343F480332A4AAB62936D31EA030399
:1016B000FBD14FF08071274881621369A56823F43C
:1016C000700343EA055313614FF00043836194F8BC
:1016D00022300BB9234B996294F823303BB94FF475
:1016E0008032204B9A621A4A936D5B00FCD494F8C6
:1016F00025301BB1164B1C4AC3F88020F8BD13439C
:1017000043F00803022A2B6208D12E614FF40852DD
:101710004FF47F411548AE6103F0BBF90C4994F8D2
:1017200022308A6A94F820001B063A4043EA4013AC
:10173000134394F8242043EAC20394F8232043EA95
:1017400002438B62D3E700BF5A5400080090005058
:101750000040005A0050005A3840005AC7FFFEFEB1
:10176000030001000060005AF1A7FFFF3440005A57
:10177000014B93F900007047D41F002010B5436857
:101780000446072B04D940F6D3512A4803F052F9F6
:10179000A368032B04D940F6D551264803F04AF933
:1017A0002378032B04D940F6D751224803F042F99D
:1017B00094F90130002B04DA40F6D9511D4803F0AA
:1017C00039F94FF400011C4A637851664FF4D15146
:1017D000022002F5B832516218494F2B48604FF091
:1017E000010028BF4F2301F5805148601169C903EA
:1017F000FCD4217843EA01235361D4E901131B018E
:1018000043EA0123617B0B43217B43EA410393605D
:10181000E37BA17B1B0143EA4113617C0B43217CE9
:1018200043EA41035360A37C13B16FF4D153536275
:1018300010BD00BF5A540008009000500010025024
:10184000014B1880704700BFD21F0020014B188049
:10185000704700BFD01F002010B5B0F5207F65D0C5
:101860000ED8B0F5007F4FD003D800B3B0F5C07FDD
:101870001DD040F21631BDE81040344803F0DAB80C
:10188000B0F5607FF5D14C1E012C06D9042904D097
:1018900040F2F7212D4803F0CDF82D4AD2F88030E0
:1018A00023F0300343EA0413C2F8803010BD4C1E0D
:1018B000012C0AD9102903D8264BCB40DB0704D4CE
:1018C00040F2C921214803F0B5F803F0F1F803F024
:1018D000FDF84FF48031204B1D4A1967136F23F434
:1018E000704343EA04331367FEF756FE0446FFF7DE
:1018F0000FF8C0F10201204603F0E2F800F03EF8D4
:10190000BDE81040FFF7BCBC4C1E1F2C04D940F2B0
:101910000A310E4803F08EF80D4AD2F8903023F0C9
:10192000F85343EA0463C2F89030BFE74C1E012C21
:1019300004D94FF44471054803F07CF8044A136F4E
:1019400023F4806343EA84231367AFE75A54000803
:1019500000800050100101000090005008B50121E6
:10196000022000F071F903F0A3F803F0AFF84FF490
:101970008032014B1A6708BD0090005008B54FF443
:10198000C070FFF743FBBDE808400449884294BF9C
:10199000012102214FF42070FFF75EBF80F0FA02B0
:1019A0002DE9F0410546FEF7BFFF431E0333044611
:1019B00004D940F6CF113B4803F03CF84FF4C02265
:1019C000394B5A6603F598335A68012A04D13749CE
:1019D0004A605A689207FCD48020FFF761FC052812
:1019E00007D103F065F803F071F84FF480322E4B05
:1019F0001A672F4B24F040749D4239D02D4B9D42E5
:101A000039D0FEF7A3FD8542064603D901212846B9
:101A100000F06EF9284FFB6813F0060FFBD1D7F8E2
:101A20000880BC60BB68634013F4F81F26D12846C9
:101A3000FEF792FD8020FFF733FC052814D1FEF756
:101A4000ABFDA842044604D940F62821154802F00F
:101A5000F1FFFEF75DFFC0F10201204603F030F810
:101A6000FFF78CFFFFF70CFCAE4213D2BDE8F0810C
:101A700044F00074C5E744F08074C2E740F61721D3
:101A8000084802F0D7FF8020C7F80880FFF708FC5D
:101A9000052805D0BDE8F0410121002000F028B95B
:101AA0003546CCE75A5400080090005000E0015041
:101AB00040420F0080841E000000015070B54E4B64
:101AC0000546984273D041D8A3F5B703A3F55863F0
:101AD000984265D033D8494B494E984251D017D8D7
:101AE000002877D041F2C911464802F0A3FF40F622
:101AF0007371444802F09EFF4FF40022404B5A6637
:101B00003E4B9D4276D000243F4A954236D05DE060
:101B10003D4B984227D03D4B9842E3D13C4BD3F804
:101B2000A040621E033224F040744CD940F6737119
:101B3000344802F07FFF4FF400237366E4E7354B2F
:101B40009842CFD1324BD3F8BC402CE0324B984274
:101B500031D0324B984232D0314B9842C2D12C4BCB
:101B6000D3F8C8401FE02A4BD3F8A040621E0332CE
:101B700024F04074DAD84FF40023736644F0807484
:101B800024E0234BD3F8A040621E033224F04074BB
:101B90002AD84FF400237366234643F0007415E0FF
:101BA0001B4BD3F8B840621E154E0332BBE7184BEF
:101BB000D3F8C040F7E7164BD3F8CC40F3E7144B0B
:101BC000D3F8D040EFE74FF4002373664FF0B442F0
:101BD000946070BD40F673710A4802F02BFF4FF419
:101BE00000232C467366F1E740F67371054802F056
:101BF00021FFCEE70023D0E7C0EA210140420F00D9
:101C0000009000505A54000880841E0000093D00D6
:101C10000080E00F0024F4000048E801005A62024E
:101C200080BA8C01024A536B0342FCD1704700BF5B
:101C300000400950034A0179D36E23F030030B436F
:101C4000D366704700400050F8B50446244BD3F8E3
:101C50008420D006FBD4D3F88430C3F381139C4294
:101C60003CD0FEF77FFC012C05460BD11D4B984262
:101C700004D940F2B7711C4802F0DCFE012128466D
:101C800002F01EFF02F0D7FE4FF00072174B07461E
:101C90005A66204602F036FF4FF48063104E621EF3
:101CA00093403367736E9A0103D4D6F884309B0651
:101CB0000AD5384602F0C3FE022C0FD12846BDE8F3
:101CC000F840002102F0FCBED6F884309906E9D530
:101CD00040F2C571044802F0ADFEE3E7F8BD00BF75
:101CE00000400050005A6202B154000800600050E9
:101CF00010B50C4608B9FEF735FC074B21461B789A
:101D00003BB1064B984204D80120BDE81040FFF7D4
:101D10009BBF0220F9E700BFA31E0020005A620209
:101D200038B54FF00042244B244C5A664AF6CD3366
:101D3000656C014605F00105236428BB0120FFF70F
:101D400071FF6368DB0715D51D4B586008461D4BB6
:101D5000226BD2070CD4984208D1072415B1174B37
:101D6000194A1A6402F0CFFE204638BD0130EFE771
:101D70009842F2D00024F1E70132236B13F00803FC
:101D800005D08A42F8D1E8E700220E49F5E78A42F9
:101D9000E3D020210A4A91620121A2F580525160CC
:101DA0000649084A886A800603D49342D5D0013395
:101DB000F8E79342DDE700BF009000500040095073
:101DC0000060095040420F003254FFFF38B54FF019
:101DD0000042164B01465A664AF6CD33144C154A5A
:101DE000656C236443780B205B0043F00103D363ED
:101DF000FFF718FF63688A7823F4F87343EA021345
:101E00006360CA784B7943EA0223A3600A798B792D
:101E100043EA022323610878FFF782FFEB0744BF00
:101E2000054B236402F06FFE012038BD0090005086
:101E300000400950004000503254FFFF70B50F2899
:101E4000044605D940F65261124802F0F3FD0F2412
:101E50004FF00042104B11495D6E03F580535A66F6
:101E60004AF6CD334E6C80200B64FFF7DBFE0B6A25
:101E700023F00F0323430B62F30744BF084B0B64AB
:101E8000002DA2BF4FF00042064B5A6602F03BFE07
:101E900070BD00BFB15400080080005000400950E0
:101EA0003254FFFF00A0005038B5032804460D4609
:101EB00005D8094B33F81030CB40DB0704D440F28F
:101EC0002D41064802F0B6FD302301225C43044B4D
:101ED000AA401A5138BD00BF60550008FA530008E7
:101EE00040D0035038B5032804460D4605D8094BA9
:101EF00033F81030CB40DB0704D440F2FE31064803
:101F000002F098FD302301225C43044BAA401A5191
:101F100038BD00BF60550008FA53000840E0035088
:101F20002DE9F041032804460D461746984605D88A
:101F30001D4B33F81030CB40DB0704D44FF4B071A5
:101F40001A4802F077FD37B129462046B8F1000F54
:101F500020D0FFF7A9FF0F21072D04EB440688BF0F
:101F6000A5F108034FEA0616114895BFAB009B0088
:101F700004360C3607FA03F29940304402F0C4FDEF
:101F80007FB929462046B8F1000F06D0BDE8F041E0
:101F9000FFF78ABFFFF7A6FFDDE7BDE8F041FFF7D7
:101FA000A1BFBDE8F08100BF6055000808550008DA
:101FB00030C00350F8B506460F461546002A6AD0D1
:101FC00003F00304836823F44073836002F033FD5D
:101FD000B26882EA042303F440735340B36002F012
:101FE0002EFD37B9B6F1B64F0DD12E20FFF70EF802
:101FF0000746B3689A0717D5012C1BD0022C27D0AF
:1020000064B9264B17E0264B9E4201D12F20EDE705
:1020100040F22F11234802F00DFDB3684FF4B27166
:10202000204802F007FD08E0012C13D0022CE7D174
:102030001D4B00E01D4B9F42F0D91D4B1B5D6B43B8
:102040000AD140F27511BDE8F840164802F0F2BC22
:10205000184BF0E7184BEEE7A3EBC504013C3C44FA
:10206000B4FBF3F4013C0CD540F27B110D4802F0B7
:10207000E1FC4FF4BE710B4802F0DCFCB368B461C4
:10208000F8BDB4F5007FF4D2B3689B07F7D5002CF8
:1020900008BF0124F3E740F21511D4E780841E0045
:1020A0000080065068550008002D3101404B4C005F
:1020B000BF550008809FD5004054890038B5B0F165
:1020C000B64F04460D4607D0084B984204D040F264
:1020D0009511074802F0AEFC043425B104F5805494
:1020E0000123236038BD04F50054F9E70080065051
:1020F0006855000838B5B0F1B64F04460D4607D014
:10210000124B984204D04FF4D571114802F092FC62
:102110000023104A236404F50053DA636A7804F15B
:1021200008037AB903F5805302221A602046D5E9E4
:1021300001122B7BFFF73EFF20462978BDE838408F
:10214000FFF7BCBF03F50053EEE700BF0080065069
:1021500068550008FFFF1F00034B5A68D20702D5DD
:10216000DA69002AF9D1704700800A50054B9A6855
:102170009107FCD45A689207F9D4DA69002AF6D19B
:10218000704700BF00800A5008B5FFF7E5FF022244
:10219000014B1A6108BD00BF00800A5008B5FFF767
:1021A000E5FF0122024B03F580514A601A6108BD28
:1021B00000800A5008B5044B5968012903D1FFF784
:1021C000E3FF024B596008BD00800A5000A00A508E
:1021D00010B5064CFFF7CAFF6368012B03D1FFF768
:1021E000E9FFFFF7C3FF0378E36010BD00800A50EA
:1021F000A8B94A680B78B2B94A7843EA42038A68B8
:1022000012B1127843EA82138A7843EA8203CA68D9
:1022100012B1127843EA4223054A936470477E2143
:10222000044802F007BC127843EAC203E4E700BFA7
:1022300000800A50C355000810B9044B5964704718
:1022400040F21111024802F0F5BB00BF00900A50A5
:10225000C355000810B9044B5964704740F24D1142
:10226000024802F0E7BB00BF00A00A50C3550008B7
:1022700010B9044B1964704740F28911024802F00A
:10228000D9BB00BF00A00A50C355000808B510B95B
:10229000044B186C08BD04484FF4E27102F0CAFB0D
:1022A0000020F7E700800A50C355000808B520B9A0
:1022B00049B101290AD0002008BD40F27321054828
:1022C00002F0B8FBF7E7044BD86CF5E7024B186D4A
:1022D000F2E700BFC355000800800A5018B939B1B1
:1022E000012908D0704740F21131044802F0A2BB26
:1022F000034BDA647047024B1A657047C3550008F8
:1023000000800A5070B50D46E8B1036813F4E07F11
:1023100003F03F06C3F3821210D0012A13D10B4CF5
:102320009B0603D591210A4802F084FB45B104F5D0
:10233000805401230020B340236070BD054CEFE7BB
:1023400004F50054F5E70E20F7E700BF6880005061
:10235000265600086480005030B58BB06C46754D31
:102360000FCD0FC42B68684623604FF07E636C4628
:1023700093F89C30704DFF2B18BF8DF80130FFF79C
:10238000FDF93220FFF75CFA0FCD0FC40FCD0FC45B
:1023900095E8030084E80300684BD3F84C2111034F
:1023A00040F1B380A3F5FE431C884FF6FF739C42B7
:1023B00008BF6B248DF81940FFF7DAF9044484F361
:1023C00008045F488DF81840FEF702F96846FFF7E9
:1023D000B3F83220FFF73AFA5A48FFF7E1FA5A4CBD
:1023E0005A48FFF76BFB01213620FEF7E7FDFFF7A8
:1023F000B5FA236F002023F0070343F0030323679C
:10240000236F23F4744343F48063236702F063FB78
:102410004F4BD3F8FC20D2017BD4D4F88030C4F8E1
:102420008030494CD4F8203123F0070343F00203F5
:10243000C4F82031D4F8283123F0070343F0020315
:10244000C4F82831D4F8803123F0030343F00103AA
:10245000C4F88031D4F8903223F0030343F0010331
:10246000C4F89032D4F8403123F0030343F0020360
:10247000C4F84031D4F8603123F0030343F0020381
:10248000C4F86031D4F8403223F0030343F0020370
:10249000C4F84032D4F8003223F0070343F00203BB
:1024A000C4F80032D4F8083223F0070343F00203E3
:1024B000C4F80832D4F8503223F0030343F0020387
:1024C000C4F85032D4F8703223F0030343F0010310
:1024D000C4F87032D4F8203223F0070343F001032C
:1024E000C4F82032FFF710F84FF0E0220020136903
:1024F00063F004031361D4F8603223F0070343F060
:102500000103C4F860320BB030BDD3F85041E4B2DF
:1025100050E7D3F8FC2022F08072C3F8FC20D4F8F6
:102520008020C4F88020D3F8FC2042F08072C3F8E9
:10253000FC2076E780560008945600080080E00FE3
:10254000C017530200B4C40400800050C0EA210147
:1025500000ED00E007B5094B18689A889B79009058
:102560006846ADF804208DF80630FFF72FFC0920EF
:10257000FFF764FC002003B05DF804FBBC560008C4
:1025800013B50024064A6846536F43F001035367AE
:1025900000948DF80440FFF74DFB204602B010BDBB
:1025A0000040005010B54C28044608D801236109AA
:1025B000074A04F01F04A34042F8213010BD4FF435
:1025C0008A71044802F036FA002CF7DBEEE700BF10
:1025D00000E100E0E0560008002808DB0122430982
:1025E000034900F01F008240603341F82320704708
:1025F00000E100E038B500F110035C2B04460D4605
:1026000004D94FF4E1710D4802F014FA1E2D04D9DB
:1026100040F2C311094802F00DFA002CACBF04F1DE
:102620006044074B4FEA0515EDB2ABBF04F56144BA
:1026300004F00F0484F800531D5538BDE05600081F
:1026400014ED00E073B502F0F6F9104D104B2E7842
:102650001C6802F0F4F902F0B3FB60B1FF2E0AD05F
:102660000020297801AA02F0F6F918B19021094852
:1026700002F0E0F9019C2CB902F0DDF9064B1C6870
:1026800002F0DDF9204602B070BD00BFD51F00206A
:1026900098110020615700089C11002010B50020FF
:1026A000144602F0BBFA022804D018B1C321024834
:1026B00002F0C0F9204610BDC8570008034B0222A3
:1026C000186800238068194602F044B8801F002073
:1026D00073B50024684600F0FDF90C4B00981C60AF
:1026E0000B4B0C4D1C600C4E0C4B306018602C607A
:1026F00002F01DFB2046019B3268083BDB0853803B
:102700002B6801332B6002B070BD00BFA411002004
:10271000A0110020A8110020B0110020AC11002051
:102720002DE9F04F89B099464B1C07460C461546DB
:1027300032D04B1EB3F5007F28D2194226D1A046D5
:1027400000267A4B07961E70B9F1000F00F0E58065
:10275000C9F80060002F00F0E28002F073F907373B
:1027600007AB27F0070B2146039000932A46334618
:10277000584600F0B9F9079C064604B178B90398A9
:1027800002F066F9192009B0BDE8F08F40F22B1174
:10279000674802F04FF9D2E74FF00808D0E7DFF8BA
:1027A000A4A16288DAF80010D300C0EBC20201399C
:1027B000272A0493CAF8001040F28280002D5AD1D3
:1027C00083450BF1080551D04146204602F067FAD7
:1027D00080460790079A02EB050B584602F0A7FACD
:1027E0000799C5F3CF054A88ABF80450521BABF8E4
:1027F0000220CA88002A3BD0551BADB201EBC202B1
:10280000ABF8065095808A884A49A8F80420BBF89E
:102810000420FF08A8F806200A68A8F8027094426D
:1028200008BFC1F800B044490A68944201D1C1F818
:1028300000B098F8002042F0010288F80020DAF891
:1028400000200132CAF800203C4A03981368334440
:1028500013603B4A11688B4288BF136002F0F8F89E
:1028600008F108030020C9F800308CE7A046B1E762
:10287000ABF80620C7E704EB02084046059202F0D9
:1028800056FA079C059AF108E088A8F80210D108CA
:10289000A8F8041088B1049BC3EBC0013144C1F314
:1028A000CF0104EBC000A8F806108180083AD208D6
:1028B0006280B8F80420E280BBE7A8F80600F5E7DC
:1028C000012D2ED104F10802B2FBF8F108FB112210
:1028D0004AB34146204602F0E2F9804698F80020CB
:1028E000DAF8003042F00102124F134D88F8002050
:1028F00083B13B689C4204D14146002000F03CF982
:1029000038602B689C429FD14146012000F034F989
:10291000286099E73B602B6096E7222033E721206F
:1029200031E78345D5D1A046D8E700BFD61F0020A8
:102930003E580008B0110020AC110020A411002066
:10294000A0110020A81100202DE9F7430446684695
:1029500000F0C0F8002C00F0B18002F073F814F819
:1029600008CC81461CF0010F00F0AA8034F8061C48
:10297000002900F0A580534D34F8047CD5F800E020
:102980004A1C0EF10103A4F1080692B22B60002F3D
:1029900037D0A6EBC70393F800800CF0020C18F0B8
:1029A000010F20D1BCF1000F20D15A88023111440F
:1029B0008AB2C5F800E034F802CCBCF1000F22D195
:1029C00014F8085C511E6FF3000504F8085C00253C
:1029D00089B224F8065C5980197865F300011970F2
:1029E0000021D9802FE0BCF1000F0AD014F8081C98
:1029F00017446FF3410104F8081C0021BAB2998012
:102A0000D9E73346D7E706EBCC01DDE90070074490
:102A1000B942D5D216F83C6016F001072ED014F852
:102A2000085C6FF3000504F8085C002524F8065CD8
:102A3000541E5C801C7865F300041C70CC1AC4F32F
:102A4000CF04DC808C80204C216819B1994201D8D8
:102A5000498801B923601D4C216819B1994201D3FD
:102A6000498801B923601A4948460B689B1A0B60D4
:102A700001F0EEFF002003B0BDE8F0834E884F80E8
:102A800001363244CE8892B2B6B101EBC6012E684F
:102A9000013E2E6014F8085C6FF3000504F8085C32
:102AA000002524F8065C541E5C801C7865F3000445
:102AB0001C700029C2D193E73146E8E72220DAE70B
:102AC0000120D8E7A8110020B0110020AC1100208F
:102AD000A41100200249034A0160521A4260704763
:102AE000E01F002000000120F0B54C1C074608BF85
:102AF0000821AAB91E480468002C37D06688DB007C
:102B000003EBC606C1F1000C2078C0070AD52ABB2A
:102B1000E08850B304EBC004668803EBC606F3E715
:102B20001448E8E7BE42F2D362B904F10805B5FBE8
:102B3000F1F001FB1055E8190DB1B042E8D8059B42
:102B40001C60F0BD08290ED06588013504EBC50571
:102B5000E81B00EA0C00281A8642F0D2A08820B1B7
:102B6000A4EBC004D8E73846E9E704462046E6E788
:102B7000B0110020AC110020F7B505460C4621B974
:102B80006846FFF7A7FF75B9009C2378DE0707D5D5
:102B900065B9E388A3B104EBC3042378D807F8D45C
:102BA000204603B0F0BD194B1C68EEE7012D07D19C
:102BB000A3882BB1A4EBC3042378D907F8D4EFE79B
:102BC00000266846FFF786FF114F009C2378DA073E
:102BD0000CD4002DE4D0E388002BE1D004EBC30239
:102BE00014F83330DB0706D526461446E38823B1B4
:102BF00004EBC304EAE71446EDE72EB94FF4B871CD
:102C0000384601F017FFE1E73446C9E7AC11002070
:102C1000B158000830B50E4C416123688BB9206073
:102C200083600DE0891A9A681D4641616AB11346B6
:102C30005A698A42F6D935B1A860521A83605A613E
:102C400030BD0025F4E72060F7E798608260F7E781
:102C5000BC11002038B500F077F90025084B094C6D
:102C60001A682368C31A2AB123B15169994203D360
:102C7000C91A5161206038BD55615B1A9268F2E74C
:102C8000BC110020B811002038B5134D2B685B69CA
:102C900093B1124A022014681C4402F052F82046F4
:102CA00000F05AF900230E492A680B70D08880077B
:102CB00009D501230B7038BD022002F042F8022032
:102CC00000F098F9EEE79268002AF4D050690344C6
:102CD000012BEBD9EFE700BFBC110020B811002099
:102CE000A51E002000220C490B687BB183420AD14B
:102CF00083687AB1936083681BB15A6941690A4459
:102D00005A61002070471A469B68EEE70028EFD012
:102D1000022070470B60EEE7BC11002070B501F097
:102D200091FE144E05463478FCB9134B1C60134BCE
:102D30001C60134B1C8000F0D3F8012002F001F856
:102D400000F060F90F4B0246186020B9284601F0E8
:102D50007FFE232070BD234640F2E7310A4801F090
:102D6000A3FA0A4B186001233370284601F070FE65
:102D70000020EFE7A61E0020BC110020B8110020A3
:102D8000A01E0020C011002018FCFFFFB41100207D
:102D90002DE9F047C20704460BD54D4A138801338D
:102DA0009BB21380FFF756FF4A4B1B680BB1FFF72E
:102DB0006BFFA30740F18A8001F044FE4FF0000949
:102DC00005464E46FFF746FFC846424F3C680CB1E9
:102DD00063698BB10022404B012E1A7003D119F0A8
:102DE000020F18BF1E70002C6CD0FFF74DFF284655
:102DF000BDE8F04701F02CBE23465A693AB91A796A
:102E00002179914288BF1C469B68002BF5D128464A
:102E100001F01EFE2569DDB100F096F8A269A0EB75
:102E200002094FEAE9734D4578EB030311DA236990
:102E30001344A361E368B4F80690013613B1204649
:102E40002168984701F0FEFD0546FFF703FFBDE747
:102E5000A94601F0F7FD82462046FFF743FF5046A2
:102E600001F0F6FD2369002BE4D0B5EB09054FEA2C
:102E7000E97363EB4303002B04DA40F23451174843
:102E800001F0D8FDA38B33B1E28B13449BB2B3F5B1
:102E90007A7F0FD2E38301F0D5FD81462946204693
:102EA000FFF7B8FEA369226948461344A36101F005
:102EB000CFFDBFE7A3F57A73E383A369013D013B2F
:102EC000A361E8E7022000F07FF890E7BDE8F08713
:102ED000A01E0020BC110020A41E00202C590008B8
:102EE00010B586B0002401231548ADF80830CDE9AF
:102EF00003448DF804408DF80A40059401F01BFE50
:102F000001A8FFF765F9204602A98DF80840FFF7F0
:102F10006FF920460F21FFF79DF90F212046FFF79B
:102F2000A7F9FFF73BF9FFF717F9064B46209C611D
:102F3000FFF752FB4620FFF735FB06B010BD00BF80
:102F4000C456000800800A5008B5FFF705F9014B88
:102F5000986908BD00800A50F8B5044601F06BFD81
:102F60000746FFF7F9F8164B9D6901F0E6FE0646A5
:102F70000020FFF78BF9830704D4731B032B01D8C0
:102F8000AE420FD10021631B022B98BFEC1C0846F8
:102F9000B4F1FF3F2CBF2246621EFFF79FF90220CB
:102FA00001F0CFFE384601F04AFD064A137833B1EE
:102FB00003498B6C43F001038B6400231370F8BD4D
:102FC00000800A50D71F0020830700F0010109D5B7
:102FD0000122064B41F002011A70054A936C23F05E
:102FE000010393640020FFF735B900BFD71F00200D
:102FF00000800A50830742BF0222014B1A647047C7
:1030000000900A5007B5044B01A9187901F08EFD14
:10301000019803B05DF804FBD456000810B50446CF
:10302000FDF7BAFA4FF47A729042B0FBF2F105D292
:103030003621BDE810400C4801F0FCBC0B4BB3FB43
:10304000F1F30B49884201D93C21F2E702FB04F07D
:10305000B0FBF3F0022806D9BDE810400323B0FB13
:10306000F3F0FDF785B810BD9759000840420F00F6
:10307000E7CD9A3BEFF3058373B9EFF31082094B69
:1030800012B9EFF3118212B11A68022A04D018683B
:1030900028B901221A6070476FF0050070474FF0A1
:1030A000FF3070478417002010B5EFF30583BBB9DC
:1030B000EFF310830D4C13B9EFF3118313B12368B1
:1030C000022B0DD02368012B0DD16FF004000021DD
:1030D000FFF790FA0223236000F080FB002010BD70
:1030E0006FF00500FBE74FF0FF30F8E78417002092
:1030F00040F67411014801F09DBC00BFFA59000868
:10310000034B0360034B0B60A0231360704700BFA9
:1031100024170020A4140020034B0360034B0B6012
:10312000A0231360704700BF44140020C411002086
:1031300038B50D46044620B94FF48D71164801F09C
:1031400079FC01F019F8D4E90F314B432268D0180B
:103150005B1AA060626000201A44FF23A063E26053
:1031600084F8443084F8453065B9236933B104F1FB
:10317000100000F00FFD08B101F06EFF01F00AF839
:10318000012038BD04F1100001F01CFE04F1240000
:1031900001F018FEF2E700BF685A0008F7B50D46C7
:1031A00016461C46074620B940F25511194801F051
:1031B00041FC24B940F25911164801F03BFC1EB9FC
:1031C00045B14FF4AF7102E025B940F25D111148ED
:1031D00001F030FC50230193019B502B04D04FF49D
:1031E000B3710C4801F026FC019B7CB10121002D3C
:1031F00008BF26462046C4E90F7584F846102660AD
:10320000FFF796FF9DF8203084F84C30204603B03D
:10321000F0BD00BF685A0008F0B585B00E461D46E7
:103220000446019220B940F21931494801F002FCEC
:1032300036B9236C23B140F21A31454801F0FAFB4C
:10324000022D07D1E36B012B04D040F21B31404823
:1032500001F0F0FB00F038FD30B9019B23B140F2E2
:103260001E313B4801F0E6FB00F086FFA26BE36BEA
:103270009A421FD22A463146204601F0EEFD636A8B
:103280001BB104F1240000F085FC08B101F0E4FE5C
:1032900000F080FF012005B0F0BD00F06DFFA26BD3
:1032A000E36B9A42E6D30123019A42B900F072FF20
:1032B0000020F0E7022DDDD000231F46F4E713B90C
:1032C00002A800F0A5FC00F065FF00F0C9FA00F0CC
:1032D00053FF94F84430FF2B08BF84F8447094F8EF
:1032E0004530FF2B08BF84F8457000F053FF01A95B
:1032F00002A800F099FC20BB00F03EFFA26BE36B3C
:103300009A4210D100F046FF019904F1100000F03C
:1033100007FC204601F0EAFD00F044FB0028BCD188
:1033200001F09AFE06E000F035FF204601F0DEFDD8
:1033300000F038FB00F020FFA36BE26B9A42B2D999
:1033400098E7204601F0D2FD00F02CFBB0E700BF6B
:10335000685A00082DE9F8438846174699460446FE
:1033600020B940F2ED31264801F064FBB8F1000FBE
:1033700006D1236C23B140F2EE31214801F05AFB13
:10338000B9F1020F0DD001F084FEA26BE36B05468C
:103390009A4212D30024284601F086FE2046BDE85A
:1033A000F883E36B012B04D040F2EF31144801F0B5
:1033B00041FB01F06EFE0546A36B94F845604A465A
:1033C0004146204676B2A36B01F047FD731C0BD13A
:1033D000636A3BB104F1240000F0DCFB10B10FB1D3
:1033E00001233B600124D6E77F2E04D14FF48F6187
:1033F000034801F01FFB013676B284F84560F1E71F
:10340000685A0008F0B585B00E460446019220B90E
:1034100040F23C513C4801F00DFB36B9236C23B11E
:103420004FF4A861384801F005FB00F04DFC30B9BD
:10343000019B23B140F24551334801F0FBFA00F003
:103440009BFEA56B9DB131462046013D01F038FD44
:10345000A563236933B104F1100000F09BFB08B1B0
:1034600001F0FAFD00F096FE012005B0F0BD019BD1
:10347000ABB302A800F0CCFB2F4600F08BFE00F0AF
:10348000EFF900F079FE94F84430FF2B08BF84F880
:10349000447094F84530FF2B08BF84F8457000F065
:1034A00079FE01A902A800F0BFFB10BB204601F085
:1034B000C9FCC0B1019904F1240000F031FB2046A1
:1034C00001F014FD00F06EFA08B901F0C5FD00F03E
:1034D00053FEA56B002DB6D1019B002BCDD100F082
:1034E00059FE0020C1E7204601F000FD00F05AFA25
:1034F000EDE7204601F0FAFC00F054FA204601F016
:10350000A1FC0028E3D0ECE7685A000830B500239E
:10351000064A52F8335002EBC3041DB942F8331087
:10352000606030BD01330A2BF3D1FAE78817002021
:103530002DE9F041044600F01FFE2D4B2D4E1A6878
:103540002D4F01321A603568002D43D134601B685D
:10355000012B1FD1B8464046013501F033FC382D10
:1035600008F11408F7D1DFF8B880244D404601F087
:1035700029FC284601F026FC214801F023FC2148C3
:1035800001F020FC204801F01DFC204BC3F8008016
:103590001F4B1D6014201F4A1368013313601E4A1D
:1035A00023641168E36A8B4200FB037004F1040199
:1035B00088BF136001F014FC00F0ECFD174B1B6892
:1035C0009BB13368DA6AE36A9A420ED2BDE8F041F1
:1035D00001F042BD114B1A68E36A002ADAD1326861
:1035E000D26A9A4298BF3460D4E7BDE8F08100BF48
:1035F000FC170020D01C0020701800204818002064
:103600002C18002018180020001800204418002052
:1036100040180020E0170020F4170020F0170020C9
:103620005C180020F8B50646144B154D1C68286838
:103630000F46043001F0F6FB731C07D137B129683F
:1036400010480431BDE8F84001F0CABB2B68A4194A
:103650005C6007D30C4B18682968BDE8F84004315A
:1036600001F0C9BB094B18682968043101F0C3FB9C
:10367000074B1A68A24288BF1C60F8BDF8170020EB
:10368000D01C002000180020401800204418002002
:10369000DC170020064A13681968064B19B94FF069
:1036A000FF321A6070471268D2681268F9E700BFEB
:1036B00044180020DC17002010B590F85D30044657
:1036C0003BB9006B01F0F7FC2046BDE8104001F06B
:1036D000F2BC012BF9D0022B06D0BDE8104040F619
:1036E0009771024801F0A6B910BD00BFCC5A00087E
:1036F00080B50F4C0F4F104D236833B90F4B1B682B
:10370000012BF8D901F0A8FCF5E700F035FDFB68C6
:10371000DE68301D01F086FB2B68013B2B602368BF
:10372000013B236000F036FD3046FFF7C5FFE3E7BD
:103730001418002018180020FC1700207018002012
:103740002DE9F04387B00546DDE90F940E46174694
:103750009846B9F1000F1DD05CB360230593059B1B
:10376000602B2CD1059B022384F85D3004ABC4F898
:10377000309001930E9B284600933A4643463146CB
:10378000029401F00EFC2046FFF7D2FE049807B029
:10379000BDE8F08340F255210F4801F04BF944B1E8
:1037A00060230593059B602B0FD1059B0023049399
:1037B000ECE740F25621084801F03CF9F0E740F20E
:1037C0005E21054801F036F9CCE740F25E2102485F
:1037D00001F030F9E9E700BFCC5A000830B589B0F4
:1037E000002507AA06A905A8CDE90555FFF788FC1D
:1037F000059B079A0293069B1249CDE90053124894
:103800002B46FFF79DFF80B100F0FEFA0128044629
:103810000FD101F03EFC4FF0FF320C4B1A600C4B05
:103820001C600C4B1D6000F021FD0B4B1B6809B0A8
:1038300030BD0134F9D140F64301084801F0FAF8EF
:10384000F3E700BF305B0008F1360008DC1700200A
:10385000F0170020F81700206C1F0020CC5A000839
:10386000024A136801331360704700BFD817002065
:10387000014B1868704700BFF81700202DE9F74F7B
:103880003C4B1B68002B6ED13B4B1C6801341C6009
:103890009CB93A4D2B681B6823B140F6C9213848C2
:1038A00001F0C8F8374B2A68196829601A60364A4F
:1038B000136801331360FFF7EDFE344D4FF0000B3A
:1038C0002B68334E9C42334F12D214213A68D26A8D
:1038D0004A43B258022A304A28BF4FF0010B1268FF
:1038E000002A18BF4FF0010B584603B0BDE8F08F17
:1038F000DFF88890DFF8A8A0D9F8002012681AB97C
:103900004FF0FF322A60E0E7D9F80020D268D2F801
:103910000C80D8F804108C4201D22960D5E708F158
:1039200004031846019301F07DFAD8F8281019B164
:1039300008F1180001F076FA1423D8F82C00DAF810
:103940000010884288BFCAF80000019903FB00609C
:1039500001F046FA3868D8F82C10C26A914228BFA4
:103960004FF0010BC8E70D4A4FF0000B136801330D
:103970001360B9E7D8170020F8170020441800207A
:10398000CC5A000840180020E4170020DC17002063
:1039900070180020D01C0020E8170020EC17002031
:1039A000F41700202DE9F0412A4C236823B940F692
:1039B000B601294801F03EF800F0DEFB2368013B28
:1039C000236024682CB1002400F0E4FB2046BDE80D
:1039D000F081224B1B68002BF5D0214D214EDFF8E2
:1039E00094801DE0EB68DC68271D04F1180001F0ED
:1039F00019FA384601F016FA1420E36A326800FB1F
:103A000003809342394688BF336001F0E9F9164BD1
:103A1000E26A1B68DB6A9A4202D30122134B1A60E6
:103A20002B68002BDED10CB1FFF734FE104D2C6853
:103A300044B101270D4EFFF721FF00B13760013C73
:103A4000F9D12C60094B1B68002BBCD001F004FBA2
:103A50000124B9E7D8170020CC5A0008FC17002031
:103A60002C180020F4170020D01C0020E81700209C
:103A7000EC170020701800202DE9F041224B1A6845
:103A8000224B1AB101221A60BDE8F081204E1A6063
:103A900033681B6B1A68B2F1A53F0BD15A68B2F1BB
:103AA000A53F07D19A68B2F1A53F03D1DB68B3F116
:103AB000A53F04D0306831683431FFF719FB154F4A
:103AC000154D3C68DFF8548014236343E958EA1825
:103AD00089B15168083349682B44994208BF4B6843
:103AE000516008BF5360142303FB04556B68DB6807
:103AF00033603C60C8E724B940F60441404600F01A
:103B000099FF013CE0E700BFD8170020E81700202C
:103B1000D01C0020F417002070180020CC5A000898
:103B200038B50D46044620B940F61E41074800F05E
:103B300081FF074B20461968183101F05CF92846CF
:103B4000BDE838400121FFF76DBD00BFCC5A000829
:103B5000D01C002070B50E461446054620B940F62C
:103B60004D410A4800F066FF094B28461968183194
:103B700001F036F9002C214608BF3046BDE8704000
:103B800018BF4FF0FF30FFF74DBD00BFCC5A000803
:103B9000D01C002038B5C368DC6824B940F67D41EC
:103BA000144800F047FF04F11805284601F03AF9DF
:103BB000114B1B68DBB9251D284601F033F90F4A6C
:103BC00014201168E36A8B42294688BF13600C4AAF
:103BD00000FB032001F004F90A4BE26A1B68DB6A70
:103BE0009A4285BF0120084B0020186038BD294645
:103BF0000648EFE7CC5A0008D8170020F417002039
:103C000070180020D01C0020E81700202C1800207D
:103C1000034B1B680360034B1B684360704700BF86
:103C2000E4170020F817002070B50D46044620B9AF
:103C300040F6F841144800F0FDFE25B940F6F94180
:103C4000114800F0F7FE00F097FA104B19682B6846
:103C50005A1C17D00E48266800686268864208D051
:103C60008A4206D8002301242B6000F093FA2046F4
:103C700070BD881A8342F5D95B1A134420462B6025
:103C8000FFF7C6FF0024F0E7CC5A0008F817002021
:103C9000E41700200122014B1A607047E81700204A
:103CA000012906DC08B9044B1868143150F82100CA
:103CB00070470020704700BFD01C0020014B1868DF
:103CC000704700BFD01C0020054B1B6833B1054B6B
:103CD0001868B0FA80F04009400070470120704732
:103CE000F0170020D817002038B5044608B9002086
:103CF00038BD184B1B68834204D041F24A01164874
:103D000000F098FEE36C23B941F24B01124800F039
:103D100091FEE36CE16AA26C013B9142E364E6D060
:103D2000002BE4D1251D284601F07CF81420A36C5B
:103D3000C3F13802A261094AE36211688B4288BF6D
:103D40001360074A294600FB032001F049F80120CF
:103D5000CEE700BFD01C0020CC5A0008F41700208A
:103D60007018002008B59142416000610AD8D21A4B
:103D700083699A420DD2084B011D186801F03BF887
:103D8000002008BD9A4201D2994202D2034B011D84
:103D9000F3E70120F5E700BF301D0020341D0020AF
:103DA000F7B5114C00F0E8F92568BDB90F4F104E7A
:103DB000384601F007F8304601F004F80D4B1021A9
:103DC0001F600D4B0A201E600C4A0D4B0095FFF73B
:103DD000E5F9206010B10B49FFF798FB03B0BDE88F
:103DE000F04000F0D7B900BF2C1D00204C1D002072
:103DF000381D0020341D0020301D0020A71E00208B
:103E0000D41C0020355B000810B588B0FFF7C8FF50
:103E1000114B1B68CBB1002407AA06A905A8CDE960
:103E20000544FFF779F9059B079A0293069B0B4916
:103E3000019328230A4800932346FFF781FC094B8E
:103E4000186010B1012008B010BD07484FF48D7103
:103E500000F0F0FD0020F6E72C1D00203A5B000882
:103E6000693F0008281D0020425B00082DE9FF4142
:103E70000C4690461E46054620B940F28F11104868
:103E800000F0D8FD0F4F386880B1052CCDE900480F
:103E900002950EDCFFF718FF0023022818BF1A4610
:103EA000694608BF0A9A3868FFF7B6F904B0BDE85A
:103EB000F081002332466946FFF74CFAF6E700BF6F
:103EC000425B00082C1D00202DE9F3470646FFF752
:103ED000CFFCDFF890800546D8F80030834209D93E
:103EE0001D4F3B681A686AB91C4A11681360396033
:103EF000012300E0002328463360C8F8005002B0D8
:103F0000BDE8F087DB68DC68D3F8009004F1040AB0
:103F1000504600F087FF236A2046984794F82830DF
:103F20005B07DED5A3694B44994506D251463868F4
:103F30006360246100F05FFFD3E700234A4619461F
:103F400020460093FFF792FF0028CAD140F2B63115
:103F5000034800F06FFDC4E7341D0020301D002031
:103F6000425B0008241D00202DE9F04788B04FF087
:103F70000008684E33681D68002D55D00024DB68AA
:103F80001D68FFF76DFC04A8FFF79EFF049B8246A7
:103F9000614F002B62D1002C4DD1A84251D3FFF7C5
:103FA00001FD3368DB68D3F80C9009F1040000F0E0
:103FB00039FF99F82830580738D5D9F818102B460A
:103FC000524648462944FFF7CDFE60B123462A46B3
:103FD000214648460094FFF749FF20B940F22121CD
:103FE0004E4800F027FD4846D9F820309847002277
:103FF000386804A9FFF706FA0028BBD0049B06988E
:10400000002B2EDB069C6369002B31D103A8FFF740
:104010005BFF049B0546092BE9D8DFE803F02D2D53
:104020002D555C722D2D555C0124AAE723F0010368
:1040300089F82830D7E73A4B1B681C68B4FA84F437
:10404000640922463868A5EB0A0100F087FFFFF7F4
:10405000A9FC0028CBD100F0FFFFC8E7FFF7A2FCC6
:10406000C5E7059B07999847049B002BBFDBC9E771
:10407000201D00F0D7FEC9E794F82830A16943F06D
:10408000010384F82830059B024619442046FFF7B7
:1040900069FE0028ABD0236A2046984794F8283060
:1040A0005907A4D50023A269059920460A44CDF8F2
:1040B00000801946FFF7DAFE002898D140F243311C
:1040C000164800F0B7FC92E794F8283023F001037B
:1040D00084F828308BE794F8283043F0010384F803
:1040E0002830059BA36123B94FF457710B4800F0AA
:1040F000A1FCA1692B462A4620462944FFF732FE3F
:1041000075E794F828309A07E0D4204600F0D3FFF2
:104110006DE700BF341D00202C1D0020425B00080D
:10412000301D002007B500230193084B1B680133A5
:1041300004D04FF41571064800F07CFC00F0A9FF94
:10414000019B002BFCD003B05DF804FB701F002026
:10415000A75B00084FF0E02200234FF47A7113614F
:104160009361044B1B68B3FBF1F3013B53610723DD
:10417000136170475C1F002008B500F08AFF044AF5
:10418000136801331360BFF34F8FBFF36F8F08BD08
:10419000701F002010B5094C236823B940F2ED21AF
:1041A000074800F047FC2368013B2360206818B9EA
:1041B000BDE8104000F078BF10BD00BF701F0020A8
:1041C000A75B0008836913F8023C022B0FD14FF064
:1041D000E023D3F8882D42F47002C3F8882DD3F879
:1041E000342F42F04042C3F8342FFBF7C9BF40F2EE
:1041F0007731014800F01EBCA75B000810B54FF0F6
:10420000807440E90224184A4FF0123440F80C2C14
:104210004FF003324FF0023C40E905244FF00132E9
:1042200040F8203C40E9072C4FF010334FF011329A
:104230004FF0093440E90A324FF008334FF0073CA1
:1042400040E90C344FF006334FF0053240E90E3CA4
:104250004FF0043340E910326FF0020340F8443C61
:1042600040F8481D10BD00BF2541000810B54FF0B3
:10427000E0230024D3F8202D42F47F02C3F8202D40
:10428000D3F8202D42F07F42C3F8202DFFF762FFC4
:10429000044B1C60FBF794FFFFF7EEFBFFF742FFB8
:1042A000204610BD701F002053B94AB9002908BF2D
:1042B00000281CBF4FF0FF314FF0FF3000F082B9F3
:1042C000ADF1080C6DE904CE00F006F8DDF804E06D
:1042D000DDE9022304B070472DE9F04F099D0C463B
:1042E000002B4DD18A420F4684469646B2FA82F39D
:1042F00060D94BB102FA03FEC3F120029F4000FADD
:1043000003FC20FA02F217434FEA1E461FFA8EF40E
:104310004FEA1C42B7FBF6F106FB117701FB04F0F4
:1043200042EA0742904208D91EEB020201F1FF3730
:1043300002D2904200F231813946121A1FFA8CFCE7
:10434000B2FBF6F006FB102200FB04F44CEA024C30
:10435000644508D91EEB0C0C00F1FF3202D2644513
:1043600000F21E81104640EA0140ACEB040C002133
:1043700025B12CFA03F30022C5E90032BDE8F08F25
:104380008B4205D90DB1C5E9000100210846F5E7CA
:10439000B3FA83F100294DD1A342C0F0F3809042DB
:1043A00080F0F080064623460846002DE6D0C5E999
:1043B0000063E3E7002B40F0A3808A1A4FEA1E4710
:1043C0001FFA8EF60121B2FBF7F407FB14204FEA27
:1043D0001C4242EA004206FB04F090420FD91EEB59
:1043E000020204F1FF382CBF4FF001094FF0000921
:1043F000904203D9B9F1000F00F0CC804446121A64
:104400001FFA8CFCB2FBF7F007FB102200FB06F64C
:104410004CEA024C664508D91EEB0C0C00F1FF3249
:1044200002D2664500F2B3801046ACEB060C40EABF
:1044300004409DE7C1F120068B4004FA01FE22FAF8
:1044400006F720FA06FCF4408A401F434EEA0C03AC
:1044500000FA01FE4FEA17484FEA13491FFA87FC9A
:10446000B4FBF8F008FB104449EA044400FB0CF9E3
:10447000A1450ED93C1900F1FF3A2CBF4FF0010BBA
:104480004FF0000BA14503D9BBF1000F00F08B806A
:104490005046A4EB09041FFA83F9B4FBF8F308FBB8
:1044A000134403FB0CFC49EA0444A44506D93C1917
:1044B00003F1FF3801D2A4457BD8434643EA0040CC
:1044C000A4EB0C04A0FB02984445CC46434602D31F
:1044D00006D1CE4504D20138B9EB020C68EB0703D4
:1044E000002D6CD0BEEB0C0264EB030422FA01F346
:1044F00004FA06F6CC4000211E43C5E900643DE7FE
:1045000002FA03FEC3F1200104FA03F200FA03FCED
:10451000CC404FEA1E4720FA01F11FFA8EF6B4FB99
:10452000F7F00A4307FB1044110C41EA044100FB79
:1045300006F48C420ED91EEB010100F1FF382CBFAE
:104540004FF001094FF000098C4202D9B9F1000F78
:104550002CD04046091B92B2B1FBF7F407FB1411B3
:1045600042EA014204FB06F1914207D91EEB020226
:1045700004F1FF3801D291421ED84446521A44EA4F
:10458000004120E7861A64EB030301200DE7F444A1
:1045900002384AE7023C724431E702397244CCE601
:1045A000F4440238DFE602383C4472E702387144D2
:1045B000D0E7023B3C4481E7023C7244DEE72946F7
:1045C000DCE600BF704700BF08B5064B044613B1D8
:1045D0000021AFF30080044B1B6803B198472046CD
:1045E00000F047FB00000000981E0020024B01462F
:1045F000186800F096BB00BF801F0020024B0146E8
:10460000186800F091BB00BF801F0020002310B588
:1046100004468360818119464366C2810822836112
:10462000C0E90033C0E904335C3000F0B2FD0D4B4B
:10463000246263620C4BA3620C4BE3620C4B23635A
:104640000C4B9C4206D003F16802944202D0D03356
:104650009C4205D104F15800BDE8104000F0A1BD16
:1046600010BD00BF0D5100082F5100086751000810
:104670008B510008601D0020024A0349034800F0E6
:1046800027BD00BF741F0020C9520008841F0020EE
:1046900041680C4B994210B5044601D000F014FE5D
:1046A000A168094B994202D0204600F00DFEE16856
:1046B000064B994204D02046BDE8104000F004BEED
:1046C00010BD00BF601D0020C81D0020301E00204E
:1046D00010B50B4B04210B4C0B4A20461A600022EC
:1046E000FFF794FF04F1680001220921FFF78EFF14
:1046F00004F1D00002221221BDE81040FFF786BF6E
:10470000981E0020601D002079460008014800F036
:1047100049BD00BF471F0020014800F044BD00BF55
:10472000471F002010B50446FFF7F0FF236A1BB1B6
:10473000BDE81040FFF7F0BF044B2362044B1B6839
:10474000002BF5D1FFF7C4FFF2E700BF9146000848
:10475000981E00202DE9F7431D46574B04460E4690
:104760001F68904627B13B6A13B93846FFF7DAFF56
:10477000B8F1020F06D0B8F1010F00F29980002DB8
:10478000C0F29680636ED90705D4A3899A0502D436
:10479000A06D00F007FD2146384600F095FD616BE5
:1047A00041B104F14403994202D0384600F0BCFA0A
:1047B000002363630023A3616360A3891B0603D501
:1047C0002169384600F0B0FAA389B8F1020F23F44A
:1047D0004A6323F00303A38160D001AB6A462146FC
:1047E000384600F099FDA3891843A0812DBB009D98
:1047F0002846FFF7FBFE0646002851D1DDF8009061
:10480000A9453FD14FF0FF35B4F90C3043F0020217
:10481000A2810022A26004F14702226022610122EB
:104820006261626ED60704D4980502D4A06D00F0D0
:10483000BAFC284603B0BDE8F083002ED8D03B6A0E
:1048400013B93846FFF76EFFB8F1010F266002BFBB
:10485000A38943F00103A381B4F90C3013F00802DB
:10486000C4E904651ED0D90745BF00226D42A5608A
:10487000A26048BFA561626ED20701D49B0513D523
:104880000025D6E74846FFF7B1FE06460028B9D016
:10489000A3894D4643F08003A381D0E70025B3E709
:1048A000A946F5E7A260E6E7A06D00F07CFCE7E72B
:1048B0004FF0FF35BDE700BF801F002038B5002353
:1048C000054D044608462B6000F0D1F9431C02D187
:1048D0002B6803B1236038BD9C1E002038B5044608
:1048E000064D0846114600222A601A4600F0C7F914
:1048F000431C02D12B6803B1236038BD9C1E0020ED
:1049000038B50446064D0846114600222A601A466C
:1049100000F0B7F9431C02D12B6803B1236038BD06
:104920009C1E002038B50446064D0846114600225C
:104930002A601A46FDF7B2FE431C02D12B6803B170
:10494000236038BD9C1E002070B50D4D00260D4C17
:10495000641BA410A64209D10B4D00260B4C00F09D
:104960000FFD641BA410A64205D170BD55F8043B91
:1049700001369847EEE755F8043B01369847F2E7D1
:10498000D81F0020D81F0020D81F0020DC1F0020C7
:1049900038B50023064D0446084611462B6000F04A
:1049A00069F9431C02D12B6803B1236038BD00BFF5
:1049B0009C1E0020704708B500F0E6F9FFF7FAFFEB
:1049C00000F0EFF9002008BD7047FEF76DBB08B599
:1049D000FBF75AFEFBF72AFDBDE8084000F00DB8D2
:1049E00008B500F008F8FEF799F9BDE80840FDF7B2
:1049F00065BE704770470F20704708B5082000F06B
:104A000031F8BDE80840082000F037B8FEE710B5DF
:104A10003AB1002350F8234041F8234001339A4231
:104A2000F8D110BD002070474FF4004070474FF49C
:104A30007A707047FEE7EFF3108072B6704700B9E6
:104A400062B67047EFF31180302383F3118870470B
:104A500080F31188704710B51446FFF721F92060E4
:104A6000002010BD4FF060420123D2F8001E8340A9
:104A70000B430020C2F8003E70474FF06041012216
:104A8000D1F8003E824023EA02030020C1F8003E34
:104A9000704770B5054614460E46FFF7CCFF2B68ED
:104AA0005C4034405C402C60BDE87040FFF7C7BFFD
:104AB00008B5FBF783FDBDE808400021FCF752BABA
:104AC0000029CCBF01210021FCF74CBA02214FF490
:104AD0002070FCF7C1BE38B50446FBF75DFD054606
:104AE000FBF716FFC0F102012846FFF7E9FF01219D
:104AF0000020FDF7FDF80CB1FCF740FFBDE83840A1
:104B0000FCF7BEBB7047704770B5054614460E46AD
:104B1000FFF791FF2B685C4034405C402C60BDE89F
:104B20007040FFF78CBF704700F008B809B100F083
:104B300007B8222070470121FDF7E4BB0020704731
:104B400070B506460D46FFF77DFF04461E2E55D86C
:104B5000DFE806F01019541E212454272A542D543E
:104B600030335436393C543F5442545445544854DD
:104B70004B4E5100FBF7F6FC002628602046FFF75D
:104B800067FF304670BD4FF4C070FCF73FFAF3E7A3
:104B90004FF42070F9E74FF44070F6E74FF460707F
:104BA000F3E74FF40070F0E74FF48060EDE74FF467
:104BB0004060EAE74FF4C060E7E74FF4F060E4E7F5
:104BC0004FF4B060E1E74FF4D060DEE74FF41060DF
:104BD000DBE74FF4E060D8E74FF4A060D5E74FF48F
:104BE0001860D2E74FF42860CFE74FF48070CCE72D
:104BF0004FF43060C9E74FF42060C6E7002021265B
:104C0000BBE7FDF7A9BB10B56FF0040420460521F2
:104C10000134FDF7EFFC4C2CF8D110BD70B50C46FB
:104C2000154610B9FDF70EFD38B143682BB12A4681
:104C30002146BDE8704000681847232070BDF7B5D5
:104C40000D4616461C4648B103B901AC87685FB1F2
:104C50002346324629460068B84706E0FDF7F2FCD5
:104C600004B901AC0028F1D1232003B0F0BD00202D
:104C70007047FEE74FF4005300204B607047002060
:104C8000704707B5002001AB0190FFF7D8FF0198EE
:104C9000002808BF4FF0FF3003B05DF804FB70B58B
:104CA00004464518073549420D40A5F1080630462F
:104CB00000F03DF8A188331BC3F3CF036288194489
:104CC00089B2D21A25F8041C25F8062CA28882B1D4
:104CD000A4EBC202D180518819445180E2887AB194
:104CE000D31A9BB204EBC20425F8023CA3803046E1
:104CF00070BD15F8082C42F0020205F8082CEDE70B
:104D000025F8022CF3E707B500224FF0FF3101AB85
:104D10000192FDF705FD019803B05DF804FBFDF776
:104D200013BE0846FFF7EFBF0846FFF7F8BF0023A2
:104D3000038043808380C380704700210846FDF7CD
:104D4000B5BA00F00101830748BF41F0020100201D
:104D5000FDF772BA38B5FFF775FE04460020FDF77F
:104D600095FA830700F0010548BF45F0020500F001
:104D700003010020FDF77CFA2846FEF709F82046DB
:104D8000BDE83840FFF764BE08B5FBF701FBFFF74D
:104D90001EFEFFF725FEFFF72CFEBDE80840FFF7DB
:104DA00029BEFFF712BE08B54FF0E0231B69FEF7DE
:104DB0008BFF012803D0BDE8084000F058B908BDBA
:104DC000FEF77CBF4FF0FF3200F10803C0E9022379
:104DD0004360036100230360704700230361704751
:104DE00043689A684B608A60516099600368086103
:104DF00001330360704730B50C68631C0AD1036946
:104E00005A684A6091608B60596003680861013399
:104E1000036030BD00F10802134652681568A542D0
:104E2000FAD9EDE70369D0E901128A605160596847
:104E3000814208BF5A60002202611A68013A1A6072
:104E40001868704710B50446FFF796F9A46BFFF792
:104E5000A1F9B4FA84F0400910BD70B51646026C91
:104E60000446856B42B906689EB98068FEF73CFF30
:104E7000A6600135A56370BD6EB9406800F094F975
:104E80006368226C1344A2686360934224BF236862
:104E900063600020EDE7C06800F086F9226CE368EB
:104EA00051429B1A2268E36093423EBFA3685B189D
:104EB000E360022EEDD10DB1013DEAE72846D8E7C7
:104EC00010B403461A6C08466AB1DC689968144449
:104ED0008C4228BF1968DC6028BFD960D9685DF8AA
:104EE000044B00F061B95DF8044B704770B504469F
:104EF000FFF742F994F8455004F124066DB2002DF5
:104F000014DCFF2384F84530FFF744F9FFF734F948
:104F100094F8445004F110066DB2002D12DCFF230A
:104F200084F84430BDE87040FFF734B9636A002B61
:104F3000E7D03046FEF72EFE08B1FEF7ABFE013D8E
:104F40006DB2DCE72369002BE9D03046FEF722FE84
:104F500008B1FEF79FFE013D6DB2DEE770B5044675
:104F60000D461646FFF708F994F84430FF2B04BFAE
:104F7000002384F8443094F84530FF2B04BF00230D
:104F800084F84530FFF706F9A36B2BB93246294662
:104F900004F12400FEF7DEFD2046BDE87040FFF777
:104FA000A5BF2DE9F0470D46DDE90994960032468C
:104FB0000746A521206B984600F0EBF8236B043ED2
:104FC0001E4426F00706002D43D06B1E04F1330269
:104FD000093513F8011F02F8011F09B1AB42F8D1DE
:104FE000002384F83D30089D4FF0000A372D28BF7C
:104FF0003725201DE562A564C4F84CA0FFF7EDFE3F
:10500000C5F1380504F11800FFF7E7FE0822514604
:105010002461A561646204F1500000F0BAF8042232
:10502000514604F1580000F0B4F80122514604F151
:105030005C0000F0AEF843463A463046216BFFF77D
:10504000DDF82060B9F1000F01D0C9F80040BDE8DB
:10505000F08784F83450C6E74FF0E0234FF08052D9
:10506000C3F8042DBFF34F8FBFF36F8F704710B598
:1050700000F00FF80446FEF701FC28B14FF0E023E2
:105080004FF08052C3F8042D2046BDE8104000F0D8
:105090000BB8EFF311804FF0300181F31188BFF3AB
:1050A0004F8FBFF36F8F704780F31188BFF34F8F1F
:1050B000BFF36F8F704710B5044640B1FEF7D0FBC9
:1050C0002046FFF79BFABDE81040FEF76BBC10BD11
:1050D0002DE9F8430746884614460026D4E9019591
:1050E000B9F1010905D52468002CF7D13046BDE897
:1050F000F883AB89012B07D9B5F90E30013303D002
:1051000029463846C04706436835E9E710B50C46DE
:10511000B1F90E10FFF7F4FB0028ABBF636DA38954
:105120001B1823F48053ACBF6365A38110BD2DE928
:10513000F0411F468B8905460C46DB05164605D512
:1051400002230022B1F90E10FFF7C8FBA3893246F3
:10515000B4F90E10284623F48053A3813B46BDE8E2
:10516000F041FFF7DFBB10B50C46B1F90E10FFF7A9
:10517000B5FB431CA38915BF606523F4805343F43A
:105180008053A38118BFA38110BDB1F90E10FFF7A2
:1051900095BB02440346934200D1704703F8011BBC
:1051A000F9E77047704770470A44431E914200D1A7
:1051B000704710B511F8014B914203F8014FF9D136
:1051C00010BDB1F90C202DE9F041170705460C463A
:1051D00056D44B68002B02DC0B6C002B3DDDE66ADD
:1051E000002E3AD0002312F480522F68216A2B60DF
:1051F00025D0626DA389580705D56368D21A636B01
:105200000BB1236CD21A216A0023E66A2846B04704
:10521000411C24D00023636023692360A389DA043E
:1052200000D56065616B2F60B9B104F14403994208
:1052300002D02846FFF778FD002363630DE00123C9
:105240002846B047461C0246D4D12B68002BD1D04B
:105250001D2B01D0162B2AD12F6000202EE02A68AA
:10526000B4F90C3042B11D2A01D0162A21D10023F5
:10527000636023692360D5E7626022692260CEE71C
:105280000F69002FE9D093070E680F600CBF4B69C0
:105290000023A6EB07088B60B8F1000FDDDD434665
:1052A0003A46216A2846A66AB047002808DCB4F9C5
:1052B0000C3043F040034FF0FF30A381BDE8F08194
:1052C0000744A8EB0008E7E738B50B6905460C462C
:1052D00013B90025284638BD18B1036A0BB9FFF78A
:1052E00021FAB4F90C30002BF3D0626ED00704D44D
:1052F000990502D4A06DFFF755FF28462146FFF718
:1053000060FF636E0546DA07E4D4A3899B05E1D408
:10531000A06DFFF748FFDDE770B50C46B1F90E1040
:1053200096B0154600291E460CDAA389002113F019
:10533000800F14BF40234FF48063002031602B6046
:1053400016B070BD6A46FFF723FB0028EDDB01991C
:1053500001F47041A1F50053594259414FF4806363
:10536000EBE700000000000000000000000000006B
:10537000000000000000000000000000000000002D
:10538000F8B500BFF8BC08BC9E467047F8B500BF32
:10539000F8BC08BC9E467047433A2F55736572733C
:1053A0002F4469617A4D65636F746572722F53691A
:1053B0006D706C696369747953747564696F2F5388
:1053C000444B732F73696D706C69636974795F7393
:1053D000646B2F706C6174666F726D2F6472697686
:1053E00065722F69326373706D2F7372632F736CE4
:1053F0005F69326373706D2E6300633A5C75736529
:1054000072735C6469617A6D65636F746572725CF6
:1054100073696D706C696369747973747564696FAD
:105420005C73646B735C73696D706C6963697479C8
:105430005F73646B5C706C6174666F726D5C656DDC
:105440006C69625C696E635C656D5F6770696F2E25
:105450006800FF070F00FF033F00433A2F557365B5
:1054600072732F4469617A4D65636F746572722F30
:1054700053696D706C696369747953747564696F8D
:105480002F53444B732F73696D706C696369747922
:105490005F73646B2F706C6174666F726D2F656DD6
:1054A0006C69622F7372632F656D5F636D752E6318
:1054B00000433A2F55736572732F4469617A4D65C5
:1054C000636F746572722F53696D706C6963697470
:1054D0007953747564696F2F53444B732F73696DDF
:1054E000706C69636974795F73646B2F706C61743D
:1054F000666F726D2F656D6C69622F7372632F65B5
:105500006D5F656D752E6300433A2F557365727339
:105510002F4469617A4D65636F746572722F5369A8
:105520006D706C696369747953747564696F2F5316
:10553000444B732F73696D706C69636974795F7321
:10554000646B2F706C6174666F726D2F656D6C6922
:10555000622F7372632F656D5F6770696F2E6300D2
:10556000FF070F00FF033F00433A2F557365727327
:105570002F4469617A4D65636F746572722F536948
:105580006D706C696369747953747564696F2F53B6
:10559000444B732F73696D706C69636974795F73C1
:1055A000646B2F706C6174666F726D2F656D6C69C2
:1055B000622F7372632F656D5F6932632E6300081B
:1055C000091108433A2F55736572732F4469617A44
:1055D0004D65636F746572722F53696D706C69638A
:1055E00069747953747564696F2F53444B732F73C7
:1055F000696D706C69636974795F73646B2F706C2B
:105600006174666F726D2F70657269706865726122
:105610006C2F7372632F736C5F68616C5F73797347
:105620007274632E6300633A5C75736572735C64B5
:1056300069617A6D65636F746572725C73696D70B0
:105640006C696369747973747564696F5C73646B96
:10565000735C73696D706C69636974795F73646B93
:105660005C706C6174666F726D5C656D6C69625CB8
:10567000696E635C656D5F6275732E680000000083
:1056800001260000040000000000000000010000EE
:10569000000000000B0000000C00000003000000F0
:1056A0000000202000000000020000003C3C3C0004
:1056B00000000000000000000000000001031001D5
:1056C000010903001E0000000F0000000E00000092
:1056D0001A00000000800A5013000000C4560008A1
:1056E000433A2F55736572732F4469617A4D656330
:1056F0006F746572722F53696D706C696369747928
:1057000053747564696F2F53444B732F73696D70B5
:105710006C69636974795F73646B2F706C61746614
:105720006F726D2F736572766963652F696E74652C
:1057300072727570745F6D616E616765722F7372DE
:10574000632F736C5F696E746572727570745F6DD0
:10575000616E616765725F636F727465786D2E63E9
:1057600000433A2F55736572732F4469617A4D6512
:10577000636F746572722F53696D706C69636974BD
:105780007953747564696F2F53444B732F73696D2C
:10579000706C69636974795F73646B2F706C61748A
:1057A000666F726D2F736572766963652F696F73AB
:1057B000747265616D2F7372632F736C5F696F73A1
:1057C000747265616D2E6300433A2F557365727371
:1057D0002F4469617A4D65636F746572722F5369E6
:1057E0006D706C696369747953747564696F2F5354
:1057F000444B732F73696D706C69636974795F735F
:10580000646B2F706C6174666F726D2F7365727646
:105810006963652F696F73747265616D2F7372634D
:105820002F736C5F696F73747265616D5F726574FD
:1058300061726765745F737464696F2E6300433AC5
:105840002F55736572732F4469617A4D65636F7468
:105850006572722F53696D706C69636974795374E2
:105860007564696F2F53444B732F73696D706C6946
:10587000636974795F73646B2F706C6174666F72A7
:105880006D2F736572766963652F6D656D6F7279C3
:105890005F6D616E616765722F7372632F736C5FEA
:1058A0006D656D6F72795F6D616E616765722E6394
:1058B00000433A2F55736572732F4469617A4D65C1
:1058C000636F746572722F53696D706C696369746C
:1058D0007953747564696F2F53444B732F73696DDB
:1058E000706C69636974795F73646B2F706C617439
:1058F000666F726D2F736572766963652F6D656D66
:105900006F72795F6D616E616765722F7372632F5D
:10591000736C695F6D656D6F72795F6D616E6167E4
:1059200065725F636F6D6D6F6E2E6300433A2F5526
:10593000736572732F4469617A4D65636F74657224
:10594000722F53696D706C696369747953747564EF
:10595000696F2F53444B732F73696D706C69636962
:1059600074795F73646B2F706C6174666F726D2FE6
:10597000736572766963652F736C65657074696DA4
:1059800065722F7372632F736C5F736C65657074CF
:10599000696D65722E6300433A2F55736572732FDC
:1059A0004469617A4D65636F746572722F53696DD6
:1059B000706C696369747953747564696F2F5344AB
:1059C0004B732F73696D706C69636974795F73646D
:1059D0006B2F706C6174666F726D2F736572766970
:1059E00063652F7564656C61792F7372632F736CB7
:1059F0005F7564656C61792E6300433A2F5573655A
:105A000072732F4469617A4D65636F746572722F8A
:105A100053696D706C696369747953747564696FE7
:105A20002F53444B732F73696D706C69636974797C
:105A30005F73646B2F7574696C2F74686972645F2F
:105A400070617274792F6672656572746F732F63FB
:105A50006D7369732F536F757263652F636D73690F
:105A6000735F6F73322E6300433A2F557365727301
:105A70002F4469617A4D65636F746572722F536943
:105A80006D706C696369747953747564696F2F53B1
:105A9000444B732F73696D706C69636974795F73BC
:105AA000646B2F7574696C2F74686972645F7061C0
:105AB0007274792F6672656572746F732F6B65727D
:105AC0006E656C2F71756575652E6300433A2F55B1
:105AD000736572732F4469617A4D65636F74657283
