S00D00004F70746967612E73333783
S31508000000001000207103000859330008593300080E
S315080000105933000859330008593300085933000882
S315080000205933000859330008593300085933000872
S315080000305933000859330008593300085933000862
S315080000405933000859330008593300085933000852
S315080000505933000859330008593300085933000842
S315080000605933000859330008593300085933000832
S315080000705933000859330008593300085933000822
S315080000805933000859330008593300085933000812
S3150800009059330008593300088907000859330008FE
S315080000A059330008593300085933000859330008F2
S315080000B059330008593300085933000859330008E2
S315080000C059330008593300085933000859330008D2
S315080000D059330008593300085933000859330008C2
S315080000E059330008593300085933000859330008B2
S315080000F059330008593300085933000859330008A2
S315080001005933000859330008593300085933000891
S315080001105933000859330008593300085933000881
S315080001205933000859330008593300085933000871
S315080001305933000859330008593300085933000861
S315080001405933000859330008593300085933000851
S315080001505933000859330008F735000859330008A1
S315080001605933000859330008593300085933000831
S31508000170013800D0FCE770470348044B834202D09D
S31508000180034B03B1184770479413002094130020BB
S3150800019000000000064B0749C91A891048BF0131FB
S315080001A0491003D0044B0BB101481847704700BFEC
S315080001B094130020941300200000000010B5064C8C
S315080001C0237843B9FFF7D8FF044B13B10448AFF3BC
S315080001D000800123237010BDF612002000000000E5
S315080001E0083E000808B5054B1BB105490548AFF39D
S315080001F00080BDE80840FFF7CDBF00BF0000000043
S3150800020000100020083E0008A3F5803A704700BF9A
S31508000210174B002B08BF134B9D46FFF7F5FF002130
S315080002208B460F461348144A121A03F077FA0E4BF8
S31508000230002B00D098470D4B002B00D09847002084
S31508000240002104000D000D48002802D00C48AFF329
S31508000250008002F0D1FF2000290003F04FF802F0D9
S315080002605DFD00BF0000080000000000000000005F
S3150800027000100020001000200013002000000000DD
S315080002800000000010B54FF480301D491D4A4B6E22
S315080002905066486E4FF000414AF6CD3451661A4909
S315080002A003F480334A6C0C6402F001024C6BE407D9
S315080002B0FCD4012415494C60A1F500510C6BE407E8
S315080002C0FCD50AB1124A0A640028A2BF4FF00041C1
S315080002D0104A51661BB94FF480320E4B5A6603F02A
S315080002E031F900F031F803F02BF902F0A9F803F020
S315080002F0BAF802F0BBF8BDE8104000F01BB800BF22
S3150800030000800050009000500040095000600950DD
S315080003103254FFFF00A0005008B5044803F0AAF8BD
S31508000320BDE80840024800F08BB900BF303C000821
S315080003300013002008B5034803F09CF8BDE8084000
S3150800034002F0E6BF303C0008014803F093B800BF4E
S31508000350303C00080348044A0449121A921002F075
S31508000360FCBF00BF700100087001000800130020E0
S3150800037008B500F02FF8FFF7EDFF124B12498B4234
S3150800038012D30020114B12498B4218D3FFF740FFB6
S31508000390186850F82240586840F822400132986898
S315080003A08242F5D30C33EAE70022F8E71C6844F8E2
S315080003B0220001325C68A242F8D30833E4E700223F
S315080003C0F8E700BF103E00081C3E00081C3E000867
S315080003D01C3E000870B54FF48041124B124A134D6B
S315080003E09A60D3F8882005F5005442F47002C3F8E1
S315080003F088200F4A91664FF0FF3222660D4A6266E0
S315080004000222C3F8D020BFF34F8FBFF36F8F4FF48C
S315080004104036002002F056F80020E66002F038F870
S315080004202E6170BD00ED00E0000000080080004469
S31508000430009000507FFF7F01014B1868704700BF8E
S3150800044018130020014B1860704700BF18130020CE
S31508000450084B1B6F03F00703022B04D0032B05D0B0
S31508000460012B05D0FEE7044B18687047034BFBE7E2
S3150800047003487047008000501813002020130020FE
S31508000480002D310108B5FFF7E3FF054B1B6FC3F3DA
S3150800049003330133B0FBF3F0024B186008BD00BF0D
S315080004A000800050141300200048704700B4C404AC
S315080004B0014B1868704700BF20130020054B1860D1
S315080004C0054B1B6F03F00703032B01D1FFF7DABFB8
S315080004D0704700BF20130020008000500048704776
S315080004E0002D31014FF0B4439868C0F304400C283E
S315080004F00AD8DFE800F00B090909090907211909D3
S315080005001B1D1F000F487047002070479B6803F0AB
S315080005104073B3F1807F11D0B3F1007F10D00A4A3F
S31508000520002B08BF104670470848704708487047B0
S315080005300848704708487047084870470848704791
S3150800054008487047405DC60000093D00C0EA210121
S3150800055080BA8C010048E801005A62020024F400BF
S3150800056080841E0040420F00014B1868704700BF88
S315080005701C13002013B500242948019402F07AFFC1
S31508000580012304220321204601F040FC204602F004
S3150800059069FF0122234B0520C3F8442401A902F070
S315080005A064FF002839D1204BD3F8F02042F001022D
S315080005B0C3F8F020D3F8FC2042F08072C3F8FC2080
S315080005C01A4AA3F55D431A60019B194A03F5D52318
S315080005D003F2FC43B3FBF2F3164A013B1361022311
S315080005E0C2F8F0304FF48073C2F804334FF060431A
S315080005F0114AC3F8B02F114AC3F8802ED3F8002E3B
S3150800060042F48072C3F8002EFF2283F82020D3F824
S31508000610002E22F48072C3F8002E02B010BD00BF6F
S31508000620303C000800D0035000ED00E0FF03004016
S31508000630F8590D00000004E055CEACC509000100CC
S315080006402DE9F04F85B0044618B9AD21464802F0A9
S3150800065097FE2368B3F1B64F07D0444A93427BD13D
S31508000660434802F007FF012503E0424802F002FF73
S31508000670002501230A22A179207901F0C7FB01236D
S315080006800A22E179607901F0C1FB4FF00A08DFF828
S31508000690F090DFF8F0A0384F267994F806B0032ECC
S315080006A005D83AF8163023FA0BF3DA0704D440F2E1
S315080006B0FE31484602F064FE3022012302FB06762C
S315080006C003FA0BF306F501563360642002F06AF963
S315080006D0267994F806B0032E06D8284B33F8163038
S315080006E023FA0BF3DB0704D440F22D41484602F007
S315080006F047FE3022012302FB067603FA0BF306F5C2
S3150800070082566420336002F04DF9B8F10108C3D16E
S31508000710032307EB0512C2F83835A1792379543536
S3150800072043EA0143C2F83C35E27963792D0143EA8D
S3150800073002437B5140F20113ADF80030E368694685
S315080007400293A36820680193237C8DF80C3001F08E
S3150800075047FC05B0BDE8F08FD221034805B0BDE8D7
S31508000760F04F02F00DBE00BFF838000800800650B2
S31508000770283C00082C3C000800C00350B239000889
S315080007805A390008B23900082DE9F041174B1F6D98
S315080007905B6D1F4000D5FEE701260025144CDFF8E7
S315080007A05880374218D02368C8F85060A3B1A168AA
S315080007B0284601316268A1609847637B012B0BD1FB
S315080007C050B90C4B03EB45131A7B60F341021A73BD
S315080007D01A7F60F341021A770135082D4FEA46065B
S315080007E004F11004DDD1BDE8F08100BF000004501B
S315080007F0181100201810002000200450044BD3F8CC
S315080008008420D206FBD4D3F88400C0F38110704745
S315080008100040005008B5334B98424FD027D8324B8A
S31508000820984245D017D8314B98423ED00AD838B1AD
S315080008302F4B984239D041F2A6312E4802F0A0FD3E
S31508000840002034E02C4B98422FD02C4B9842F2D102
S315080008502B4B586E2BE02B4B98422CD003F53713B5
S3150800086003F5D8639842E6D1254B986F1FE0264BCF
S3150800087098422FD00CD8254B984223D0244B984227
S3150800088024D0244B9842D6D11D4BD3F884000EE0D1
S31508000890214B984222D003F5740303F5105398426E
S315080008A0C9D1174BD3F8980001E0154B986D08BDD0
S315080008B0134B186FFBE7124B586FF8E7104BD3F83A
S315080008C08000F4E70E4BD3F88800F0E70C4BD3F81A
S315080008D08C00ECE70A4BD3F89000E8E7084BD3F80E
S315080008E09400E4E780BA8C01405DC60080841E004F
S315080008F040420F00BA39000800093D00C0CF6A001F
S315080009000080E00F0024F400007E560380D54302E1
S31508000910006CDC020048E8010090D00338B51A4B99
S315080009200546D3F820010C4600F00700062821D812
S31508000930DFE800F028040C1410181C00FFF77CFDF3
S31508000940052305B1286004B1236038BDFFF7B0FD63
S315080009500323F6E7FFF7C6FD0723F2E7FFF7BEFD19
S315080009600223EEE7FFF768FD0623EAE7FFF7A0FD97
S315080009700423E6E7054841F27C2102F001FD002345
S315080009801846DEE70123DCE700800050BA39000884
S3150800099038B5194B0546D3F828310C4603F007033A
S315080009A0013B052B20D8DFE803F003131B0F0B17B9
S315080009B0FFF742FD052305B1286004B1236038BD61
S315080009C0FFF73AFD0623F6E7FFF78CFD0723F2E764
S315080009D0FFF76EFD0323EEE7FFF76AFD0423EAE758
S315080009E0FFF77CFD0223E6E7044841F2840102F0A2
S315080009F0C7FC00231846DEE700800050BA39000815
S31508000A00F7B50027144B0197D3F88041064604F042
S31508000A100304022C0D4614D0032C0DD0012C14D13E
S31508000A20394601A8FFF77AFF0F240EB1019B336000
S31508000A3005B12C6003B0F0BDFFF754FD0724019003
S31508000A40F3E7FFF74BFD0190EFE741F2D131034899
S31508000A5002F096FC3C46E8E700800050BA390008E8
S31508000A6038B50F4B0546D3F890320C4603F003030E
S31508000A70012B09D0022B0BD1FFF734FD072305B153
S31508000A80286004B1236038BDFFF728FD0223F6E786
S31508000A90044841F2701102F073FC00231846EEE791
S31508000AA000800050BA39000837B500230193194B66
S31508000AB00546D3F820320C4603F00703042B1FD84B
S31508000AC0DFE803F025030F141900002101A8FFF73A
S31508000AD05FFF11230DB1019A2A6004B1236003B0A8
S31508000AE030BDFFF7FFFC07230190F3E702F042FC55
S31508000AF00A230190EEE7FFF737FD09230190E9E79E
S31508000B0041F24301044802F03BFC0023E2E70123DB
S31508000B10E0E700BF00800050BA39000838B5104B2E
S31508000B200546D3F840310C4603F00303022B0BD0DD
S31508000B30032B0DD0012B0FD102F01CFC0A2305B1A3
S31508000B40286004B1236038BDFFF70EFD0923F6E7D8
S31508000B5002F013FC0B23F2E701230020EFE700BFA6
S31508000B600080005037B500230193184B0546D3F88B
S31508000B7060320C4603F00703013B032B1FD8DFE85E
S31508000B8003F0020E1914002101A8FFF7C7FE0F2370
S31508000B900DB1019A2A6004B1236003B030BD00216B
S31508000BA001A8FFF7BBFF1023F2E7FFF79BFC07231B
S31508000BB00190EDE7FFF792FC02230190E8E741F286
S31508000BC0E801034802F0DCFB0023E1E7008000505F
S31508000BD0BA39000873B500240F4B0194D3F8703264
S31508000BE0064603F00303012B0D4607D0022B11D04E
S31508000BF041F24611094802F0C3FB04E0214601A868
S31508000C00FFF78CFF10240EB1019B336005B12C60F1
S31508000C1002B070BD1424F6E700800050BA39000807
S31508000C2038B5164B0546D3F800020C4600F0070007
S31508000C30042819D8DFE800F020030B0F130002F090
S31508000C4099FB0A2305B1286004B1236038BDFFF774
S31508000C508BFC0923F6E702F090FB0B23F2E7FFF77C
S31508000C6011FC0E23800AEDE7054841F28F4102F098
S31508000C7087FB00231846E5E70123E3E700800050D9
S31508000C80BA39000838B5164B0546D3F808020C469B
S31508000C9000F00700042819D8DFE800F020030B0F3E
S31508000CA0130002F067FB0A2305B1286004B123602C
S31508000CB038BDFFF759FC0923F6E702F05EFB0B2364
S31508000CC0F2E7FFF7DFFB0E23800AEDE7054841F25E
S31508000CD0C74102F055FB00231846E5E70123E3E781
S31508000CE000800050BA39000838B5104B0546D3F8CD
S31508000CF040320C4603F00303022B0BD0032B0DD016
S31508000D00012B0FD102F036FB0A2305B1286004B186
S31508000D10236038BDFFF728FC0923F6E702F02DFB10
S31508000D200B23F2E701230020EFE700BF0080005005
S31508000D3038B5124B0546D3F850320C4603F0030378
S31508000D40022B0FD0032B05D0012B0FD102F012FB7B
S31508000D500A2302E002F011FB0B2305B1286004B157
S31508000D60236038BDFFF700FC0923F6E7044841F283
S31508000D70B40102F005FB00231846EEE70080005098
S31508000D80BA39000838B5104B0546D3F860310C4619
S31508000D9003F00303022B0BD0032B0DD0012B0FD12D
S31508000DA002F0E8FA0A2305B1286004B1236038BDC9
S31508000DB0FFF7DAFB0923F6E702F0DFFA0B23F2E77F
S31508000DC001230020EFE700BF0080005010B5B0F502
S31508000DD0207F34D009D8B0F5007F2AD003D898B13F
S31508000DE0B0F5C07F10D0002421E0B0F5607FFAD1BD
S31508000DF0154BD3F88030C3F301149B0617D5032C83
S31508000E0015D040F296210FE00F4B1C6F230B13F001
S31508000E100E0FC4F303340AD0072C08D00F2C06D0C3
S31508000E20032C04D040F28621084802F0A9FA601C77
S31508000E3010BD054BD3F89040C4F30464F7E7024BA2
S31508000E401C6FC4F38024F2E700800050BA3900080A
S31508000E5038B54FF48032104B04469A6600200D468A
S31508000E60FFF7B4FF41F671320C4B6043DC69DA6375
S31508000E705A6804F4803422F440125DB9084988425D
S31508000E8094BF00200120000502435A600CB10022DD
S31508000E90DA6338BD0349F2E70090005000000350BA
S31508000EA0005A6202002D310138B5430904460D4641
S31508000EB00ED140F233310D4802F062FA002304F0F5
S31508000EC01F0485B103F580530122A2401A6038BD7C
S31508000ED0012B04D0022B04D040F24131EBE7044B3E
S31508000EE0EDE7044BEBE703F50053EDE7BA390008E5
S31508000EF0648000506880005030B585B00021B0F598
S31508000F00807F0446019100F000816BD8002800F02C
S31508000F10DA80A0F12004602C74D8602C72D8DFE83F
S31508000F2014F0D200D500D200D500EA00EA00EA00A3
S31508000F30EA00EA00D500EF007D0005019D007D006E
S31508000F40D500D500D50071007100710071007100DF
S31508000F50710071000501D500D500D5001D010A01F3
S31508000F60D500710071007100710071007100710087
S31508000F70710071007100710071000F01EA00D20062
S31508000F80D200D200B0007D007D00B80014019200A6
S31508000F90C700C7007100710071007100710071000F
S31508000FA071007100710071007100710071007100AB
S31508000FB0710071007100710071007100710071009B
S31508000FC0710071007100710071007100710071008B
S31508000FD0710071007100710071007100710071007B
S31508000FE07100CC00B0F5E06F00F0A5803BD8B0F5F5
S31508000FF0607F76D01DD8B0F5007F72D008D8B0F5DE
S31508001000C07F60D04FF49361574802F0B9F957E0B2
S31508001010B0F5207F5AD0B0F5407FF3D1FFF732FA0A
S3150800102004464FF42070FFF7D1FEB4FBF0F46408D1
S3150800103055E0B0F5B06F63D00AD8B0F5806F5AD0D6
S31508001040B0F5A06FDED1002101A8FFF72DFD37E02E
S31508001050B0F5C06F6AD0B0F5D06FD3D1002101A822
S31508001060FFF7DEFD2CE0B0F5286F6ED016D8B0F588
S31508001070186F65D00AD8B0F5F06F6FD0B0F5106F5D
S31508001080C0D1002101A8FFF7FDFD19E0B0F5206FDA
S31508001090B8D1002101A8FFF765FD11E0B0F5306F62
S315080010A058D0AFD3B0F5386F40D0B0F5406FA9D15E
S315080010B0002101A8FFF76CFC02E0FFF7C9F90190CF
S315080010C0019805B030BDFFF7DDF9F8E7FFF7DAF963
S315080010D004464FF42070FFF779FEB4FBF0F4019450
S315080010E0EEE7FFF7B5F905462046FFF76FFEB5FBB5
S315080010F0F0F50195E4E7002101A8FFF70FFCDFE70B
S31508001100002101A8FFF77CFCDAE74FF0E023029103
S315080011101B695B0705D5FFF7B5F90290029B01939A
S31508001120CEE703A902A8FFF7F9FCF7E7002101A813
S31508001130FFF7F4FCC4E7002101A8FFF7D5FDBFE7D8
S31508001140002101A8FFF7F4FDBAE7002101A8FFF77F
S3150800115041FDB5E701A8FFF783FCB1E7002101A827
S31508001160FFF710FEACE700BFBA39000808B58020C3
S31508001170FFF7C2FE034B98429EBF4FF48032024BE4
S315080011801A6708BD005A620200A000501FB5034640
S315080011900020B3F5807F019000F0D78077D8582BD0
S315080011A068D8382B05D8243B092B49D940F27D51FC
S315080011B0BFE0393B1F2BF9D801A252F823F000BF34
S315080011C06D130008AD110008AD110008AD11000837
S315080011D077130008BD130008AD110008AD1100080B
S315080011E0AD110008AD110008AD110008AD110008D9
S315080011F0AD110008AD110008AD110008AD110008C9
S31508001200AD110008AD110008AD110008C71300089C
S31508001210B5120008AD110008AD110008AD1100089F
S31508001220F9120008AD110008AD110008D113000825
S31508001230DB130008B31300081B1300081B13000870
S31508001240092BB3D801A252F823F000BFB512000843
S31508001250B5120008B5120008B5120008B512000844
S31508001260AD1100083B130008AD1100086D13000806
S31508001270D3120008802B99D15C4B1B6F03F0070330
S31508001280013B032B53D8DFE803F0504D8890B3F5A4
S31508001290086F75D022D8B3F5C06F67D00FD8B3F5ED
S315080012A0A06F00F08680B3F5B06F46D0B3F5806FB7
S315080012B07FF47CAF002001A9FFF730FB41E0B3F5CE
S315080012C0E06F7BD0B3F5F06F55D0B3F5D06F7FF4F0
S315080012D06DAF002001A9FFF7A3FC32E0B3F5286F34
S315080012E07BD00ED8B3F5186F6DD0B3F5206F6FD0DD
S315080012F0B3F5106F7FF45AAF002001A9FFF7C2FCBF
S315080013001FE0B3F5306F6DD0FFF450AFB3F5386F0B
S315080013102CD0B3F5406F7FF449AF002001A9FFF741
S3150800132037FB0EE0052301930BE00223FBE740F2AF
S31508001330CA412F4802F024F803E0002001A9FFF76C
S315080013405FFB019805B05DF804FB4FF0E0230290BF
S315080013501B695B0705D5FFF795F80C230393039BD9
S31508001360E1E703A902A8FFF7D9FBF8E7002001A9DE
S31508001370FFF7D4FBE5E7002001A9FFF703FDE0E747
S315080013801A4BD3F8003103F00303022B07D0032BC3
S3150800139009D0012B0BD1FFF78BF80323C3E7FFF71F
S315080013A0E3F80923BFE701F0E3FF0823BBE70123BE
S315080013B0B9E7002001A9FFF777FBC2E7002001A9DA
S315080013C0FFF792FCBDE7002001A9FFF7B1FCB8E7DB
S315080013D0002001A9FFF7C6FBB3E7002001A9FFF724
S315080013E0F9FBAEE701A9FFF73BFBAAE7008000502F
S315080013F0BA3900084FF48032074B0849586E03F58E
S3150800140080535A664B6A23F001034B62C3035CBFE1
S31508001410034B5A66704700BF0080005000C0075053
S3150800142000A00050F8B5036804460F2B04D940F60F
S315080014307731804801F0A4FF63680F2B04D940F682
S315080014407A317C4801F09CFFA3680F2B04D940F63B
S315080014507D31784801F094FF237B0F2B04D94FF494
S315080014603861744801F08CFF637B0F2B04D940F672
S315080014708331704801F084FFA37B3F2B04D940F6E3
S3150800148086316C4801F07CFFE37B3F2B04D940F69C
S315080014908931684801F074FF2369032B04D940F6A3
S315080014A08C31644801F06CFF6369032B04D940F65C
S315080014B08F31604801F064FFE369032B04D940F6D5
S315080014C092315C4801F05CFF8020FFF75FFE03283D
S315080014D000F08A804FF48012574B584D5A6645F6ED
S315080014E00E034FF0A062C5F88030554B9A624FF450
S315080014F0803203F580539A62AB6DDA03FCD4AE6D85
S3150800150016F08046FBD1D4E900231B0543EA0263A3
S31508001510E27B4C481343227B4B4F43EA0243627BF0
S3150800152043EA0233A27B43EA82132B61AA69D4E910
S3150800153004131B0643EA816302F000421343A27EAA
S315080015404FF440611343227E43EA0243627E43EA34
S315080015500223AB614FF4006201F03AFF2B6AE17E89
S31508001560E26923F00F0343EA8103002A3DD12B6287
S3150800157094F8243094F82010AA6ADB0043EA411351
S315080015803A40134394F82120304943EA021343F4BE
S3150800159080332A4AAB62936D31EA0303FBD14FF0DD
S315080015A08071274881621369A56823F4700343EAAA
S315080015B0055313614FF00043836194F822300BB949
S315080015C0234B996294F823303BB94FF48032204B71
S315080015D09A621A4A936D5B00FCD494F825301BB1C5
S315080015E0164B1C4AC3F88020F8BD134343F0080382
S315080015F0022A2B6208D12E614FF408524FF47F411C
S315080016001548AE6101F0E4FE0C4994F822308A6A66
S3150800161094F820001B063A4043EA4013134394F813
S31508001620242043EAC20394F8232043EA02438B6248
S31508001630D3E700BFBA390008009000500040005AAE
S315080016400050005A3840005AC7FFFEFE030001004A
S315080016500060005AF1A7FFFF3440005A014B93F986
S31508001660000070478813002010B543680446072B0E
S3150800167004D940F6D3512A4801F082FEA368032B09
S3150800168004D940F6D551264801F07AFE2378032B73
S3150800169004D940F6D751224801F072FE94F9013078
S315080016A0002B04DA40F6D9511D4801F069FE4FF4C3
S315080016B000011C4A637851664FF4D151022002F5A5
S315080016C0B832516218494F2B48604FF0010028BFC5
S315080016D04F2301F5805148601169C903FCD421786C
S315080016E043EA01235361D4E901131B0143EA0123A9
S315080016F0617B0B43217B43EA41039360E37BA17B38
S315080017001B0143EA4113617C0B43217C43EA4103F5
S315080017105360A37C13B16FF4D153536210BD00BF5D
S31508001720BA3900080090005000100250014B18808A
S31508001730704700BF86130020014B1880704700BF12
S315080017408413002010B5B0F5207F65D00ED8B0F50B
S31508001750007F4FD003D800B3B0F5C07F1DD040F24C
S315080017601631BDE81040344801F00ABEB0F5607F76
S31508001770F5D14C1E012C06D9042904D040F2F721D4
S315080017802D4801F0FDFD2D4AD2F8803023F03003B4
S3150800179043EA0413C2F8803010BD4C1E012C0AD946
S315080017A0102903D8264BCB40DB0704D440F2C921C5
S315080017B0214801F0E5FD01F01AFE01F026FE4FF47E
S315080017C08031204B1D4A1967136F23F4704343EA8F
S315080017D004331367FEF756FE0446FFF70FF8C0F109
S315080017E00201204601F00BFE00F03EF8BDE810406D
S315080017F0FFF7BCBC4C1E1F2C04D940F20A310E4818
S3150800180001F0BEFD0D4AD2F8903023F0F85343EAB2
S315080018100463C2F89030BFE74C1E012C04D94FF47C
S315080018204471054801F0ACFD044A136F23F4806344
S3150800183043EA84231367AFE7BA39000800800050EB
S31508001840100101000090005008B50121022000F0A7
S3150800185071F901F0CCFD01F0D8FD4FF48032014B4F
S315080018601A6708BD0090005008B54FF4C070FFF71E
S3150800187043FBBDE808400449884294BF0121022180
S315080018804FF42070FFF75EBF80F0FA022DE9F041B1
S315080018900546FEF7BFFF431E0333044604D940F648
S315080018A0CF113B4801F06CFD4FF4C022394B5A6604
S315080018B003F598335A68012A04D137494A605A68A9
S315080018C09207FCD48020FFF761FC052807D101F0B8
S315080018D08EFD01F09AFD4FF480322E4B1A672F4B7E
S315080018E024F040749D4239D02D4B9D4239D0FEF7E5
S315080018F0A3FD8542064603D90121284600F06EF964
S31508001900284FFB6813F0060FFBD1D7F80880BC6098
S31508001910BB68634013F4F81F26D12846FEF792FDEC
S315080019208020FFF733FC052814D1FEF7ABFDA8424B
S31508001930044604D940F62821154801F021FDFEF792
S315080019405DFFC0F10201204601F059FDFFF78CFF4B
S31508001950FFF70CFCAE4213D2BDE8F08144F00074E8
S31508001960C5E744F08074C2E740F61721084801F03D
S3150800197007FD8020C7F80880FFF708FC052805D072
S31508001980BDE8F0410121002000F028B93546CCE732
S31508001990BA3900080090005000E0015040420F009C
S315080019A080841E000000015070B54E4B05469842D3
S315080019B073D041D8A3F5B703A3F55863984265D009
S315080019C033D8494B494E984251D017D8002877D07A
S315080019D041F2C911464801F0D3FC40F673714448F8
S315080019E001F0CEFC4FF40022404B5A663E4B9D4216
S315080019F076D000243F4A954236D05DE03D4B98426A
S31508001A0027D03D4B9842E3D13C4BD3F8A040621E09
S31508001A10033224F040744CD940F67371344801F00F
S31508001A20AFFC4FF400237366E4E7354B9842CFD1F9
S31508001A30324BD3F8BC402CE0324B984231D0324B73
S31508001A40984232D0314B9842C2D12C4BD3F8C84079
S31508001A501FE02A4BD3F8A040621E033224F04074DC
S31508001A60DAD84FF40023736644F0807424E0234BDD
S31508001A70D3F8A040621E033224F040742AD84FF4EB
S31508001A8000237366234643F0007415E01B4BD3F816
S31508001A90B840621E154E0332BBE7184BD3F8C04058
S31508001AA0F7E7164BD3F8CC40F3E7144BD3F8D040FE
S31508001AB0EFE74FF4002373664FF0B442946070BDAD
S31508001AC040F673710A4801F05BFC4FF400232C467C
S31508001AD07366F1E740F67371054801F051FCCEE7ED
S31508001AE00023D0E7C0EA210140420F0000900050D1
S31508001AF0BA39000880841E0000093D000080E00F06
S31508001B000024F4000048E801005A620280BA8C01F9
S31508001B10024A536B0342FCD1704700BF004009508C
S31508001B20034A0179D36E23F030030B43D36670471B
S31508001B3000400050F8B50446244BD3F88420D0065C
S31508001B40FBD4D3F88430C3F381139C423CD0FEF710
S31508001B507FFC012C05460BD11D4B984204D940F257
S31508001B60B7711C4801F00CFC0121284601F047FC1E
S31508001B7001F007FC4FF00072174B07465A662046DD
S31508001B8001F05FFC4FF48063104E621E934033678A
S31508001B90736E9A0103D4D6F884309B060AD5384664
S31508001BA001F0F3FB022C0FD12846BDE8F8400021CE
S31508001BB001F025BCD6F884309906E9D540F2C571FE
S31508001BC0044801F0DDFBE3E7F8BD00BF0040005024
S31508001BD0005A6202113A00080060005010B50C461F
S31508001BE008B9FEF735FC074B21461B783BB1064B77
S31508001BF0984204D80120BDE81040FFF79BBF022099
S31508001C00F9E700BFF7120020005A620238B54FF014
S31508001C100042244B244C5A664AF6CD33656C01467D
S31508001C2005F00105236428BB0120FFF771FF6368EF
S31508001C30DB0715D51D4B586008461D4B226BD2078E
S31508001C400CD4984208D1072415B1174B194A1A64BF
S31508001C5001F0F8FB204638BD0130EFE79842F2D094
S31508001C600024F1E70132236B13F0080305D08A42FA
S31508001C70F8D1E8E700220E49F5E78A42E3D02021A9
S31508001C800A4A91620121A2F5805251600649084A22
S31508001C90886A800603D49342D5D00133F8E7934285
S31508001CA0DDE700BF00900050004009500060095071
S31508001CB040420F003254FFFF38B54FF00042164B32
S31508001CC001465A664AF6CD33144C154A656C2364A8
S31508001CD043780B205B0043F00103D363FFF718FF3B
S31508001CE063688A7823F4F87343EA02136360CA7850
S31508001CF04B7943EA0223A3600A798B7943EA0223E4
S31508001D0023610878FFF782FFEB0744BF054B23647E
S31508001D1001F098FB012038BD0090005000400950A2
S31508001D20004000503254FFFF70B50F28044605D90D
S31508001D3040F65261124801F023FB0F244FF000428F
S31508001D40104B11495D6E03F580535A664AF6CD333A
S31508001D504E6C80200B64FFF7DBFE0B6A23F00F0343
S31508001D6023430B62F30744BF084B0B64002DA2BF45
S31508001D704FF00042064B5A6601F064FB70BD00BF87
S31508001D80113A000800800050004009503254FFFF05
S31508001D9000A0005038B5032804460D4605D8094B5F
S31508001DA033F81030CB40DB0704D440F22D41064807
S31508001DB001F0E6FA302301225C43044BAA401A518B
S31508001DC038BD00BFC03A00085A39000840D0035051
S31508001DD038B5032804460D4605D8094B33F81030A4
S31508001DE0CB40DB0704D440F2FE31064801F0C8FABE
S31508001DF0302301225C43044BAA401A5138BD00BF68
S31508001E00C03A00085A39000840E003502DE9F0416D
S31508001E10032804460D461746984605D81D4B33F841
S31508001E201030CB40DB0704D44FF4B0711A4801F0E8
S31508001E30A7FA37B129462046B8F1000F20D0FFF798
S31508001E40A9FF0F21072D04EB440688BFA5F1080357
S31508001E504FEA0616114895BFAB009B0004360C36B0
S31508001E6007FA03F29940304401F0EDFA7FB92946A2
S31508001E702046B8F1000F06D0BDE8F041FFF78ABF4B
S31508001E80FFF7A6FFDDE7BDE8F041FFF7A1BFBDE814
S31508001E90F08100BFC03A0008683A000830C0035015
S31508001EA0F8B506460F461546002A6AD003F003041D
S31508001EB0836823F44073836001F063FAB26882EAA8
S31508001EC0042303F440735340B36001F05EFA37B954
S31508001ED0B6F1B64F0DD12E20FFF70EF80746B368B8
S31508001EE09A0717D5012C1BD0022C27D064B9264B8C
S31508001EF017E0264B9E4201D12F20EDE740F22F1125
S31508001F00234801F03DFAB3684FF4B271204801F056
S31508001F1037FA08E0012C13D0022CE7D11D4B00E05C
S31508001F201D4B9F42F0D91D4B1B5D6B430AD140F2F6
S31508001F307511BDE8F840164801F022BA184BF0E7CB
S31508001F40184BEEE7A3EBC504013C3C44B4FBF3F4A1
S31508001F50013C0CD540F27B110D4801F011FA4FF403
S31508001F60BE710B4801F00CFAB368B461F8BDB4F55C
S31508001F70007FF4D2B3689B07F7D5002C08BF01246D
S31508001F80F3E740F21511D4E780841E00008006505E
S31508001F90C83A0008002D3101404B4C001F3B000891
S31508001FA0809FD5004054890038B5B0F1B64F044635
S31508001FB00D4607D0084B984204D040F295110748C1
S31508001FC001F0DEF9043425B104F5805401232360B9
S31508001FD038BD04F50054F9E700800650C83A0008F1
S31508001FE038B5B0F1B64F04460D4607D0124B9842A5
S31508001FF004D04FF4D571114801F0C2F90023104AF4
S31508002000236404F50053DA636A7804F108037AB99D
S3150800201003F5805302221A602046D5E901122B7B6C
S31508002020FFF73EFF20462978BDE83840FFF7BCBFDA
S3150800203003F50053EEE700BF00800650C83A0008D3
S31508002040FFFF1F00034B5A68D20702D5DA69002A38
S31508002050F9D1704700800A50054B9A689107FCD45D
S315080020605A689207F9D4DA69002AF6D1704700BF90
S3150800207000800A5008B5FFF7E5FF0222014B1A61F6
S3150800208008BD00BF00800A5008B5FFF7E5FF01222A
S31508002090024B03F580514A601A6108BD00800A5058
S315080020A008B5044B5968012903D1FFF7E3FF024B32
S315080020B0596008BD00800A5000A00A5010B5064CA9
S315080020C0FFF7CAFF6368012B03D1FFF7E9FFFFF7A4
S315080020D0C3FF0378E36010BD00800A50A8B94A68B8
S315080020E00B78B2B94A7843EA42038A6812B1127881
S315080020F043EA82138A7843EA8203CA6812B11278DD
S3150800210043EA4223054A936470477E21044801F056
S3150800211037B9127843EAC203E4E700BF00800A50E1
S31508002120233B000810B9044B5964704740F211115B
S31508002130024801F025B900BF00900A50233B000869
S3150800214010B9044B5964704740F24D11024801F02A
S3150800215017B900BF00A00A50233B000810B9044B6A
S315080021601964704740F28911024801F009B900BFA5
S3150800217000A00A50233B000808B510B9044B186C98
S3150800218008BD04484FF4E27101F0FAF80020F7E7B9
S3150800219000800A50233B000808B520B949B1012937
S315080021A00AD0002008BD40F27321054801F0E8F87E
S315080021B0F7E7044BD86CF5E7024B186DF2E700BF5A
S315080021C0233B000800800A5018B939B1012908D004
S315080021D0704740F21131044801F0D2B8034BDA6473
S315080021E07047024B1A657047233B000800800A5067
S315080021F070B50D46E8B1036813F4E07F03F03F06B7
S31508002200C3F3821210D0012A13D10B4C9B0603D5B7
S3150800221091210A4801F0B4F845B104F58054012328
S315080022200020B340236070BD054CEFE704F5005469
S31508002230F5E70E20F7E700BF68800050863B0008E8
S315080022406480005030B58BB06C46754D0FCD0FC409
S315080022502B68684623604FF07E636C4693F89C3083
S31508002260704DFF2B18BF8DF80130FFF7FDF93220AE
S31508002270FFF75CFA0FCD0FC40FCD0FC495E8030026
S3150800228084E80300684BD3F84C21110340F1B3806E
S31508002290A3F5FE431C884FF6FF739C4208BF6B24C8
S315080022A08DF81940FFF7DAF9044484F308045F4807
S315080022B08DF81840FEF702F96846FFF7B3F83220A2
S315080022C0FFF73AFA5A48FFF7E1FA5A4C5A48FFF725
S315080022D06BFB01213620FEF7E7FDFFF7B5FA236F02
S315080022E0002023F0070343F003032367236F23F437
S315080022F0744343F48063236701F08CF84F4BD3F89B
S31508002300FC20D2017BD4D4F88030C4F88030494C04
S31508002310D4F8203123F0070343F00203C4F8203130
S31508002320D4F8283123F0070343F00203C4F8283110
S31508002330D4F8803123F0030343F00103C4F8803155
S31508002340D4F8903223F0030343F00103C4F8903223
S31508002350D4F8403123F0030343F00203C4F84031B4
S31508002360D4F8603123F0030343F00203C4F8603164
S31508002370D4F8403223F0030343F00203C4F8403292
S31508002380D4F8003223F0070343F00203C4F80032FE
S31508002390D4F8083223F0070343F00203C4F80832DE
S315080023A0D4F8503223F0030343F00203C4F8503242
S315080023B0D4F8703223F0030343F00103C4F87032F3
S315080023C0D4F8203223F0070343F00103C4F820327F
S315080023D0FFF710F84FF0E0220020136963F00403BA
S315080023E01361D4F8603223F0070343F00103C4F8FD
S315080023F060320BB030BDD3F85041E4B250E7D3F8A1
S31508002400FC2022F08072C3F8FC20D4F88020C4F89F
S315080024108020D3F8FC2042F08072C3F8FC2076E7CF
S31508002420E03B0008F43B00080080E00FC0175302A9
S3150800243000B4C40400800050C0EA210100ED00E0A9
S3150800244007B5094B18689A889B7900906846ADF8D5
S3150800245004208DF80630FFF72FFC0920FFF764FCEF
S31508002460002003B05DF804FB1C3C000813B50024EB
S31508002470064A6846536F43F00103536700948DF884
S315080024800440FFF74DFB204602B010BD0040005047
S3150800249010B54C28044608D801236109074A04F0F8
S315080024A01F04A34042F8213010BD4FF48A71044836
S315080024B000F066FF002CF7DBEEE700BF00E100E066
S315080024C0403C0008002808DB01224309034900F0C4
S315080024D01F008240603341F82320704700E100E086
S315080024E038B500F110035C2B04460D4604D94FF4A9
S315080024F0E1710D4800F044FF1E2D04D940F2C311C6
S31508002500094800F03DFF002CACBF04F16044074BBE
S315080025104FEA0515EDB2ABBF04F5614404F00F04AC
S3150800252084F800531D5538BD403C000814ED00E002
S3150800253010B500F026FF034B1C6800F026FF204666
S3150800254010BD00BF9811002010B50020144601F0F8
S3150800255004F8022804D018B1C321024800F010FF7D
S31508002560204610BDC13C0008034B02221868002310
S315080025708068194600F036BD341300200346054A24
S315080025800549106803448B428CBF4FF0FF30136037
S31508002590704700BF241300200000012030B50E4C00
S315080025A0416123688BB9206083600DE0891A9A68B7
S315080025B01D4641616AB113465A698A42F6D935B150
S315080025C0A860521A83605A6130BD0025F4E720607E
S315080025D0F7E798608260F7E7A411002038B500F0A5
S315080025E077F90025084B094C1A682368C31A2AB1DB
S315080025F023B15169994203D3C91A5161206038BD84
S3150800260055615B1A9268F2E7A4110020A011002018
S3150800261038B5134D2B685B6993B1124A02201468CA
S315080026201C4400F0DFFF204600F05AF900230E494B
S315080026302A680B70D088800709D501230B7038BD2E
S31508002640022000F0CFFF022000F098F9EEE792682A
S31508002650002AF4D050690344012BEBD9EFE700BFF9
S31508002660A4110020A0110020F912002000220C4914
S315080026700B687BB183420AD183687AB19360836819
S315080026801BB15A6941690A445A61002070471A46C3
S315080026909B68EEE70028EFD0022070470B60EEE754
S315080026A0A411002070B500F073FE144E0546347868
S315080026B0FCB9134B1C60134B1C60134B1C8000F0B9
S315080026C0D3F8012000F08EFF00F060F90F4B0246A8
S315080026D0186020B9284600F061FE232070BD234605
S315080026E040F2E7310A4800F089F90A4B18600123DD
S315080026F03370284600F052FE0020EFE7FA12002059
S31508002700A4110020A0110020F4120020A811002016
S3150800271018FCFFFF9C1100202DE9F047C20704466C
S315080027200BD54D4A138801339BB21380FFF756FF2A
S315080027304A4B1B680BB1FFF76BFFA30740F18A8072
S3150800274000F026FE4FF0000905464E46FFF746FF05
S31508002750C846424F3C680CB163698BB10022404BB6
S31508002760012E1A7003D119F0020F18BF1E70002C23
S315080027706CD0FFF74DFF2846BDE8F04700F00EBEC7
S3150800278023465A693AB91A792179914288BF1C4673
S315080027909B68002BF5D1284600F000FE2569DDB1BF
S315080027A000F096F8A269A0EB02094FEAE9734D45D5
S315080027B078EB030311DA23691344A361E368B4F8D9
S315080027C00690013613B120462168984700F0E0FDCF
S315080027D00546FFF703FFBDE7A94600F0D9FD824687
S315080027E02046FFF743FF504600F0D8FD2369002B2B
S315080027F0E4D0B5EB09054FEAE97363EB4303002B15
S3150800280004DA40F23451174800F0BAFDA38B33B10D
S31508002810E28B13449BB2B3F57A7F0FD2E38300F0C1
S31508002820B7FD814629462046FFF7B8FEA369226907
S3150800283048461344A36100F0B1FDBFE7A3F57A73D8
S31508002840E383A369013D013BA361E8E7022000F0A9
S315080028507FF890E7BDE8F087F4120020A411002065
S31508002860F8120020373D000810B586B00024012371
S315080028701548ADF80830CDE903448DF804408DF8C5
S315080028800A40059400F0F6FD01A8FFF717FC20465C
S3150800289002A98DF80840FFF721FC20460F21FFF713
S315080028A04FFC0F212046FFF759FCFFF7EDFBFFF71A
S315080028B0C9FB064B46209C61FFF704FE4620FFF73E
S315080028C0E7FD06B010BD00BF243C000800800A5092
S315080028D008B5FFF7B7FB014B986908BD00800A5099
S315080028E0F8B5044600F04DFD0746FFF7ABFB164B5F
S315080028F09D6900F073FE06460020FFF73DFC83073E
S3150800290004D4731B032B01D8AE420FD10021631BDD
S31508002910022B98BFEC1C0846B4F1FF3F2CBF224699
S31508002920621EFFF751FC022000F05CFE384600F0FC
S315080029302CFD064A137833B103498B6C43F0010327
S315080029408B6400231370F8BD00800A508913002099
S31508002950830700F0010109D50122064B41F0020167
S315080029601A70054A936C23F0010393640020FFF75D
S31508002970E7BB00BF8913002000800A50830742BFC7
S315080029800222014B1A64704700900A5007B5044B9F
S3150800299001A9187900F069FD019803B05DF804FBF8
S315080029A0343C000810B50446FDF76CFD4FF47A7206
S315080029B09042B0FBF2F105D23621BDE810400C4832
S315080029C000F0DEBC0B4BB3FBF1F30B49884201D98F
S315080029D03C21F2E702FB04F0B0FBF3F0022806D92B
S315080029E0BDE810400323B0FBF3F0FDF7C1BB10BDF3
S315080029F0A23D000840420F00E7CD9A3B53B94AB9B9
S31508002A00002908BF00281CBF4FF0FF314FF0FF30E8
S31508002A1000F082B9ADF1080C6DE904CE00F006F8B5
S31508002A20DDF804E0DDE9022304B070472DE9F04F34
S31508002A30099D0C46002B4DD18A420F468446964680
S31508002A40B2FA82F360D94BB102FA03FEC3F120024F
S31508002A509F4000FA03FC20FA02F217434FEA1E468B
S31508002A601FFA8EF44FEA1C42B7FBF6F106FB117704
S31508002A7001FB04F042EA0742904208D91EEB020223
S31508002A8001F1FF3702D2904200F231813946121A1B
S31508002A901FFA8CFCB2FBF6F006FB102200FB04F4CE
S31508002AA04CEA024C644508D91EEB0C0C00F1FF32C7
S31508002AB002D2644500F21E81104640EA0140ACEBA2
S31508002AC0040C002125B12CFA03F30022C5E90032D3
S31508002AD0BDE8F08F8B4205D90DB1C5E9000100218B
S31508002AE00846F5E7B3FA83F100294DD1A342C0F0B1
S31508002AF0F380904280F0F080064623460846002D73
S31508002B00E6D0C5E90063E3E7002B40F0A3808A1A04
S31508002B104FEA1E471FFA8EF60121B2FBF7F407FBB0
S31508002B2014204FEA1C4242EA004206FB04F0904297
S31508002B300FD91EEB020204F1FF382CBF4FF0010932
S31508002B404FF00009904203D9B9F1000F00F0CC808C
S31508002B504446121A1FFA8CFCB2FBF7F007FB102248
S31508002B6000FB06F64CEA024C664508D91EEB0C0C2F
S31508002B7000F1FF3202D2664500F2B3801046ACEB94
S31508002B80060C40EA04409DE7C1F120068B4004FA92
S31508002B9001FE22FA06F720FA06FCF4408A401F4393
S31508002BA04EEA0C0300FA01FE4FEA17484FEA1349AA
S31508002BB01FFA87FCB4FBF8F008FB104449EA044402
S31508002BC000FB0CF9A1450ED93C1900F1FF3A2CBFC0
S31508002BD04FF0010B4FF0000BA14503D9BBF1000FD5
S31508002BE000F08B805046A4EB09041FFA83F9B4FB66
S31508002BF0F8F308FB134403FB0CFC49EA0444A44518
S31508002C0006D93C1903F1FF3801D2A4457BD84346BF
S31508002C1043EA0040A4EB0C04A0FB02984445CC46CA
S31508002C20434602D306D1CE4504D20138B9EB020C8D
S31508002C3068EB0703002D6CD0BEEB0C0264EB0304B3
S31508002C4022FA01F304FA06F6CC4000211E43C5E930
S31508002C5000643DE702FA03FEC3F1200104FA03F219
S31508002C6000FA03FCCC404FEA1E4720FA01F11FFA8E
S31508002C708EF6B4FBF7F00A4307FB1044110C41EA41
S31508002C80044100FB06F48C420ED91EEB010100F14B
S31508002C90FF382CBF4FF001094FF000098C4202D9CA
S31508002CA0B9F1000F2CD04046091B92B2B1FBF7F4DC
S31508002CB007FB141142EA014204FB06F1914207D9C7
S31508002CC01EEB020204F1FF3801D291421ED8444697
S31508002CD0521A44EA004120E7861A64EB03030120EE
S31508002CE00DE7F44402384AE7023C724431E70239F8
S31508002CF07244CCE6F4440238DFE602383C4472E714
S31508002D0002387144D0E7023B3C4481E7023C7244F6
S31508002D10DEE72946DCE600BF704700BF08B5064B6C
S31508002D20044613B10021AFF30080044B1B6803B1BE
S31508002D309847204600F03CFC00000000EC120020FA
S31508002D40024B0146186800F025B800BF341300206E
S31508002D5070B50F4E0C460546316811B900F02AFACF
S31508002D6030602146284600F025FA431C03D14FF06F
S31508002D70FF34204670BDC41C24F00304A042F8D0DA
S31508002D80211A284600F016FA0130F2D1EFE700BF03
S31508002D90AC1100202DE9F041CD1C064625F00305AF
S31508002DA008350C2D38BF0C25002D01DBA94204D9A6
S31508002DB00C2333600020BDE8F081314F00F062F843
S31508002DC03B681C4644BB29463046FFF7C1FF431CF7
S31508002DD0044650D13C682146002941D1002C44D0F4
S31508002DE02368304604EB030800F0E4F980453CD13B
S31508002DF0216830466D1A2946FFF7AAFF013034D0FC
S31508002E0023682B4423603B68002B36D05A68A242BD
S31508002E1029D100225A600EE02268521B1DD40B2AC3
S31508002E2016D96119A342256018BF5960636808BF9F
S31508002E30396062514B60304600F02AF804F10B0005
S31508002E40231D20F00700C21AB5D01B1AA350B2E7FB
S31508002E50A3426268DED13A60EDE723466468B1E7CB
S31508002E600C464968B8E71346CEE70C23304633606C
S31508002E7000F00EF89EE70560DDE75B60FFDE00BF49
S31508002E80B0110020014800F052BC00BFFB12002020
S31508002E90014800F04DBC00BFFB120020002310B50E
S31508002EA004468360818119464366C281082283618C
S31508002EB0C0E90033C0E904335C3000F02FFC0D4B49
S31508002EC0246263620C4BA3620C4BE3620C4B2363D4
S31508002ED00C4B9C4206D003F16802944202D0D033D0
S31508002EE09C4205D104F15800BDE8104000F01EBC14
S31508002EF010BD00BF97360008B9360008F13600083D
S31508002F0015370008B4110020024A0349034800F0A7
S31508002F10A4BB00BF28130020393800083813002046
S31508002F2041680C4B994210B5044601D000F084FC68
S31508002F30A168094B994202D0204600F07DFCE16861
S31508002F40064B994204D02046BDE8104000F074BCF8
S31508002F5010BD00BFB41100201C12002084120020EE
S31508002F6010B50B4B04210B4C0B4A20461A60002265
S31508002F70FFF794FF04F1680001220921FFF78EFF8D
S31508002F8004F1D00002221221BDE81040FFF786BFE7
S31508002F90EC120020B4110020092F0008014800F0A7
S31508002FA0C6BB00BFFC120020014800F0C1BB00BF31
S31508002FB0FC12002010B50446FFF7F0FF236A1BB188
S31508002FC0BDE81040FFF7F0BF044B2362044B1B68B3
S31508002FD0002BF5D1FFF7C4FFF2E700BF212F000849
S31508002FE0EC1200202DE9F7431D46574B04460E46C2
S31508002FF01F68904627B13B6A13B93846FFF7DAFFD0
S31508003000B8F1020F06D0B8F1010F00F29980002D31
S31508003010C0F29680636ED90705D4A3899A0502D4AF
S31508003020A06D00F084FB2146384600F005FC616B74
S3150800303041B104F14403994202D0384600F000F940
S31508003040002363630023A3616360A3891B0603D57A
S315080030502169384600F0F4F8A389B8F1020F23F481
S315080030604A6323F00303A38160D001AB6A46214675
S31508003070384600F009FCA3891843A0812DBB009DA2
S315080030802846FFF75DFE0646002851D1DDF8009078
S31508003090A9453FD14FF0FF35B4F90C3043F0020291
S315080030A0A2810022A26004F1470222602261012265
S315080030B06261626ED60704D4980502D4A06D00F04A
S315080030C037FB284603B0BDE8F083002ED8D03B6A0C
S315080030D013B93846FFF76EFFB8F1010F266002BF35
S315080030E0A38943F00103A381B4F90C3013F0080255
S315080030F0C4E904651ED0D90745BF00226D42A56004
S31508003100A26048BFA561626ED20701D49B0513D59C
S315080031100025D6E74846FFF713FE06460028B9D02D
S31508003120A3894D4643F08003A381D0E70025B3E782
S31508003130A946F5E7A260E6E7A06D00F0F9FAE7E729
S315080031404FF0FF35BDE700BF3413002038B5002324
S31508003150054D044608462B6000F028FA431C02D1A8
S315080031602B6803B1236038BDF012002038B5044639
S31508003170064D0846114600222A601A4600F01EFA35
S31508003180431C02D12B6803B1236038BDF01200201E
S3150800319038B50446064D0846114600222A601A46E6
S315080031A000F00EFA431C02D12B6803B1236038BD28
S315080031B0F012002038B50023054D044608462B605A
S315080031C0FFF7DCF9431C02D12B6803B1236038BD35
S315080031D0F012002038B50446064D0846114600226E
S315080031E02A601A46FFF7B0F9431C02D12B6803B1CF
S315080031F0236038BDF012002070B50D4D00260D4C29
S31508003200641BA410A64209D10B4D00260B4C00F0F6
S3150800321067FB641BA410A64205D170BD55F8043B94
S3150800322001369847EEE755F8043B01369847F2E72A
S315080032308C1300208C1300208C1300209013002080
S3150800324038B50546002941D051F8043C0C1F002B1F
S31508003250B8BFE418FFF716FE1D4A136833B9636052
S3150800326014602846BDE83840FFF712BEA34208D9C5
S31508003270206821188B4201BF19685B68091821600C
S31508003280EDE71A465B680BB1A342FAD911685018E4
S31508003290A0420BD120680144501811608342E0D146
S315080032A018685B68084453601060DAE702D90C2393
S315080032B02B60D6E7206821188B4202BF19685B6825
S315080032C00918636008BF21605460CAE738BD00BFAB
S315080032D0B011002038B50023064D044608461146AD
S315080032E02B6000F066F9431C02D12B6803B12360FA
S315080032F038BD00BFF01200207047704708B500F0CF
S3150800330094F9FFF7F9FF00F09DF9FFF7F6FFFAE7E2
S31508003310704708B5FDF72EF9FCF7FEFFBDE8084033
S3150800332000F011B808B500F00CF8FFF7BBF9BDE8D6
S315080033300840FFF719B970477047704770477047DC
S3150800334070470F20704708B5082000F02AF8BDE836
S315080033500840082000F030B8FEE710B53AB100235F
S3150800336050F8234041F8234001339A42F8D110BD62
S31508003370002070474FF4004070474FF47A7070474A
S31508003380FEE7EFF3108072B6704700B962B6704771
S31508003390EFF31180302383F31188704780F3118887
S315080033A070474FF060420123D2F8001E83400B435A
S315080033B00020C2F8003E70474FF060410122D1F864
S315080033C0003E824023EA02030020C1F8003E70470F
S315080033D070B5054614460E46FFF7D3FF2B685C40CA
S315080033E034405C402C60BDE87040FFF7CEBF08B59E
S315080033F0FDF75AF8BDE808400021FDF729BD002968
S31508003400CCBF01210021FDF723BD02214FF4207016
S31508003410FEF798B938B50446FDF734F80546FDF7C2
S31508003420EDF9C0F102012846FFF7E9FF0121002066
S31508003430FEF7D4FB0CB1FEF717FABDE83840FDF7E6
S3150800344095BE7047704770B5054614460E46FFF799
S3150800345098FF2B685C4034405C402C60BDE87040A7
S31508003460FFF793BF704700F008B809B100F007B836
S31508003470222070470121FEF7BBBE0020704770B5B9
S3150800348006460D46FFF784FF04461E2E55D8DFE88C
S3150800349006F01019541E212454272A542D5430336B
S315080034A05436393C543F54425454455448544B4E70
S315080034B05100FCF7CDFF002628602046FFF76EFF77
S315080034C0304670BD4FF4C070FDF716FDF3E74FF4B4
S315080034D02070F9E74FF44070F6E74FF46070F3E7B1
S315080034E04FF40070F0E74FF48060EDE74FF440606A
S315080034F0EAE74FF4C060E7E74FF4F060E4E74FF41B
S31508003500B060E1E74FF4D060DEE74FF41060DBE728
S315080035104FF4E060D8E74FF4A060D5E74FF41860A1
S31508003520D2E74FF42860CFE74FF48070CCE74FF42A
S315080035303060C9E74FF42060C6E700202126BBE7C4
S31508003540FEF780BE10B56FF004042046052101344D
S31508003550FEF7C6FF4C2CF8D110BD70B50C461546C3
S3150800356010B9FEF7E5FF38B143682BB12A46214664
S31508003570BDE8704000681847232070BDF7B50D46B2
S3150800358016461C4648B103B901AC87685FB12346A5
S31508003590324629460068B84706E0FEF7C9FF04B96F
S315080035A001AC0028F1D1232003B0F0BD00207047FC
S315080035B0FEE74FF4005300204B6070470020704729
S315080035C007B5002001AB0190FFF7D8FF0198002846
S315080035D008BF4FF0FF3003B05DF804FB0021084632
S315080035E0FEF7DABD00F00101830748BF41F002018A
S315080035F00020FEF797BD38B5FFF7CAFE044600203F
S31508003600FEF7BAFD830700F0010548BF45F002053D
S3150800361000F003010020FEF7A1FD2846FFF77CF81D
S315080036202046BDE83840FFF7B9BE08B5FCF72AFEC4
S31508003630FFF76FFEFFF776FEFFF77DFEBDE8084051
S31508003640FFF77ABE08B5FFF778FEFFF777FEFFF7B4
S3150800365076FEBDE80840FFF773BE2DE9F843074636
S31508003660884614460026D4E90195B9F1010905D51D
S315080036702468002CF7D13046BDE8F883AB89012BC6
S3150800368007D9B5F90E30013303D029463846C04765
S3150800369006436835E9E710B50C46B1F90E10FFF791
S315080036A077FD0028ABBF636DA3891B1823F48053ED
S315080036B0ACBF6365A38110BD2DE9F0411F468B8918
S315080036C005460C46DB05164605D502230022B1F948
S315080036D00E10FFF74BFDA3893246B4F90E102846A3
S315080036E023F48053A3813B46BDE8F041FFF772BD42
S315080036F010B50C46B1F90E10FFF738FD431CA38927
S3150800370015BF606523F4805343F48053A38118BF23
S31508003710A38110BDB1F90E10FFF718BD0244034688
S31508003720934200D1704703F8011BF9E770477047C9
S315080037307047B1F90C202DE9F041170705460C46EC
S3150800374056D44B68002B02DC0B6C002B3DDDE66A79
S31508003750002E3AD0002312F480522F68216A2B607B
S3150800376025D0626DA389580705D56368D21A636B9D
S315080037700BB1236CD21A216A0023E66A2846B047A1
S31508003780411C24D00023636023692360A389DA04DB
S3150800379000D56065616B2F60B9B104F144039942A5
S315080037A002D02846FFF74CFD002363630DE0012392
S315080037B02846B047461C0246D4D12B68002BD1D0E8
S315080037C01D2B01D0162B2AD12F6000202EE02A6847
S315080037D0B4F90C3042B11D2A01D0162A21D1002392
S315080037E0636023692360D5E7626022692260CEE7B9
S315080037F00F69002FE9D093070E680F600CBF4B695D
S315080038000023A6EB07088B60B8F1000FDDDD434601
S315080038103A46216A2846A66AB047002808DCB4F961
S315080038200C3043F040034FF0FF30A381BDE8F08130
S315080038300744A8EB0008E7E738B50B6905460C46C8
S3150800384013B90025284638BD18B1036A0BB9FFF726
S31508003850B1FBB4F90C30002BF3D0626ED00704D458
S31508003860990502D4A06DFFF762FF28462146FFF7A7
S3150800387060FF636E0546DA07E4D4A3899B05E1D4A5
S31508003880A06DFFF755FFDDE770B50C46B1F90E10D0
S3150800389096B0154600291E460CDAA389002113F0B6
S315080038A0800F14BF40234FF48063002031602B60E3
S315080038B016B070BD6A46FFF70DFD0028EDDB0199CD
S315080038C001F47041A1F50053594259414FF4806300
S315080038D0EBE7000000000000000000000000000008
S315080038E0F8B500BFF8BC08BC9E467047F8B500BFDF
S315080038F0F8BC08BC9E467047433A2F5573657273E9
S315080039002F4469617A4D65636F746572722F5369C6
S315080039106D706C696369747953747564696F2F5334
S31508003920444B732F73696D706C69636974795F733F
S31508003930646B2F706C6174666F726D2F6472697632
S3150800394065722F69326373706D2F7372632F736C90
S315080039505F69326373706D2E6300633A5C757365D5
S3150800396072735C6469617A6D65636F746572725CA3
S3150800397073696D706C696369747973747564696F5A
S315080039805C73646B735C73696D706C696369747975
S315080039905F73646B5C706C6174666F726D5C656D89
S315080039A06C69625C696E635C656D5F6770696F2ED2
S315080039B06800FF070F00FF033F00433A2F55736562
S315080039C072732F4469617A4D65636F746572722FDD
S315080039D053696D706C696369747953747564696F3A
S315080039E02F53444B732F73696D706C6963697479CF
S315080039F05F73646B2F706C6174666F726D2F656D83
S31508003A006C69622F7372632F656D5F636D752E63C4
S31508003A1000433A2F55736572732F4469617A4D6571
S31508003A20636F746572722F53696D706C696369741C
S31508003A307953747564696F2F53444B732F73696D8B
S31508003A40706C69636974795F73646B2F706C6174E9
S31508003A50666F726D2F656D6C69622F7372632F6561
S31508003A606D5F656D752E6300433A2F5573657273E6
S31508003A702F4469617A4D65636F746572722F536955
S31508003A806D706C696369747953747564696F2F53C3
S31508003A90444B732F73696D706C69636974795F73CE
S31508003AA0646B2F706C6174666F726D2F656D6C69CF
S31508003AB0622F7372632F656D5F6770696F2E63007F
S31508003AC0FF070F00FF033F00433A2F5573657273D4
S31508003AD02F4469617A4D65636F746572722F5369F5
S31508003AE06D706C696369747953747564696F2F5363
S31508003AF0444B732F73696D706C69636974795F736E
S31508003B00646B2F706C6174666F726D2F656D6C696E
S31508003B10622F7372632F656D5F6932632E630008C7
S31508003B20091108433A2F55736572732F4469617AF0
S31508003B304D65636F746572722F53696D706C696336
S31508003B4069747953747564696F2F53444B732F7373
S31508003B50696D706C69636974795F73646B2F706CD7
S31508003B606174666F726D2F706572697068657261CF
S31508003B706C2F7372632F736C5F68616C5F737973F4
S31508003B807274632E6300633A5C75736572735C6462
S31508003B9069617A6D65636F746572725C73696D705D
S31508003BA06C696369747973747564696F5C73646B43
S31508003BB0735C73696D706C69636974795F73646B40
S31508003BC05C706C6174666F726D5C656D6C69625C65
S31508003BD0696E635C656D5F6275732E680000000030
S31508003BE0012600000400000000000000000100009B
S31508003BF0000000000B0000000C000000030000009D
S31508003C000000202000000000020000003C3C3C00B0
S31508003C100000000000000000000000000103100181
S31508003C20010903001E0000000F0000000E0000003E
S31508003C301A00000000800A5013000000243C000807
S31508003C40433A2F55736572732F4469617A4D6563DC
S31508003C506F746572722F53696D706C6963697479D4
S31508003C6053747564696F2F53444B732F73696D7062
S31508003C706C69636974795F73646B2F706C617466C1
S31508003C806F726D2F736572766963652F696E7465D9
S31508003C9072727570745F6D616E616765722F73728B
S31508003CA0632F736C5F696E746572727570745F6D7D
S31508003CB0616E616765725F636F727465786D2E6396
S31508003CC000433A2F55736572732F4469617A4D65BF
S31508003CD0636F746572722F53696D706C696369746A
S31508003CE07953747564696F2F53444B732F73696DD9
S31508003CF0706C69636974795F73646B2F706C617437
S31508003D00666F726D2F736572766963652F696F7357
S31508003D10747265616D2F7372632F736C5F696F734D
S31508003D20747265616D5F72657461726765745F73DD
S31508003D307464696F2E6300433A2F55736572732F47
S31508003D404469617A4D65636F746572722F53696D44
S31508003D50706C696369747953747564696F2F534419
S31508003D604B732F73696D706C69636974795F7364DB
S31508003D706B2F706C6174666F726D2F7365727669DE
S31508003D8063652F736C65657074696D65722F7372E0
S31508003D90632F736C5F736C65657074696D65722EDD
S31508003DA06300433A2F55736572732F4469617A4DE0
S31508003DB065636F746572722F53696D706C69636998
S31508003DC0747953747564696F2F53444B732F7369F1
S31508003DD06D706C69636974795F73646B2F706C615D
S31508003DE074666F726D2F736572766963652F756475
S31508003DF0656C61792F7372632F736C5F7564656C7C
S30D08003E0061792E630000000041
S30D08003E0800C4FF7F0100000061
S31108003E101C3E00080013002025000000DE
S31508003E1C0000005B0000080700000000A0860100F7
S31508003E2C00000000C0EA2101C0EA21010080000060
S31508003E3CC01753029813002000000000030000006E
S31508003E4CB41100203813002000000000B411002023
S31508003E5C1C12002084120020000000000000000044
S31508003E6C0000000000000000000000000000000038
S31508003E7C0000000000000000000000000000000028
S31508003E8C0000000000000000000000000000000018
S31508003E9C00000000FFFFFFFF28010000E5010008F5
S30908003EACBD0100083E
S705080003717E
