S00D000054727573744D2E73333778
S3150800000000100020ED1C0008A57E0008A57E00084B
S31508000010A57E0008A57E0008A57E0008A57E000826
S31508000020A57E0008A57E0008A57E0008A57E000816
S31508000030A57E0008A57E0008A57E0008A57E000806
S31508000040A57E0008A57E0008A57E0008A57E0008F6
S31508000050A57E0008A57E0008A57E0008A57E0008E6
S31508000060A57E0008D51B00088D7D0008A57E000822
S31508000070A57E0008A57E0008A57E0008A57E0008C6
S31508000080A57E0008A57E0008A57E0008A57E0008B6
S31508000090A57E0008A57E0008B1250008A57E0008F3
S315080000A0A57E0008A57E0008A57E0008A57E000896
S315080000B0A57E0008A57E0008A57E0008A57E000886
S315080000C0A57E0008A57E0008A57E0008A57E000876
S315080000D0A57E0008A57E0008A57E0008A57E000866
S315080000E0A57E0008A57E0008A57E0008A57E000856
S315080000F0A57E0008E1800008A57E0008A57E000808
S31508000100A57E0008A57E0008A57E0008A57E000835
S31508000110A57E0008A57E0008A57E0008A57E000825
S31508000120A57E0008A57E0008A57E0008A57E000815
S31508000130A57E0008A57E0008A57E0008A57E000805
S31508000140A57E0008A57E0008A57E0008A57E0008F5
S31508000150A57E0008A57E00086B840008A57E000819
S31508000160A57E0008A57E0008A57E0008A57E0008D5
S31508000170013800D0FCE770470348044B834202D09D
S31508000180034B03B1184770473C2000203C20002051
S3150800019000000000064B0749C91A891048BF0131FB
S315080001A0491003D0044B0BB101481847704700BFEC
S315080001B03C2000203C2000200000000010B5064C22
S315080001C0237843B9FFF7D8FF044B13B10448AFF3BC
S315080001D000800123237010BDC41A0020000000000F
S315080001E09C9A000808B5054B1BB105490548AFF3AD
S315080001F00080BDE80840FFF7CDBF00BF0000000043
S31508000200001000209C9A0008A3F5803A704700BFAA
S31508000210174B002B08BF134B9D46FFF7F5FF002130
S315080002208B460F461348144A121A08F0DAF90E4B91
S31508000230002B00D098470D4B002B00D09847002084
S31508000240002104000D000D48002802D00C48AFF329
S31508000250008006F0D5FE2000290007F06AFD06F0AA
S31508000260E3FC00BF000008000000000000000000DA
S315080002700010002000100020501B00200000000085
S315080002800000000010B50C46044806F031FE044B89
S3150800029004481C80BDE8104006F02ABE988B00086A
S315080002A0C01A0020C18B000838B51D4C1D4A1E49CE
S315080002B01E4801F0C1F9226882B910461C4901F0AE
S315080002C045FA206050B91B4806F012FE0124224662
S315080002D019491548BDE8384001F0D4B9174806F061
S315080002E007FE0123164D206800212B8007F0EEFC3F
S315080002F0044618B1134806F0FBFDE8E72B889BB2C5
S31508000300012BFBD02B889BB233B10F4806F0F0FDCA
S315080003102C88A4B2002CDAD100220249D9E700BF02
S3150800032018100020E88B0008ED8B00088E8C00085A
S3150800033085020008028C0008888C0008248C0008B6
S31508000340C01A00203C8C00085E8C000838B590F86E
S31508000350CA33044613F0FD0F2DD190F8C923B22AEB
S315080003601AD0B32A2AD0B12A35D11BB9D0F87401CC
S3150800037007F0C6FCD4F8780107F0C2FCB22384F86B
S31508000380C9334FF4FA6322461449D4F8900101F0B0
S31508000390F9FA0025284638BD1BB9D0F8740107F0CC
S315080003A0AEFCD4F8780107F0AAFCB32384F8C93365
S315080003B042F6E063E7E7012380F87331084900F065
S315080003C0D7FC05460028E4D0002329461A462046CD
S315080003D007F03CFADEE74FF48175F5E74D030008B0
S315080003E04D7800082DE9F04F85B0B1F5837F1E469C
S315080003F004468946924690F8403016D000252F4686
S31508000400A846AB4601950295013B0A2B00F24781A7
S31508000410DFE813F0120017002C00D100EB00E5000E
S3150800042045012001C80054008C00012B40F01281C0
S3150800043001210023656B30E1B9F1000FF8D10221E3
S31508000440F7E7B9F5817F14D001F0C8FA03232063D2
S3150800045084F84030204607F047FB002800F0E58086
S31508000460062384F8403094F84030CDE7B9F5817F0B
S3150800047001D10523F5E7042EF2D99AF80030504643
S3150800048003F0030202920AEB060212F8021C12F8A3
S31508000490012C0393C3F34118C3F3810B42EA0123EA
S315080004A0B11E89B2019307F040FABAF80170039BAE
S315080004B07FBADB090546BFB20A33D2E7019BAB42D6
S315080004C0CED1002FCCD07B1D9E42C9D1A8F1020304
S315080004D0012BC5D994F84230013303F003039B4539
S315080004E00BD0092384F8403000231A4619462046C3
S315080004F005B0BDE8F04F07F033BA94F84130029AD8
S31508000500934201D00923ACE7B8F1010FB1D03246C6
S315080005105146E06A84F842B008F07DF800230422C8
S31508000520E68784F8443084F84020DEE7A8F1020123
S315080005304B4294F843204B419A4202D04FF00903AC
S315080005408FE7019BAB4294D1052EDBD8002FD9D17A
S31508000550B8F1020F0AD1012384F8463040F2093374
S31508000560A4F84030032384F842307CE7BBF1000F3F
S31508000570C8D1B8F1030FC5D094F84130029A934216
S31508000580C0D1B8F1010F3FF474AF01235A4684F87D
S31508000590403002215B46656B2046AC4605B0BDE897
S315080005A0F04F60470323204684F8403005B0BDE885
S315080005B0F04F07F099BAB9F5817F3FF45AAF012396
S315080005C084F84030E38FE26A94F84310053B656B84
S315080005D003329BB209B10421DEE70621DCE70223D8
S315080005E0012284F84030002380E701F0F7F92369F7
S315080005F0C01A2D4B984225D894F84420032A17D1BF
S315080006000121002384F8461040F2053184F842207F
S31508000610A4F840100222194684F84430204607F010
S315080006209FF990B1062384F8403005B0BDE8F08FF5
S315080006300223013284F8442084F840300022012342
S31508000640A18FEBE74FF008030BE794F84030082B2F
S31508000650EBD108E794F846300121BBB984F8451078
S3150800066040F20533A4F84030032384F842300023CF
S3150800067084F8461002221946204607F071F9082325
S3150800068084F84030002384F84530CEE794F84530A6
S31508000690002BE5D1656B84F840101A467CE70121EA
S315080006A084F84010C5E600BF1FBF020038B5002316
S315080006B00D4680F840300D49044600F005FA90B919
S315080006C040F20133A4F84030032384F8423004F59D
S315080006D0CD73A36204F52C73656384F8460084F829
S315080006E04500E36238BD4FF48170FBE7E503000877
S315080006F010B590F840300446012B11D1032280F83A
S315080007004020002280F8433080F8442001F066F942
S31508000710054B2063A3632046BDE8104007F0E4B903
S315080007204FF4817010BD00BF20BF0200084B80F84F
S315080007305810036540F20113A0F85420A0F86E3152
S3150800074000F158010122D0F87C0101F031B800BF50
S31508000750C800010038B500230446D0F87C01856836
S31508000760836001F067F8D4F87C319D6070B1B4F805
S3150800077050305A1EA4F850204BB1D4F890014FF4CB
S315080007807A732246034901F0FDF8012038BD4FF47B
S315080007908170FBE79907000837B54FF48171044665
S315080007A0B0F896315BBAADF8043094F87231662B1E
S315080007B070D010D8332B3FD007D8112B00F0848087
S315080007C0222B00F0888003B030BD442B3DD0552B3A
S315080007D0F9D1662331E0AA2B00F0838011D8772B54
S315080007E063D0882BEFD1AA2384F87231B4F8583035
S315080007F0B4F896015BBA9AB29042D6D3A4F8963169
S3150800080009E0BB2BDFD164212046FFF7A3FF20B9FF
S31508000810332384F872310021C7E7B0F5817FD2D13E
S31508000820AA23224684F87231344942F6E063D4F8A2
S31508000830900101F0A7F8C6E744230422842184F82E
S3150800084072312046FFF772FFBDE78022B4F85A30AE
S315080008508DF80020B4F894215BBAB2F5C87F9BB234
S315080008600FD9B3F5C87F11D804238DF80130552365
S31508000870022284F8723189216B46204607F0D6F8A1
S31508000880A1E7B3F5C87F01D90323EEE7662384F809
S3150800089072318AE7B4F85A30B4F894215BBA9BB23D
S315080008A09A428CBFAA237723F1E72046B4F894111D
S315080008B0FFF750FF08B91123ABE7B0F5817F82D166
S315080008C0AA2384F872317EE72223022284F8723141
S315080008D0812101ABD1E788230222812184F8723174
S315080008E0AFE7B1FA81F35B095B0084F87131002345
S315080008F020461A46E56CA84765E700BF9907000831
S3150800090013B50023ADF8043090F87331993B0A2BE0
S315080009100ED8DFE803F0060D0D0D0D0D0D0D340F85
S315080009202800A2230422822180F87331FFF7FEFEF5
S3150800093002B010BD90F8583003F0080380F858301C
S3150800094043B1A323022280F87331882101AB07F053
S315080009506DF8EDE702224FF4817180F87121C46CBD
S315080009601A46A047E4E7A123024680F873310749EF
S3150800097042F6E063D0F8900101F004F8D8E70123C5
S3150800098080F87131FFF708FFD2E700BF01090008B8
S3150800099070B590F871310446013B042B66D8DFE840
S315080009A003F0070B19570300BDE87040FFF7A8BF0F
S315080009B0BDE87040FFF7F0BE032380F8713190F868
S315080009C07031022B06D1042282212046BDE87040F0
S315080009D0FFF7ACBE94F87031022B11D194F8583059
S315080009E05B061BD5B4F85A20C2B1B4F8963152BA90
S315080009F092B2934212D30423802184F87131E4E73A
S31508000A00012B0BD1042384F871312046A36CB4F86A
S31508000A1056208021BDE8704007F008B800F0DEFFD8
S31508000A20236BC01AA36B984209D22246D4F89001C8
S31508000A3041F28833BDE870400D4900F0A3BF022398
S31508000A4084F8713100234FF481711A46E56C08E089
S31508000A500223002180F87131C56CB0F8543000F1DA
S31508000A6058022046AC46BDE8704060470123E7E7D8
S31508000A70257A000810B40246E1B1013901291CD8CB
S31508000A80B0F85030591EA0F8501043B14FF47A739D
S31508000A900B49D2F890015DF8044B00F073BF0221B0
S31508000AA0C46C80F87111A4461A464FF483715DF838
S31508000AB0044B604732230349EBE75DF8044B704764
S31508000AC0657A0008937A000810B5002380F871311A
S31508000AD0BB230446C16480F8723194F8C633D0F853
S31508000AE07C010373104B8360C823A4F8503094F834
S31508000AF0CB33012B0BD094F87331012B0ED0012385
S31508000B00204684F87131FFF743FF002010BD00F03E
S31508000B103FFE0028EFD04FF48170F7E7992384F859
S31508000B2073310523ECE700BF750A00082DE9F74F76
S31508000B30002601F001090446884617461D46B346B5
S31508000B40CA461FB197F800B00BF007065346BAF12C
S31508000B50000F1AD1002D7DD1002284F82520A27F0E
S31508000B60013A072A00F2FA80DFE812F015001F00A2
S31508000B70F8004900A700F600E300CC000623A37797
S31508000B804FF48173A383012364E00622A2774FF40E
S31508000B908172A283DEE700231A461946E5682046D5
S31508000BA0AC4603B0BDE8F04F604718F0020F09D015
S31508000BB0228BE38A9A420DD2072E02D10823A37705
S31508000BC0BFE70DB10623FAE7204603B0BDE8F04FAC
S31508000BD006F09ABF0423A3770023A38284F8213062
S31508000BE0012318F0040F84F82230AAD12046FFF713
S31508000BF07FFD08B10623A37703B0BDE8F08F18F090
S31508000C00040FDFD0002DDDD0A38BB3F5827F08D18A
S31508000C10042ED7D02046FFF76BFD0028D2D1042337
S31508000C20E9E79723F340DB0794F82120C6D54F4B15
S31508000C3013F81610914204D003EB46035B789342EF
S31508000C40BCD184F821609FB9B9F1000F96D106236B
S31508000C50A377002394F82520002A7FF47DAFBBF103
S31508000C60070F81BF0622A2774FF48172A28373E72A
S31508000C7016F0030602D00523A37763E7A08AA268C5
S31508000C8043191288013B934204DD4FF48273A38310
S31508000C900623F1E76368013D2A46791C184407F0E4
S31508000CA0BAFC0122A38AA2771D44A268ABB2A3822A
S31508000CB031461380E568626871E7628B531C9D4272
S31508000CC001D007237BE7A08AA16843190988013B5D
S31508000CD08B4204DD4FF48273A38304236FE7002F4E
S31508000CE0B2D06368791C1844019207F094FCA38A71
S31508000CF0019A0BF0070B1A440423A28284F821B048
S31508000D00A37773E7012D03D994F82230012BD8D0A5
S31508000D10E37F5A1CE277002B7FF454AF2383A38228
S31508000D2002232046A37706F0EFFE00287FF44AAF99
S31508000D3062E70223A37794F820305A1C84F820200F
S31508000D40002B7FF43FAF07220121204684F89D211E
S31508000D50A38206F04CFEE8E72B4301D00123A377D4
S31508000D600023E5681A46A18B19E700BFA28C000884
S31508000D7038B500230D46837708490446FFF796FCE5
S31508000D8048B9012384F82530A377B4F89631E5608D
S31508000D90063B638338BD4FF48170FBE72D0B0008D3
S31508000DA00C210268C37E01FB03230021C3F8241625
S31508000DB04FF0FF31C3F828164FF48071A3F82C16AC
S31508000DC0D2F86C06014906F0A3BF00BFD10D000892
S31508000DD02DE9F14F022209210446D0F86C8606F067
S31508000DE0EEFE20B90822204606F0E9FE60B104228C
S31508000DF00921204606F0E3FE01280FD12322082107
S31508000E00204606F0DCFE48B14FF47A732246404687
S31508000E10464901B0BDE8F04F00F0B4BD404606F0C3
S31508000E2072FF4FF0FF374FF0000B2546D946FF26D5
S31508000E3008220921204606F0C2FE01285FFA8BFA2D
S31508000E4009D10C2303FB0B42B2F82C1640F62302F9
S31508000E50914223D11FE095F82D26022A1ED1D5F8F6
S31508000E602826D4F870168A422CD3BA4216D895F892
S31508000E702C26222A08D095F82C26222A1ED1D5F807
S31508000E802426928A3AB909E004F1080006F0EFFE32
S31508000E90B0F1103FEFD25646D5F828760BF1010B84
S31508000EA0BBF1060F05F10C05C2D1FF2E11D1B9F120
S31508000EB0000FA9D00023C4F87036B4E702F0FD028B
S31508000EC0212AC6E74FF00109E8E70133042B0DD1C3
S31508000ED017E00C2303FB064393F82C26222A10D18D
S31508000EE0D3F824168B8A63B90A680832104605783F
S31508000EF00132102DE9D0DBB243F461438B82102313
S31508000F0003700C2505FB0645D5F824263223106800
S31508000F100749D0F86C0600F035FD042385F82D3610
S31508000F20C4F8707601B0BDE8F08F00BFD10D000897
S31508000F304B7C000813B5837D0446022B04D0032B93
S31508000F4054D040F202204DE0437E0168CBB1C08BFD
S31508000F5050B108230DF1060201F27461ADF80630AE
S31508000F6000F0DCFC0028ECD1206800F2746006F082
S31508000F707EFE30B9206800F5CF6006F078FE0028BE
S31508000F80DFD0627E2368002A9A730CBF10211821CD
S31508000F90F02000221974DA73587320681022184951
S31508000FA0113007F038FB637E43B12068082200F24F
S31508000FB07461213007F02FFB637EABB914232068D8
S31508000FC008228380002100F2746007F00AFBE08B98
S31508000FD038B12168082201F2746100F07FFC00280C
S31508000FE0AFD1002002B010BD1C23E8E703685B7B85
S31508000FF0002BF6D0837E03F07F038376A1E700BF3C
S315080010006991000838B504460D46064805F070FF94
S315080010102946204606F0E6FD0021034805F068FF4C
S31508001020002038BDB28C0008EA8C00082DE9F74F7D
S31508001030044611B10423818383750123A84FDFF881
S31508001040F882DFF8F892A27D042A00F21582DFE81A
S3150800105012F0050059008E00F3000C02A14805F0B5
S3150800106047FFE37D012B1FD0022B3CD0002B40F01D
S3150800107007829D4805F03CFF21212046FFF7C2FF65
S315080010800146A083994805F033FFA38B002B40F057
S31508001090F78101239648E37505F02AFF954803B0C2
S315080010A0BDE8F04F05F024BF934805F021FF9348AB
S315080010B005F01EFF23682146186806F0D1FD904802
S315080010C005F016FF2368186800F064FA0146A08345
S315080010D08C4805F00DFFA38B002B40F0D18102232D
S315080010E08948E375D8E7894805F002FF2068322366
S315080010F022468749D0F86C0600F044FC40F60213F5
S31508001100E382CBE7834805F0F3FEE37D032B08D0A3
S31508001110042B22D00423A37540F20223A3830023C1
S3150800112091E77D4805F0E4FE0423E375236821462C
S315080011301868D3F86C36036006F092FD23681868C1
S3150800114000F060FA0546A0830028E3D12046FFF7A1
S3150800115027FEA58303B0BDE8F08F704805F0C8FEEA
S3150800116000212369E06803B0BDE8F04F18474FF047
S315080011700C0B4FF4807A6A4805F0BAFE694E65682A
S31508001180E37D053B042BC5D8DFE803F003031A29E2
S315080011902E00654805F0ACFEE37D052B08D122211B
S315080011A0204606F01FFD0023A3830923E375D1E734
S315080011B021212046FFF726FFA0830028AAD1F4E7BD
S315080011C0304605F095FEE27E23680BFB0233A3F852
S315080011D02CA60823E375A37D022BD1D09FE753489D
S315080011E005F086FE2321E4E7514805F081FE2046F6
S315080011F0A847A08310B10423A37590E740F21562AF
S3150800120023682146DA80186806F02AFD2068811DC1
S31508001210828800F10D0300910068194600F0D6F99E
S31508001220A08300287FF476AF40F60323E382A37EEB
S3150800123063F07F03A3768DE7384605F059FE3D4DEA
S31508001240E37D0A3B042B3FF665AFDFE813F00500A4
S3150800125079000001F5000801284605F049FE94F9D1
S315080012601A206368002AC6DA20469847A08328BB56
S3150800127094F82030F12B0CD120684FF47A7322466B
S315080012802349D0F86C0600F07DFB40F20133E38277
S3150800129060E7237E33B9E37D0D3B012B1CD90C2374
S315080012A0E37519E020684FF47A7322461849D0F896
S315080012B06C0600F067FB40F60213E8E7B0F5017F1D
S315080012C0EDD0E37D0D2B07D00B23E375A37E23F02A
S315080012D0030343F00103A376A37D032BB0D01EE7D7
S315080012E04E9000081A8D0008418D0008718D00087F
S315080012F09F8D0008D18E0008D98D0008028E00083F
S315080013002D8E0008488E0008708E0008A98E0008E9
S315080013104B7C0008E58E00080D8F0008378F000803
S31508001320608F0008D38F00088C8F0008FD8F000897
S31508001330299000087B900008FC900008D4900008CB
S31508001340544805F0D5FDA67E256806F00306022E4C
S3150800135039D0032E51D0012E03D04FF40043A38376
S31508001360F8E64FF2C21105F1110006F07CFC206880
S315080013700021133006F077FC20683146153006F058
S3150800138072FC0022236844499A73DA7306225E7354
S315080013901A740A23206822468380A37E23F0030357
S315080013A043F00203A376D0F86C064FF47A7300F084
S315080013B0E9FA4FF40043A383A37E03F00303032B48
S315080013C07FF4C8AE17E740F215632E46214656F855
S315080013D00D0BEB8006F044FCAB1DAA880093314642
S315080013E03346286800F0F2F818BBA37EA08323F0E2
S315080013F0030343F00303A376ACE66B7BFF2B03D111
S315080014004FF40043A383F6E640F603236E7CE3829B
S3150800141022464FF47A732049D5F86C0600F0B2FAE2
S315080014206FEA46436FEA5343A383002E7FF492AED6
S31508001430C2E740F20223E5E7484605F059FD204693
S3150800144006F0B3FBA38B002B3FF429AF3CE74046DD
S3150800145005F04EFD2046FFF7A3FC0E2320E70F48B4
S3150800146005F046FD2369A18B7CE60D4805F040FD95
S315080014702046FFF795FCF5E7002B3FF450AE69E6EA
S315080014800423A37540F202230648A38305F030FD22
S3150800149045E600BFAB9000084B7C00082191000888
S315080014A03F910008D18E0008F8B504460F46164647
S315080014B006F03CFC2CBB214D22460921284606F0A5
S315080014C07EFBF0B12421012005F0A6FB0446C0B13D
S315080014D03323C3832B7BC0E903670560DBB9294641
S315080014E0174800F067FA2146C5F86C0615482568BE
S315080014F000F03CF8236828601A683AB9204605F0D7
S31508001500A5FB002406F013FC2046F8BD012119733B
S31508001510D3F86C36136000230C25226802F22D607E
S3150800152005FB03F1465C2EB9E37601230A4482F8EB
S315080015302D36E7E70133062BF2D1E3E71C1000202E
S31508001540D10D00082D10000810B58260064A002447
S315080015504260F022C4820476417602842146FFF76F
S3150800156065FD204610BD00BF350F0008F8B5084DCB
S3150800157007462C7C0E4634B906F0BFFB28B9012372
S31508001580C5E902672B740248F8BD2046FCE700BF90
S315080015901C1F002010B5044698B1437C012B10D0BF
S315080015A0012343744068084BC0F88441C0F8803171
S315080015B02368C0F8903106F060F908B10023637417
S315080015C010BD4FF48170FBE7517C000837B504461F
S315080015D098B1407C012810D00120094D60746068DC
S315080015E0C0F88051069DC0F88441009506F062F95E
S315080015F008B10023637403B030BD4FF48170FAE775
S31508001600517C000810B5044680B1437C012B0DD0EF
S31508001610012343744068074BC0F88441C0F8803101
S3150800162006F061F908B10023637410BD4FF48170A8
S31508001630FBE700BF517C000810B5E8B040F60D2462
S315080016400B46ADF80C40A8B1A3B19AB10A49CDE949
S3150800165000010A4904A805F05DFC04A806F0E8FFA5
S3150800166004A90246064800F023F90222044803A901
S3150800167000F01EF968B010BDE88B000879910008E3
S31508001680A01600202DE9F041ADF5087D002440F6AE
S315080016900D2306460F4690462146102207A8CDE997
S315080016A00344ADF80830ADF81440069406F099FFE7
S315080016B0602221460CA806AD0B9406F092FF2EB3C5
S315080016C027B331460BA8B8F1000F23D106F091FFD6
S315080016D018490BA806F08DFF1749284606F089FF1A
S315080016E0164B3A461649CDE9005324A80BAB05F02C
S315080016F011FC24A806F09CFF24A90246114800F014
S31508001700D7F802220F4802A900F0D2F80DF5087D95
S31508001710BDE8F08106F06DFF0B490BA806F069FFDE
S315080017202846054906F065FF404603A906F0A2FAD1
S31508001730D3E700BF829100083B8C0008E88B0008BD
S3150800174079910008A0160020899100082DE9F0413A
S31508001750064617460D46A1B12421012005F05CFA7C
S315080017600446804668B100230246C0E9067503842C
S3150800177006493046FFF798FE606120B9204605F015
S3150800178065FA4FF000084046BDE8F081C37C0008C2
S3150800179030B587B0054D01AC0FCD0FC42B6801A835
S315080017A0236000F03DFC002007B030BDA89100087A
S315080017B07FB5084B4FF0B640CDE9013101A9ADF828
S315080017C00C2000F0D1FC003818BF012007B05DF8E6
S315080017D004FB00BF6000010070B58AB0114B01AC74
S315080017E00E4615460FCB84E80F000F4B1A6812B148
S315080017F001200AB070BD1A6801321A601B68012BF5
S31508001800F6D10A4B4FF0B6401C60094B05A9CDE945
S315080018100536ADF81C5000F0A7FC003818BF0120AB
S31508001820E7E700BFBC9100089C1600209816002028
S31508001830610002002DE9FF411B4C064627688846D1
S315080018401FB1022004B0BDE8F0812368013323608C
S315080018502368012BF5D16D46144B0FCB85E80F0095
S315080018602E2001F05DFAB8F5C87F28BF4FF4C87876
S315080018704FEA8803591E0144B1FBF3F1B1F5807FA5
S3150800188028BF4FF48071B0FBF1F0294602904FF063
S31508001890B64002F017FBB36813B13946706898472B
S315080018A000202060CEE700BF9C160020CC910008DF
S315080018B070B50C46074E8D18AC4204D1064805F0A3
S315080018C017FB002070BD304614F8011B05F010FB0D
S315080018D0F2E700BFDC9100083A8C000810B5222810
S315080018E013460ED033280FD011280FD1402A0DD811
S315080018F00024074804704370023006F08CFE00206E
S3150800190010BD04481C0AF5E70348FBE70120F7E782
S31508001910EC1F0020CF1A0020C51A002038B5034650
S31508001920222B0846154612D0332B17D0112B17D168
S315080019300D490C8864BAA4B2402C01D9012038BDDF
S315080019402246023106F067FE00202C80F7E7074999
S3150800195031F8024B64BAA4B22246F3E70449F7E722
S3150800196000231380EAE700BFEC1F0020CF1A0020EF
S31508001970C51A0020024A53690BB110681847704708
S31508001980A816002000B58BB0416103F2E7310023A9
S315080019900260CDE9003303464FF47A70044AB1FB7E
S315080019A0F0F102A806F00FFD0BB05DF804FB00BFCE
S315080019B00D7D000808B50A46014618B112B102485D
S315080019C006F0A6F9004808BDA8160020024B1868BC
S315080019D0421C1A60704700BFC0160020014B1868E9
S315080019E0704700BFC4160020014805F081BA00BF41
S315080019F0DF91000810B54FF480301E491E4A4B6E21
S31508001A005066486E4FF000414AF6CD3451661B4980
S31508001A1003F480334A6C0C6402F001024C6BE40751
S31508001A20FCD4012416494C60A1F500510C6BE4075F
S31508001A30FCD50AB1134A0A640028A2BF4FF0004138
S31508001A40114A51661BB94FF480320F4B5A6606F09D
S31508001A5049FB00F037F906F03FFB03F003F906F0FF
S31508001A60CEFA06F03BFB00F023F9BDE8104003F080
S31508001A7031BF00BF00800050009000500040095060
S31508001A80006009503254FFFF00A0005008B5044812
S31508001A9006F0BCFABDE80840024800F0C1BA00BF2B
S31508001AA0CC960008581F002030B595B0204D0DACD7
S31508001AB00FCD0FC495E80700292384E807000925F8
S31508001AC000210A241B4A0DF12600CDE902230E2225
S31508001AD0CDE9041106918DF813408DF8115006F0E2
S31508001AE080FD4FF48021144B1448CDE90713144B9D
S31508001AF00DAA0A9320230B9301238DF83130114B3D
S31508001B0007A9009302AB8DF825408DF8245003F001
S31508001B1055FD044618B188210B4806F0D7F900216F
S31508001B204FF4E13006F0AFF9204615B030BD00BFDE
S31508001B301092000800C0055024C005501C1700204C
S31508001B40131B0020C8160020E191000810B5831E5B
S31508001B50012B12D8012922D8114B04221B6C09210A
S31508001B600020C3F3402302F0C3F80E4B1B68186825
S31508001B70A8B1BDE81040436A18478B1E012B0CD844
S31508001B8001280CD8BDE810400022054B09211B6C22
S31508001B901046C3F3402302F0ABB80129E5D910BDBE
S31508001BA000C003506C1F002008B50749074803F01A
S31508001BB06BFFFFF779FF28B1BDE80840B821044854
S31508001BC006F084B908BD00BF701F0020401700202A
S31508001BD0E1910008014806F072BB00BF1C170020FF
S31508001BE0014B1A6A186810471C17002038B50546B5
S31508001BF006F074F900230B4A14685CB1AC4206D1AE
S31508001C00A96A6BB1996206F06FF9012007E02346CD
S31508001C10A46AF2E7002DF3D006F066F9204638BD2F
S31508001C201160F0E7481700202DE9F041154E33689A
S31508001C3033B34FF00008144F06F050F905463C68D8
S31508001C4024B92846BDE8F04106F04EB994F82C3080
S31508001C50A3B1336884F82C8013B13368013B336031
S31508001C6094F82D3013B92046FFF7C0FF284606F032
S31508001C703BF9D4E9083120469847DDE7A46ADFE74F
S31508001C80BDE8F0814C17002048170020034B1B685D
S31508001C90002B14BF04200120704700BF4C170020FA
S31508001CA0024B1868B0FA80F0400970474C170020BC
S31508001CB008B5034806F0AAF9BDE8084006F04AB890
S31508001CC0CC960008014806F0A1B900BFCC960008DA
S31508001CD00348044A0449121A921006F0E4B800BFF1
S31508001CE07001000870010008501B002008B500F0BC
S31508001CF02FF8FFF7EDFF124B12498B4212D3002043
S31508001D00114B12498B4218D3FEF782FA186850F81D
S31508001D102240586840F82240013298688242F5D33A
S31508001D200C33EAE70022F8E71C6844F8220001327F
S31508001D305C68A242F8D30833E4E70022F8E700BF5C
S31508001D40A49A0008B09A0008B09A0008B09A000849
S31508001D5070B54FF48041124B124A134D9A60D3F86E
S31508001D60882005F5005442F47002C3F888200F4A0B
S31508001D7091664FF0FF3222660D4A62660222C3F868
S31508001D80D020BFF34F8FBFF36F8F4FF4403600203C
S31508001D9003F0D4F80020E66003F0B6F82E6170BDB3
S31508001DA000ED00E0000000080080004400900050AC
S31508001DB07FFF7F01014B1868704700BF7C1F00201A
S31508001DC0014B1860704700BF7C1F0020084B1B6F33
S31508001DD003F00703022B04D0032B05D0012B05D0F3
S31508001DE0FEE7044B18687047034BFBE70348704748
S31508001DF0008000507C1F0020841F0020002D310128
S31508001E0008B5FFF7E3FF054B1B6FC3F30333013335
S31508001E10B0FBF3F0024B186008BD00BF008000500D
S31508001E20781F00200048704700B4C404014B1868A6
S31508001E30704700BF841F0020054B1860054B1B6FB9
S31508001E4003F00703032B01D1FFF7DABF704700BF82
S31508001E50841F00200080005000487047002D310183
S31508001E604FF0B4439868C0F304400C280AD8DFE85A
S31508001E7000F00B0909090909072119091B1D1F008B
S31508001E800F487047002070479B6803F04073B3F112
S31508001E90807F11D0B3F1007F10D00A4A002B08BF0B
S31508001EA01046704708487047084870470848704702
S31508001EB008487047084870470848704708487047F8
S31508001EC0405DC60000093D00C0EA210180BA8C01C8
S31508001ED00048E801005A62020024F40080841E00CB
S31508001EE040420F00014B1868704700BF801F002052
S31508001EF038B504460D4601B118B93721034805F02F
S31508001F00E5FF23682B60256038BD00BF2C920008CA
S31508001F1013B500242948019406F078F80123042211
S31508001F200321204601F0E4FE204606F062F801226D
S31508001F30234B0520C3F8442401A906F062F80028BB
S31508001F4039D1204BD3F8F02042F00102C3F8F02033
S31508001F50D3F8FC2042F08072C3F8FC201A4AA3F595
S31508001F605D431A60019B194A03F5D52303F2FC4326
S31508001F70B3FBF2F3164A013B13610223C2F8F030B1
S31508001F804FF48073C2F804334FF06043114AC3F824
S31508001F90B02F114AC3F8802ED3F8002E42F480726F
S31508001FA0C3F8002EFF2283F82020D3F8002E22F44F
S31508001FB08072C3F8002E02B010BD00BFCC96000890
S31508001FC000D0035000ED00E0FF030040F8590D0073
S31508001FD0000004E055CEACC50900010030B54FF04D
S31508001FE06043D3F8802ED20715D501240B4D8440C3
S31508001FF0D5F8FC2042F08072C5F8FC20D3F8002EF4
S315080020002243C3F8002E53F82020002AF0D003F804
S315080020102010002030BD1120FCE700BF00ED00E0D5
S315080020202DE9F04F85B0044618B9AD21464805F0AC
S315080020304DFF2368B3F1B64F07D0444A93427BD18C
S31508002040434805F0E3FF012503E0424805F0DEFFBB
S31508002050002501230A22A179207901F049FE0123EE
S315080020600A22E179607901F043FE4FF00A08DFF8A9
S31508002070F090DFF8F0A0384F267994F806B0032ED2
S3150800208005D83AF8163023FA0BF3DA0704D440F2E7
S31508002090FE31484605F01AFF3022012302FB067678
S315080020A003FA0BF306F501563360642004F0F8FBD7
S315080020B0267994F806B0032E06D8284B33F816303E
S315080020C023FA0BF3DB0704D440F22D41484605F00A
S315080020D0FDFE3022012302FB067603FA0BF306F512
S315080020E082566420336004F0DBFBB8F10108C3D1E3
S315080020F0032307EB0512C2F83835A179237954353D
S3150800210043EA0143C2F83C35E27963792D0143EA93
S3150800211002437B5140F20113ADF80030E36869468B
S315080021200293A36820680193237C8DF80C3001F094
S31508002130C9FE05B0BDE8F08FD221034805B0BDE859
S31508002140F04F05F0C3BE00BF869200080080065017
S31508002150C4960008C896000800C0035040930008BB
S31508002160E89200084093000838B5054601F0FAFFE2
S31508002170044C012801D1013C00D138BD284601F0A4
S31508002180D3FEF6E7E19304002DE9F04F85B09A46B1
S31508002190554B06461B780F461546DDF83C909DF8CC
S315080021A044B0DDF85080002B00F09780072A00F233
S315080021B096800E9B002B00F09280B9F1000F00F07C
S315080021C08E80129BB3F5006F00F38980012803D136
S315080021D0109B002B00F08380444B03EB05131B7BFD
S315080021E0002B7ED0424C10220021684606F0F9F9F1
S315080021F004EB45141022A7BB3946204606F0F1F930
S3150800220043F210036380BBF1000F03D1E37843F078
S315080022100303E370364A0E9B02EB451CCCE9019397
S31508002220129B6901581E9DF84C30C0F30A0003F052
S3150800223003039B0643EA001E53582E48012E00EA64
S3150800224003004EEA0003CDF800A0535017D0B8F1AA
S31508002250000F2ED19CF8023068F304138CF8023074
S3150800226027E00021204606F0BCF94FF4447363804A
S31508002270BBF1000FCED1E37843F03003C9E713234F
S315080022800CF1100ECCF80C309CE80F008EE80F000D
S315080022906FF00301DCF81C20109B61F39F02012FED
S315080022A0CCF81C20CCF8143003D1CCF81890CCF814
S315080022B0043000270D4A290102EB051342F8018074
S315080022C0159A28465A60694622469F605E7302F050
S315080022D025F8384605B0BDE8F08F0748FAE70748FD
S315080022E0F8E70748F6E700BF331B00205018002020
S315080022F0501700200F80FFF3028000F0018000F0E5
S31508002300078000F038B5124B05461B78DBB1E0B103
S3150800231005F0E4FD0F4A00231146147B54B92B60DF
S3150800232001251A0101EB03131D738C5005F0DCFD22
S31508002330204638BD0133082B02F11002EDD105F015
S31508002340D3FD0548F5E70548F3E70548F1E700BF7B
S31508002350331B002050180020048000F0028000F093
S31508002360018000F038B505F0B9FD002305460B4A93
S31508002370147B6CB90133082B02F11002F8D101F075
S315080023804FFF074B28461C7005F0AEFD204603E0BC
S31508002390284605F0A9FD034838BD00BF501800209F
S315080023A0331B0020058000F010B50D4B04461B7842
S315080023B093B1072812D805F091FD0A4B03EB0413D5
S315080023C01A7B2AB100241C7305F08EFD204610BD29
S315080023D005F08AFD0448FAE70448F8E70448F6E7F2
S315080023E0331B002050180020068000F0028000F001
S315080023F0018000F013B5154B1868002301908DF87D
S31508002400043005F06BFD124B1C7824B105F06CFD09
S31508002410104802B010BD01221A7005F065FD0E4B7A
S3150800242001A81C731C7783F82C4083F83C4083F87A
S315080024304C4083F85C4083F86C4083F87C40082362
S315080024408DF8073001F022FF2046E2E7489300089E
S31508002450331B0020038000F05018002008B50A4AF4
S3150800246012785AB107280BD8084A02EB00131B7BCF
S3150800247043B1002101F0EAFE002008BD0448FCE74C
S315080024800448FAE70448F8E7331B002050180020F0
S31508002490028000F0018000F0078000F008B50A4AC3
S315080024A012785AB107280BD8084A02EB00131B7B8F
S315080024B043B1012101F0CAFE002008BD0448FCE72B
S315080024C00448FAE70448F8E7331B002050180020B0
S315080024D0028000F0018000F0078000F008B50A4A83
S315080024E0127852B107280AD8084A02EB00131B7B58
S315080024F03BB101F099FF002008BD0548FCE70548F7
S31508002500FAE70548F8E700BF331B002050180020FB
S31508002510028000F0018000F0078000F00D4B1B7868
S3150800252093B1072812D889B10B4B03EB00131B7B19
S3150800253073B10A4B1A6D01238340134214BF01235A
S31508002540002300200B707047054870470548704700
S3150800255005487047331B002050180020000004501F
S31508002560028000F0018000F0078000F010B50B4AE9
S315080025700C46127862B107280CD859B1084A02EB02
S3150800258000131B7B43B101F06BFF2070002010BDC8
S315080025900448FCE70448FAE70448F8E7331B002038
S315080025A050180020028000F0018000F0078000F03B
S315080025B02DE9F041174B1F6D5B6D1F4000D5FEE7F7
S315080025C001260025144CDFF85880374218D02368B6
S315080025D0C8F85060A3B1A168284601316268A160B5
S315080025E09847637B012B0BD150B90C4B03EB451372
S315080025F01A7B60F341021A731A7F60F341021A7755
S315080026000135082D4FEA460604F11004DDD1BDE870
S31508002610F08100BF00000450501800205017002019
S3150800262000200450044BD3F88420D206FBD4D3F8F8
S315080026308400C0F3811070470040005008B5334B42
S3150800264098424FD027D8324B984245D017D8314BAD
S3150800265098423ED00AD838B12F4B984239D041F229
S31508002660A6312E4805F032FC002034E02C4B984267
S315080026702FD02C4B9842F2D12B4B586E2BE02B4B7C
S3150800268098422CD003F5371303F5D8639842E6D160
S31508002690254B986F1FE0264B98422FD00CD8254B18
S315080026A0984223D0244B984224D0244B9842D6D122
S315080026B01D4BD3F884000EE0214B984222D003F537
S315080026C0740303F510539842C9D1174BD3F89800F1
S315080026D001E0154B986D08BD134B186FFBE7124BBD
S315080026E0586FF8E7104BD3F88000F4E70E4BD3F891
S315080026F08800F0E70C4BD3F88C00ECE70A4BD3F8CC
S315080027009000E8E7084BD3F89400E4E780BA8C0118
S31508002710405DC60080841E0040420F004C930008AE
S3150800272000093D00C0CF6A000080E00F0024F400D5
S31508002730007E560380D54302006CDC020048E8019F
S315080027400090D00338B51A4B0546D3F820010C463D
S3150800275000F00700062821D8DFE800F028040C144A
S3150800276010181C00FFF726FB052305B1286004B1E5
S31508002770236038BDFFF75AFB0323F6E7FFF770FB24
S315080027800723F2E7FFF768FB0223EEE7FFF712FBE2
S315080027900623EAE7FFF74AFB0423E6E7054841F282
S315080027A07C2105F093FB00231846DEE70123DCE7CE
S315080027B0008000504C93000838B5194B0546D3F8ED
S315080027C028310C4603F00703013B052B20D8DFE828
S315080027D003F003131B0F0B17FFF7ECFA052305B1DC
S315080027E0286004B1236038BDFFF7E4FA0623F6E74C
S315080027F0FFF736FB0723F2E7FFF718FB0323EEE79D
S31508002800FFF714FB0423EAE7FFF726FB0223E6E7B4
S31508002810044841F2840105F059FB00231846DEE717
S31508002820008000504C930008F7B50027144B019719
S31508002830D3F88041064604F00304022C0D4614D052
S31508002840032C0DD0012C14D1394601A8FFF77AFFC5
S315080028500F240EB1019B336005B12C6003B0F0BDA7
S31508002860FFF7FEFA07240190F3E7FFF7F5FA019060
S31508002870EFE741F2D131034805F028FB3C46E8E78B
S31508002880008000504C93000838B50F4B0546D3F826
S3150800289090320C4603F00303012B09D0022B0BD10F
S315080028A0FFF7DEFA072305B1286004B1236038BDB7
S315080028B0FFF7D2FA0223F6E7044841F2701105F051
S315080028C005FB00231846EEE7008000504C930008ED
S315080028D037B500230193194B0546D3F820320C4629
S315080028E003F00703042B1FD8DFE803F025030F14B2
S315080028F01900002101A8FFF75FFF11230DB1019A06
S315080029002A6004B1236003B030BDFFF7A9FA072394
S315080029100190F3E705F0D4FA0A230190EEE7FFF7F2
S31508002920E1FA09230190E9E741F24301044805F079
S31508002930CDFA0023E2E70123E0E700BF008000505C
S315080029404C93000838B5104B0546D3F840310C4671
S3150800295003F00303022B0BD0032B0DD0012B0FD151
S3150800296005F0AEFA0A2305B1286004B1236038BD24
S31508002970FFF7B8FA0923F6E705F0A5FA0B23F2E7FD
S3150800298001230020EFE700BF0080005037B5002381
S315080029900193184B0546D3F860320C4603F007033B
S315080029A0013B032B1FD8DFE803F0020E19140021A0
S315080029B001A8FFF7C7FE0F230DB1019A2A6004B1DB
S315080029C0236003B030BD002101A8FFF7BBFF102329
S315080029D0F2E7FFF745FA07230190EDE7FFF73CFA20
S315080029E002230190E8E741F2E801034805F06EFA90
S315080029F00023E1E7008000504C93000873B50024DB
S31508002A000F4B0194D3F87032064603F00303012BEB
S31508002A100D4607D0022B11D041F24611094805F0A0
S31508002A2055FA04E0214601A8FFF78CFF10240EB1E1
S31508002A30019B336005B12C6002B070BD1424F6E723
S31508002A40008000504C93000838B5164B0546D3F85D
S31508002A5000020C4600F00700042819D8DFE800F049
S31508002A6020030B0F130005F02BFA0A2305B1286083
S31508002A7004B1236038BDFFF735FA0923F6E705F0F8
S31508002A8022FA0B23F2E7FFF7BBF90E23800AEDE7DC
S31508002A90054841F28F4105F019FA00231846E5E783
S31508002AA00123E3E7008000504C93000838B5164B25
S31508002AB00546D3F808020C4600F00700042819D882
S31508002AC0DFE800F020030B0F130005F0F9F90A23DD
S31508002AD005B1286004B1236038BDFFF703FA09235E
S31508002AE0F6E705F0F0F90B23F2E7FFF789F90E236D
S31508002AF0800AEDE7054841F2C74105F0E7F90023EA
S31508002B001846E5E70123E3E7008000504C930008E8
S31508002B1038B5104B0546D3F840320C4603F003038C
S31508002B20022B0BD0032B0DD0012B0FD105F0C8F9C2
S31508002B300A2305B1286004B1236038BDFFF7D2F92E
S31508002B400923F6E705F0BFF90B23F2E70123002076
S31508002B50EFE700BF0080005038B5124B0546D3F8A2
S31508002B6050320C4603F00303022B0FD0032B05D07B
S31508002B70012B0FD105F0A4F90A2302E005F0A3F909
S31508002B800B2305B1286004B1236038BDFFF7AAF905
S31508002B900923F6E7044841F2B40105F097F9002342
S31508002BA01846EEE7008000504C93000838B5104BE5
S31508002BB00546D3F860310C4603F00303022B0BD00D
S31508002BC0032B0DD0012B0FD105F07AF90A2305B195
S31508002BD0286004B1236038BDFFF784F90923F6E7B6
S31508002BE005F071F90B23F2E701230020EFE700BF98
S31508002BF00080005010B5B0F5207F34D009D8B0F564
S31508002C00007F2AD003D898B1B0F5C07F10D0002431
S31508002C1021E0B0F5607FFAD1154BD3F88030C3F3C5
S31508002C2001149B0617D5032C15D040F296210FE008
S31508002C300F4B1C6F230B13F00E0FC4F303340AD08B
S31508002C40072C08D00F2C06D0032C04D040F286217E
S31508002C50084805F03BF9601C10BD054BD3F89040B9
S31508002C60C4F30464F7E7024B1C6FC4F38024F2E74D
S31508002C70008000504C93000838B54FF48032104B52
S31508002C8004469A6600200D46FFF7B4FF41F67132F6
S31508002C900C4B6043DC69DA635A6804F4803422F426
S31508002CA040125DB90849884294BF002001200005FA
S31508002CB002435A600CB10022DA6338BD0349F2E7D1
S31508002CC00090005000000350005A6202002D3101A6
S31508002CD038B5430904460D460ED140F233310D4846
S31508002CE005F0F4F8002304F01F0485B103F58053BA
S31508002CF00122A2401A6038BD012B04D0022B04D051
S31508002D0040F24131EBE7044BEDE7044BEBE703F503
S31508002D100053EDE74C93000864800050688000502B
S31508002D2030B585B00021B0F5807F0446019100F0EA
S31508002D3000816BD8002800F0DA80A0F12004602C0E
S31508002D4074D8602C72D8DFE814F0D200D500D2000F
S31508002D50D500EA00EA00EA00EA00EA00D500EF003A
S31508002D607D0005019D007D00D500D500D5007100C8
S31508002D707100710071007100710071000501D500C4
S31508002D80D500D5001D010A01D5007100710071003A
S31508002D90710071007100710071007100710071009D
S31508002DA071000F01EA00D200D200D200B0007D0007
S31508002DB07D00B80014019200C700C70071007100B9
S31508002DC0710071007100710071007100710071006D
S31508002DD0710071007100710071007100710071005D
S31508002DE0710071007100710071007100710071004D
S31508002DF0710071007100710071007100710071003D
S31508002E0071007100710071007100CC00B0F5E06FBF
S31508002E1000F0A5803BD8B0F5607F76D01DD8B0F518
S31508002E20007F72D008D8B0F5C07F60D04FF49361A8
S31508002E30574805F04BF857E0B0F5207F5AD0B0F563
S31508002E40407FF3D1FEF7DCFF04464FF42070FFF70E
S31508002E50D1FEB4FBF0F4640855E0B0F5B06F63D06A
S31508002E600AD8B0F5806F5AD0B0F5A06FDED1002130
S31508002E7001A8FFF72DFD37E0B0F5C06F6AD0B0F5B1
S31508002E80D06FD3D1002101A8FFF7DEFD2CE0B0F505
S31508002E90286F6ED016D8B0F5186F65D00AD8B0F579
S31508002EA0F06F6FD0B0F5106FC0D1002101A8FFF701
S31508002EB0FDFD19E0B0F5206FB8D1002101A8FFF794
S31508002EC065FD11E0B0F5306F58D0AFD3B0F5386F67
S31508002ED040D0B0F5406FA9D1002101A8FFF76CFCDE
S31508002EE002E0FEF773FF0190019805B030BDFEF7CA
S31508002EF087FFF8E7FEF784FF04464FF42070FFF7D4
S31508002F0079FEB4FBF0F40194EEE7FEF75FFF0546A1
S31508002F102046FFF76FFEB5FBF0F50195E4E70021C3
S31508002F2001A8FFF70FFCDFE7002101A8FFF77CFCEB
S31508002F30DAE74FF0E02302911B695B0705D5FEF738
S31508002F405FFF0290029B0193CEE703A902A8FFF751
S31508002F50F9FCF7E7002101A8FFF7F4FCC4E7002114
S31508002F6001A8FFF7D5FDBFE7002101A8FFF7F4FD8B
S31508002F70BAE7002101A8FFF741FDB5E701A8FFF769
S31508002F8083FCB1E7002101A8FFF710FEACE700BFFC
S31508002F904C93000808B58020FFF7C2FE034B984201
S31508002FA09EBF4FF48032024B1A6708BD005A620270
S31508002FB000A000501FB503460020B3F5807F01909E
S31508002FC000F0D78077D8582B68D8382B05D8243BFB
S31508002FD0092B49D940F27D51BFE0393B1F2BF9D85F
S31508002FE001A252F823F000BF95310008D52F00083A
S31508002FF0D52F0008D52F00089F310008E5310008B5
S31508003000D52F0008D52F0008D52F0008D52F000882
S31508003010D52F0008D52F0008D52F0008D52F000872
S31508003020D52F0008D52F0008D52F0008D52F000862
S31508003030D52F0008EF310008DD300008D52F00082D
S31508003040D52F0008D52F000821310008D52F0008F4
S31508003050D52F0008F931000803320008DB310008D3
S315080030604331000843310008092BB3D801A252F8AE
S3150800307023F000BFDD300008DD300008DD30000831
S31508003080DD300008DD300008D52F00086331000860
S31508003090D52F000895310008FB300008802B99D100
S315080030A05C4B1B6F03F00703013B032B53D8DFE888
S315080030B003F0504D8890B3F5086F75D022D8B3F554
S315080030C0C06F67D00FD8B3F5A06F00F08680B3F550
S315080030D0B06F46D0B3F5806F7FF47CAF002001A9AE
S315080030E0FFF730FB41E0B3F5E06F7BD0B3F5F06F47
S315080030F055D0B3F5D06F7FF46DAF002001A9FFF767
S31508003100A3FC32E0B3F5286F7BD00ED8B3F5186F61
S315080031106DD0B3F5206F6FD0B3F5106F7FF45AAF4B
S31508003120002001A9FFF7C2FC1FE0B3F5306F6DD090
S31508003130FFF450AFB3F5386F2CD0B3F5406F7FF47A
S3150800314049AF002001A9FFF737FB0EE005230193DD
S315080031500BE00223FBE740F2CA412F4804F0B6FE13
S3150800316003E0002001A9FFF75FFB019805B05DF8B1
S3150800317004FB4FF0E02302901B695B0705D5FEF7B9
S315080031803FFE0C230393039BE1E703A902A8FFF77D
S31508003190D9FBF8E7002001A9FFF7D4FBE5E70020F3
S315080031A001A9FFF703FDE0E71A4BD3F8003103F056
S315080031B00303022B07D0032B09D0012B0BD1FEF7F3
S315080031C035FE0323C3E7FEF78DFE0923BFE704F0A8
S315080031D075FE0823BBE70123B9E7002001A9FFF71D
S315080031E077FBC2E7002001A9FFF792FCBDE70020A4
S315080031F001A9FFF7B1FCB8E7002001A9FFF7C6FB54
S31508003200B3E7002001A9FFF7F9FBAEE701A9FFF72D
S315080032103BFBAAE7008000504C9300084FF480322D
S31508003220074B0849586E03F580535A664B6A23F0D4
S3150800323001034B62C3035CBF034B5A66704700BF6A
S315080032400080005000C0075000A00050F8B5036881
S3150800325004460F2B04D940F67731804804F036FE31
S3150800326063680F2B04D940F67A317C4804F02EFEA9
S31508003270A3680F2B04D940F67D31784804F026FE62
S31508003280237B0F2B04D94FF43861744804F01EFED3
S31508003290637B0F2B04D940F68331704804F016FE81
S315080032A0A37B3F2B04D940F686316C4804F00EFE0A
S315080032B0E37B3F2B04D940F68931684804F006FEC3
S315080032C02369032B04D940F68C31644804F0FEFDCB
S315080032D06369032B04D940F68F31604804F0F6FD84
S315080032E0E369032B04D940F692315C4804F0EEFDFD
S315080032F08020FFF75FFE032800F08A804FF48012D3
S31508003300574B584D5A6645F60E034FF0A062C5F85E
S315080033108030554B9A624FF4803203F580539A6297
S31508003320AB6DDA03FCD4AE6D16F08046FBD1D4E95A
S3150800333000231B0543EA0263E27B4C481343227BC6
S315080033404B4F43EA0243627B43EA0233A27B43EADA
S3150800335082132B61AA69D4E904131B0643EA816325
S3150800336002F000421343A27E4FF440611343227ECB
S3150800337043EA0243627E43EA0223AB614FF40062EA
S3150800338004F0E9FD2B6AE17EE26923F00F0343EAC4
S315080033908103002A3DD12B6294F8243094F820103A
S315080033A0AA6ADB0043EA41133A40134394F8212002
S315080033B0304943EA021343F480332A4AAB62936DD9
S315080033C031EA0303FBD14FF0807127488162136904
S315080033D0A56823F4700343EA055313614FF00043CD
S315080033E0836194F822300BB9234B996294F8233001
S315080033F03BB94FF48032204B9A621A4A936D5B00B0
S31508003400FCD494F825301BB1164B1C4AC3F880200F
S31508003410F8BD134343F00803022A2B6208D12E6134
S315080034204FF408524FF47F411548AE6104F093FDFE
S315080034300C4994F822308A6A94F820001B063A4010
S3150800344043EA4013134394F8242043EAC20394F84A
S31508003450232043EA02438B62D3E700BF4C9300085C
S31508003460009000500040005A0050005A3840005A58
S31508003470C7FFFEFE030001000060005AF1A7FFFF28
S315080034803440005A014B93F9000070472E20002063
S3150800349010B543680446072B04D940F6D3512A4889
S315080034A004F014FDA368032B04D940F6D551264829
S315080034B004F00CFD2378032B04D940F6D751224893
S315080034C004F004FD94F90130002B04DA40F6D951D2
S315080034D01D4804F0FBFC4FF400011C4A6378516652
S315080034E04FF4D151022002F5B832516218494F2BD8
S315080034F048604FF0010028BF4F2301F5805148600E
S315080035001169C903FCD4217843EA01235361D4E93C
S3150800351001131B0143EA0123617B0B43217B43EA29
S3150800352041039360E37BA17B1B0143EA4113617C62
S315080035300B43217C43EA41035360A37C13B16FF428
S31508003540D153536210BD00BF4C9300080090005041
S3150800355000100250014B1880704700BFEA1F002078
S31508003560014B1880704700BFE81F002010B5B0F562
S31508003570207F65D00ED8B0F5007F4FD003D800B3B2
S31508003580B0F5C07F1DD040F21631BDE81040344872
S3150800359004F09CBCB0F5607FF5D14C1E012C06D911
S315080035A0042904D040F2F7212D4804F08FFC2D4A57
S315080035B0D2F8803023F0300343EA0413C2F880308F
S315080035C010BD4C1E012C0AD9102903D8264BCB4016
S315080035D0DB0704D440F2C921214804F077FC04F043
S315080035E0C9FC04F0D5FC4FF48031204B1D4A1967FD
S315080035F0136F23F4704343EA04331367FEF700FCA2
S315080036000446FFF70FF8C0F10201204604F0BAFCA1
S3150800361000F03EF8BDE81040FFF7BCBC4C1E1F2C5E
S3150800362004D940F20A310E4804F050FC0D4AD2F88B
S31508003630903023F0F85343EA0463C2F89030BFE7AA
S315080036404C1E012C04D94FF44471054804F03EFC85
S31508003650044A136F23F4806343EA84231367AFE7AE
S315080036604C930008008000501001010000900050A3
S3150800367008B50121022000F0C5F904F07BFC04F02E
S3150800368087FC4FF48032014B1A6708BD0090005042
S3150800369008B54FF4C070FFF743FBBDE8084004497E
S315080036A0884294BF012102214FF42070FFF75EBFC4
S315080036B080F0FA022DE9F0410546FEF7BFFF431EEA
S315080036C00333044604D940F6CF113B4804F0FEFB09
S315080036D04FF4C022394B5A6603F598335A68012AC3
S315080036E004D137494A605A689207FCD48020FFF70C
S315080036F061FC052807D104F03DFC04F049FC4FF4B1
S3150800370080322E4B1A672F4B24F040749D4239D0D5
S315080037102D4B9D4239D0FEF74DFB8542064603D90F
S315080037200121284600F0C2F9284FFB6813F0060F5E
S31508003730FBD1D7F80880BC60BB68634013F4F81F58
S3150800374026D12846FEF73CFB8020FFF733FC0528E8
S3150800375014D1FEF755FBA842044604D940F62821A1
S31508003760154804F0B3FBFEF75DFFC0F102012046E1
S3150800377004F008FCFFF78CFFFFF70CFCAE4213D2EF
S31508003780BDE8F08144F00074C5E744F08074C2E7F0
S3150800379040F61721084804F099FB8020C7F80880EE
S315080037A0FFF708FC052805D0BDE8F04101210020F7
S315080037B000F07CB93546CCE74C93000800900050E1
S315080037C000E0015040420F0080841E0000000150B6
S315080037D070B54E4B0546984273D041D8A3F5B7034A
S315080037E0A3F55863984265D033D8494B494E984259
S315080037F051D017D8002877D041F2C911464804F0AD
S3150800380065FB40F67371444804F060FB4FF40022F0
S31508003810404B5A663E4B9D4276D000243F4A95421D
S3150800382036D05DE03D4B984227D03D4B9842E3D1D8
S315080038303C4BD3F8A040621E033224F040744CD9A6
S3150800384040F67371344804F041FB4FF40023736665
S31508003850E4E7354B9842CFD1324BD3F8BC402CE045
S31508003860324B984231D0324B984232D0314B984243
S31508003870C2D12C4BD3F8C8401FE02A4BD3F8A0403E
S31508003880621E033224F04074DAD84FF400237366BC
S3150800389044F0807424E0234BD3F8A040621E033220
S315080038A024F040742AD84FF400237366234643F065
S315080038B0007415E01B4BD3F8B840621E154E033250
S315080038C0BBE7184BD3F8C040F7E7164BD3F8CC4004
S315080038D0F3E7144BD3F8D040EFE74FF400237366B1
S315080038E04FF0B442946070BD40F673710A4804F014
S315080038F0EDFA4FF400232C467366F1E740F6737130
S31508003900054804F0E3FACEE70023D0E7C0EA210130
S3150800391040420F00009000504C93000880841E001F
S3150800392000093D000080E00F0024F4000048E8018B
S31508003930005A620280BA8C01024A536B0342FCD1D8
S31508003940704700BF00400950044A4178536F23F47A
S31508003950407343EA01235367704700BF0040005095
S3150800396010B50E4A0446136943F00403136102F0C6
S31508003970EBFA04F029FB0A4B5B6E5B0142BF094B6D
S31508003980094AC3F8202430BF04F01FFB02F016FBD7
S315080039901CB9BDE81040FEF733BA10BD00ED00E0D3
S315080039A00080005000E003500000FF0F10B50C4ADD
S315080039B00446136943F0040313610A4B5B6E5B010B
S315080039C042BF094B094AC3F8202402F0BDFA30BFAA
S315080039D002F0F4FA1CB9BDE81040FEF711BA10BDA2
S315080039E000ED00E00080005000E003500000FF0FEB
S315080039F0034A0179D36E23F030030B43D36670472D
S31508003A0000400050F8B50446244BD3F88420D0066D
S31508003A10FBD4D3F88430C3F381139C423CD0FEF721
S31508003A20D5F9012C05460BD11D4B984204D940F215
S31508003A30B7711C4804F04AFA0121284604F0A2FA94
S31508003A4004F045FA4FF00072174B07465A662046AF
S31508003A5004F0BEFA4FF48063104E621E934033673B
S31508003A60736E9A0103D4D6F884309B060AD5384675
S31508003A7004F031FA022C0FD12846BDE8F84000219F
S31508003A8004F080BAD6F884309906E9D540F2C571B3
S31508003A90044804F01BFAE3E7F8BD00BF00400050F5
S31508003AA0005A6202A39300080060005010B50C4645
S31508003AB008B9FEF78BF9074B21461B783BB1064B35
S31508003AC0984204D80120BDE81040FFF79BBF0220AA
S31508003AD0F9E700BF341B0020005A6202034B027844
S31508003AE0012100201A70FFF7E1BF00BF341B002038
S31508003AF038B54FF00042244B244C5A664AF6CD336B
S31508003B00656C014605F00105236428BB0120FFF713
S31508003B1013FF6368DB0715D51D4B586008461D4B18
S31508003B20226BD2070CD4984208D1072415B1174B3B
S31508003B30194A1A6404F04DFA204638BD0130EFE7F9
S31508003B409842F2D00024F1E70132236B13F0080300
S31508003B5005D08A42F8D1E8E700220E49F5E78A42FD
S31508003B60E3D020210A4A91620121A2F580525160D0
S31508003B700649084A886A800603D49342D5D0013399
S31508003B80F8E79342DDE700BF009000500040095077
S31508003B900060095040420F003254FFFF38B54FF01D
S31508003BA00042164B01465A664AF6CD33144C154A5E
S31508003BB0656C236443780B205B0043F00103D363F1
S31508003BC0FFF7BAFE63688A7823F4F87343EA0213A8
S31508003BD06360CA784B7943EA0223A3600A798B7932
S31508003BE043EA022323610878FFF782FFEB0744BF05
S31508003BF0054B236404F0EDF9012038BD0090005010
S31508003C0000400950004000503254FFFF70B50F289D
S31508003C10044605D940F65261124804F057F90F24B4
S31508003C204FF00042104B11495D6E03F580535A66FA
S31508003C304AF6CD334E6C80200B64FFF77DFE0B6A87
S31508003C4023F00F0323430B62F30744BF084B0B64AF
S31508003C50002DA2BF4FF00042064B5A6604F0B9F990
S31508003C6070BD00BFA39300080080005000400950B3
S31508003C703254FFFF00A0005038B5032804460D460D
S31508003C8005D8094B33F81030CB40DB0704D440F293
S31508003C902D41064804F01AF9302301225C43044BEF
S31508003CA0AA401A5138BD00BF52940008E89200088D
S31508003CB040D0035038B5032804460D4605D8094BAD
S31508003CC033F81030CB40DB0704D440F2FE31064807
S31508003CD004F0FCF8302301225C43044BAA401A5135
S31508003CE038BD00BF52940008E892000840E003502F
S31508003CF02DE9F041032804460D461746984605D88F
S31508003D001D4B33F81030CB40DB0704D44FF4B071A9
S31508003D101A4804F0DBF837B129462046B8F1000FF7
S31508003D2020D0FFF7A9FF0F21072D04EB440688BF13
S31508003D30A5F108034FEA0616114895BFAB009B008C
S31508003D4004360C3607FA03F29940304404F042F977
S31508003D507FB929462046B8F1000F06D0BDE8F041E4
S31508003D60FFF78ABFFFF7A6FFDDE7BDE8F041FFF7DB
S31508003D70A1BFBDE8F08100BF52940008FA9300087D
S31508003D8030C00350F8B506460F461546002A6AD0D5
S31508003D9003F00304836823F44073836004F097F800
S31508003DA0B26882EA042303F440735340B36004F014
S31508003DB092F837B9B6F1B64F0DD12E20FEF7B0FFFF
S31508003DC00746B3689A0717D5012C1BD0022C27D0B3
S31508003DD064B9264B17E0264B9E4201D12F20EDE70A
S31508003DE040F22F11234804F071F8B3684FF4B2710A
S31508003DF0204804F06BF808E0012C13D0022CE7D118
S31508003E001D4B00E01D4B9F42F0D91D4B1B5D6B43BC
S31508003E100AD140F27511BDE8F840164804F056B8C4
S31508003E20184BF0E7184BEEE7A3EBC504013C3C44FE
S31508003E30B4FBF3F4013C0CD540F27B110D4804F0B9
S31508003E4045F84FF4BE710B4804F040F8B368B46106
S31508003E50F8BDB4F5007FF4D2B3689B07F7D5002CFC
S31508003E6008BF0124F3E740F21511D4E780841E0049
S31508003E70008006505A940008002D3101404B4C0032
S31508003E80B1940008809FD5004054890038B5B0F138
S31508003E90B64F04460D4607D0084B984204D040F268
S31508003EA09511074804F012F8043425B104F5805436
S31508003EB00123236038BD04F50054F9E70080065055
S31508003EC05A94000838B5B0F1B64F04460D4607D0E7
S31508003ED0124B984204D04FF4D571114803F0F6FFFF
S31508003EE00023104A236404F50053DA636A7804F160
S31508003EF008037AB903F5805302221A602046D5E9E9
S31508003F0001122B7BFFF73EFF20462978BDE8384093
S31508003F10FFF7BCBF03F50053EEE700BF008006506D
S31508003F205A940008FFFF1F0070B5B0F1B64F0AD0CB
S31508003F30874B98421DD0874840F2012103F0C6FFFF
S31508003F406FF0030070BD844B9968C26B12F4C06FA2
S31508003F5015D091050FD5FD225A7009221A70002234
S31508003F60026493F90110012900D15A7093F90100EE
S31508003F70E8E77A4BE8E75605EFD5FE22ECE71C782A
S31508003F80082C00F2E180DFE814F009001F00450064
S31508003F90530070007E009C00A700D6004C880A8853
S31508003FA0E5060AD5120A02F0060242F0F0020121DD
S31508003FB019704263C1600120C4E702F0FE02A1073E
S31508003FC048BF42F00102F2E7160608D5802100F53F
S31508003FD00052D1634FF608721A80022318E055067C
S31508003FE0E9D5402400F50052D4634A88D40604D59E
S31508003FF002221A700B784363DDE796076AD5072213
S315080040001A701B7901EBC3031B89012BD3D1082333
S31508004010C360D0E71506D9D45406CCD5402400F59C
S315080040200052D4634A88920754D503221A708CE743
S315080040304C880A88E60643BF120A02F0060242F0D6
S31508004040F00202F0FE02650709D51C7942F001026A
S3150800405001EBC4010989012904BF0821C1600421B3
S3150800406019700123C3604263A5E71406AED452064D
S31508004070A1D5402400F50052D4634A88560729D5AD
S3150800408007221A7097E71A795D8801EBC204268918
S31508004090AE420FD800240132D2B21A715C804C8825
S315080040A06507C2D4E40702D4012A7FF64EAF082278
S315080040B01A7092E76268691C5980525D426306224B
S315080040C0DFE7160682D455067FF575AF402400F55E
S315080040D00052D4630522A9E794067FF56CAF456ABA
S315080040E01F4C46691A793440B4F5003F04BF466A46
S315080040F04FF4005601EBC20100F500540A8908BFC7
S31508004100E6632026E6635C88A24281BF4968661C8E
S315080041105E800D5559888A42C9D90424012AC4608B
S3150800412004D0013A914201D10822C2601A78092ABC
S315080041303FF415AF3FE7D2057FF53DAF4FF48071E9
S3150800414000F50052D16308E74FF609321A8006E7F0
S31508004150008006505A940008D0180020DC18002069
S315080041602000020038B5B0F1B64F04460D4607D117
S3150800417021B940F26A31254803F0A8FE244B13E022
S31508004180244B98420DD040F26931204803F09EFE38
S3150800419025B940F26A311D4803F098FE6FF0030016
S315080041A038BD00292AD01C4B2269D00744BF2022DB
S315080041B0E2606A88910702D529890029EED052075C
S315080041C002D52A8A002AE9D04FF480721A600022A2
S315080041D09D601A71C023E3606369DB0514D420224D
S315080041E004F50053DA630D4A2046DA63236C43F478
S315080041F0FC632364BDE83840FFF796BE40F26A3197
S31508004200024803F063FECEE7636AE5E75A940008BE
S31508004210D018002000800650DC180020FFFF1F0081
S3150800422010B5162000F052FE0024FF22064B214648
S315080042305C6520209A625C60FEF74AFD2146BDE86F
S3150800424010402120FEF744BD0000045038B5072869
S3150800425004460D4603DD7721084803F037FE1F2C78
S3150800426003D99121064803F031FE064A064B002D74
S3150800427008BF13460122A2401A6038BDB59400084B
S315080042800D950008401004504020045010B504460F
S3150800429018B991211F4803F019FE23781B0613F05D
S315080042A0604F03D092211B4803F010FEE3780F2BD2
S315080042B003D9A321174803F009FE01212020FEF7A0
S315080042C007FD01212120FEF703FD0122124B1620CE
S315080042D05A60227812069A606178A27842EA014208
S315080042E09A61FF229A6200229A631A644FF000428A
S315080042F05A654FF0FF3203F500531A6500F01EFEAB
S315080043001620E17800F028FEBDE81040162000F0DF
S31508004310FBBD00BFB5940008000004502DE9F0412C
S315080043200126C3B2072805460C46174606FA03F6C1
S3150800433003DDEC21384803F0C9FD1CB9ED213648E8
S3150800434003F0C4FD236823F47C1323F00F031BB189
S31508004350F021314803F0BAFDA37A1B0413F47C0F4D
S3150800436004D040F209112C4803F0B0FDE37A1B058E
S3150800437013F07E6F04D040F20B11274803F0A6FD18
S31508004380237B5B0513F0FE5F04D040F20D11224833
S3150800439003F09CFD214BDFF88C801E65AB0022687C
S315080043A003F1A04303F588235A60302202FB0585F2
S315080043B0637B27F003072B66E37AA27A1B0543EA99
S315080043C00243227B43EA4253EB652F6703F086FDDF
S315080043D0134B5E65237A23B1D8F840303343C8F8C7
S315080043E04030637A23B1D8F838303343C8F83830C8
S315080043F02279A37943EA0243084A93616179E3790A
S3150800440043EA014306498B61064B56639E64BDE841
S31508004410F04103F069BD00BFB594000800200450C0
S31508004420001004500000045010B50124C3B2072838
S3150800443004FA03F404DD40F29711074803F046FD39
S3150800444003F04CFD054B5A6D22EA04025A659C623C
S31508004450BDE8104003F048BDB594000800000450BC
S3150800446010B50124C3B2072804FA03F404DD40F2A8
S31508004470B5110A4803F02AFD03F030FD084BDA6A45
S31508004480224208D15B6B9C430CBF0124002403F035
S315080044902BFD204610BD0024F9E700BFB59400089F
S315080044A00000045008B5242815D820280AD8012861
S315080044B019D00C2819D018B1B6210E4803F006FDFC
S315080044C0002007E02238022811D8DFE800F00208A9
S315080044D00A00022008BD3228EED10620FAE7042099
S315080044E0F8E70520F6E70320F4E70720F2E70120BE
S315080044F0F0E700BF6495000810B50C280C4628D0D4
S3150800450003D801281CD0204610BD242810D82028FE
S31508004510F9D9042C0FD801A353F824F0074500084D
S31508004520074500080745000807450008074500082D
S315080045303228EED0E7E7F6210B4803F0C7FCE2E79E
S315080045400129E0D00229DED00029DCD040F207118B
S31508004550F2E7022904D0032904D04FF48B71EBE764
S315080045600024D0E70124CEE76495000870B5054617
S31508004570C2F3062602F0070479B90B2804D94FF4CA
S31508004580FC710F4803F0A2FC44EA062444F44024D4
S3150800459006350C4B43F8254070BD032804D940F274
S315080045A0FD11074803F092FC21463046FFF7A4FFA9
S315080045B004463046FFF776FF123544EA0024E8E75A
S315080045C0649500080080035070B5B2F5805F054613
S315080045D00E4614460DD34FF40B71084803F076FCCB
S315080045E024F0030202F1A04202F5603226B91560F2
S315080045F001E0002AF4D170BD2D02F8E764950008A1
S31508004600F8B507460C461D4616464AB94FF4A17139
S31508004610314803F05BFC24B1402D09D1062328E07C
S3150800462021B94FF42070FEF77BFB0446402D42D09B
S31508004630402D09D87DB1202D17D040F28911BDE84B
S31508004640F840254803F042BC602DF6D1B6EB940F2E
S315080046503CD804230DE0B6EB141F04D94FF4BA7105
S315080046601D4803F033FC102303E0B6EBD40F1CD827
S3150800467008235E43730803EB4413B3FBF6F3174EA4
S31508004680203BB6EBC30F4FEAC30404D24FF4D071F4
S31508004690114803F01BFCBB68344023F06003BB6081
S315080046A0BB681D43BD60FC61F8BD40F279110A483C
S315080046B003F00CFCDCE70623B4FBF3F3B342ADD2FC
S315080046C04FF4BF71044803F001FCA7E740F28311D9
S315080046D0014803F0FBFBBCE7BB950008F8FF7F0029
S315080046E038B50C4B044698420D4604D04FF4337146
S315080046F0094803F0EBFB012204F580535A60EB43AB
S31508004700934003F00A036361656115B904F5005423
S31508004710626038BD00C00550BB95000810B5124B45
S315080047200446984204D040F24241104803F0CEFBBA
S31508004730012104F58053596040F6AA6341F2050247
S31508004740636100230A48A360E365E26004F500524A
S315080047502361E361E36490640348A365844204BF6C
S3150800476023656365516010BD00C00550BB95000800
S31508004770FFFF010070B5304B044698420D4604D041
S3150800478040F2FD212D4803F0A1FB2046FFF7C6FFA6
S31508004790012304F580567360AB7C1BB1A36843F014
S315080047A08043A360EB7C5BB1234B9C4202BF2A7D0E
S315080047B0A3F51033C3F8D421E36D43F08003E36512
S315080047C02A8A6B7B20461343EA891343E3602B7BD3
S315080047D0D5E90112FFF714FF6B7D1BB1A36843F4FB
S315080047E08033A360AB7D1BB1A36843F40043A36089
S315080047F0EB7D2A7E1B07120502F4E00203F0E04374
S315080048001343A3656B7E9A1E012A4FF0020209D84C
S315080048100B49032BC1F8982709D10423F3652B7894
S31508004820636170BD0749012BC1F89827F4E7042294
S3150800483004F50053DA65F2E700C00550BB95000899
S3150800484000D0035000E00350034B5A68D20702D544
S31508004850DA69002AF9D1704700800A50054B9A6830
S315080048609107FCD45A689207F9D4DA69002AF6D176
S31508004870704700BF00800A5008B5FFF7E5FF02221F
S31508004880014B1A6108BD00BF00800A5008B5FFF742
S31508004890E5FF0122024B03F580514A601A6108BD03
S315080048A000800A5008B5044B5968012903D1FFF75F
S315080048B0E3FF024B596008BD00800A5000A00A5069
S315080048C010B5064CFFF7CAFF6368012B03D1FFF743
S315080048D0E9FFFFF7C3FF0378E36010BD00800A50C5
S315080048E0A8B94A680B78B2B94A7843EA42038A6893
S315080048F012B1127843EA82138A7843EA8203CA68B5
S3150800490012B1127843EA4223054A936470477E211E
S31508004910044803F0DBBA127843EAC203E4E700BFAF
S3150800492000800A501496000810B9044B5964704761
S3150800493040F21111024803F0C9BA00BF00900A50AC
S315080049401496000810B9044B5964704740F24D118B
S31508004950024803F0BBBA00BF00A00A50149600082C
S3150800496010B9044B1964704740F28911024803F0E4
S31508004970ADBA00BF00A00A501496000808B510B9D1
S31508004980044B186C08BD04484FF4E27103F09EFA14
S315080049900020F7E700800A501496000808B520B9E9
S315080049A049B101290AD0002008BD40F27321054803
S315080049B003F08CFAF7E7044BD86CF5E7024B186D51
S315080049C0F2E700BF1496000800800A5018B939B1FA
S315080049D0012908D0704740F21131044803F076BA2D
S315080049E0034BDA647047024B1A6570471496000841
S315080049F000800A5008B510B9044B586D08BD044824
S31508004A004FF46D7103F062FA0020F7E700800A5050
S31508004A101496000870B50D46E8B1036813F4E07FF4
S31508004A2003F03F06C3F3821210D0012A13D10B4CB0
S31508004A309B0603D591210A4803F048FA45B104F5C7
S31508004A40805401230020B340236070BD054CEFE776
S31508004A5004F50054F5E70E20F7E700BF688000501C
S31508004A600D9500086480005030B58BB06C46754DC6
S31508004A700FCD0FC42B68684623604FF07E636C46E3
S31508004A8093F89C30704DFF2B18BF8DF80130FEF758
S31508004A90FFFC3220FEF75EFD0FCD0FC40FCD0FC40D
S31508004AA095E8030084E80300684BD3F84C2111030A
S31508004AB040F1B380A3F5FE431C884FF6FF739C4272
S31508004AC008BF6B248DF81940FEF7DCFC044484F318
S31508004AD008045F488DF81840FDF7AEF96846FEF7FA
S31508004AE0B5FB3220FEF73CFD5A48FEF7E3FD5A4C6B
S31508004AF05A48FEF76DFE01213620FEF7E9F8FEF763
S31508004B00B7FD236F002023F0070343F00303236751
S31508004B10236F23F4744343F48063236703F03DFA59
S31508004B204F4BD3F8FC20D2017BD4D4F88030C4F89C
S31508004B308030494CD4F8203123F0070343F00203B0
S31508004B40C4F82031D4F8283123F0070343F00203D0
S31508004B50C4F82831D4F8803123F0030343F0010365
S31508004B60C4F88031D4F8903223F0030343F00103EC
S31508004B70C4F89032D4F8403123F0030343F002031B
S31508004B80C4F84031D4F8603123F0030343F002033C
S31508004B90C4F86031D4F8403223F0030343F002032B
S31508004BA0C4F84032D4F8003223F0070343F0020376
S31508004BB0C4F80032D4F8083223F0070343F002039E
S31508004BC0C4F80832D4F8503223F0030343F0020342
S31508004BD0C4F85032D4F8703223F0030343F00103CB
S31508004BE0C4F87032D4F8203223F0070343F00103E7
S31508004BF0C4F82032FEF712FB4FF0E02200201369BA
S31508004C0063F004031361D4F8603223F0070343F01A
S31508004C100103C4F860320BB030BDD3F85041E4B29A
S31508004C2050E7D3F8FC2022F08072C3F8FC20D4F8B1
S31508004C308020C4F88020D3F8FC2042F08072C3F8A4
S31508004C40FC2076E7789600088C9600080080E00F2E
S31508004C50C017530200B4C40400800050C0EA210102
S31508004C6000ED00E007B5094B18689A889B79009013
S31508004C706846ADF804208DF80630FEF78FFF092048
S31508004C80FEF7C4FF002003B05DF804FBB4960008E5
S31508004C9070B501F04DFB0446E8B901F027FD01F0B7
S31508004CA017FC4FF4167343430C4A03F5742303F2B7
S31508004CB03F23B3FBF2F30A490A480B600A2302684A
S31508004CC0094D0E68013B45F8046B0E6813F0FF03A7
S31508004CD03244F6D10260204670BD00BF40420F0044
S31508004CE01C190020EC180020F018002008B5012235
S31508004CF0034B1A7003F08BFB024B186008BD00BF0C
S31508004D00351B0020E818002010B501F0E1FB044629
S31508004D1003F0D9F8844207D903F085FB20B10122B4
S31508004D20024B1860024B1A7010BD00BFE81800202D
S31508004D30351B0020F8B5224D2B7813B303F067FB1B
S31508004D40204B214E1B68C01A30603368D3B13368D4
S31508004D50336001F0BDFB4FF4167358431B4C00F546
S31508004D60742000F23F20B0FBF4F43368A34203D961
S31508004D70C721174803F0AAF83368A34204D90023C9
S31508004D802B70F8BD0123E3E71248134C037831680A
S31508004D9054F82320114F511A3A68521A31683A606A
S31508004DA044F823100A210932B2FBF1F20C4C013304
S31508004DB0DBB22260B3FBF1F201FB12330370DEE7CC
S31508004DC0351B0020E81800201819002040420F0063
S31508004DD0DC960008361B0020F0180020EC1800208E
S31508004DE01C190020014B1868704700BF1C190020C9
S31508004DF070B502212D2000F0AFF84FF4801204257B
S31508004E000E4C0F4B0F4E5A6604F500535E672D2065
S31508004E105D671E671D6700F091F82D2000F074F895
S31508004E2004F580535E675D67A36A23F00073A36287
S31508004E30A36A43F48053A36270BD00BF0040005AC2
S31508004E4000900050010000A0064B074A996D11F02A
S31508004E50050F01D0117811B10028F7D1704701204C
S31508004E60704700BF0040005A371B002010B5154B8D
S31508004E701C6F14F004020FD003F500531A670822BA
S31508004E809A62FFF741FF00F083FF00F063FF0120FD
S31508004E9001F0D8FB03F0C9FAE30706D501220A4B4D
S31508004EA01A67FFF747FF00F055FF14F000521CBFC2
S31508004EB0054B1A67002CBEBF4FF00042024B1A671B
S31508004EC010BD00BF0040005A0060005A10B54C28BB
S31508004ED004460DD801220A49630904F01F04A240BA
S31508004EE0203341F82320BFF34F8FBFF36F8F10BDD8
S31508004EF040F20911034802F0E9FF002CF7DBE9E765
S31508004F0000E100E04B97000810B54C28044608D885
S31508004F1001236109074A04F01F04A34042F821301F
S31508004F2010BD4FF48A71044802F0D0FF002CF7DB5D
S31508004F30EEE700BF00E100E04B970008002808DB19
S31508004F4001224309034900F01F008240603341F8FB
S31508004F502320704700E100E038B500F110035C2B10
S31508004F6004460D4604D94FF4E1710D4802F0AEFF30
S31508004F701E2D04D940F2C311094802F0A7FF002CE0
S31508004F80ACBF04F16044074B4FEA0515EDB2ABBF61
S31508004F9004F5614404F00F0484F800531D5538BD28
S31508004FA04B97000814ED00E010B5044602F08FFF99
S31508004FB0024B1C6002F08FFF002010BD2019002054
S31508004FC010B502F084FF034B1C6802F084FF2046EC
S31508004FD010BD00BF2019002010B50020144603F0AC
S31508004FE08CF8022804D018B1C321024802F06EFFDB
S31508004FF0204610BDCC97000838B53022037A0446FF
S31508005000534303F1A04303F58023DD6ED0E9032360
S3150800501013449D4201D8AA4204D94FF44171054868
S3150800502002F054FFD4E9030303449D4218BF2846FF
S3150800503038BD00BF4298000830B587B0144605460B
S315080050401046FFF7D9FF6369024683423CBFD4E99D
S3150800505003315B181B1AABB1124904940391002162
S31508005060CDE90131012300932846D4E9001302F063
S3150800507058FF20B14FF437710B4802F027FF002084
S3150800508007B030BD0122627694F82D20002AF6D0AA
S3150800509084F835301321E369204698472046636A29
S315080050A09847ECE7395000084298000870B504465E
S315080050B00568FFF785FF844202D10020FFF774FFD9
S315080050C095F93600FFF73AFF95F93600FFF7FEFE29
S315080050D095F93700FFF732FF95F93700FFF7F6FE27
S315080050E0287AFDF7FBF920B14FF4F371104802F066
S315080050F0EDFE287AFDF758F920B14FF4F5710C4802
S3150800510002F0E4FEFDF72EF938B10A4B984204D0B6
S315080051104FF4F771064802F0D9FE00232846C4E981
S315080051200033C4E90433A360AB6ABDE8704018478E
S3150800513042980008058000F02DE9F04788B004463B
S315080051400F461646984602F0C9FE8146002E00F024
S31508005150AD80237E03F0FF02002B00F0E08020469E
S31508005160FFF74AFF63698246984206D1637E23B9F0
S3150800517040F28B316B4802F0A9FE6569AA459DBFCE
S31508005180D4E903329B185D1BAAEB0505B54228BF77
S31508005190354602F0A3FE94F82D308246002B40F0E7
S315080051A096802A463846616903F035FA63692E46C1
S315080051B02B4463612CE06069037803F0FD01112933
S315080051C040F08280216B884205D1A3F111014B4240
S315080051D04B4184F83430013E6369216B01328B42BE
S315080051E003F1010308BF236363619542E3D1D4E960
S315080051F00323216B1344994208BF2263216B8A4219
S3150800520001D88B4204D84FF47071464802F05EFE0E
S31508005210D4E9032361691344994208BF626161694D
S315080052208A4201D88B4204D84FF474713D4802F083
S315080052304DFE0023207A6376FDF710F920B140F27F
S315080052401D31384802F042FE2046FFF7D5FE636955
S3150800525083423FD10023E568237694F82D306561B3
S3150800526003B125632046636A98472F4B049403933A
S315080052700023029323692A46019301230093636856
S315080052802168207A02F04DFE20B140F239312548D6
S3150800529002F01CFE207AFDF701F920B140F25D31DB
S315080052A0204802F013FE504602F01EFE4846C8F893
S315080052B0006002F019FED8F80030002B0CBF1B2046
S315080052C0002008B0BDE8F08707F8013B84E72E46C2
S315080052D000228AE70123207A23760DF11E01FDF7C5
S315080052E045F920B14FF453710E4802F0EFFD9DF8D1
S315080052F01E30207A002BCDD00DF11F01FDF70EF9D7
S3150800530020B140F25231074802F0E0FD9DF81F1027
S31508005310207A0029BED12246FFF78EFEBAE7164646
S31508005320C4E700BF42980008395000082DE9F84341
S31508005330044616460D4690F82C8002F0CFFD94F8E8
S31508005340382003469AB102F0CFFD94F83B9002F05C
S31508005350BEFD07460121484600F0FAFA384602F033
S31508005360BAFD02F0BBFD0022034684F83820184631
S3150800537002F0BAFDDFF8B4902E44B54204D10121FB
S315080053802046236A984728E094F82D3083B102F026
S31508005390A5FD237E07461BBB226B63699A4204D090
S315080053A040F20521484602F091FD384602F09CFD80
S315080053B094F83430002BE0D0B8F1000F06D02B78E3
S315080053C00A2B03D10D212046E36998472046E36955
S315080053D015F8011B98470028CFD00020BDE8F883B0
S315080053E02046FFF709FEE1680138884238BF206980
S315080053F0D4F830C03CBF00F1FF30401803469C4546
S315080054000BD013F80129112A01D0132A07D1A2F1CA
S3150800541011035A425A4184F834202063C5E7994259
S3150800542082BF236903F1FF335B18E8E74298000857
S315080054302DE9F04186B00C46154606464022002165
S3150800544020461F4603F0CDF895E8030000232A6995
S315080054502376EB6884E80300C4E904232A7DE36025
S3150800546084F82C20AA7D2363012384F8343084F839
S3150800547035300C9B84F82D2023620D9BE76163620F
S315080054800E9BA3622B7A84F836306B7A84F8373011
S315080054902D4B346073602D4BB3602D4B33612D4B10
S315080054A073612D4BF360FCF7A5FF38B12B4B98427F
S315080054B004D01024204606B0BDE8F081002104F18E
S315080054C00800FCF71FFF07460028F2D14FF0010835
S315080054D0234B3362234B84F83C80B361224BF36140
S315080054E09DF8403084F8390084F83B309DF83C300C
S315080054F0204684F83A30697D84F8388002F05CFEEC
S3150800550095F90900FFF71AFD95F90900FFF7FCFC64
