:020000040800F2
:100000000010002065040008C53F0008C53F000837
:10001000C53F0008C53F0008C53F0008C53F0008B0
:10002000C53F0008C53F0008C53F0008C53F0008A0
:10003000C53F0008C53F0008C53F0008C53F000890
:10004000C53F0008C53F0008C53F0008C53F000880
:10005000C53F0008C53F0008C53F0008C53F000870
:10006000C53F00081D040008153F0008C53F0008F3
:10007000C53F0008C53F0008C53F0008C53F000850
:10008000C53F0008C53F0008C53F0008C53F000840
:10009000C53F0008C53F0008E90C0008C53F00083F
:1000A000C53F0008C53F0008C53F0008C53F000820
:1000B000C53F0008C53F0008C53F0008C53F000810
:1000C000C53F0008C53F0008C53F0008C53F000800
:1000D000C53F0008C53F0008C53F0008C53F0008F0
:1000E000C53F0008C53F0008C53F0008C53F0008E0
:1000F000C53F0008C53F0008C53F0008C53F0008D0
:10010000C53F0008C53F0008C53F0008C53F0008BF
:10011000C53F0008C53F0008C53F0008C53F0008AF
:10012000C53F0008C53F0008C53F0008C53F00089F
:10013000C53F0008C53F0008C53F0008C53F00088F
:10014000C53F0008C53F0008C53F0008C53F00087F
:10015000C53F0008C53F0008C53F0008C53F00086F
:10016000C53F0008C53F0008C53F0008C53F00085F
:10017000013800D0FCE770470348044B834202D0AB
:10018000034B03B1184770470814002008140020DF
:1001900000000000064B0749C91A891048BF013109
:1001A000491003D0044B0BB101481847704700BFFA
:1001B00008140020081400200000000010B5064CB0
:1001C000237843B9FFF7D8FF044B13B10448AFF3CA
:1001D00000800123237010BD4C130020000000009C
:1001E0008C4E000808B5054B1BB105490548AFF317
:1001F0000080BDE80840FFF7CDBF00BF0000000051
:10020000001000208C4E0008A3F5803A704700BF14
:10021000174B002B08BF134B9D46FFF7F5FF00213E
:100220008B460F461348144A121A04F02DF90E4B50
:10023000002B00D098470D4B002B00D09847002092
:10024000002104000D000D48002802D00C48AFF337
:10025000008003F013FB2000290003F03AFE03F0B6
:1002600049F900BF00000800000000000000000085
:100270000010002000100020741300200000000077
:100280000000000010B5064C2368DB0754BF05488A
:10029000054803F08BFA23680133236010BD00BFCB
:1002A00018100020B8480008BB48000810B54FF4EB
:1002B00080301D491D4A4B6E5066486E4FF000411C
:1002C0004AF6CD3451661A4903F480334A6C0C6403
:1002D00002F001024C6BE407FCD4012415494C6088
:1002E000A1F500510C6BE407FCD50AB1124A0A646F
:1002F0000028A2BF4FF00041104A51661BB94FF4CD
:1003000080320E4B5A6603F072FF00F097F803F04C
:100310006CFF02F0D5FC03F0FBFE02F0E7FCBDE849
:10032000104000F081B800BF0080005000900050E5
:1003300000400950006009503254FFFF00A00050F7
:1003400008B5044803F0EBFEBDE80840024800F0A1
:1003500013BA00BF8C4C00087413002030B595B060
:10036000204D0DAC0FCD0FC495E80700292384E87C
:100370000700092500210A241B4A0DF12600CDE9BA
:1003800002230E22CDE9041106918DF813408DF859
:10039000115004F079F84FF48021144B1448CDE942
:1003A0000713144B0DAA0A9320230B9301238DF8F6
:1003B0003130114B07A9009302AB8DF825408DF821
:1003C000245002F0A1FF044618B188210B4803F025
:1003D0000DFE00214FF4E13003F0E5FD204615B09D
:1003E00030BD00BFEC48000800C0055024C00550D7
:1003F000681000204D1300201C100020BE4800088B
:1004000008B5FFF7ABFF28B1BDE80840B8210248A6
:1004100003F0ECBD08BD00BFBE480008014803F072
:1004200082BF00BF6810002008B5034803F077FEC4
:10043000BDE8084003F057BD8C4C0008014803F0AC
:100440006EBE00BF8C4C00080348044A0449121ACF
:10045000921003F0B8BD00BF7001000870010008E1
:100460007413002008B500F02FF8FFF7EDFF124BD2
:1004700012498B4212D30020114B12498B4218D3E0
:10048000FFF7C6FE186850F82240586840F822402E
:10049000013298688242F5D30C33EAE70022F8E78C
:1004A0001C6844F8220001325C68A242F8D3083389
:1004B000E4E70022F8E700BF944E0008A04E0008D1
:1004C000A04E0008A04E000870B54FF48041124BBA
:1004D000124A134D9A60D3F8882005F5005442F46F
:1004E0007002C3F888200F4A91664FF0FF322266EF
:1004F0000D4A62660222C3F8D020BFF34F8FBFF3CC
:100500006F8F4FF44036002002F03AFC0020E66086
:1005100002F01CFC2E6170BD00ED00E00000000840
:1005200000800044009000507FFF7F01014B18685D
:10053000704700BF8C130020014B1860704700BF4C
:100540008C130020084B1B6F03F00703022B04D011
:10055000032B05D0012B05D0FEE7044B186870472C
:10056000034BFBE703487047008000508C130020CA
:1005700094130020002D310108B5FFF7E3FF054B70
:100580001B6FC3F303330133B0FBF3F0024B18606E
:1005900008BD00BF0080005088130020004870474D
:1005A00000B4C404014B1868704700BF94130020C6
:1005B000054B1860054B1B6F03F00703032B01D19C
:1005C000FFF7DABF704700BF94130020008000508F
:1005D00000487047002D31014FF0B4439868C0F3D4
:1005E00004400C280AD8DFE800F00B0909090909C2
:1005F000072119091B1D1F000F4870470020704775
:100600009B6803F04073B3F1807F11D0B3F1007F9A
:1006100010D00A4A002B08BF1046704708487047A0
:1006200008487047084870470848704708487047AE
:100630000848704708487047405DC60000093D0003
:10064000C0EA210180BA8C010048E801005A620228
:100650000024F40080841E0040420F00014B186803
:10066000704700BF9013002013B50024294801945F
:1006700003F055FD012304220321204601F076FEFC
:10068000204603F03FFD0122234B0520C3F84424FC
:1006900001A903F03FFD002839D1204BD3F8F02009
:1006A00042F00102C3F8F020D3F8FC2042F080723F
:1006B000C3F8FC201A4AA3F55D431A60019B194A4E
:1006C00003F5D52303F2FC43B3FBF2F3164A013BD7
:1006D00013610223C2F8F0304FF48073C2F8043380
:1006E0004FF06043114AC3F8B02F114AC3F8802E6F
:1006F000D3F8002E42F48072C3F8002EFF2283F854
:100700002020D3F8002E22F48072C3F8002E02B00D
:1007100010BD00BF8C4C000800D0035000ED00E07D
:10072000FF030040F8590D00000004E055CEACC5B1
:100730000900010030B54FF06043D3F8802ED20796
:1007400015D501240B4D8440D5F8FC2042F0807271
:10075000C5F8FC20D3F8002E2243C3F8002E53F82E
:100760002020002AF0D003F82010002030BD1120F6
:10077000FCE700BF00ED00E02DE9F04F85B0044636
:1007800018B9AD21464803F031FC2368B3F1B64FE8
:1007900007D0444A93427BD1434803F0C0FC012573
:1007A00003E0424803F0BBFC002501230A22A179A3
:1007B000207901F0DBFD01230A22E179607901F063
:1007C000D5FD4FF00A08DFF8F090DFF8F0A0384FC1
:1007D000267994F806B0032E05D83AF8163023FA95
:1007E0000BF3DA0704D440F2FE31484603F0FEFB77
:1007F0003022012302FB067603FA0BF306F50156BD
:100800003360642002F04AFE267994F806B0032E85
:1008100006D8284B33F8163023FA0BF3DB0704D441
:1008200040F22D41484603F0E1FB3022012302FB58
:10083000067603FA0BF306F582566420336002F065
:100840002DFEB8F10108C3D1032307EB0512C2F84E
:100850003835A1792379543543EA0143C2F83C3550
:10086000E27963792D0143EA02437B5140F201139F
:10087000ADF80030E36869460293A36820680193ED
:10088000237C8DF80C3001F05BFE05B0BDE8F08FE5
:10089000D221034805B0BDE8F04F03F0A7BB00BF6D
:1008A0000849000800800650844C0008884C000865
:1008B00000C00350C24900086A490008C249000844
:1008C0002DE9F04F85B09A46554B06461B780F46EA
:1008D0001546DDF83C909DF844B0DDF85080002BC3
:1008E00000F09780072A00F296800E9B002B00F004
:1008F0009280B9F1000F00F08E80129BB3F5006F6B
:1009000000F38980012803D1109B002B00F0838025
:10091000444B03EB05131B7B002B7ED0424C102273
:100920000021684603F0B0FD04EB45141022A7BB7C
:100930003946204603F0A8FD43F210036380BBF163
:10094000000F03D1E37843F00303E370364A0E9BB4
:1009500002EB451CCCE90193129B6901581E9DF8DE
:100960004C30C0F30A0003F003039B0643EA001E69
:1009700053582E48012E00EA03004EEA0003CDF83A
:1009800000A0535017D0B8F1000F2ED19CF80230C0
:1009900068F304138CF8023027E00021204603F0AE
:1009A00073FD4FF444736380BBF1000FCED1E37845
:1009B00043F03003C9E713230CF1100ECCF80C30D0
:1009C0009CE80F008EE80F006FF00301DCF81C209C
:1009D000109B61F39F02012FCCF81C20CCF814303F
:1009E00003D1CCF81890CCF8043000270D4A290127
:1009F00002EB051342F80180159A28465A606946B1
:100A000022469F605E7301F04BFE384605B0BDE89C
:100A1000F08F0748FAE70748F8E70748F6E700BF0E
:100A20006D13002080110020801000200F80FFF344
:100A3000028000F0018000F0078000F038B5124B12
:100A400005461B78DBB1E0B103F0D8FA0F4A00236A
:100A50001146147B54B92B6001251A0101EB0313D5
:100A60001D738C5003F0D0FA204638BD0133082B9B
:100A700002F11002EDD103F0C7FA0548F5E7054889
:100A8000F3E70548F1E700BF6D1300208011002057
:100A9000048000F0028000F0018000F038B503F01F
:100AA000ADFA002305460B4A147B6CB90133082BC1
:100AB00002F11002F8D101F075FD074B28461C70B9
:100AC00003F0A2FA204603E0284603F09DFA03480B
:100AD00038BD00BF801100206D130020058000F09C
:100AE00010B50D4B04461B7893B1072812D803F0BC
:100AF00085FA0A4B03EB04131A7B2AB100241C73FA
:100B000003F082FA204610BD03F07EFA0448FAE7AB
:100B10000448F8E70448F6E76D1300208011002030
:100B2000068000F0028000F0018000F013B5154B44
:100B30001868002301908DF8043003F05FFA124B1F
:100B40001C7824B103F060FA104802B010BD0122F5
:100B50001A7003F059FA0E4B01A81C731C7783F826
:100B60002C4083F83C4083F84C4083F85C4083F889
:100B70006C4083F87C4008238DF8073001F048FD75
:100B80002046E2E7CA4900086D130020038000F008
:100B90008011002008B50A4A12785AB107280BD8EC
:100BA000084A02EB00131B7B43B1002101F010FD4A
:100BB000002008BD0448FCE70448FAE70448F8E7C9
:100BC0006D13002080110020028000F0018000F0F1
:100BD000078000F008B50A4A12785AB107280BD8E6
:100BE000084A02EB00131B7B43B1012101F0F0FC2A
:100BF000002008BD0448FCE70448FAE70448F8E789
:100C00006D13002080110020028000F0018000F0B0
:100C1000078000F008B50A4A127852B107280AD8AE
:100C2000084A02EB00131B7B3BB101F0BFFD002023
:100C300008BD0548FCE70548FAE70548F8E700BFA6
:100C40006D13002080110020028000F0018000F070
:100C5000078000F00D4B1B7893B1072812D889B19B
:100C60000B4B03EB00131B7B73B10A4B1A6D012373
:100C70008340134214BF0123002300200B707047F0
:100C80000548704705487047054870476D130020B8
:100C90008011002000000450028000F0018000F06C
:100CA000078000F010B50B4A0C46127862B1072895
:100CB0000CD859B1084A02EB00131B7B43B101F079
:100CC00091FD2070002010BD0448FCE70448FAE7BD
:100CD0000448F8E76D13002080110020028000F026
:100CE000018000F0078000F02DE9F041174B1F6DE7
:100CF0005B6D1F4000D5FEE701260025144CDFF890
:100D00005880374218D02368C8F85060A3B1A16852
:100D1000284601316268A1609847637B012B0BD1A3
:100D200050B90C4B03EB45131A7B60F341021A7365
:100D30001A7F60F341021A770135082D4FEA460603
:100D400004F11004DDD1BDE8F08100BF00000450C3
:100D5000801100208010002000200450044BD3F8A4
:100D60008420D206FBD4D3F88400C0F381107047EE
:100D70000040005008B5334B98424FD027D8324B33
:100D8000984245D017D8314B98423ED00AD838B156
:100D90002F4B984239D041F2A6312E4803F026F964
:100DA000002034E02C4B98422FD02C4B9842F2D1AB
:100DB0002B4B586E2BE02B4B98422CD003F537135E
:100DC00003F5D8639842E6D1254B986F1FE0264B78
:100DD00098422FD00CD8254B984223D0244B9842D0
:100DE00024D0244B9842D6D11D4BD3F884000EE07A
:100DF000214B984222D003F5740303F51053984217
:100E0000C9D1174BD3F8980001E0154B986D08BD78
:100E1000134B186FFBE7124B586FF8E7104BD3F8E2
:100E20008000F4E70E4BD3F88800F0E70C4BD3F8C2
:100E30008C00ECE70A4BD3F89000E8E7084BD3F8B6
:100E40009400E4E780BA8C01405DC60080841E00F7
:100E500040420F00CE49000800093D00C0CF6A00A3
:100E60000080E00F0024F400007E560380D543028A
:100E7000006CDC020048E8010090D00338B51A4B42
:100E80000546D3F820010C4600F00700062821D8BB
:100E9000DFE800F028040C1410181C00FFF746FBD4
:100EA000052305B1286004B1236038BDFFF77AFB44
:100EB0000323F6E7FFF790FB0723F2E7FFF788FB32
:100EC0000223EEE7FFF732FB0623EAE7FFF76AFBB0
:100ED0000423E6E7054841F27C2103F087F800236C
:100EE0001846DEE70123DCE700800050CE49000809
:100EF00038B5194B0546D3F828310C4603F00703E3
:100F0000013B052B20D8DFE803F003131B0F0B1761
:100F1000FFF70CFB052305B1286004B1236038BD41
:100F2000FFF704FB0623F6E7FFF756FB0723F2E77C
:100F3000FFF738FB0323EEE7FFF734FB0423EAE770
:100F4000FFF746FB0223E6E7044841F2840103F081
:100F50004DF800231846DEE700800050CE49000817
:100F6000F7B50027144B0197D3F88041064604F0EB
:100F70000304022C0D4614D0032C0DD0012C14D1E7
:100F8000394601A8FFF77AFF0F240EB1019B3360A9
:100F900005B12C6003B0F0BDFFF71EFB07240190E4
:100FA000F3E7FFF715FB0190EFE741F2D13103487A
:100FB00003F01CF83C46E8E700800050CE490008EA
:100FC00038B50F4B0546D3F890320C4603F00303B7
:100FD000012B09D0022B0BD1FFF7FEFA072305B135
:100FE000286004B1236038BDFFF7F2FA0223F6E768
:100FF000044841F2701102F0F9FF00231846EEE7B1
:1010000000800050CE49000837B500230193194BEA
:101010000546D3F820320C4603F00703042B1FD8F3
:10102000DFE803F025030F141900002101A8FFF7E2
:101030005FFF11230DB1019A2A6004B1236003B050
:1010400030BDFFF7C9FA07230190F3E702F0C8FFAC
:101050000A230190EEE7FFF701FB09230190E9E77E
:1010600041F24301044802F0C1FF0023E2E70123FB
:10107000E0E700BF00800050CE49000838B5104BB3
:101080000546D3F840310C4603F00303022B0BD086
:10109000032B0DD0012B0FD102F0A2FF0A2305B1C3
:1010A000286004B1236038BDFFF7D8FA0923F6E7BA
:1010B00002F099FF0B23F2E701230020EFE700BFC6
:1010C0000080005037B500230193184B0546D3F834
:1010D00060320C4603F00703013B032B1FD8DFE807
:1010E00003F0020E1914002101A8FFF7C7FE0F2319
:1010F0000DB1019A2A6004B1236003B030BD002114
:1011000001A8FFF7BBFF1023F2E7FFF765FA0723FB
:101110000190EDE7FFF75CFA02230190E8E741F266
:10112000E801034802F062FF0023E1E7008000507D
:10113000CE49000873B500240F4B0194D3F87032E8
:10114000064603F00303012B0D4607D0022B11D0F6
:1011500041F24611094802F049FF04E0214601A886
:10116000FFF78CFF10240EB1019B336005B12C609A
:1011700002B070BD1424F6E700800050CE4900088C
:1011800038B5164B0546D3F800020C4600F00700B0
:10119000042819D8DFE800F020030B0F130002F039
:1011A0001FFF0A2305B1286004B1236038BDFFF793
:1011B00055FA0923F6E702F016FF0B23F2E7FFF7D3
:1011C000DBF90E23800AEDE7054841F28F4102F07A
:1011D0000DFF00231846E5E70123E3E700800050F8
:1011E000CE49000838B5164B0546D3F808020C4620
:1011F00000F00700042819D8DFE800F020030B0FE7
:10120000130002F0EDFE0A2305B1286004B123604B
:1012100038BDFFF723FA0923F6E702F0E4FE0B23BB
:10122000F2E7FFF7A9F90E23800AEDE7054841F23E
:10123000C74102F0DBFE00231846E5E70123E3E7A0
:1012400000800050CE49000838B5104B0546D3F851
:1012500040320C4603F00303022B0BD0032B0DD0BE
:10126000012B0FD102F0BCFE0A2305B1286004B1A6
:10127000236038BDFFF7F2F90923F6E702F0B3FE69
:101280000B23F2E701230020EFE700BF00800050AE
:1012900038B5124B0546D3F850320C4603F0030321
:1012A000022B0FD0032B05D0012B0FD102F098FE9B
:1012B0000A2302E002F097FE0B2305B1286004B177
:1012C000236038BDFFF7CAF90923F6E7044841F265
:1012D000B40102F08BFE00231846EEE700800050B8
:1012E000CE49000838B5104B0546D3F860310C469E
:1012F00003F00303022B0BD0032B0DD0012B0FD1D6
:1013000002F06EFE0A2305B1286004B1236038BDE7
:10131000FFF7A4F90923F6E702F065FE0B23F2E7D5
:1013200001230020EFE700BF0080005010B5B0F5AA
:10133000207F34D009D8B0F5007F2AD003D898B1E7
:10134000B0F5C07F10D0002421E0B0F5607FFAD165
:10135000154BD3F88030C3F301149B0617D5032C2B
:1013600015D040F296210FE00F4B1C6F230B13F0AA
:101370000E0FC4F303340AD0072C08D00F2C06D06C
:10138000032C04D040F28621084802F02FFE601C96
:1013900010BD054BD3F89040C4F30464F7E7024B4B
:1013A0001C6FC4F38024F2E700800050CE4900088F
:1013B00038B54FF48032104B04469A6600200D4633
:1013C000FFF7B4FF41F671320C4B6043DC69DA631E
:1013D0005A6804F4803422F440125DB90849884206
:1013E00094BF00200120000502435A600CB1002286
:1013F000DA6338BD0349F2E7009000500000035063
:10140000005A6202002D310138B5430904460D46E9
:101410000ED140F233310D4802F0E8FD002304F014
:101420001F0485B103F580530122A2401A6038BD24
:10143000012B04D0022B04D040F24131EBE7044BE6
:10144000EDE7044BEBE703F50053EDE7CE49000869
:10145000648000506880005030B585B00021B0F540
:10146000807F0446019100F000816BD8002800F0D5
:10147000DA80A0F12004602C74D8602C72D8DFE8E8
:1014800014F0D200D500D200D500EA00EA00EA004C
:10149000EA00EA00D500EF007D0005019D007D0017
:1014A000D500D500D5007100710071007100710088
:1014B000710071000501D500D500D5001D010A019C
:1014C000D500710071007100710071007100710030
:1014D000710071007100710071000F01EA00D2000B
:1014E000D200D200B0007D007D00B800140192004F
:1014F000C700C700710071007100710071007100B8
:101500007100710071007100710071007100710053
:101510007100710071007100710071007100710043
:101520007100710071007100710071007100710033
:101530007100710071007100710071007100710023
:101540007100CC00B0F5E06F00F0A5803BD8B0F59D
:10155000607F76D01DD8B0F5007F72D008D8B0F586
:10156000C07F60D04FF49361574802F03FFD57E0D1
:10157000B0F5207F5AD0B0F5407FF3D1FEF7FCFFE5
:1015800004464FF42070FFF7D1FEB4FBF0F464087A
:1015900055E0B0F5B06F63D00AD8B0F5806F5AD07F
:1015A000B0F5A06FDED1002101A8FFF72DFD37E0D7
:1015B000B0F5C06F6AD0B0F5D06FD3D1002101A8CB
:1015C000FFF7DEFD2CE0B0F5286F6ED016D8B0F531
:1015D000186F65D00AD8B0F5F06F6FD0B0F5106F06
:1015E000C0D1002101A8FFF7FDFD19E0B0F5206F83
:1015F000B8D1002101A8FFF765FD11E0B0F5306F0B
:1016000058D0AFD3B0F5386F40D0B0F5406FA9D106
:10161000002101A8FFF76CFC02E0FEF793FF0190A8
:10162000019805B030BDFEF7A7FFF8E7FEF7A4FF6D
:1016300004464FF42070FFF779FEB4FBF0F40194F8
:10164000EEE7FEF77FFF05462046FFF76FFEB5FB8E
:10165000F0F50195E4E7002101A8FFF70FFCDFE7B3
:10166000002101A8FFF77CFCDAE74FF0E0230291AC
:101670001B695B0705D5FEF77FFF0290029B019374
:10168000CEE703A902A8FFF7F9FCF7E7002101A8BC
:10169000FFF7F4FCC4E7002101A8FFF7D5FDBFE781
:1016A000002101A8FFF7F4FDBAE7002101A8FFF728
:1016B00041FDB5E701A8FFF783FCB1E7002101A8D0
:1016C000FFF710FEACE700BFCE49000808B5802048
:1016D000FFF7C2FE034B98429EBF4FF48032024B8D
:1016E0001A6708BD005A620200A000501FB50346E9
:1016F0000020B3F5807F019000F0D78077D8582B79
:1017000068D8382B05D8243B092B49D940F27D51A4
:10171000BFE0393B1F2BF9D801A252F823F000BFDC
:10172000CD1800080D1700080D1700080D17000848
:10173000D71800081D1900080D1700080D1700081C
:101740000D1700080D1700080D1700080D170008E9
:101750000D1700080D1700080D1700080D170008D9
:101760000D1700080D1700080D17000827190008AD
:10177000151800080D1700080D1700080D170008B0
:10178000591800080D1700080D1700083119000836
:101790003B190008131900087B1800087B18000883
:1017A000092BB3D801A252F823F000BF1518000886
:1017B0001518000815180008151800081518000855
:1017C0000D1700089B1800080D170008CD18000819
:1017D00033180008802B99D15C4B1B6F03F0070373
:1017E000013B032B53D8DFE803F0504D8890B3F54D
:1017F000086F75D022D8B3F5C06F67D00FD8B3F596
:10180000A06F00F08680B3F5B06F46D0B3F5806F5F
:101810007FF47CAF002001A9FFF730FB41E0B3F576
:10182000E06F7BD0B3F5F06F55D0B3F5D06F7FF498
:101830006DAF002001A9FFF7A3FC32E0B3F5286FDC
:101840007BD00ED8B3F5186F6DD0B3F5206F6FD085
:10185000B3F5106F7FF45AAF002001A9FFF7C2FC67
:101860001FE0B3F5306F6DD0FFF450AFB3F5386FB4
:101870002CD0B3F5406F7FF449AF002001A9FFF7EA
:1018800037FB0EE0052301930BE00223FBE740F258
:10189000CA412F4802F0AAFB03E0002001A9FFF78C
:1018A0005FFB019805B05DF804FB4FF0E023029068
:1018B0001B695B0705D5FEF75FFE0C230393039BB3
:1018C000E1E703A902A8FFF7D9FBF8E7002001A987
:1018D000FFF7D4FBE5E7002001A9FFF703FDE0E7F0
:1018E0001A4BD3F8003103F00303022B07D0032B6C
:1018F00009D0012B0BD1FEF755FE0323C3E7FEF7FA
:10190000ADFE0923BFE702F069FB0823BBE7012313
:10191000B9E7002001A9FFF777FBC2E7002001A982
:10192000FFF792FCBDE7002001A9FFF7B1FCB8E783
:10193000002001A9FFF7C6FBB3E7002001A9FFF7CC
:10194000F9FBAEE701A9FFF73BFBAAE700800050D7
:10195000CE4900084FF48032074B0849586E03F512
:1019600080535A664B6A23F001034B62C3035CBF8A
:10197000034B5A66704700BF0080005000C00750FC
:1019800000A00050F8B5036804460F2B04D940F6B8
:101990007731804802F02AFB63680F2B04D940F6A8
:1019A0007A317C4802F022FBA3680F2B04D940F661
:1019B0007D31784802F01AFB237B0F2B04D94FF4BA
:1019C0003861744802F012FB637B0F2B04D940F698
:1019D0008331704802F00AFBA37B3F2B04D940F609
:1019E00086316C4802F002FBE37B3F2B04D940F6C2
:1019F0008931684802F0FAFA2369032B04D940F6CA
:101A00008C31644802F0F2FA6369032B04D940F682
:101A10008F31604802F0EAFAE369032B04D940F6FB
:101A200092315C4802F0E2FA8020FFF75FFE032863
:101A300000F08A804FF48012574B584D5A6645F695
:101A40000E034FF0A062C5F88030554B9A624FF4F8
:101A5000803203F580539A62AB6DDA03FCD4AE6D2D
:101A600016F08046FBD1D4E900231B0543EA02634C
:101A7000E27B4C481343227B4B4F43EA0243627B99
:101A800043EA0233A27B43EA82132B61AA69D4E9B9
:101A900004131B0643EA816302F000421343A27E53
:101AA0004FF440611343227E43EA0243627E43EADD
:101AB0000223AB614FF4006202F0DAFA2B6AE17E96
:101AC000E26923F00F0343EA8103002A3DD12B6230
:101AD00094F8243094F82010AA6ADB0043EA4113FA
:101AE0003A40134394F82120304943EA021343F467
:101AF00080332A4AAB62936D31EA0303FBD14FF086
:101B00008071274881621369A56823F4700343EA52
:101B1000055313614FF00043836194F822300BB9F1
:101B2000234B996294F823303BB94FF48032204B19
:101B30009A621A4A936D5B00FCD494F825301BB16D
:101B4000164B1C4AC3F88020F8BD134343F008032A
:101B5000022A2B6208D12E614FF408524FF47F41C4
:101B60001548AE6102F084FA0C4994F822308A6A72
:101B700094F820001B063A4043EA4013134394F8BC
:101B8000242043EAC20394F8232043EA02438B62F1
:101B9000D3E700BFCE490008009000500040005A33
:101BA0000050005A3840005AC7FFFEFE03000100F3
:101BB0000060005AF1A7FFFF3440005A014B93F92F
:101BC00000007047FC13002010B543680446072B43
:101BD00004D940F6D3512A4802F008FAA368032B2F
:101BE00004D940F6D551264802F000FA2378032B99
:101BF00004D940F6D751224802F0F8F994F901309F
:101C0000002B04DA40F6D9511D4802F0EFF94FF4E9
:101C100000011C4A637851664FF4D151022002F54D
:101C2000B832516218494F2B48604FF0010028BF6D
:101C30004F2301F5805148601169C903FCD4217814
:101C400043EA01235361D4E901131B0143EA012351
:101C5000617B0B43217B43EA41039360E37BA17BE0
:101C60001B0143EA4113617C0B43217C43EA41039E
:101C70005360A37C13B16FF4D153536210BD00BF06
:101C8000CE4900080090005000100250014B18800F
:101C9000704700BFFA130020014B1880704700BF47
:101CA000F813002010B5B0F5207F65D00ED8B0F540
:101CB000007F4FD003D800B3B0F5C07F1DD040F2F5
:101CC0001631BDE81040344802F090B9B0F5607F9D
:101CD000F5D14C1E012C06D9042904D040F2F7217D
:101CE0002D4802F083F92D4AD2F8803023F03003DA
:101CF00043EA0413C2F8803010BD4C1E012C0AD9EF
:101D0000102903D8264BCB40DB0704D440F2C9216D
:101D1000214802F06BF902F0BAF902F0C6F94FF46B
:101D20008031204B1D4A1967136F23F4704343EA37
:101D300004331367FEF720FC0446FFF70FF8C0F1E9
:101D40000201204602F0ABF900F03EF8BDE8104079
:101D5000FFF7BCBC4C1E1F2C04D940F20A310E48C0
:101D600002F044F90D4AD2F8903023F0F85343EAD8
:101D70000463C2F89030BFE74C1E012C04D94FF425
:101D80004471054802F032F9044A136F23F480636A
:101D900043EA84231367AFE7CE4900080080005070
:101DA000100101000090005008B50121022000F050
:101DB00071F902F06CF902F078F94FF48032014BBE
:101DC0001A6708BD0090005008B54FF4C070FFF7C7
:101DD00043FBBDE808400449884294BF0121022129
:101DE0004FF42070FFF75EBF80F0FA022DE9F0415A
:101DF0000546FEF7BFFF431E0333044604D940F6F1
:101E0000CF113B4802F0F2F84FF4C022394B5A662A
:101E100003F598335A68012A04D137494A605A6851
:101E20009207FCD48020FFF761FC052807D102F05F
:101E30002EF902F03AF94FF480322E4B1A672F4BED
:101E400024F040749D4239D02D4B9D4239D0FEF78D
:101E50006DFB8542064603D90121284600F06EF944
:101E6000284FFB6813F0060FFBD1D7F80880BC6041
:101E7000BB68634013F4F81F26D12846FEF75CFBCD
:101E80008020FFF733FC052814D1FEF775FBA8422C
:101E9000044604D940F62821154802F0A7F8FEF7B9
:101EA0005DFFC0F10201204602F0F9F8FFF78CFF58
:101EB000FFF70CFCAE4213D2BDE8F08144F0007491
:101EC000C5E744F08074C2E740F61721084802F0E5
:101ED0008DF88020C7F80880FFF708FC052805D09A
:101EE000BDE8F0410121002000F028B93546CCE7DB
:101EF000CE4900080090005000E0015040420F0021
:101F000080841E000000015070B54E4B054698427B
:101F100073D041D8A3F5B703A3F55863984265D0B1
:101F200033D8494B494E984251D017D8002877D022
:101F300041F2C911464802F059F840F6737144481D
:101F400002F054F84FF40022404B5A663E4B9D423B
:101F500076D000243F4A954236D05DE03D4B984212
:101F600027D03D4B9842E3D13C4BD3F8A040621EB2
:101F7000033224F040744CD940F67371344802F0B7
:101F800035F84FF400237366E4E7354B9842CFD120
:101F9000324BD3F8BC402CE0324B984231D0324B1C
:101FA000984232D0314B9842C2D12C4BD3F8C84022
:101FB0001FE02A4BD3F8A040621E033224F0407485
:101FC000DAD84FF40023736644F0807424E0234B86
:101FD000D3F8A040621E033224F040742AD84FF494
:101FE00000237366234643F0007415E01B4BD3F8BF
:101FF000B840621E154E0332BBE7184BD3F8C04001
:10200000F7E7164BD3F8CC40F3E7144BD3F8D040A6
:10201000EFE74FF4002373664FF0B442946070BD55
:1020200040F673710A4801F0E1FF4FF400232C469B
:102030007366F1E740F67371054801F0D7FFCEE70C
:102040000023D0E7C0EA210140420F000090005079
:10205000CE49000880841E0000093D000080E00F8A
:102060000024F4000048E801005A620280BA8C01A2
:10207000024A536B0342FCD1704700BF0040095035
:10208000034A0179D36E23F030030B43D3667047C4
:1020900000400050F8B50446244BD3F88420D00605
:1020A000FBD4D3F88430C3F381139C423CD0FEF7B9
:1020B00049FA012C05460BD11D4B984204D940F238
:1020C000B7711C4801F092FF0121284601F0E7FF9B
:1020D00001F08DFF4FF00072174B07465A662046FD
:1020E00001F0FFFF4FF48063104E621E9340336790
:1020F000736E9A0103D4D6F884309B060AD538460D
:1021000001F079FF022C0FD12846BDE8F8400021EC
:1021100001F0C5BFD6F884309906E9D540F2C57103
:10212000044801F063FFE3E7F8BD00BF0040005042
:10213000005A6202254A00080060005010B50C46A3
:1021400008B9FEF7FFF9074B21461B783BB1064B58
:10215000984204D80120BDE81040FFF79BBF022041
:10216000F9E700BF6E130020005A620238B54FF045
:102170000042244B244C5A664AF6CD33656C014626
:1021800005F00105236428BB0120FFF771FF636898
:10219000DB0715D51D4B586008461D4B226BD20737
:1021A0000CD4984208D1072415B1174B194A1A6468
:1021B00001F098FF204638BD0130EFE79842F2D099
:1021C0000024F1E70132236B13F0080305D08A42A3
:1021D000F8D1E8E700220E49F5E78A42E3D0202152
:1021E0000A4A91620121A2F5805251600649084ACB
:1021F000886A800603D49342D5D00133F8E793422E
:10220000DDE700BF00900050004009500060095019
:1022100040420F003254FFFF38B54FF00042164BDA
:1022200001465A664AF6CD33144C154A656C236450
:1022300043780B205B0043F00103D363FFF718FFE3
:1022400063688A7823F4F87343EA02136360CA78F8
:102250004B7943EA0223A3600A798B7943EA02238C
:1022600023610878FFF782FFEB0744BF054B236427
:1022700001F038FF012038BD0090005000400950A7
:10228000004000503254FFFF70B50F28044605D9B6
:1022900040F65261124801F0A9FE0F244FF00042AF
:1022A000104B11495D6E03F580535A664AF6CD33E3
:1022B0004E6C80200B64FFF7DBFE0B6A23F00F03EC
:1022C00023430B62F30744BF084B0B64002DA2BFEE
:1022D0004FF00042064B5A6601F004FF70BD00BF8C
:1022E000254A000800800050004009503254FFFF8A
:1022F00000A0005038B5032804460D4605D8094B08
:1023000033F81030CB40DB0704D440F22D410648AF
:1023100001F06CFE302301225C43044BAA401A51A9
:1023200038BD00BFD44A00086A49000840D00350B5
:1023300038B5032804460D4605D8094B33F810304C
:10234000CB40DB0704D440F2FE31064801F04EFEDC
:10235000302301225C43044BAA401A5138BD00BF10
:10236000D44A00086A49000840E003502DE9F041D2
:10237000032804460D461746984605D81D4B33F8EA
:102380001030CB40DB0704D44FF4B0711A4801F091
:102390002DFE37B129462046B8F1000F20D0FFF7B7
:1023A000A9FF0F21072D04EB440688BFA5F1080300
:1023B0004FEA0616114895BFAB009B0004360C3659
:1023C00007FA03F29940304401F08DFE7FB92946A7
:1023D0002046B8F1000F06D0BDE8F041FFF78ABFF4
:1023E000FFF7A6FFDDE7BDE8F041FFF7A1BFBDE8BD
:1023F000F08100BFD44A00087C4A000830C0035076
:10240000F8B506460F461546002A6AD003F00304C5
:10241000836823F44073836001F0E9FDB26882EAC7
:10242000042303F440735340B36001F0E4FD37B973
:10243000B6F1B64F0DD12E20FFF70EF80746B36860
:102440009A0717D5012C1BD0022C27D064B9264B34
:1024500017E0264B9E4201D12F20EDE740F22F11CD
:10246000234801F0C3FDB3684FF4B271204801F076
:10247000BDFD08E0012C13D0022CE7D11D4B00E07C
:102480001D4B9F42F0D91D4B1B5D6B430AD140F29F
:102490007511BDE8F840164801F0A8BD184BF0E7EB
:1024A000184BEEE7A3EBC504013C3C44B4FBF3F44A
:1024B000013C0CD540F27B110D4801F097FD4FF423
:1024C000BE710B4801F092FDB368B461F8BDB4F57C
:1024D000007FF4D2B3689B07F7D5002C08BF012416
:1024E000F3E740F21511D4E780841E000080065007
:1024F000DC4A0008002D3101404B4C00334B0008F2
:10250000809FD5004054890038B5B0F1B64F0446DD
:102510000D4607D0084B984204D040F29511074869
:1025200001F064FD043425B104F5805401232360D7
:1025300038BD04F50054F9E700800650DC4A000875
:1025400038B5B0F1B64F04460D4607D0124B98424D
:1025500004D04FF4D571114801F048FD0023104A12
:10256000236404F50053DA636A7804F108037AB946
:1025700003F5805302221A602046D5E901122B7B15
:10258000FFF73EFF20462978BDE83840FFF7BCBF83
:1025900003F50053EEE700BF00800650DC4A000858
:1025A000FFFF1F0010B5162000F0B2FB0024FF2231
:1025B000064B21465C6520209A625C60FEF724FF92
:1025C0002146BDE810402120FEF71EBF0000045048
:1025D00038B5072804460D4603DD7721084801F089
:1025E00005FD1F2C03D99121064801F0FFFC064A86
:1025F000064B002D08BF13460122A2401A6038BDC9
:10260000374B00088F4B0008401004504020045006
:1026100010B5044618B991211F4801F0E7FC237852
:102620001B0613F0604F03D092211B4801F0DEFC23
:10263000E3780F2B03D9A321174801F0D7FC012120
:102640002020FEF7E1FE01212120FEF7DDFE012220
:10265000124B16205A60227812069A606178A2788E
:1026600042EA01429A61FF229A6200229A631A6446
:102670004FF000425A654FF0FF3203F500531A65E0
:1026800000F07EFB1620E17800F088FBBDE81040EA
:10269000162000F05BBB00BF374B00080000045061
:1026A0002DE9F0410126C3B2072805460C4617461E
:1026B00006FA03F603DDEC21384801F097FC1CB95B
:1026C000ED21364801F092FC236823F47C1323F0BB
:1026D0000F031BB1F021314801F088FCA37A1B04E1
:1026E00013F47C0F04D040F209112C4801F07EFC59
:1026F000E37A1B0513F07E6F04D040F20B112748DC
:1027000001F074FC237B5B0513F0FE5F04D040F204
:102710000D11224801F06AFC214BDFF88C801E6508
:10272000AB00226803F1A04303F588235A603022EE
:1027300002FB0585637B27F003072B66E37AA27A09
:102740001B0543EA0243227B43EA4253EB652F67B2
:1027500001F054FC134B5E65237A23B1D8F8403066
:102760003343C8F84030637A23B1D8F83830334364
:10277000C8F838302279A37943EA0243084A9361C2
:102780006179E37943EA014306498B61064B56635D
:102790009E64BDE8F04101F037BC00BF374B000834
:1027A00000200450001004500000045010B5012413
:1027B000C3B2072804FA03F404DD40F29711074876
:1027C00001F014FC01F01AFC054B5A6D22EA0402D8
:1027D0005A659C62BDE8104001F016BC374B0008FA
:1027E0000000045010B50124C3B2072804FA03F412
:1027F00004DD40F2B5110A4801F0F8FB01F0FEFBE0
:10280000084BDA6A224208D15B6B9C430CBF01245F
:10281000002401F0F9FB204610BD0024F9E700BFB9
:10282000374B000800000450F8B507460C461D461B
:1028300016464AB94FF4A171314801F0D7FB24B1D3
:10284000402D09D1062328E021B94FF42070FEF76E
:1028500003FE0446402D42D0402D09D87DB1202DE5
:1028600017D040F28911BDE8F840254801F0BEBB01
:10287000602DF6D1B6EB940F3CD804230DE0B6EBF7
:10288000141F04D94FF4BA711D4801F0AFFB102397
:1028900003E0B6EBD40F1CD808235E43730803EBA8
:1028A0004413B3FBF6F3174E203BB6EBC30F4FEACE
:1028B000C30404D24FF4D071114801F097FBBB68F8
:1028C000344023F06003BB60BB681D43BD60FC6106
:1028D000F8BD40F279110A4801F088FBDCE70623D5
:1028E000B4FBF3F3B342ADD24FF4BF71044801F02F
:1028F0007DFBA7E740F28311014801F077FBBCE7BD
:10290000E64B0008F8FF7F0038B50C4B04469842B0
:102910000D4604D04FF43371094801F067FB0122E2
:1029200004F580535A60EB43934003F00A0363615C
:10293000656115B904F50054626038BD00C00550EA
:10294000E64B000810B5124B0446984204D040F202
:102950004241104801F04AFB012104F580535960BF
:1029600040F6AA6341F20502636100230A48A360AE
:10297000E365E26004F500522361E361E36490647F
:102980000348A365844204BF23656365516010BD9D
:1029900000C00550E64B0008FFFF010070B5304B4A
:1029A000044698420D4604D040F2FD212D4801F026
:1029B0001DFB2046FFF7C6FF012304F58056736018
:1029C000AB7C1BB1A36843F08043A360EB7C5BB19D
:1029D000234B9C4202BF2A7DA3F51033C3F8D421B8
:1029E000E36D43F08003E3652A8A6B7B2046134343
:1029F000EA891343E3602B7BD5E90112FFF714FF4B
:102A00006B7D1BB1A36843F48033A360AB7D1BB126
:102A1000A36843F40043A360EB7D2A7E1B071205E5
:102A200002F4E00203F0E0431343A3656B7E9A1EB9
:102A3000012A4FF0020209D80B49032BC1F898274D
:102A400009D10423F3652B78636170BD0749012B1D
:102A5000C1F89827F4E7042204F50053DA65F2E799
:102A600000C00550E64B000800D0035000E00350C2
:102A700070B50D46E8B1036813F4E07F03F03F063C
:102A8000C3F3821210D0012A13D10B4C9B0603D53D
:102A900091210A4801F0AAFA45B104F580540123B6
:102AA0000020B340236070BD054CEFE704F50054EF
:102AB000F5E70E20F7E700BF688000508F4B000855
:102AC0006480005030B58BB06C46754D0FCD0FC48F
:102AD0002B68684623604FF07E636C4693F89C3009
:102AE000704DFF2B18BF8DF80130FFF76DF83220C5
:102AF000FFF7CCF80FCD0FC40FCD0FC495E803003E
:102B000084E80300684BD3F84C21110340F1B380F3
:102B1000A3F5FE431C884FF6FF739C4208BF6B244D
:102B20008DF81940FFF74AF8044484F308045F481D
:102B30008DF81840FDF73CFD6846FEF723FF322074
:102B4000FFF7AAF85A48FFF751F95A4C5A48FFF7CD
:102B5000DBF901213620FEF757FCFFF725F9236F3B
:102B6000002023F0070343F003032367236F23F4BC
:102B7000744343F48063236701F09CFA4F4BD3F80E
:102B8000FC20D2017BD4D4F88030C4F88030494C8A
:102B9000D4F8203123F0070343F00203C4F82031B6
:102BA000D4F8283123F0070343F00203C4F8283196
:102BB000D4F8803123F0030343F00103C4F88031DB
:102BC000D4F8903223F0030343F00103C4F89032A9
:102BD000D4F8403123F0030343F00203C4F840313A
:102BE000D4F8603123F0030343F00203C4F86031EA
:102BF000D4F8403223F0030343F00203C4F8403218
:102C0000D4F8003223F0070343F00203C4F8003283
:102C1000D4F8083223F0070343F00203C4F8083263
:102C2000D4F8503223F0030343F00203C4F85032C7
:102C3000D4F8703223F0030343F00103C4F8703278
:102C4000D4F8203223F0070343F00103C4F8203204
:102C5000FEF780FE4FF0E0220020136963F00403CA
:102C60001361D4F8603223F0070343F00103C4F882
:102C700060320BB030BDD3F85041E4B250E7D3F826
:102C8000FC2022F08072C3F8FC20D4F88020C4F825
:102C90008020D3F8FC2042F08072C3F8FC2076E755
:102CA000404C0008544C00080080E00FC01753024D
:102CB00000B4C40400800050C0EA210100ED00E02F
:102CC00007B5094B18689A889B7900906846ADF85B
:102CD00004208DF80630FFF79FFA0920FFF7D4FA99
:102CE000002003B05DF804FB7C4C000813B5002401
:102CF000064A6846536F43F00103536700948DF80A
:102D00000440FFF7BDF9204602B010BD004000505E
:102D100010B54C2804460DD801220A49630904F075
:102D20001F04A240203341F82320BFF34F8FBFF38D
:102D30006F8F10BD40F20911034801F057F9002CC4
:102D4000F7DBE9E700E100E0904C000810B54C2803
:102D5000044608D801236109074A04F01F04A34070
:102D600042F8213010BD4FF48A71044801F03EF959
:102D7000002CF7DBEEE700BF00E100E0904C00081C
:102D8000002808DB01224309034900F01F008240AC
:102D9000603341F82320704700E100E038B500F1CE
:102DA00010035C2B04460D4604D94FF4E1710D4825
:102DB00001F01CF91E2D04D940F2C311094801F09D
:102DC00015F9002CACBF04F16044074B4FEA051520
:102DD000EDB2ABBF04F5614404F00F0484F8005376
:102DE0001D5538BD904C000814ED00E010B50446A8
:102DF00001F0FDF8024B1C6001F0FDF8002010BD51
:102E00000012002010B501F0F2F8034B1C6801F02D
:102E1000F2F8204610BD00BF0012002010B50020BF
:102E2000144601F0EFF9022804D018B1C32102487A
:102E300001F0DCF8204610BD114D000838B53022F5
:102E4000037A0446534303F1A04303F58023DD6E68
:102E5000D0E9032313449D4201D8AA4204D94FF478
:102E60004171054801F0C2F8D4E9030303449D42CF
:102E700018BF284638BD00BF874D000830B587B061
:102E8000144605461046FFF7D9FF636902468342A0
:102E90003CBFD4E903315B181B1AABB1124904944F
:102EA00003910021CDE90131012300932846D4E9A3
:102EB000001301F0C3F820B14FF437710B4801F053
:102EC00095F8002007B030BD0122627694F82D20DD
:102ED000002AF6D084F835301321E369204698475C
:102EE0002046636A9847ECE77D2E0008874D00086E
:102EF00070B504460568FFF785FF844202D10020C3
:102F0000FFF774FF95F93600FFF73AFF95F93600A1
:102F1000FFF7FEFE287AFDF77DFE20B14FF4F37136
:102F2000104801F063F8287AFDF7DAFD20B14FF47C
:102F3000F5710C4801F05AF8FDF7B0FD38B10A4BB5
:102F4000984204D04FF4F771064801F04FF800237F
:102F50002846C4E90033C4E90433A360AB6ABDE882
:102F600070401847874D0008058000F02DE9F047B4
:102F700088B004460F461646984601F03FF8814651
:102F8000002E00F0AD80237E03F0FF02002B00F046
:102F9000E0802046FFF752FF63698246984206D1DF
:102FA000637E23B940F28B316B4801F01FF86569ED
:102FB000AA459DBFD4E903329B185D1BAAEB05050A
:102FC000B54228BF354601F019F894F82D308246F5
:102FD000002B40F096802A463846616901F05FFA7E
:102FE00063692E462B4463612CE06069037803F02B
:102FF000FD01112940F08280216B884205D1A3F1A7
:1030000011014B424B4184F83430013E6369216B1E
:1030100001328B4203F1010308BF236363619542D0
:10302000E3D1D4E90323216B1344994208BF2263FF
:10303000216B8A4201D88B4204D84FF47071464804
:1030400000F0D4FFD4E9032361691344994208BF17
:10305000626161698A4201D88B4204D84FF474716D
:103060003D4800F0C3FF0023207A6376FDF792FD10
:1030700020B140F21D31384800F0B8FF2046FFF77C
:10308000DDFE636983423FD10023E568237694F82F
:103090002D30656103B125632046636A98472F4B45
:1030A000049403930023029323692A460193012386
:1030B000009363682168207A00F0C0FF20B140F2DD
:1030C0003931254800F092FF207AFDF783FD20B1C9
:1030D00040F25D31204800F089FF504600F094FF37
:1030E0004846C8F8006000F08FFFD8F80030002B89
:1030F0000CBF1B20002008B0BDE8F08707F8013B9B
:1031000084E72E4600228AE70123207A23760DF1F8
:103110001E01FDF7C7FD20B14FF453710E4800F0BA
:1031200065FF9DF81E30207A002BCDD00DF11F01D8
:10313000FDF790FD20B140F25231074800F056FFF4
:103140009DF81F10207A0029BED12246FFF796FE77
:10315000BAE71646C4E700BF874D00087D2E000879
:103160002DE9F84304460D4690F82C80DFF8AC902A
:103170008E18AE4228D094F82D3083B100F03EFF77
:10318000237E07461BBB226B63699A4204D040F240
:103190000521484600F02AFF384600F035FF94F834
:1031A0003430002BE5D0B8F1000F06D02B780A2B75
:1031B00003D10D212046E36998472046E36915F8BD
:1031C000011B98470028D4D00020BDE8F883204692
:1031D000FFF734FEE1680138884238BF2069D4F82F
:1031E00030C03CBF00F1FF30401803469C450BD077
:1031F00013F80129112A01D0132A07D1A2F11103D2
:103200005A425A4184F834202063C5E7994282BF6C
:10321000236903F1FF335B18E8E700BF874D00081F
:10322000F0B587B00C4606461546002138222046E8
:103230001F4601F029F995E8030000232A69237647
:10324000EB6884E80300C4E904232A7DE36084F882
:103250002C20AA7D2363012384F8343084F8353090
:103260000C9B84F82D2023620D9BE76163620E9B0B
:10327000A3622B7A84F836301C4B346073601C4B8D
:10328000B3601C4B33611C4B73611C4BF360FDF747
:103290004DFC30B11A4B984203D01024204607B0A1
:1032A000F0BD002104F10800FDF7C8FB0028F4D1AF
:1032B000144B0494CDE90203236901930123009385
:1032C0006368E2682168207A00F0B8FE04460028AE
:1032D000E3D195F90800FFF753FD95F90800FFF7D2
:1032E00035FD3046FFF782FDD8E700BF61310008A9
:1032F0006D2F00088B42000891420008F12E000853
:10330000038000F07D2E00082DE9F04186B01C46B8
:10331000564B01270293564B0C9D01930023904678
:1033200000930A46CDE903772946524BFFF778FF11
:103330000646002840F0918023683946AB636368F5
:103340003A20EB63637A85F84130237A85F8403080
:10335000E37A85F84330A37A85F84230637B85F8B9
:103360004530237B85F84430E37B85F84730A37BE9
:1033700085F84630FEF748F83B460422617A207A09
:10338000FEF7F4FF3B460222E17AA07AFEF7EEFF59
:1033900039466068FEF738F888F8006041462068D2
:1033A000FFF7FCFA1422637C5B0103F1A04303F5F1
:1033B0007033C3F89827617A227A42EA0142C3F84F
:1033C000B027E17AA27A42EA0142C3F8A82785F839
:1033D000486098F81930032B45D8DFE803F03542F0
:1033E000021C022385F8483000230422E17BA07BE5
:1033F000FEF7BCFF022741F29871627C1E4B03EB83
:1034000042104750E07BA17BBD3241EA004103EB13
:103410004213596018E0012785F848300222002342
:10342000617B207BFEF7A2FF617B637C227BBD3347
:1034300042EA014210495B01CA500422236803F5A5
:103440008053DA65002FCFD1AA6B0521D36C206899
:1034500043F00403D364FFF757FA304606B0BDE8E3
:10346000F0810027D8E72326F7E700BFA342000832
:10347000974200081B43000800C003500346054A5A
:103480000549106803448B428CBF4FF0FF30136036
:10349000704700BF981300200000012010B50446BB
:1034A000FDF76AF84FF47A729042B0FBF2F105D260
:1034B0003621BDE810400C4800F098BD0B4BB3FB23
:1034C000F1F30B49884201D93C21F2E702FB04F0F9
:1034D000B0FBF3F0022806D9BDE810400323B0FB8F
:1034E000F3F0FCF745BE10BDF34D000840420F005D
:1034F000E7CD9A3B08B5064B044613B10021AFF364
:103500000080044B1B6803B19847204600F0A5FEDD
:10351000000000004413002070B50F4E0C46054615
:10352000316811B900F088F930602146284600F072
:1035300083F9431C03D14FF0FF34204670BDC41CF7
:1035400024F00304A042F8D0211A284600F074F9B0
:103550000130F2D1EFE700BF041200202DE9F04165
:10356000CD1C064625F0030508350C2D38BF0C256B
:10357000002D01DBA94204D90C2333600020BDE8F3
:10358000F081314F00F062F83B681C4644BB29468D
:103590003046FFF7C1FF431C044650D13C6821462A
:1035A000002941D1002C44D02368304604EB0308A5
:1035B00000F042F980453CD1216830466D1A294619
:1035C000FFF7AAFF013034D023682B4423603B6807
:1035D000002B36D05A68A24229D100225A600EE050
:1035E0002268521B1DD40B2A16D96119A3422560EB
:1035F00018BF5960636808BF396062514B6030463C
:1036000000F02AF804F10B00231D20F00700C21A75
:10361000B5D01B1AA350B2E7A3426268DED13A606C
:10362000EDE723466468B1E70C464968B8E71346FE
:10363000CEE70C233046336000F00EF89EE70560BD
:10364000DDE75B60FFDE00BF08120020014800F0EC
:1036500024BF00BF6F130020014800F01FBF00BF50
:103660006F130020002310B5044683608181194642
:103670004366C28108228361C0E90033C0E9043394
:103680005C3000F001FF0D4B246263620C4BA362BF
:103690000C4BE3620C4B23630C4B9C4206D003F1B2
:1036A0006802944202D0D0339C4205D104F1580004
:1036B000BDE8104000F0F0BE10BD00BF034400089C
:1036C000254400085D440008814400080C120020D5
:1036D000024A0349034800F076BE00BF9C13002055
:1036E000F5460008AC13002041680C4B994210B518
:1036F000044601D000F0FEFFA168094B994202D0B8
:10370000204600F0F7FFE168064B994204D02046BE
:10371000BDE8104000F0EEBF10BD00BF0C1200204D
:1037200074120020DC12002010B50B4B04210B4C4E
:103730000B4A20461A600022FFF794FF04F168004C
:1037400001220921FFF78EFF04F1D000022212218D
:10375000BDE81040FFF786BF441300200C12002084
:10376000D1360008014800F098BE00BF7013002059
:10377000014800F093BE00BF7013002010B504464E
:10378000FFF7F0FF236A1BB1BDE81040FFF7F0BF61
:10379000044B2362044B1B68002BF5D1FFF7C4FFD9
:1037A000F2E700BFE9360008441300200FB407B564
:1037B000064904AB086853F8042B8168019300F0B4
:1037C000CBF803B05DF804EB04B07047A8130020F9
:1037D00038B50023054D044608462B6000F03BFD3C
:1037E000431C02D12B6803B1236038BD481300206D
:1037F00038B50446064D0846114600222A601A468E
:1038000000F033FD431C02D12B6803B1236038BDA7
:103810004813002038B50446064D084611460022DC
:103820002A601A4600F023FD431C02D12B6803B125
:10383000236038BD4813002038B50023054D0446E9
:1038400008462B60FFF71AFE431C02D12B6803B118
:10385000236038BD4813002038B50446064D08469D
:10386000114600222A601A46FFF7D8FA431C02D1FB
:103870002B6803B1236038BD4813002070B50D4D8F
:1038800000260D4C641BA410A64209D10B4D002646
:103890000B4C01F005F8641BA410A64205D170BDC5
:1038A00055F8043B01369847EEE755F8043B0136DE
:1038B0009847F2E7001400200014002000140020B4
:1038C0000414002038B50546002941D051F8043CC5
:1038D0000C1F002BB8BFE418FFF7B8FE1D4A136891
:1038E00033B9636014602846BDE83840FFF7B4BEC2
:1038F000A34208D9206821188B4201BF19685B6870
:1039000009182160EDE71A465B680BB1A342FAD9AA
:1039100011685018A0420BD1206801445018116062
:103920008342E0D118685B68084453601060DAE7AE
:1039300002D90C232B60D6E7206821188B4202BFE6
:1039400019685B680918636008BF21605460CAE7A2
:1039500038BD00BF081200202DE9F04F0D469DB084
:1039600014469846064618B1036A0BB9FFF706FFDE
:103970006B6ED90705D4AB899A0502D4A86D00F007
:103980008CFDAB891B0701D52B699BB929463046B5
:1039900000F026FA70B16B6EDC0704D54FF0FF30F3
:1039A0001DB0BDE8F08FAB899805F7D4A86D00F085
:1039B00075FDF3E70023CDF80C804FF00109DFF827
:1039C000B481099320238DF8293030238DF82A30D3
:1039D00023469A4613F8012B0AB1252AF9D1BAEBEE
:1039E000040B0BD05B4622462946304600F07BFD97
:1039F000013000F0A780099A5A4409929AF80030E1
:103A0000002B00F09F8000234FF0FF320AF1010AE3
:103A1000049307938DF853301A93CDE90523544648
:103A20000522544814F8011B00F0CAFE049AD8B9C4
:103A3000D10644BF20238DF85330130744BF2B23F6
:103A40008DF853309AF800302A2B15D0079A544637
:103A500000204FF00A0C214611F8013B303B092BA6
:103A60004BD9B0B1079214E0A0EB0803A24609FAC3
:103A700003F313430493D2E7039B191D1B68002B28
:103A80000391BBBF5B4242F0020207930793B8BFAA
:103A9000049223782E2B0AD163782A2B32D1039BF0
:103AA00002341A1D1B6843EAE37303920593DFF89F
:103AB000D4A003222178504600F082FE38B1A0EB5A
:103AC0000A004022049B013482401343049314F8FB
:103AD000011B062228488DF8281000F071FE0028EE
:103AE0003FD0264B1BBB039B073323F00703083350
:103AF0000393099B3B4409936AE70CFB02320C4693
:103B00000120A8E7002301344FF00A0C1946059361
:103B1000204610F8012B303A092A03D9002BC6D0D1
:103B20000591C4E70CFB012104460123F0E703AB38
:103B30002A4604A930460093114BAFF30080074694
:103B4000781CD6D16B6ED90705D4AB899A0502D4FF
:103B5000A86D00F0A3FCAB895B063FF51FAF099889
:103B60001EE703AB2A4604A930460093044B00F03D
:103B70000BF8E4E7564E0008604E00080000000015
:103B8000E74400085C4E00082DE9FF470F7E914690
:103B900080460C46782F9A460C9E01F1430207D8C6
:103BA000622F0AD8002F00F0DD80582F00F0C3806C
:103BB00004F1420684F842703AE0A7F16303152B42
:103BC000F6D801A151F823F0213C0008353C00084B
:103BD000B13B0008B13B0008B13B0008B13B000815
:103BE000353C0008B13B0008B13B0008B13B000880
:103BF000B13B00084B3D0008C33C0008033D0008F2
:103C0000B13B0008B13B00086D3D0008B13B000826
:103C1000C33C0008B13B0008B13B00080B3D000865
:103C200033681A1D1B68326004F1420684F8423082
:103C30000123A8E031682368081D30601E0601D505
:103C40000D6803E05D06FBD5B1F90050002D6168F9
:103C500078DA2D200029A16084F843002DDA6D4226
:103C60005D480A231646B5FBF3F103FB1157C75D08
:103C700006F8017D2F460D46BB42F4D9082B0BD127
:103C80002368DF0708D5236961689942DEBF3023C6
:103C900006F8013C06F1FF36921B22614B4603AA4F
:103CA00021464046CDF800A000F02FFC01306FD136
:103CB0004FF0FF3004B0BDE8F08723F00403236029
:103CC000CDE721683368080653F8045B02D449063F
:103CD00048BFADB26F2F33603F4814BF0A2308239B
:103CE000002184F843106668002EA660BADB2168C4
:103CF00021F004012160002DB4D1002EB2D116466E
:103D0000BCE7236843F02003236078273348236807
:103D100084F845701F06316851F8045B02D45F06D1
:103D200048BFADB23160D90744BF43F020032360E0
:103D30001DB11023D4E72848E9E7236823F02003C6
:103D40002360F6E724480A23CDE733682568181D69
:103D5000616930602E061B6801D5196002E06806B3
:103D6000FBD5198000231646236197E733680021AD
:103D70001A1D32601E686268304600F021FD08B1ED
:103D8000801B606063682361002384F8433085E70B
:103D90002369324649464046D047013088D02368DF
:103DA0009B0714D4E068039B9842B8BF184681E78C
:103DB0000123324649464046D04701303FF478AFB0
:103DC0000135E36803995B1AAB42F1DCEAE70025B1
:103DD00004F11906F5E700BF674E0008784E0008A9
:103DE00038B5294B05460C46186818B1036A0BB95B
:103DF000FFF7C4FCB4F90C30190722D4DA0607D453
:103E000009222A6043F040034FF0FF30A38133E0E2
:103E1000580712D5616B41B104F14403994202D0B5
:103E20002846FFF74FFD00236363A38923F0240393
:103E3000A3810023636023692360A38943F00803FF
:103E4000A38123694BB9A38903F42073B3F5007FE1
:103E500003D02146284600F0E6FCB4F90C3013F0FC
:103E600001020AD00022A26062695242A261226964
:103E700042B913F08000C5D138BD990758BF6269B7
:103E8000A260F4E70020F7E7A813002038B500236C
:103E9000064D0446084611462B6000F0DFF9431C2E
:103EA00002D12B6803B1236038BD00BF4813002046
:103EB00038B50023054D044608462B6000F0D3F9C1
:103EC000431C02D12B6803B1236038BD4813002086
:103ED000704708B500F05FFAFFF7FAFF00F068FAE4
:103EE000FCF7D0F9FAE7704708B5FCF7BDFBFCF723
:103EF00027FABDE8084000F04DB808B500F00CF80E
:103F0000BDE80840FCF77CBA7047704770477047BF
:103F100070477047FCF782BA0F20704770B50025D4
:103F200006462C46052C20D8DFE804F003070B0FCB
:103F300013175B210820FCF7FDFB0C210820FCF780
:103F4000F9FBD1210820FCF7F5FB80210820FCF7C4
:103F5000F1FB00210820FCF7EDFB6C1C2946E4B2C4
:103F600008202546FCF7E6FB0624A4F10E03012BEE
:103F700005D85A210820FCF7DDFB0134D2E7102CCC
:103F800005D1BDE870405D210820FCF7D3BBB31F0D
:103F9000195DEFE708B5082000F039F8BDE80840E2
:103FA000082000F03FB807B5012320F07F4040EA29
:103FB0008170019068468DF80030FFF7AFFF03B0C5
:103FC0005DF804FBFEE710B53AB1002350F823403A
:103FD00041F8234001339A42F8D110BD00207047C8
:103FE0004FF4004070474FF47A707047FEE7EFF3EC
:103FF000108072B6704700B962B67047EFF3118057
:10400000302383F31188704780F3118870474FF095
:1040100060420123D2F8001E83400B430020C2F807
:10402000003E70474FF060410122D1F8003E8240CF
:1040300023EA02030020C1F8003E704710B588B0A3
:1040400004460E98009207900D98224606909DF81F
:10405000300005900B9804909DF8280003900020F4
:10406000CDE901300B460121FCF72AFC08B010BD58
:1040700070B5054614460E46FFF7B9FF2B685C4045
:1040800034405C402C60BDE87040FFF7B4BF08B519
:10409000FCF784FABDE808400021FDF789B9002942
:1040A000CCBF01210021FDF783B902214FF420701C
:1040B000FDF7F8BD38B50446FCF75EFA0546FCF797
:1040C0004DFEC0F102012846FFF7E9FF0121002063
:1040D000FEF734F80CB1FDF777FEBDE83840FDF788
:1040E000F5BA7047704770B5054614460E46FFF79F
:1040F0007EFF2B685C4034405C402C60BDE8704023
:10410000FFF779BF704783695B06FCD5C1637047D1
:1041100000F008B809B100F007B82220704701216B
:10412000FEF7A6BC0020704770B506460D46FFF7A7
:1041300065FF04461E2E55D8DFE806F01019541E00
:10414000212454272A542D5430335436393C543FBB
:1041500054425454455448544B4E5100FCF7F2F924
:10416000002628602046FFF74FFF304670BD4FF411
:10417000C070FDF771F9F3E74FF42070F9E74FF4E1
:104180004070F6E74FF46070F3E74FF40070F0E72B
:104190004FF48060EDE74FF44060EAE74FF4C06011
:1041A000E7E74FF4F060E4E74FF4B060E1E74FF485
:1041B000D060DEE74FF41060DBE74FF4E060D8E753
:1041C0004FF4A060D5E74FF41860D2E74FF42860B1
:1041D000CFE74FF48070CCE74FF43060C9E74FF47D
:1041E0002060C6E700202126BBE7FEF76BBC10B5B8
:1041F0006FF00404204605210134FEF7CFFD4C2C5E
:10420000F8D110BD70B50C46154610B9FEF7FAFD91
:1042100038B143682BB12A462146BDE8704000689A
:104220001847232070BDF7B50D4616461C4648B109
:1042300003B901AC87685FB123463246294600685E
:10424000B84706E0FEF7DEFD04B901AC0028F1D165
:10425000232003B0F0BD00207047FEE74FF4005369
:1042600000204B607047012070470020704707B561
:10427000002001AB0190FFF7D6FF0198002808BF8E
:104280004FF0FF3003B05DF804FB80F82C1070474E
:1042900090F82C007047826BD36C43F00403D36416
:1042A000704710B50446826B93695906FCD500230C
:1042B00094F841101A4694F84000FEF757F800238E
:1042C00094F843101A4694F84200FEF74FF894F819
:1042D0004830DA0707D5002394F845101A4694F8B9
:1042E0004400FEF743F894F848309B0707D50023B5
:1042F00094F847101A4694F84600FEF737F8A06B7A
:104300000021C36C23F00403C364FEF7FDFAE06BE5
:104310000021FDF779F8002010BD08B5806BFFF78C
:10432000F2FE002008BD38B50468237EA06B33B9C7
:10433000C36C23F00403C3640123237638BD637E7A
:1043400023B394F82D300BB30025132184F8355096
:10435000FFF7D9FEA36BDA6C42F00402DA645B6A01
:10436000DBB2112B0DD1012384F834303022237AB3
:10437000534303F1A04303F58023DB6E013B23632A
:10438000DCE7132BDAD184F83450EFE7C36C23F069
:104390000403C364D2E708B5FBF788FFFFF7A4FD69
:1043A000FFF7ABFDFFF7B0FDBDE80840FFF7ADBD7F
:1043B00008B5FFF7ABFDFFF7AAFDFFF7A9FDBDE8C4
:1043C0000840FFF7A6BD2DE9F84307468846144686
:1043D0000026D4E90195B9F1010905D52468002C1E
:1043E000F7D13046BDE8F883AB89012B07D9B5F981
:1043F0000E30013303D029463846C047064368359E
:10440000E9E710B50C46B1F90E10FFF703FA0028E2
:10441000ABBF636DA3891B1823F48053ACBF6365E6
:10442000A38110BD2DE9F0411F468B8905460C463E
:10443000DB05164605D502230022B1F90E10FFF761
:10444000D7F9A3893246B4F90E10284623F48053D5
:10445000A3813B46BDE8F041FFF7FEB910B50C461D
:10446000B1F90E10FFF7C4F9431CA38915BF6065AD
:1044700023F4805343F48053A38118BFA38110BD5C
:10448000B1F90E10FFF7A4B902440346934200D1DC
:10449000704703F8011BF9E77047704770470A44FB
:1044A000431E914200D1704710B511F8014B914263
:1044B00003F8014FF9D110BD9368013B002B9360C5
:1044C00010B408DA9469A34201DB0A2903D15DF82C
:1044D000044B00F037B91368581C10600846197077
:1044E0005DF8044B7047F8B506460F461446D518DC
:1044F000AC4201D1002007E03A4614F8011B3046D7
:10450000FFF7DAFF431CF3D1F8BD2DE9F04716465B
:1045100098468A6807460B690C46DDF8209093425E
:10452000B8BF1346336091F843200AB101333360BA
:104530002368990642BF336802333360256815F05B
:10454000060506D104F1190AE36832689B1AAB42EA
:104550002BDC94F843302268003B18BF01239206FD
:1045600030D404F1430241463846C847013023D0D5
:1045700023681A3454F80A2C03F00603042B0ABFEC
:1045800054F80E5C002533684FF0000608BFED1AA2
:1045900054F8123C08BF25EAE5759342C4BF9B1A44
:1045A000ED18B5421AD1002008E0012352464146D9
:1045B0003846C847013003D14FF0FF30BDE8F087DF
:1045C0000135C1E7E1185A1C30200233224481F83A
:1045D000430094F8451082F84310C2E701232246B5
:1045E00041463846C8470130E6D00136D9E7B1F92F
:1045F0000C202DE9F041170705460C4656D44B68B0
:10460000002B02DC0B6C002B3DDDE66A002E3AD05D
:10461000002312F480522F68216A2B6025D0626D2E
:10462000A389580705D56368D21A636B0BB1236C55
:10463000D21A216A0023E66A2846B047411C24D0DA
:104640000023636023692360A389DA0400D56065D1
:10465000616B2F60B9B104F14403994202D028463E
:10466000FFF730F9002363630DE001232846B047CC
:10467000461C0246D4D12B68002BD1D01D2B01D073
:10468000162B2AD12F6000202EE02A68B4F90C30B6
:1046900042B11D2A01D0162A21D10023636023696B
:1046A0002360D5E7626022692260CEE70F69002FA0
:1046B000E9D093070E680F600CBF4B690023A6EB8F
:1046C00007088B60B8F1000FDDDD43463A46216AEA
:1046D0002846A66AB047002808DCB4F90C3043F03D
:1046E00040034FF0FF30A381BDE8F0810744A8EB01
:1046F0000008E7E738B50B6905460C4613B90025F5
:10470000284638BD18B1036A0BB9FFF737F8B4F97A
:104710000C30002BF3D0626ED00704D4990502D47C
:10472000A06DFFF7BAFE28462146FFF760FF636ED3
:104730000546DA07E4D4A3899B05E1D4A06DFFF711
:10474000ADFEDDE7F8B50E461446054618B1036A1E
:104750000BB9FFF713F8A369A360A3891A0701D562
:10476000236943B921462846FFF73AFB18B14FF0B9
:10477000FF373846F8BD2368F6B222693746981AE3
:104780006369834205DC21462846FFF7B3FF002812
:10479000EDD1A368013BA36023685A1C22601E7000
:1047A000431C62699A4204D0A389DB07E1D50A2E33
:1047B000DFD121462846FFF79DFF0028D9D0D6E754
:1047C000C9B20346024410B59342184601D10020F5
:1047D00003E0047801338C42F6D110BD70B50C466D
:1047E000B1F90E1096B0154600291E460CDAA389C1
:1047F000002113F0800F14BF40234FF4806300208A
:1048000031602B6016B070BD6A46FFF73FFB002891
:10481000EDDB019901F47041A1F500535942594172
:104820004FF48063EBE78B89F7B59D0706460C468E
:1048300007D504F14703236023610123636103B0BB
:10484000F0BD01AB6A46FFF7C9FF009F0546304641
:104850003946FEF783FE48B9B4F90C309A05EED418
:1048600023F0030343F00203A381E2E7A38920605E
:1048700043F08003A381019BC4E904075BB1B4F951
:104880000E103046FFF714FB28B1A38923F0030371
:1048900043F00103A381A3891D43A581CFE7000055
:1048A000F8B500BFF8BC08BC9E467047F8B500BF1D
:1048B000F8BC08BC9E4670470A61000A62002E2EB2
:1048C0002F6175746F67656E2F736C5F696F73749A
:1048D0007265616D5F696E69745F75736172745F33
:1048E000696E7374616E6365732E6300050000006A
:1048F0000000000000C201000005000000100000E0
:104900000000000000000000433A2F5573657273E9
:104910002F4469617A4D65636F746572722F5369B4
:104920006D706C696369747953747564696F2F5322
:10493000444B732F73696D706C69636974795F732D
:10494000646B2F706C6174666F726D2F6472697620
:1049500065722F69326373706D2F7372632F736C7E
:104960005F69326373706D2E6300633A5C757365C3
:1049700072735C6469617A6D65636F746572725C91
:1049800073696D706C696369747973747564696F48
:104990005C73646B735C73696D706C696369747963
:1049A0005F73646B5C706C6174666F726D5C656D77
:1049B0006C69625C696E635C656D5F6770696F2EC0
:1049C0006800FF070F00FF033F001E000003433A8B
:1049D0002F55736572732F4469617A4D65636F74E7
:1049E0006572722F53696D706C6963697479537461
:1049F0007564696F2F53444B732F73696D706C69C5
:104A0000636974795F73646B2F706C6174666F7225
:104A10006D2F656D6C69622F7372632F656D5F63B7
:104A20006D752E6300433A2F55736572732F446979
:104A3000617A4D65636F746572722F53696D706C26
:104A4000696369747953747564696F2F53444B7348
:104A50002F73696D706C69636974795F73646B2F10
:104A6000706C6174666F726D2F656D6C69622F7307
:104A700072632F656D5F656D752E6300433A2F5528
:104A8000736572732F4469617A4D65636F746572E3
:104A9000722F53696D706C696369747953747564AE
:104AA000696F2F53444B732F73696D706C69636921
:104AB00074795F73646B2F706C6174666F726D2FA5
:104AC000656D6C69622F7372632F656D5F677069C6
:104AD0006F2E6300FF070F00FF033F00433A2F557F
:104AE000736572732F4469617A4D65636F74657283
:104AF000722F53696D706C6963697479537475644E
:104B0000696F2F53444B732F73696D706C696369C0
:104B100074795F73646B2F706C6174666F726D2F44
:104B2000656D6C69622F7372632F656D5F693263A7
:104B30002E630008091108433A2F55736572732FCD
:104B40004469617A4D65636F746572722F53696D44
:104B5000706C696369747953747564696F2F534419
:104B60004B732F73696D706C69636974795F7364DB
:104B70006B2F706C6174666F726D2F656D6C6962FE
:104B80002F7372632F656D5F6C646D612E630063BC
:104B90003A5C75736572735C6469617A6D65636FA5
:104BA000746572725C73696D706C69636974797332
:104BB000747564696F5C73646B735C73696D706C3E
:104BC00069636974795F73646B5C706C6174666F40
:104BD000726D5C656D6C69625C696E635C656D5F6E
:104BE0006275732E6800433A2F55736572732F44B4
:104BF00069617A4D65636F746572722F53696D7068
:104C00006C696369747953747564696F2F53444B8D
:104C1000732F73696D706C69636974795F73646B0A
:104C20002F706C6174666F726D2F656D6C69622F89
:104C30007372632F656D5F75736172742E6300000C
:104C40000126000004000000000000000001000038
:104C5000000000000B0000000C000000030000003A
:104C60000000202000000000020000003C3C3C004E
:104C7000000000000000000000000000010310011F
:104C8000010903000F0000000E0000001A000000E0
:104C9000433A2F55736572732F4469617A4D65638A
:104CA0006F746572722F53696D706C696369747982
:104CB00053747564696F2F53444B732F73696D7010
:104CC0006C69636974795F73646B2F706C6174666F
:104CD0006F726D2F736572766963652F696E746587
:104CE00072727570745F6D616E616765722F737239
:104CF000632F736C5F696E746572727570745F6D2B
:104D0000616E616765725F636F727465786D2E6343
:104D100000433A2F55736572732F4469617A4D656C
:104D2000636F746572722F53696D706C6963697417
:104D30007953747564696F2F53444B732F73696D86
:104D4000706C69636974795F73646B2F706C6174E4
:104D5000666F726D2F736572766963652F696F7305
:104D6000747265616D2F7372632F736C5F696F73FB
:104D7000747265616D5F72657461726765745F738B
:104D80007464696F2E6300433A2F55736572732FF5
:104D90004469617A4D65636F746572722F53696DF2
:104DA000706C696369747953747564696F2F5344C7
:104DB0004B732F73696D706C69636974795F736489
:104DC0006B2F706C6174666F726D2F73657276698C
:104DD00063652F696F73747265616D2F7372632FD2
:104DE000736C5F696F73747265616D5F7561727406
:104DF0002E6300433A2F55736572732F4469617AAD
:104E00004D65636F746572722F53696D706C696361
:104E100069747953747564696F2F53444B732F739E
:104E2000696D706C69636974795F73646B2F706C02
:104E30006174666F726D2F736572766963652F7525
:104E400064656C61792F7372632F736C5F75646531
:104E50006C61792E6300232D302B2000686C4C0090
:104E6000656667454647003031323334353637386A
:104E700039414243444546003031323334353637C8
:0C4E800038396162636465660000000060
:084E8C007CB3FF7F0100000070
:0C4E9400A04E0008741300202500000050
:104EA0000000005B0000080700000000A086010071
:104EB00000000000C0EA2101C0EA210100800000DA
:104EC000C017530208140020000000000300000077
:104ED0000C120020AC130020000000000C12002077
:104EE00074120020DC12002000000000000000000E
:104EF00000000000000000000000000000000000B2
:104F000000000000000000000000000000000000A1
:104F10000000000000000000000000000000000091
:104F200000000000FFFFFFFF28000000E50100086F
:044F3000BD010008B7
:040000050800046586
:00000001FF
