S00D000054727573744D2E73333778
S315080000000010002019040008833200088332000813
S3150800001083320008833200088332000883320008DE
S3150800002083320008833200088332000883320008CE
S3150800003083320008833200088332000883320008BE
S3150800004083320008833200088332000883320008AE
S31508000050833200088332000883320008833200089E
S3150800006083320008D1030008D33100088332000820
S31508000070833200088332000883320008833200087E
S31508000080833200088332000883320008833200086E
S315080000908332000883320008550B000883320008B3
S315080000A0833200088332000883320008833200084E
S315080000B0833200088332000883320008833200083E
S315080000C0833200088332000883320008833200082E
S315080000D0833200088332000883320008833200081E
S315080000E0833200088332000883320008833200080E
S315080000F083320008833200088332000883320008FE
S3150800010083320008833200088332000883320008ED
S3150800011083320008833200088332000883320008DD
S3150800012083320008833200088332000883320008CD
S3150800013083320008833200088332000883320008BD
S3150800014083320008833200088332000883320008AD
S31508000150833200088332000883320008833200089D
S31508000160833200088332000883320008833200088D
S315080001700348044B834202D0034B03B11847704728
S31508000180481200204812002000000000064B0749CC
S31508000190C91A891048BF0131491003D0044B0BB165
S315080001A001481847704700BF48120020481200202F
S315080001B00000000010B5064C237843B9FFF7D8FFB6
S315080001C0044B13B10448AFF300800123237010BD1C
S315080001D00412002000000000503A000808B5054B3C
S315080001E01BB105490548AFF30080BDE80840FFF795
S315080001F0CDBF00BF0000000000100020503A0008E4
S31508000200A3F5803A704700BF174B002B08BF134B66
S315080002109D46FFF7F5FF00218B460F461348144A03
S31508000220121A03F0EDF90E4B002B00D098470D4B30
S31508000230002B00D098470020002104000D000D482F
S31508000240002802D00C48AFF3008002F07DFF2000A2
S31508000250290002F09FFF02F065FF00BF00000800BA
S315080002600000000000000000001000200010002020
S3150800027028120020000000000000000010B54FF40E
S3150800028080301D491D4A4B6E5066486E4FF000413E
S315080002904AF6CD3451661A4903F480334A6C0C6425
S315080002A002F001024C6BE407FCD4012415494C60AA
S315080002B0A1F500510C6BE407FCD50AB1124A0A6491
S315080002C00028A2BF4FF00041104A51661BB94FF4EF
S315080002D080320E4B5A6603F0E9F800F089F803F00D
S315080002E0E3F802F051FB03F072F802F063FBBDE895
S315080002F0104000F073B800BF008000500090005016
S3150800030000400950006009503254FFFF00A0005019
S3150800031030B595B0204D0DAC0FCD0FC495E807004C
S31508000320292384E80700092500210A241B4A0DF120
S315080003302600CDE902230E22CDE9041106918DF897
S3150800034013408DF8115003F05BF94FF48021144BDC
S315080003501448CDE90713144B0DAA0A9320230B93CF
S3150800036001238DF83130114B07A9009302AB8DF8A4
S3150800037025408DF8245002F01BFE044618B188214A
S315080003800B4802F092FF00214FF4E13002F06AFFB9
S31508000390204615B030BD00BF8836000800C005509D
S315080003A024C00550641000200512002018100020F3
S315080003B05836000808B5FFF7ABFF28B1BDE8084076
S315080003C0B821024802F071BF08BD00BF58360008C0
S315080003D0014803F0C5B800BF6410002008B50348FB
S315080003E002F0FCFFBDE8084002F0DEBE5C390008FA
S315080003F0014802F0F3BF00BF5C3900080348044A0D
S315080004000449121A921002F03DBF00BF700100089D
S31508000410700100082812002008B500F02FF8FFF731
S31508000420EDFF124B12498B4212D30020114B124991
S315080004308B4218D3FFF7E8FE186850F82240586830
S3150800044040F82240013298688242F5D30C33EAE735
S315080004500022F8E71C6844F8220001325C68A242D0
S31508000460F8D30833E4E70022F8E700BF583A000853
S31508000470643A0008643A0008643A000870B54FF414
S315080004808041124B124A134D9A60D3F8882005F51D
S31508000490005442F47002C3F888200F4A91664FF060
S315080004A0FF3222660D4A62660222C3F8D020BFF3E5
S315080004B04F8FBFF36F8F4FF44036002002F0C4FA17
S315080004C00020E66002F0A6FA2E6170BD00ED00E09D
S315080004D00000000800800044009000507FFF7F0164
S315080004E0014B1868704700BF2C120020014B18609A
S315080004F0704700BF2C120020084B1B6F03F0070340
S31508000500022B04D0032B05D0012B05D0FEE7044BA4
S3150800051018687047034BFBE7034870470080005094
S315080005202C12002034120020002D310108B5FFF7E7
S31508000530E3FF054B1B6FC3F303330133B0FBF3F043
S31508000540024B186008BD00BF00800050281200202A
S315080005500048704700B4C404014B1868704700BFD0
S3150800056034120020054B1860054B1B6F03F0070378
S31508000570032B01D1FFF7DABF704700BF3412002002
S315080005800080005000487047002D31014FF0B443F9
S315080005909868C0F304400C280AD8DFE800F00B0975
S315080005A009090909072119091B1D1F000F4870476A
S315080005B0002070479B6803F04073B3F1807F11D029
S315080005C0B3F1007F10D00A4A002B08BF10467047C7
S315080005D008487047084870470848704708487047F1
S315080005E0084870470848704708487047405DC60085
S315080005F000093D00C0EA210180BA8C010048E801E3
S31508000600005A62020024F40080841E0040420F0053
S31508000610014B1868704700BF3012002013B500243C
S315080006202948019402F0DAFE012304220321204618
S3150800063001F0D2FD204602F0C4FE0122234B05201C
S31508000640C3F8442401A902F0C4FE002839D1204B7E
S31508000650D3F8F02042F00102C3F8F020D3F8FC20CA
S3150800066042F08072C3F8FC201A4AA3F55D431A606B
S31508000670019B194A03F5D52303F2FC43B3FBF2F3B6
S31508000680164A013B13610223C2F8F0304FF4807317
S31508000690C2F804334FF06043114AC3F8B02F114A29
S315080006A0C3F8802ED3F8002E42F48072C3F8002EC9
S315080006B0FF2283F82020D3F8002E22F48072C3F894
S315080006C0002E02B010BD00BF5C39000800D00350F0
S315080006D000ED00E0FF030040F8590D00000004E0BB
S315080006E055CEACC50900010030B54FF06043D3F8CC
S315080006F0802ED20715D501240B4D8440D5F8FC2051
S3150800070042F08072C5F8FC20D3F8002E2243C3F8C5
S31508000710002E53F82020002AF0D003F820100020DD
S3150800072030BD1120FCE700BF00ED00E02DE9F04FD9
S3150800073085B09A46554B06461B780F461546DDF892
S315080007403C909DF844B0DDF85080002B00F097806F
S31508000750072A00F296800E9B002B00F09280B9F1D2
S31508000760000F00F08E80129BB3F5006F00F38980AE
S31508000770012803D1109B002B00F08380444B03EB28
S3150800078005131B7B002B7ED0424C102200216846A5
S3150800079002F036FF04EB45141022A7BB3946204663
S315080007A002F02EFF43F210036380BBF1000F03D162
S315080007B0E37843F00303E370364A0E9B02EB451CCD
S315080007C0CCE90193129B6901581E9DF84C30C0F381
S315080007D00A0003F003039B0643EA001E53582E48FB
S315080007E0012E00EA03004EEA0003CDF800A053509C
S315080007F017D0B8F1000F2ED19CF8023068F3041315
S315080008008CF8023027E00021204602F0F9FE4FF46A
S3150800081044736380BBF1000FCED1E37843F0300315
S31508000820C9E713230CF1100ECCF80C309CE80F0026
S315080008308EE80F006FF00301DCF81C20109B61F3B3
S315080008409F02012FCCF81C20CCF8143003D1CCF829
S315080008501890CCF8043000270D4A290102EB05133D
S3150800086042F80180159A28465A60694622469F60D2
S315080008705E7301F079FD384605B0BDE8F08F07488C
S31508000880FAE70748F8E70748F6E700BF2512002009
S315080008907C1100207C1000200F80FFF3028000F0FE
S315080008A0018000F0078000F038B5124B05461B782A
S315080008B0DBB1E0B102F001FD0F4A00231146147BBB
S315080008C054B92B6001251A0101EB03131D738C50D3
S315080008D002F0F9FC204638BD0133082B02F110025C
S315080008E0EDD102F0F0FC0548F5E70548F3E70548C1
S315080008F0F1E700BF251200207C110020048000F0DB
S31508000900028000F0018000F038B502F0D6FC002322
S3150800091005460B4A147B6CB90133082B02F1100209
S31508000920F8D101F0A3FC074B28461C7002F0CBFC5B
S31508000930204603E0284602F0C6FC034838BD00BF3F
S315080009407C11002025120020058000F010B50D4B03
S3150800095004461B7893B1072812D802F0AEFC0A4B5E
S3150800096003EB04131A7B2AB100241C7302F0ABFCB8
S31508000970204610BD02F0A7FC0448FAE70448F8E749
S315080009800448F6E7251200207C110020068000F0B6
S31508000990028000F0018000F013B5154B186800239B
S315080009A001908DF8043002F088FC124B1C7824B1B3
S315080009B002F089FC104802B010BD01221A7002F03C
S315080009C082FC0E4B01A81C731C7783F82C4083F815
S315080009D03C4083F84C4083F85C4083F86C4083F8CD
S315080009E07C4008238DF8073001F076FC2046E2E7C4
S315080009F0A436000825120020038000F07C11002090
S31508000A0008B50A4A12785AB107280BD8084A02EBE1
S31508000A1000131B7B43B1002101F03EFC002008BDFA
S31508000A200448FCE70448FAE70448F8E725120020DA
S31508000A307C110020028000F0018000F0078000F0A1
S31508000A4008B50A4A12785AB107280BD8084A02EBA1
S31508000A5000131B7B43B1012101F01EFC002008BDD9
S31508000A600448FCE70448FAE70448F8E7251200209A
S31508000A707C110020028000F0018000F0078000F061
S31508000A8008B50A4A127852B107280AD8084A02EB6A
S31508000A9000131B7B3BB101F0EDFC002008BD0548A7
S31508000AA0FCE70548FAE70548F8E700BF25120020E5
S31508000AB07C110020028000F0018000F0078000F021
S31508000AC00D4B1B7893B1072812D889B10B4B03EB52
S31508000AD000131B7B73B10A4B1A6D01238340134223
S31508000AE014BF0123002300200B7070470548704788
S31508000AF00548704705487047251200207C110020DC
S31508000B0000000450028000F0018000F0078000F029
S31508000B1010B50B4A0C46127862B107280CD859B1A1
S31508000B20084A02EB00131B7B43B101F0BFFC20709F
S31508000B30002010BD0448FCE70448FAE70448F8E733
S31508000B40251200207C110020028000F0018000F0B0
S31508000B50078000F02DE9F041174B1F6D5B6D1F40B4
S31508000B6000D5FEE701260025144CDFF858803742E9
S31508000B7018D02368C8F85060A3B1A1682846013187
S31508000B806268A1609847637B012B0BD150B90C4B67
S31508000B9003EB45131A7B60F341021A731A7F60F35D
S31508000BA041021A770135082D4FEA460604F110046A
S31508000BB0DDD1BDE8F08100BF000004507C110020A3
S31508000BC07C10002000200450044BD3F88420D20661
S31508000BD0FBD4D3F88400C0F381107047004000505E
S31508000BE008B5334B98424FD027D8324B984245D058
S31508000BF017D8314B98423ED00AD838B12F4B984275
S31508000C0039D041F2A6312E4802F04FFB002034E0DD
S31508000C102C4B98422FD02C4B9842F2D12B4B586E26
S31508000C202BE02B4B98422CD003F5371303F5D863EA
S31508000C309842E6D1254B986F1FE0264B98422FD055
S31508000C400CD8254B984223D0244B984224D0244BC9
S31508000C509842D6D11D4BD3F884000EE0214B98421A
S31508000C6022D003F5740303F510539842C9D1174BE4
S31508000C70D3F8980001E0154B986D08BD134B186F13
S31508000C80FBE7124B586FF8E7104BD3F88000F4E7F0
S31508000C900E4BD3F88800F0E70C4BD3F88C00ECE742
S31508000CA00A4BD3F89000E8E7084BD3F89400E4E73A
S31508000CB080BA8C01405DC60080841E0040420F0049
S31508000CC0A836000800093D00C0CF6A000080E00F82
S31508000CD00024F400007E560380D54302006CDC0233
S31508000CE00048E8010090D00338B51A4B0546D3F8FA
S31508000CF020010C4600F00700062821D8DFE800F09E
S31508000D0028040C1410181C00FFF7EAFB052305B18C
S31508000D10286004B1236038BDFFF71EFC0323F6E7FD
S31508000D20FFF734FC0723F2E7FFF72CFC0223EEE774
S31508000D30FFF7D6FB0623EAE7FFF70EFC0423E6E7F0
S31508000D40054841F27C2102F0B0FA00231846DEE796
S31508000D500123DCE700800050A836000838B5194B97
S31508000D600546D3F828310C4603F00703013B052B4B
S31508000D7020D8DFE803F003131B0F0B17FFF7B0FBB0
S31508000D80052305B1286004B1236038BDFFF7A8FB29
S31508000D900623F6E7FFF7FAFB0723F2E7FFF7DCFB84
S31508000DA00323EEE7FFF7D8FB0423EAE7FFF7EAFB9E
S31508000DB00223E6E7044841F2840102F076FA0023AA
S31508000DC01846DEE700800050A8360008F7B5002769
S31508000DD0144B0197D3F88041064604F00304022C0D
S31508000DE00D4614D0032C0DD0012C14D1394601A878
S31508000DF0FFF77AFF0F240EB1019B336005B12C6013
S31508000E0003B0F0BDFFF7C2FB07240190F3E7FFF735
S31508000E10B9FB0190EFE741F2D131034802F045FAF8
S31508000E203C46E8E700800050A836000838B50F4B66
S31508000E300546D3F890320C4603F00303012B09D07C
S31508000E40022B0BD1FFF7A2FB072305B1286004B1DB
S31508000E50236038BDFFF796FB0223F6E7044841F204
S31508000E60701102F022FA00231846EEE700800050BF
S31508000E70A836000837B500230193194B0546D3F861
S31508000E8020320C4603F00703042B1FD8DFE803F0D3
S31508000E9025030F141900002101A8FFF75FFF11238E
S31508000EA00DB1019A2A6004B1236003B030BDFFF783
S31508000EB06DFB07230190F3E702F0F1F90A2301908D
S31508000EC0EEE7FFF7A5FB09230190E9E741F24301A5
S31508000ED0044802F0EAF90023E2E70123E0E700BF4D
S31508000EE000800050A836000838B5104B0546D3F8E0
S31508000EF040310C4603F00303022B0BD0032B0DD015
S31508000F00012B0FD102F0CBF90A2305B1286004B1F1
S31508000F10236038BDFFF77CFB0923F6E702F0C2F928
S31508000F200B23F2E701230020EFE700BF0080005003
S31508000F3037B500230193184B0546D3F860320C46A3
S31508000F4003F00703013B032B1FD8DFE803F0020E6B
S31508000F501914002101A8FFF7C7FE0F230DB1019A46
S31508000F602A6004B1236003B030BD002101A8FFF751
S31508000F70BBFF1023F2E7FFF709FB07230190EDE714
S31508000F80FFF700FB02230190E8E741F2E801034876
S31508000F9002F08BF90023E1E700800050A83600082C
S31508000FA073B500240F4B0194D3F87032064603F04C
S31508000FB00303012B0D4607D0022B11D041F246112F
S31508000FC0094802F072F904E0214601A8FFF78CFFF0
S31508000FD010240EB1019B336005B12C6002B070BDC0
S31508000FE01424F6E700800050A836000838B5164BDA
S31508000FF00546D3F800020C4600F00700042819D865
S31508001000DFE800F020030B0F130002F048F90A236B
S3150800101005B1286004B1236038BDFFF7F9FA092342
S31508001020F6E702F03FF90B23F2E7FFF77FFA0E2304
S31508001030800AEDE7054841F28F4102F036F90023B0
S315080010401846E5E70123E3E700800050A8360008C4
S3150800105038B5164B0546D3F808020C4600F00700CB
S31508001060042819D8DFE800F020030B0F130002F05C
S3150800107016F90A2305B1286004B1236038BDFFF7C5
S31508001080C7FA0923F6E702F00DF90B23F2E7FFF793
S315080010904DFA0E23800AEDE7054841F2C74102F0F2
S315080010A004F900231846E5E70123E3E7008000502A
S315080010B0A836000838B5104B0546D3F840320C461A
S315080010C003F00303022B0BD0032B0DD0012B0FD1FA
S315080010D002F0E5F80A2305B1286004B1236038BD9B
S315080010E0FFF796FA0923F6E702F0DCF80B23F2E796
S315080010F001230020EFE700BF0080005038B5124BEF
S315080011000546D3F850320C4603F00303022B0FD0E2
S31508001110032B05D0012B0FD102F0C1F80A2302E0F8
S3150800112002F0C0F80B2305B1286004B1236038BD6E
S31508001130FFF76EFA0923F6E7044841F2B40102F014
S31508001140B4F800231846EEE700800050A8360008D9
S3150800115038B5104B0546D3F860310C4603F0030347
S31508001160022B0BD0032B0DD0012B0FD102F097F8D1
S315080011700A2305B1286004B1236038BDFFF748FA91
S315080011800923F6E702F08EF80B23F2E70123002085
S31508001190EFE700BF0080005010B5B0F5207F34D0CF
S315080011A009D8B0F5007F2AD003D898B1B0F5C07F2A
S315080011B010D0002421E0B0F5607FFAD1154BD3F8A2
S315080011C08030C3F301149B0617D5032C15D040F2C3
S315080011D096210FE00F4B1C6F230B13F00E0FC4F371
S315080011E003340AD0072C08D00F2C06D0032C04D0C1
S315080011F040F28621084802F058F8601C10BD054BDD
S31508001200D3F89040C4F30464F7E7024B1C6FC4F3A9
S315080012108024F2E700800050A836000838B54FF45D
S315080012208032104B04469A6600200D46FFF7B4FF3D
S3150800123041F671320C4B6043DC69DA635A6804F490
S31508001240803422F440125DB90849884294BF0020D0
S315080012500120000502435A600CB10022DA6338BD4A
S315080012600349F2E70090005000000350005A62025A
S31508001270002D310138B5430904460D460ED140F21A
S3150800128033310D4802F011F8002304F01F0485B12C
S3150800129003F580530122A2401A6038BD012B04D001
S315080012A0022B04D040F24131EBE7044BEDE7044B47
S315080012B0EBE703F50053EDE7A83600086480005015
S315080012C06880005030B585B00021B0F5807F0446AF
S315080012D0019100F000816BD8002800F0DA80A0F1B7
S315080012E02004602C74D8602C72D8DFE814F0D20081
S315080012F0D500D200D500EA00EA00EA00EA00EA00D2
S31508001300D500EF007D0005019D007D00D500D500C4
S31508001310D5007100710071007100710071007100D3
S315080013200501D500D500D5001D010A01D5007100BB
S315080013307100710071007100710071007100710017
S315080013407100710071000F01EA00D200D200D200CC
S31508001350B0007D007D00B80014019200C700C700E8
S3150800136071007100710071007100710071007100E7
S3150800137071007100710071007100710071007100D7
S3150800138071007100710071007100710071007100C7
S3150800139071007100710071007100710071007100B7
S315080013A07100710071007100710071007100CC004C
S315080013B0B0F5E06F00F0A5803BD8B0F5607F76D039
S315080013C01DD8B0F5007F72D008D8B0F5C07F60D0C0
S315080013D04FF49361574801F068FF57E0B0F5207F56
S315080013E05AD0B0F5407FF3D1FFF7A0F804464FF482
S315080013F02070FFF7D1FEB4FBF0F4640855E0B0F5B1
S31508001400B06F63D00AD8B0F5806F5AD0B0F5A06F28
S31508001410DED1002101A8FFF72DFD37E0B0F5C06F3A
S315080014206AD0B0F5D06FD3D1002101A8FFF7DEFD51
S315080014302CE0B0F5286F6ED016D8B0F5186F65D0C9
S315080014400AD8B0F5F06F6FD0B0F5106FC0D1002193
S3150800145001A8FFF7FDFD19E0B0F5206FB8D100210E
S3150800146001A8FFF765FD11E0B0F5306F58D0AFD38E
S31508001470B0F5386F40D0B0F5406FA9D1002101A86A
S31508001480FFF76CFC02E0FFF737F80190019805B00A
S3150800149030BDFFF74BF8F8E7FFF748F804464FF476
S315080014A02070FFF779FEB4FBF0F40194EEE7FFF73E
S315080014B023F805462046FFF76FFEB5FBF0F50195C4
S315080014C0E4E7002101A8FFF70FFCDFE7002101A8E8
S315080014D0FFF77CFCDAE74FF0E02302911B695B0714
S315080014E005D5FFF723F80290029B0193CEE703A9DF
S315080014F002A8FFF7F9FCF7E7002101A8FFF7F4FCBB
S31508001500C4E7002101A8FFF7D5FDBFE7002101A820
S31508001510FFF7F4FDBAE7002101A8FFF741FDB5E79B
S3150800152001A8FFF783FCB1E7002101A8FFF710FE29
S31508001530ACE700BFA836000808B58020FFF7C2FE52
S31508001540034B98429EBF4FF48032024B1A6708BD80
S31508001550005A620200A000501FB503460020B3F5EA
S31508001560807F019000F0D78077D8582B68D8382B21
S3150800157005D8243B092B49D940F27D51BFE0393BB8
S315080015801F2BF9D801A252F823F000BF391700081B
S315080015907915000879150008791500084317000819
S315080015A089170008791500087915000879150008C3
S315080015B079150008791500087915000879150008C5
S315080015C079150008791500087915000879150008B5
S315080015D07915000879150008931700088116000880
S315080015E0791500087915000879150008C516000848
S315080015F079150008791500089D170008A71700082F
S315080016007F170008E7160008E7160008092BB3D865
S3150800161001A252F823F000BF8116000881160008BF
S315080016208116000881160008811600087915000839
S315080016300717000879150008391700089F160008CB
S31508001640802B99D15C4B1B6F03F00703013B032BDF
S3150800165053D8DFE803F0504D8890B3F5086F75D07E
S3150800166022D8B3F5C06F67D00FD8B3F5A06F00F0D6
S315080016708680B3F5B06F46D0B3F5806F7FF47CAF44
S31508001680002001A9FFF730FB41E0B3F5E06F7BD0FE
S31508001690B3F5F06F55D0B3F5D06F7FF46DAF00207A
S315080016A001A9FFF7A3FC32E0B3F5286F7BD00ED86B
S315080016B0B3F5186F6DD0B3F5206F6FD0B3F5106F13
S315080016C07FF45AAF002001A9FFF7C2FC1FE0B3F56B
S315080016D0306F6DD0FFF450AFB3F5386F2CD0B3F53B
S315080016E0406F7FF449AF002001A9FFF737FB0EE0F2
S315080016F0052301930BE00223FBE740F2CA412F487A
S3150800170001F0D3FD03E0002001A9FFF75FFB019874
S3150800171005B05DF804FB4FF0E02302901B695B07F8
S3150800172005D5FEF703FF0C230393039BE1E703A903
S3150800173002A8FFF7D9FBF8E7002001A9FFF7D4FBB9
S31508001740E5E7002001A9FFF703FDE0E71A4BD3F808
S31508001750003103F00303022B07D0032B09D0012B1A
S315080017600BD1FEF7F9FE0323C3E7FEF751FF092362
S31508001770BFE701F092FD0823BBE70123B9E7002084
S3150800178001A9FFF777FBC2E7002001A9FFF792FC42
S31508001790BDE7002001A9FFF7B1FCB8E7002001A9C1
S315080017A0FFF7C6FBB3E7002001A9FFF7F9FBAEE791
S315080017B001A9FFF73BFBAAE700800050A8360008FE
S315080017C04FF48032074B0849586E03F580535A6622
S315080017D04B6A23F001034B62C3035CBF034B5A6693
S315080017E0704700BF0080005000C0075000A000509E
S315080017F0F8B5036804460F2B04D940F677318048BC
S3150800180001F053FD63680F2B04D940F67A317C4802
S3150800181001F04BFDA3680F2B04D940F67D317848BB
S3150800182001F043FD237B0F2B04D94FF4386174482C
S3150800183001F03BFD637B0F2B04D940F683317048DA
S3150800184001F033FDA37B3F2B04D940F686316C4863
S3150800185001F02BFDE37B3F2B04D940F6893168481C
S3150800186001F023FD2369032B04D940F68C31644823
S3150800187001F01BFD6369032B04D940F68F316048DC
S3150800188001F013FDE369032B04D940F692315C4855
S3150800189001F00BFD8020FFF75FFE032800F08A8029
S315080018A04FF48012574B584D5A6645F60E034FF0C3
S315080018B0A062C5F88030554B9A624FF4803203F522
S315080018C080539A62AB6DDA03FCD4AE6D16F080468F
S315080018D0FBD1D4E900231B0543EA0263E27B4C48AB
S315080018E01343227B4B4F43EA0243627B43EA0233AC
S315080018F0A27B43EA82132B61AA69D4E904131B0667
S3150800190043EA816302F000421343A27E4FF440612A
S315080019101343227E43EA0243627E43EA0223AB6113
S315080019204FF4006201F003FD2B6AE17EE26923F0C1
S315080019300F0343EA8103002A3DD12B6294F8243031
S3150800194094F82010AA6ADB0043EA41133A4013438D
S3150800195094F82120304943EA021343F480332A4A93
S31508001960AB62936D31EA0303FBD14FF080712748D0
S3150800197081621369A56823F4700343EA055313616A
S315080019804FF00043836194F822300BB9234B9962D8
S3150800199094F823303BB94FF48032204B9A621A4AA6
S315080019A0936D5B00FCD494F825301BB1164B1C4A8A
S315080019B0C3F88020F8BD134343F00803022A2B62BC
S315080019C008D12E614FF408524FF47F411548AE6195
S315080019D001F0ADFC0C4994F822308A6A94F820008C
S315080019E01B063A4043EA4013134394F8242043EA7B
S315080019F0C20394F8232043EA02438B62D3E700BF6D
S31508001A00A8360008009000500040005A0050005ABE
S31508001A103840005AC7FFFEFE030001000060005A66
S31508001A20F1A7FFFF3440005A014B93F900007047B5
S31508001A303C12002010B543680446072B04D940F62B
S31508001A40D3512A4801F031FCA368032B04D940F688
S31508001A50D551264801F029FC2378032B04D940F6F2
S31508001A60D751224801F021FC94F90130002B04DA01
S31508001A7040F6D9511D4801F018FC4FF400011C4AE4
S31508001A80637851664FF4D151022002F5B83251629B
S31508001A9018494F2B48604FF0010028BF4F2301F526
S31508001AA0805148601169C903FCD4217843EA0123AF
S31508001AB05361D4E901131B0143EA0123617B0B43FC
S31508001AC0217B43EA41039360E37BA17B1B0143EA45
S31508001AD04113617C0B43217C43EA41035360A37C99
S31508001AE013B16FF4D153536210BD00BFA836000876
S31508001AF00090005000100250014B1880704700BF3C
S31508001B003A120020014B1880704700BF3812002097
S31508001B1010B5B0F5207F65D00ED8B0F5007F4FD050
S31508001B2003D800B3B0F5C07F1DD040F21631BDE82A
S31508001B301040344801F0B9BBB0F5607FF5D14C1EB2
S31508001B40012C06D9042904D040F2F7212D4801F0CA
S31508001B50ACFB2D4AD2F8803023F0300343EA041355
S31508001B60C2F8803010BD4C1E012C0AD9102903D8A2
S31508001B70264BCB40DB0704D440F2C921214801F0AB
S31508001B8094FB01F0E3FB01F0EFFB4FF48031204BAF
S31508001B901D4A1967136F23F4704343EA0433136726
S31508001BA0FEF7C4FC0446FFF70FF8C0F10201204611
S31508001BB001F0D4FB00F03EF8BDE81040FFF7BCBCCE
S31508001BC04C1E1F2C04D940F20A310E4801F06DFB59
S31508001BD00D4AD2F8903023F0F85343EA0463C2F86A
S31508001BE09030BFE74C1E012C04D94FF444710548C8
S31508001BF001F05BFB044A136F23F4806343EA8423F2
S31508001C001367AFE7A83600080080005010010100EE
S31508001C100090005008B50121022000F071F901F08A
S31508001C2095FB01F0A1FB4FF48032014B1A6708BD02
S31508001C300090005008B54FF4C070FFF743FBBDE8AD
S31508001C4008400449884294BF012102214FF42070BC
S31508001C50FFF75EBF80F0FA022DE9F0410546FEF770
S31508001C60BFFF431E0333044604D940F6CF113B4851
S31508001C7001F01BFB4FF4C022394B5A6603F5983323
S31508001C805A68012A04D137494A605A689207FCD42F
S31508001C908020FFF761FC052807D101F057FB01F00A
S31508001CA063FB4FF480322E4B1A672F4B24F0407497
S31508001CB09D4239D02D4B9D4239D0FEF711FC854205
S31508001CC0064603D90121284600F06EF9284FFB681D
S31508001CD013F0060FFBD1D7F80880BC60BB686340D9
S31508001CE013F4F81F26D12846FEF700FC8020FFF7DC
S31508001CF033FC052814D1FEF719FCA842044604D97A
S31508001D0040F62821154801F0D0FAFEF75DFFC0F12C
S31508001D100201204601F022FBFFF78CFFFFF70CFCBF
S31508001D20AE4213D2BDE8F08144F00074C5E744F032
S31508001D308074C2E740F61721084801F0B6FA8020F9
S31508001D40C7F80880FFF708FC052805D0BDE8F0416C
S31508001D500121002000F028B93546CCE7A83600084E
S31508001D600090005000E0015040420F0080841E00A1
S31508001D700000015070B54E4B0546984273D041D8C5
S31508001D80A3F5B703A3F55863984265D033D8494BF2
S31508001D90494E984251D017D8002877D041F2C91138
S31508001DA0464801F082FA40F67371444801F07DFA1C
S31508001DB04FF40022404B5A663E4B9D4276D0002493
S31508001DC03F4A954236D05DE03D4B984227D03D4B81
S31508001DD09842E3D13C4BD3F8A040621E033224F06C
S31508001DE040744CD940F67371344801F05EFA4FF4EA
S31508001DF000237366E4E7354B9842CFD1324BD3F8CC
S31508001E00BC402CE0324B984231D0324B984232D00B
S31508001E10314B9842C2D12C4BD3F8C8401FE02A4B0D
S31508001E20D3F8A040621E033224F04074DAD84FF487
S31508001E300023736644F0807424E0234BD3F8A04053
S31508001E40621E033224F040742AD84FF400237366C6
S31508001E50234643F0007415E01B4BD3F8B840621EC6
S31508001E60154E0332BBE7184BD3F8C040F7E7164BBD
S31508001E70D3F8CC40F3E7144BD3F8D040EFE74FF450
S31508001E80002373664FF0B442946070BD40F67371D8
S31508001E900A4801F00AFA4FF400232C467366F1E764
S31508001EA040F67371054801F000FACEE70023D0E743
S31508001EB0C0EA210140420F0000900050A8360008F1
S31508001EC080841E0000093D000080E00F0024F40015
S31508001ED00048E801005A620280BA8C01024A536B34
S31508001EE00342FCD1704700BF00400950034A0179FC
S31508001EF0D36E23F030030B43D3667047004000507F
S31508001F00F8B50446244BD3F88420D006FBD4D3F87E
S31508001F108430C3F381139C423CD0FEF7EDFA012CC2
S31508001F2005460BD11D4B984204D940F2B7711C489F
S31508001F3001F0BBF90121284601F010FA01F0B6F9C3
S31508001F404FF00072174B07465A66204601F028FAEA
S31508001F504FF48063104E621E93403367736E9A0186
S31508001F6003D4D6F884309B060AD5384601F0A2F980
S31508001F70022C0FD12846BDE8F840002101F0EEB941
S31508001F80D6F884309906E9D540F2C571044801F0BF
S31508001F908CF9E3E7F8BD00BF00400050005A620222
S31508001FA0FF3600080060005010B50C4608B9FEF769
S31508001FB0A3FA074B21461B783BB1064B984204D837
S31508001FC00120BDE81040FFF79BBF0220F9E700BFDC
S31508001FD026120020005A620238B54FF00042244B00
S31508001FE0244C5A664AF6CD33656C014605F0010560
S31508001FF0236428BB0120FFF771FF6368DB0715D54B
S315080020001D4B586008461D4B226BD2070CD49842CC
S3150800201008D1072415B1174B194A1A6401F0C1F9FA
S31508002020204638BD0130EFE79842F2D00024F1E7A8
S315080020300132236B13F0080305D08A42F8D1E8E78A
S3150800204000220E49F5E78A42E3D020210A4A916226
S315080020500121A2F5805251600649084A886A80061D
S3150800206003D49342D5D00133F8E79342DDE700BFA6
S3150800207000900050004009500060095040420F008F
S315080020803254FFFF38B54FF00042164B01465A66E8
S315080020904AF6CD33144C154A656C236443780B20F5
S315080020A05B0043F00103D363FFF718FF63688A7880
S315080020B023F4F87343EA02136360CA784B7943EA58
S315080020C00223A3600A798B7943EA022323610878FD
S315080020D0FFF782FFEB0744BF054B236401F061F964
S315080020E0012038BD009000500040095000400050C3
S315080020F03254FFFF70B50F28044605D940F65261E1
S31508002100124801F0D2F80F244FF00042104B114943
S315080021105D6E03F580535A664AF6CD334E6C8020C1
S315080021200B64FFF7DBFE0B6A23F00F0323430B62F6
S31508002130F30744BF084B0B64002DA2BF4FF00042C3
S31508002140064B5A6601F02DF970BD00BFFF36000830
S3150800215000800050004009503254FFFF00A0005094
S3150800216038B5032804460D4605D8094B33F8103010
S31508002170CB40DB0704D440F22D41064801F095F820
S31508002180302301225C43044BAA401A5138BD00BFD4
S31508002190063800085637000840D0035038B50328DB
S315080021A004460D4605D8094B33F81030CB40DB07FB
S315080021B004D440F2FE31064801F077F830230122B4
S315080021C05C43044BAA401A5138BD00BF06380008C4
S315080021D05637000840E003502DE9F041032804462D
S315080021E00D461746984605D81D4B33F81030CB4098
S315080021F0DB0704D44FF4B0711A4801F056F837B12A
S3150800220029462046B8F1000F20D0FFF7A9FF0F2175
S31508002210072D04EB440688BFA5F108034FEA061606
S31508002220114895BFAB009B0004360C3607FA03F23B
S315080022309940304401F0B6F87FB929462046B8F1EE
S31508002240000F06D0BDE8F041FFF78ABFFFF7A6FFEB
S31508002250DDE7BDE8F041FFF7A1BFBDE8F08100BFAB
S3150800226006380008AE37000830C0035010B51620EF
S3150800227000F0B2FB0024FF22064B21465C652020B5
S315080022809A625C60FEF7F6FF2146BDE81040212001
S31508002290FEF7F0BF0000045038B5072804460D467F
S315080022A003DD7721084801F000F81F2C03D9912196
S315080022B0064800F0FAFF064A064B002D08BF1346EB
S315080022C00122A2401A6038BD0E3800086638000898
S315080022D0401004504020045010B5044618B9912106
S315080022E01F4800F0E2FF23781B0613F0604F03D067
S315080022F092211B4800F0D9FFE3780F2B03D9A321BD
S31508002300174800F0D2FF01212020FEF7B3FF012174
S315080023102120FEF7AFFF0122124B16205A602278C1
S3150800232012069A606178A27842EA01429A61FF220F
S315080023309A6200229A631A644FF000425A654FF077
S31508002340FF3203F500531A6500F07EFB1620E1788C
S3150800235000F088FBBDE81040162000F05BBB00BF0C
S315080023600E380008000004502DE9F0410126C3B2DA
S31508002370072805460C46174606FA03F603DDEC2140
S31508002380384800F092FF1CB9ED21364800F08DFF61
S31508002390236823F47C1323F00F031BB1F021314883
S315080023A000F083FFA37A1B0413F47C0F04D040F2D9
S315080023B009112C4800F079FFE37A1B0513F07E6FAC
S315080023C004D040F20B11274800F06FFF237B5B0512
S315080023D013F0FE5F04D040F20D11224800F065FFAD
S315080023E0214BDFF88C801E65AB00226803F1A04301
S315080023F003F588235A60302202FB0585637B27F0A4
S3150800240003072B66E37AA27A1B0543EA0243227B7B
S3150800241043EA4253EB652F6700F04FFF134B5E65A7
S31508002420237A23B1D8F840303343C8F84030637A6A
S3150800243023B1D8F838303343C8F838302279A3792D
S3150800244043EA0243084A93616179E37943EA01431F
S3150800245006498B61064B56639E64BDE8F04100F061
S3150800246032BF00BF0E380008002004500010045088
S315080024700000045010B50124C3B2072804FA03F477
S3150800248004DD40F29711074800F00FFF00F015FF32
S31508002490054B5A6D22EA04025A659C62BDE8104053
S315080024A000F011BF0E3800080000045010B50124D2
S315080024B0C3B2072804FA03F404DD40F2B5110A484A
S315080024C000F0F3FE00F0F9FE084BDA6A224208D162
S315080024D05B6B9C430CBF0124002400F0F4FE2046ED
S315080024E010BD0024F9E700BF0E38000800000450AC
S315080024F0F8B507460C461D4616464AB94FF4A1716B
S31508002500314800F0D2FE24B1402D09D1062328E037
S3150800251021B94FF42070FEF7D5FE0446402D42D06F
S31508002520402D09D87DB1202D17D040F28911BDE87C
S31508002530F840254800F0B9BE602DF6D1B6EB940FE9
S315080025403CD804230DE0B6EB141F04D94FF4BA7136
S315080025501D4800F0AAFE102303E0B6EBD40F1CD8E2
S3150800256008235E43730803EB4413B3FBF6F3174ED5
S31508002570203BB6EBC30F4FEAC30404D24FF4D07125
S31508002580114800F092FEBB68344023F06003BB603C
S31508002590BB681D43BD60FC61F8BD40F279110A486D
S315080025A000F083FEDCE70623B4FBF3F3B342ADD2B7
S315080025B04FF4BF71044800F078FEA7E740F2831194
S315080025C0014800F072FEBCE7BD380008F8FF7F003E
S315080025D038B50C4B044698420D4604D04FF4337177
S315080025E0094800F062FE012204F580535A60EB4365
S315080025F0934003F00A036361656115B904F5005455
S31508002600626038BD00C00550BD38000810B5124BD1
S315080026100446984204D040F24241104800F045FE74
S31508002620012104F58053596040F6AA6341F2050278
S31508002630636100230A48A360E365E26004F500527B
S315080026402361E361E36490640348A365844204BF9D
S3150800265023656365516010BD00C00550BD3800088C
S31508002660FFFF010070B5304B044698420D4604D072
S3150800267040F2FD212D4800F018FE2046FFF7C6FF60
S31508002680012304F580567360AB7C1BB1A36843F045
S315080026908043A360EB7C5BB1234B9C4202BF2A7D3F
S315080026A0A3F51033C3F8D421E36D43F08003E36543
S315080026B02A8A6B7B20461343EA891343E3602B7B04
S315080026C0D5E90112FFF714FF6B7D1BB1A36843F42C
S315080026D08033A360AB7D1BB1A36843F40043A360BA
S315080026E0EB7D2A7E1B07120502F4E00203F0E043A5
S315080026F01343A3656B7E9A1E012A4FF0020209D87E
S315080027000B49032BC1F8982709D10423F3652B78C5
S31508002710636170BD0749012BC1F89827F4E70422C5
S3150800272004F50053DA65F2E700C00550BD38000825
S3150800273000D0035000E0035070B50D46E8B10368B9
S3150800274013F4E07F03F03F06C3F3821210D0012A88
S3150800275013D10B4C9B0603D591210A4800F0A5FD21
S3150800276045B104F5805401230020B340236070BDB1
S31508002770054CEFE704F50054F5E70E20F7E700BF30
S3150800278068800050663800086480005030B58BB009
S315080027906C46754D0FCD0FC42B68684623604FF005
S315080027A07E636C4693F89C30704DFF2B18BF8DF8EE
S315080027B00130FFF73FF93220FFF79EF90FCD0FC41E
S315080027C00FCD0FC495E8030084E80300684BD3F8DF
S315080027D04C21110340F1B380A3F5FE431C884FF644
S315080027E0FF739C4208BF6B248DF81940FFF71CF94C
S315080027F0044484F308045F488DF81840FDF7B2FED8
S315080028006846FEF7F5FF3220FFF77CF95A48FFF7CE
S3150800281023FA5A4C5A48FFF7ADFA01213620FEF73B
S3150800282029FDFFF7F7F9236F002023F0070343F08C
S3150800283003032367236F23F4744343F480632367F6
S3150800284000F097FD4F4BD3F8FC20D2017BD4D4F887
S315080028508030C4F88030494CD4F8203123F007037F
S3150800286043F00203C4F82031D4F8283123F00703D3
S3150800287043F00203C4F82831D4F8803123F0030367
S3150800288043F00103C4F88031D4F8903223F00303EF
S3150800289043F00103C4F89032D4F8403123F003031F
S315080028A043F00203C4F84031D4F8603123F003033F
S315080028B043F00203C4F86031D4F8403223F003032E
S315080028C043F00203C4F84032D4F8003223F0070379
S315080028D043F00203C4F80032D4F8083223F00703A1
S315080028E043F00203C4F80832D4F8503223F0030345
S315080028F043F00203C4F85032D4F8703223F00303CD
S3150800290043F00103C4F87032D4F8203223F00703E9
S3150800291043F00103C4F82032FEF752FF4FF0E022DD
S315080029200020136963F004031361D4F8603223F0BE
S31508002930070343F00103C4F860320BB030BDD3F887
S315080029405041E4B250E7D3F8FC2022F08072C3F875
S31508002950FC20D4F88020C4F88020D3F8FC2042F06C
S315080029608072C3F8FC2076E7183900082C3900086D
S315080029700080E00FC017530200B4C4040080005062
S31508002980C0EA210100ED00E007B5094B18689A88EE
S315080029909B7900906846ADF804208DF80630FFF75D
S315080029A071FB0920FFF7A6FB002003B05DF804FBC6
S315080029B05439000813B50024064A6846536F43F095
S315080029C00103536700948DF80440FFF78FFA2046F9
S315080029D002B010BD0040005010B54C2804460DD872
S315080029E001220A49630904F01F04A240203341F872
S315080029F02320BFF34F8FBFF36F8F10BD40F209112D
S31508002A00034800F052FC002CF7DBE9E700E100E0A0
S31508002A106039000810B54C28044608D80123610916
S31508002A20074A04F01F04A34042F8213010BD4FF4B2
S31508002A308A71044800F039FC002CF7DBEEE700BF8A
S31508002A4000E100E060390008002808DB012243099C
S31508002A50034900F01F008240603341F82320704785
S31508002A6000E100E038B500F110035C2B04460D4682
S31508002A7004D94FF4E1710D4800F017FC1E2D04D956
S31508002A8040F2C311094800F010FC002CACBF04F159
S31508002A906044074B4FEA0515EDB2ABBF04F5614438
S31508002AA004F00F0484F800531D5538BD603900083A
S31508002AB014ED00E010B5044600F0F8FB024B1C606C
S31508002AC000F0F8FB002010BDFC11002010B500F046
S31508002AD0EDFB034B1C6800F0EDFB204610BD00BF64
S31508002AE0FC11002038B53022037A0446534303F11B
S31508002AF0A04303F58023DD6ED0E9032313449D42EA
S31508002B0001D8AA4204D94FF44171054800F0CDFB1B
S31508002B10D4E9030303449D4218BF284638BD00BFC5
S31508002B20E139000830B587B0144605461046FFF768
S31508002B30D9FF6369024683423CBFD4E903315B1877
S31508002B401B1AABB11249049403910021CDE9013156
S31508002B50012300932846D4E9001300F0CEFB20B1E8
S31508002B604FF437710B4800F0A0FB002007B030BDCA
S31508002B700122627694F82D20002AF6D084F83530A2
S31508002B801321E369204698472046636A9847ECE78D
S31508002B90252B0008E139000870B504460568FFF7DB
S31508002BA095FF844202D10020FFF784FF95F936008D
S31508002BB0FFF74AFF95F93600FFF70EFF287AFDF76B
S31508002BC05FFF20B14FF4F371104800F06EFB287ACE
S31508002BD0FDF7BCFE20B14FF4F5710C4800F065FB1B
S31508002BE0FDF792FE38B10A4B984204D04FF4F771BC
S31508002BF0064800F05AFB00232846C4E90033C4E916
S31508002C000433A360AB6ABDE870401847E139000891
S31508002C10058000F02DE9F04788B004460F461646B1
S31508002C20984600F04AFB8146002E00F0AD80237ED0
S31508002C3003F0FF02002B00F0E0802046FFF752FF6A
S31508002C4063698246984206D1637E23B940F28B3186
S31508002C506B4800F02AFB6569AA459DBFD4E9033293
S31508002C609B185D1BAAEB0505B54228BF354600F043
S31508002C7024FB94F82D308246002B40F096802A4695
S31508002C803846616900F0C4FC63692E462B446361CB
S31508002C902CE06069037803F0FD01112940F0828079
S31508002CA0216B884205D1A3F111014B424B4184F8AF
S31508002CB03430013E6369216B01328B4203F1010313
S31508002CC008BF236363619542E3D1D4E90323216BEB
S31508002CD01344994208BF2263216B8A4201D88B426A
S31508002CE004D84FF47071464800F0DFFAD4E903239C
S31508002CF061691344994208BF626161698A4201D8D1
S31508002D008B4204D84FF474713D4800F0CEFA002384
S31508002D10207A6376FDF774FE20B140F21D313848FB
S31508002D2000F0C3FA2046FFF7DDFE636983423FD110
S31508002D300023E568237694F82D30656103B1256391
S31508002D402046636A98472F4B049403930023029303
S31508002D5023692A4601930123009363682168207A30
S31508002D6000F0CBFA20B140F23931254800F09DFA3F
S31508002D70207AFDF765FE20B140F25D31204800F06B
S31508002D8094FA504600F09FFA4846C8F8006000F0EA
S31508002D909AFAD8F80030002B0CBF1B20002008B088
S31508002DA0BDE8F08707F8013B84E72E4600228AE74C
S31508002DB00123207A23760DF11E01FDF7A9FE20B125
S31508002DC04FF453710E4800F070FA9DF81E30207AC1
S31508002DD0002BCDD00DF11F01FDF772FE20B140F298
S31508002DE05231074800F061FA9DF81F10207A002931
S31508002DF0BED12246FFF796FEBAE71646C4E700BFDD
S31508002E00E1390008252B00082DE9F84304460D464C
S31508002E1090F82C80DFF8AC908E18AE4228D094F843
S31508002E202D3083B100F049FA237E07461BBB226B7F
S31508002E3063699A4204D040F20521484600F035FA03
S31508002E40384600F040FA94F83430002BE5D0B8F153
S31508002E50000F06D02B780A2B03D10D212046E369F3
S31508002E6098472046E36915F8011B98470028D4D0EF
S31508002E700020BDE8F8832046FFF734FEE1680138F4
S31508002E80884238BF2069D4F830C03CBF00F1FF3013
S31508002E90401803469C450BD013F80129112A01D086
S31508002EA0132A07D1A2F111035A425A4184F8342051
S31508002EB02063C5E7994282BF236903F1FF335B1894
S31508002EC0E8E700BFE1390008F0B587B00C460646CA
S31508002ED015460021382220461F4600F091FB95E84A
S31508002EE0030000232A692376EB6884E80300C4E913
S31508002EF004232A7DE36084F82C20AA7D236301231A
S31508002F0084F8343084F835300C9B84F82D202362FD
S31508002F100D9BE76163620E9BA3622B7A84F83630B9
S31508002F201C4B346073601C4BB3601C4B33611C4BE9
S31508002F3073611C4BF360FDF72FFD30B11A4B9842B5
S31508002F4003D01024204607B0F0BD002104F1080084
S31508002F50FDF7AAFC0028F4D1144B0494CDE902032A
S31508002F6023690193012300936368E2682168207A44
S31508002F7000F0C3F904460028E3D195F90800FFF7E5
S31508002F8063FD95F90800FFF745FD3046FFF792FD0A
S31508002F90D8E700BF092E0008152C0008C53400081C
S31508002FA0CB340008992B0008038000F0252B000875
S31508002FB02DE9F04186B01C46564B01270293564B25
S31508002FC00C9D01930023904600930A46CDE90377AA
S31508002FD02946524BFFF778FF0646002840F09180B5
S31508002FE023683946AB6363683A20EB63637A85F8EE
S31508002FF04130237A85F84030E37A85F84330A37A5E
S3150800300085F84230637B85F84530237B85F8443064
S31508003010E37B85F84730A37B85F84630FEF72AF927
S315080030203B460422617A207AFFF7D6F83B4602220D
S31508003030E17AA07AFFF7D0F839466068FEF71AF900
S3150800304088F8006041462068FFF70CFB1422637C71
S315080030505B0103F1A04303F57033C3F89827617A3F
S31508003060227A42EA0142C3F8B027E17AA27A42EA12
S315080030700142C3F8A82785F8486098F81930032B49
S3150800308045D8DFE803F03542021C022385F84830AC
S3150800309000230422E17BA07BFFF79EF8022741F27A
S315080030A09871627C1E4B03EB42104750E07BA17B74
S315080030B0BD3241EA004103EB4213596018E001278B
S315080030C085F8483002220023617B207BFFF784F8CD
S315080030D0617B637C227BBD3342EA014210495B0176
S315080030E0CA500422236803F58053DA65002FCFD12E
S315080030F0AA6B0521D36C206843F00403D364FFF759
S3150800310067FA304606B0BDE8F0810027D8E72326DF
S31508003110F7E700BFDD340008D1340008553500084C
S3150800312000C0035008B5064B044613B10021AFF39F
S315080031300080044B1B6803B19847204600F0C1F98C
S31508003140000000000012002070B50D4D00260D4C41
S31508003150641BA410A64209D10B4D00260B4C00F0A7
S315080031606FFA641BA410A64205D170BD55F8043B3E
S3150800317001369847EEE755F8043B01369847F2E7DB
S315080031804012002040120020401200204412002065
S315080031907047704708B500F01BFAFFF7F9FF00F013
S315080031A024FAFFF7F6FFFAE7704708B5FDF736FA8F
S315080031B0BDE8084000F04DB808B500F00CF8BDE8C9
S315080031C00840FDF7F7B87047704770477047704773
S315080031D07047FDF7FDB80F20704770B50025064605
S315080031E02C46052C20D8DFE804F003070B0F13172D
S315080031F05B210820FDF778FA0C210820FDF774FA00
S31508003200D1210820FDF770FA80210820FDF76CFA15
S3150800321000210820FDF768FA6C1C2946E4B208204C
S315080032202546FDF761FA0624A4F10E03012B05D8FD
S315080032305A210820FDF758FA0134D2E7102C05D197
S31508003240BDE870405D210820FDF74EBAB31F195D31
S31508003250EFE708B5082000F039F8BDE8084008206F
S3150800326000F03FB807B5012320F07F4040EA81709F
S31508003270019068468DF80030FFF7AFFF03B05DF8A0
S3150800328004FBFEE710B53AB1002350F8234041F895
S31508003290234001339A42F8D110BD002070474FF4FD
S315080032A0004070474FF47A707047FEE7EFF31080DE
S315080032B072B6704700B962B67047EFF311803023D3
S315080032C083F31188704780F3118870474FF0604286
S315080032D00123D2F8001E83400B430020C2F8003EAB
S315080032E070474FF060410122D1F8003E824023EA40
S315080032F002030020C1F8003E704710B588B00446A6
S315080033000E98009207900D98224606909DF8300078
S3150800331005900B9804909DF8280003900020CDE9AD
S3150800332001300B460121FDF701FA08B010BD70B552
S31508003330054614460E46FFF7B9FF2B685C40344035
S315080033405C402C60BDE87040FFF7B4BF08B5FDF7D8
S31508003350FFF8BDE808400021FDF760BF0029CCBF93
S3150800336001210021FDF75ABF02214FF42070FEF714
S31508003370CFBB38B50446FDF7D9F80546FDF724FC5A
S31508003380C0F102012846FFF7E9FF01210020FEF7F8
S315080033900BFE0CB1FEF74EFCBDE83840FEF7CCB884
S315080033A07047704770B5054614460E46FFF77EFF10
S315080033B02B685C4034405C402C60BDE87040FFF7E9
S315080033C079BF704783695B06FCD5C163704700F017
S315080033D008B809B100F007B8222070470121FFF7A5
S315080033E0ABB90020704770B506460D46FFF765FF76
S315080033F004461E2E55D8DFE806F01019541E21245F
S3150800340054272A542D5430335436393C543F5442A9
S315080034105454455448544B4E5100FDF76DF8002658
S3150800342028602046FFF74FFF304670BD4FF4C07046
S31508003430FDF748FFF3E74FF42070F9E74FF44070C3
S31508003440F6E74FF46070F3E74FF40070F0E74FF4D7
S315080034508060EDE74FF44060EAE74FF4C060E7E7C5
S315080034604FF4F060E4E74FF4B060E1E74FF4D06062
S31508003470DEE74FF41060DBE74FF4E060D8E74FF47F
S31508003480A060D5E74FF41860D2E74FF42860CFE77D
S315080034904FF48070CCE74FF43060C9E74FF42060F2
S315080034A0C6E700202126BBE7FFF770B910B56FF015
S315080034B00404204605210134FFF7D4FA4C2CF8D130
S315080034C010BDFEE780F82C10704790F82C00704766
S315080034D0826BD36C43F00403D364704710B504467B
S315080034E0826B93695906FCD5002394F841101A4655
S315080034F094F84000FEF770FE002394F843101A462D
S3150800350094F84200FEF768FE94F84830DA0707D5C3
S31508003510002394F845101A4694F84400FEF75CFE1A
S3150800352094F848309B0707D5002394F847101A46A5
S3150800353094F84600FEF750FEA06B0021C36C23F0FA
S315080035400403C364FFF744F8E06B0021FDF792FE1D
S31508003550002010BD08B5806BFFF734FF002008BDBA
S3150800356038B50468237EA06B33B9C36C23F0040313
S31508003570C3640123237638BD637E23B394F82D30C4
S315080035800BB30025132184F83550FFF71BFFA36BF7
S31508003590DA6C42F00402DA645B6ADBB2112B0DD1F5
S315080035A0012384F834303022237A534303F1A043AD
S315080035B003F58023DB6E013B2363DCE7132BDAD1AB
S315080035C084F83450EFE7C36C23F00403C364D2E7EE
S315080035D008B5FCF753FEFFF7E8FDFFF7EDFDFFF72B
S315080035E0F2FDBDE80840FFF7EFBD08B5FFF7EDFDB2
S315080035F0FFF7ECFDFFF7EBFDBDE80840FFF7E8BD78
S3150800360002440346934200D1704703F8011BF9E7C9
S315080036100A44431E914200D1704710B511F8014B78
S31508003620914203F8014FF9D110BD000000000000D7
S31508003630000000000000000000000000000000007C
S31508003640F8B500BFF8BC08BC9E467047F8B500BF81
S31508003650F8BC08BC9E4670472E2E2F6175746F679E
S31508003660656E2F736C5F696F73747265616D5F69E0
S315080036706E69745F75736172745F696E7374616E77
S315080036806365732E6300000005000000000000005B
S3150800369000C2010000050000001000000000000044
S315080036A0000000001E000003433A2F55736572732D
S315080036B02F4469617A4D65636F746572722F536919
S315080036C06D706C696369747953747564696F2F5387
S315080036D0444B732F73696D706C69636974795F7392
S315080036E0646B2F706C6174666F726D2F656D6C6993
S315080036F0622F7372632F656D5F636D752E6300436A
S315080037003A2F55736572732F4469617A4D65636FF5
S31508003710746572722F53696D706C69636974795335
S31508003720747564696F2F53444B732F73696D706C8E
S3150800373069636974795F73646B2F706C6174666F03
S31508003740726D2F656D6C69622F7372632F656D5F7D
S31508003750656D752E6300633A5C75736572735C6498
S3150800376069617A6D65636F746572725C73696D7091
S315080037706C696369747973747564696F5C73646B77
S31508003780735C73696D706C69636974795F73646B74
S315080037905C706C6174666F726D5C656D6C69625C99
S315080037A0696E635C656D5F6770696F2E6800433A82
S315080037B02F55736572732F4469617A4D65636F740B
S315080037C06572722F53696D706C6963697479537485
S315080037D07564696F2F53444B732F73696D706C69E9
S315080037E0636974795F73646B2F706C6174666F724A
S315080037F06D2F656D6C69622F7372632F656D5F67D8
S3150800380070696F2E6300FF070F00FF033F00433AFE
S315080038102F55736572732F4469617A4D65636F74AA
S315080038206572722F53696D706C6963697479537424
S315080038307564696F2F53444B732F73696D706C6988
S31508003840636974795F73646B2F706C6174666F72E9
S315080038506D2F656D6C69622F7372632F656D5F6C72
S31508003860646D612E6300633A5C75736572735C649C
S3150800387069617A6D65636F746572725C73696D7080
S315080038806C696369747973747564696F5C73646B66
S31508003890735C73696D706C69636974795F73646B63
S315080038A05C706C6174666F726D5C656D6C69625C88
S315080038B0696E635C656D5F6275732E6800433A2FA7
S315080038C055736572732F4469617A4D65636F7465C4
S315080038D072722F53696D706C696369747953747564
S315080038E064696F2F53444B732F73696D706C6963EA
S315080038F06974795F73646B2F706C6174666F726D2F
S315080039002F656D6C69622F7372632F656D5F7573B2
S315080039106172742E63000000012600000400000096
S315080039200000000000010000000000000B0000007D
S315080039300C0000000300000000002020000000002A
S31508003940020000003C3C3C000000000000000000B3
S315080039500000000001031001010903001A0000001D
S31508003960433A2F55736572732F4469617A4D6563BF
S315080039706F746572722F53696D706C6963697479B7
S3150800398053747564696F2F53444B732F73696D7045
S315080039906C69636974795F73646B2F706C617466A4
S315080039A06F726D2F736572766963652F696E7465BC
S315080039B072727570745F6D616E616765722F73726E
S315080039C0632F736C5F696E746572727570745F6D60
S315080039D0616E616765725F636F727465786D2E6379
S315080039E000433A2F55736572732F4469617A4D65A2
S315080039F0636F746572722F53696D706C696369744D
S31508003A007953747564696F2F53444B732F73696DBB
S31508003A10706C69636974795F73646B2F706C617419
S31508003A20666F726D2F736572766963652F696F733A
S31508003A30747265616D2F7372632F736C5F696F7330
S31508003A40747265616D5F756172742E6300000000A3
S30D08003A50B0C7FF7F010000006A
S31108003A58643A000828120020080000004C
S31508003A64C0EA2101C0EA210100800000C017530200
S31508003A74FFFFFFFF28000000DD010008B50100086C
S70508000419D5
